:020000040800F2
:10000000680B00206D5D0008354300083743000889
:100010003B4300083F430008434300080000000042
:10002000000000000000000000000000474300083E
:1000300049430008000000004B4300084D430008FE
:10004000875D0008875D0008875D0008875D000800
:10005000875D0008875D0008875D0008875D0008F0
:100060000F580008875D0008875D0008875D00085D
:10007000875D0008875D0008875D0008875D0008D0
:10008000875D0008875D0008875D0008875D0008C0
:10009000875D0008875D0008875D0008875D0008B0
:1000A000875D0008875D0008875D0008875D0008A0
:1000B000BF560008C7530008D1490008875D0008F3
:1000C000875D0008875D0008875D0008875D000880
:1000D000875D0008EB5B0008875D0008875D00080E
:1000E000875D0008875D0008875D0008DFF80CD099
:1000F00008F0F0FD00480047A53F0008680B00200D
:1001000001B502E00098401E009000980028F9D147
:1001100008BD0FB430B59BB000241FA80190652125
:1001200002A8019B1E9A08F085FEC5B20EE020468B
:10013000621CD4B202AA115CF74806F0E5FA00BFCF
:100140004021F54806F04EFB0028F9D0642C03DA74
:10015000AC4201DA002DEADC002001901BB030BC7B
:100160005DF814FB70B504460D46ECA1002008F0C4
:1001700069FB05E02278EDA1002008F063FB641C18
:10018000281EA5F10101CDB2F4D1EAA108F05AFB75
:1001900070BD10B504462146DF4806F0B5FA00BF31
:1001A0008021DD4806F01EFB0028F9D010BD70B597
:1001B00004460D460BE02178D74806F0A5FA00BFAB
:1001C0004021D54806F00EFB0028F9D0641C281EFB
:1001D000A5F10101CDB2EED170BD10B504460BE022
:1001E0002178CD4806F090FA00BF4021CA4806F0B9
:1001F000F9FA0028F9D0641C20780028F0D110BD4D
:1002000070B504460D462178C34806F07DFA70BDEE
:1002100010B504462146C8A008F0FCFD10BD10B57D
:1002200002460B460020002103E0545C60404C1C59
:10023000A1B29942F9DB10BD2DE9F04FADF5017D7A
:100240004FF4807141A808F02AFB4FF4807101A897
:1002500008F025FB4FF00009BB480278BBA1002045
:1002600008F0F0FAB8480078083800F0FF094A466C
:10027000BCA1002008F0E6FA4A46BF4901A808F0F0
:10028000F5FA4FF48061BD4805F075FE83464FF4E2
:100290000061BA4805F06FFE4BEA400B4FF4805105
:1002A000B64805F068FE4BEA800B0121B44805F022
:1002B00062FE4BEAC00B1021B14805F05CFE4BEA30
:1002C000001B0821AE4805F056FE4BEA401B0421F6
:1002D000AB4805F050FE4BEA801B0221A84805F010
:1002E0004AFE4BEAC01000F0FF0A9DF80500504599
:1002F00040F07186B9F1050F6FD19DF80400A14956
:1003000008709DF8050048709DF8060088709DF8FB
:100310000700C8709DF808000871042101A8FFF7C4
:100320007EFF05462A4698A1002008F08BFA9548E2
:100330000079A8427DD19348007880287AD08A2815
:1003400079D19048C078112876D18E4880781928C4
:1003500073D2DFE800F0720D27435D7E99B4DFDED3
:10036000DDDCDBDAD9D8D7D6D5D4D3D2D1D0CF0003
:10037000012089490860142005F0E7FA0020874928
:10038000C1F88401142005F0E0FA01217B4805F052
:10039000F2FD04467B488278234681A1002008F0C4
:1003A00051FAF1E201207C4908310860142005F07F
:1003B000CCFA00207949C1F88C01142005F0C5FA67
:1003C00004216E4805F0D7FD04466E488278234626
:1003D00073A1002008F036FAD6E2FDE3012075494A
:1003E0000860142005F0B1FA00207349C1F88401B7
:1003F000142005F0AAFA0121704805F0BCFD04465E
:1004000060488278234666A1002008F01BFABBE210
:100410000120684908310860142005F096FA002090
:100420006549C1F88C01142005F08FFA0421634856
:1004300004E0F6E30AE3F5E301E3A4E205F09BFD43
:10044000044650488278234655A1002008F0FAF966
:100450009AE20120574910310860142005F075FA1E
:1004600000205549C1F89401142005F06EFA1021BE
:10047000524805F080FD044642488278234648A150
:10048000002008F0DFF97FE201204A4918310860B6
:10049000142005F05AFA00204749C1F89C011420A5
:1004A00005F053FA4021454805F065FD04463548FE
:1004B000827823463AA1002008F0C4F964E20120C2
:1004C000354910310860142005F03FFA0020334907
:1004D000C1F89401142005F038FA1021274805F0DE
:1004E0004AFD04462748827823462DA1002008F0C3
:1004F000A9F949E22BE20EE2F1E1D3E1B5E197E19E
:100500007AE15CE13EE120E102E1E4E0C6E0A9E05D
:100510008CE070E054E00000003801407274742DEB
:1005200074656D703D3D3D3D3D00000025303278E5
:10053000200000000A000000726563765F64617449
:10054000613D25780D0A0000940000202D70617235
:1005500073652D55617274315F5278203D2025649A
:100560000A0000002D55617274315F52785F54208B
:100570003D2025640A000000B40100200010014065
:1005800000140140000000206263635F74656D70B9
:10059000203D2025780A00008401224200002242EA
:1005A00025643A6770696F5F6C6576656C203D20E5
:1005B00025780A0084012142000021420008014000
:1005C0000120FC490860142005F0BFF90020FA4919
:1005D000C1F88401142005F0B8F90421F74805F0AA
:1005E000CAFC0446F64882782346AFF24C0100204C
:1005F00008F028F9C8E10120F2490860142005F04C
:10060000A4F90020F049C1F89401142005F09DF9E7
:100610000821EE4805F0AFFC0446E94882782346FD
:10062000AFF28401002008F00DF9ADE10120E549A9
:100630000C390860142005F088F90020E249C1F85F
:100640008801142005F081F91021E04805F093FCA1
:100650000446DB4882782346AFF2BC01002008F054
:10066000F1F891E10120D7490C310860142005F020
:100670006CF90020D449C1F8A001142005F065F9F7
:100680008021D24805F077FC0446CD488278234685
:10069000AFF2F401002008F0D5F875E10120C94956
:1006A00014310860142005F050F90020C649C1F843
:1006B000A801142005F049F94FF40071C34805F072
:1006C0005AFC0446BE4882782346AFF22C11002023
:1006D00008F0B8F858E10120BA491C31086014202C
:1006E00005F033F90020B849C1F8B001142005F035
:1006F0002CF94FF40061B54805F03DFC0446B048C4
:1007000082782346AFF26811002008F09BF83BE1A5
:100710000120AC4924310860142005F016F90020AE
:10072000A949C1F8B801142005F00FF94FF40051A0
:10073000A64805F020FC0446A14882782346AFF283
:10074000A011002008F07EF81EE101209949243113
:100750000860142005F0F9F800209749C1F8A801B5
:10076000142005F0F2F84FF40041984805F003FC1E
:100770000446934882782346AFF2DC11002008F04B
:1007800061F801E101208B492C310860142005F04B
:10079000DCF800208849C1F8B001142005F0D5F834
:1007A0004FF400618A4805F0E6FB044684488278ED
:1007B0002346AFF21421002008F044F8E4E00120C1
:1007C0007C4934310860142005F0BFF800207A49D4
:1007D000C1F8B801142005F0B8F84FF400517C4876
:1007E00005F0C9FB0446764882782346AFF25021D3
:1007F000002008F027F8C7E001207649086014209F
:1008000005F0A3F800207449C1F8A001142005F0F8
:100810009CF84FF400416E4805F0ADFB0446684873
:1008200082782346AFF28821002008F00BF8ABE075
:100830000120684908310860142005F086F800207E
:100840006549C1F8A801142005F07FF84FF4007144
:10085000624805F090FB0446594882782346AFF27F
:10086000C021002007F0EEFF8EE001205949103131
:100870000860142005F069F800205749C1F8B0015C
:10088000142005F062F84FF40061544805F073FB42
:1008900004464B4882782346AFF2FC21002007F043
:1008A000D1FF71E001204B4918310860142005F098
:1008B0004CF800204849C1F8B801142005F045F86B
:1008C0004FF40051454805F056FB04463C488278F9
:1008D0002346AFF23431002007F0B4FF54E001208A
:1008E0003F490860142005F030F800203D49C1F868
:1008F0009801142005F029F84FF40041374805F01D
:100900003AFB04462E4882782346AFF26C31002031
:1009100007F098FF38E001203149083108601420C1
:1009200005F013F800202F49C1F8A001142005F0AC
:100930000CF88021214805F01EFB044620488278EF
:100940002346AFF2A431002007F07CFF1CE0012019
:1009500025490860142004F0F8FF00202349C1F85D
:10096000A001142004F0F1FF4FF40071134805F0CA
:1009700002FB0446124882782346AFF2DC310020A5
:1009800007F060FF00E000BF00BF19A000684190C1
:100990000B4800788DF80801094840788DF8090166
:1009A000074880788DF80A01012C25D111208DF897
:1009B0000B0124E08481214200802142001001408B
:1009C000000000209401234200002342001801404F
:1009D000000C0140A081224200802242001401400C
:1009E0009801224200002242A0012142000021423F
:1009F000737461720000000000208DF80B01042167
:100A000042A8FFF70CFC05468DF80C51FEA00188AA
:100A1000ADF80D1180788DF80F0100208DF81001D0
:100A20000C2141A8FFF7C3FB0C2141A8FFF79AFB5B
:100A3000F6480278F6A1002007F004FF05E0F3482D
:100A40000278F9A1002007F0FDFE49E2EF48C078E6
:100A500033287DD1ED48807800287AD10121F948EA
:100A600005F089FA83460421F64805F084FA4BEA3A
:100A7000400B0121F44805F07EFA4BEA800B04217B
:100A8000F14805F078FA4BEAC00B1021EE4805F06A
:100A900072FA4BEA001B4021EB4805F06CFA4BEA76
:100AA000401B1021E74805F066FA4BEA801B012144
:100AB000E64805F060FA4BEAC010C6B20821E448E7
:100AC00005F059FA83461021E14805F054FA4BEA43
:100AD000400B8021DE4805F04EFA4BEA800B4FF4C4
:100AE0000071DB4805F047FA4BEAC00B4FF4006198
:100AF000D74805F040FA4BEA001B4FF40051D448A8
:100B000005F039FA4BEA401B4FF40041D04805F09C
:100B100032FA4BEA801B4FF40061CC4805F02BFA07
:100B20004BEAC010C7B24FF40051C84805F023FA91
:100B300083464FF40041C54805F01DFA4BEA400BCF
:100B40004FF40071C34805F016FA4BEA800B01E040
:100B5000BDE168E04FF40061BE4805F00CFA4BEAD5
:100B6000C00B4FF40051BB4805F005FA4BEA001BDF
:100B70004FF40041B74805F0FEF94BEA401B8021D5
:100B8000B04805F0F8F94BEA801B4FF40071AD480E
:100B900005F0F1F94BEAC01000F0FF083246AEA1B3
:100BA000002007F04FFE3A46B0A1002007F04AFEB1
:100BB0004246B3A1002007F045FEAFF2CC1000681A
:100BC0004190924800788DF80801904840788DF85F
:100BD00009018DF80A6100E091E18DF80B718DF843
:100BE0000C81052142A8FFF71AFB05468DF80D512F
:100BF00085A00188ADF80E1180788DF810010020D5
:100C00008DF810010C2141A8FFF7D1FA0C2141A861
:100C1000FFF7A8FA7D4802787DA1002007F012FEB8
:100C20005CE165E15BE179488078192873D2DFE8FF
:100C300000F0AA0D13191F252B31373D43494F569C
:100C40005D646B737A81888F969DA30001217D4836
:100C500005F091F9044697E004217A4805F08BF9F4
:100C6000044691E00121784805F085F904468BE0BF
:100C70000421754805F07FF9044685E0102172488B
:100C800005F079F904467FE040216F4805F073F9DB
:100C9000044600BF10216B4805F06DF9044673E06F
:100CA00001216A4805F067F904466DE008216848AB
:100CB00005F061F9044667E01021654805F05BF92D
:100CC000044661E08021624805F055F904465BE086
:100CD0004FF400715E4805F04EF9044654E04FF4BD
:100CE00000615B4805F047F904464DE04FF40051C0
:100CF000574805F040F9044646E04FF40041544897
:100D000005F039F9044600BF4FF400614F4805F083
:100D100032F9044638E036E04FF400514B4805F014
:100D20002AF9044630E04FF40041484805F023F921
:100D3000044629E04FF40071464805F01CF90446CA
:100D400022E04FF40061434805F015F904461BE02A
:100D50004FF400513F4805F00EF9044614E04FF4FB
:100D600000413C4805F007F904460DE08021354874
:100D700005F001F9044607E04FF40071314805F031
:100D8000FAF8044600E000BF00BF204882782346FE
:100D900040A1002007F056FDAFF2AC300068419052
:100DA0001A4800788DF80801184840788DF8090134
:100DB000164880788DF80A01012C03D111208DF896
:100DC0000B0102E000208DF80B01042142A8FFF77F
:100DD00026FA05468DF80C510BA00188ADF80D11CF
:100DE00080788DF80F0100208DF810010C2141A8AA
:100DF000FFF7DDF90C2141A8FFF7B4F903480278A9
:100E00002AA1002060E00000656E64000000002060
:100E10006F6B2C6D5F646174612E6F70636F6465BE
:100E20003D253032780A00006572726F722D322CC7
:100E30006D5F646174612E6F70636F64653D253012
:100E400032780A000010014000080140000C014007
:100E500000180140001401406772705F6C65766590
:100E60006C5F31203D2025780A0000006772705FBA
:100E70006C6576656C5F32203D2025780A000000A5
:100E80006772705F6C6576656C5F33203D202578F6
:100E90000A0000002D2D25643A6770696F5F6C654C
:100EA00076656C203D2025780A0000002D2D6F6BA3
:100EB0002C6D5F646174612E6F70636F64653D2596
:100EC0003032780A0000000007F0BCFC06E0F84869
:100ED0000278AFF2AC01002007F0B4FC00E000BFE4
:100EE00000BFF3480279F3A1002007F0ABFC72E0E9
:100EF000EF480279F4A1002007F0A4FC6BE0B9F1FF
:100F0000030F68D19DF80400E94908709DF80500B9
:100F100048709DF806000871022101A8FFF77FF9CB
:100F200005462A46AFF6A011002007F08BFCE048EA
:100F30000079A84249D1DE480078912814D006DC17
:100F4000702829D071282FD0902835D104E092281C
:100F500012D0932830D117E0D5480278AFF2501163
:100F6000002007F06FFC28E0D1480278AFF2601152
:100F7000002007F067FC20E0CD480278AFF2701146
:100F8000002007F05FFC18E0C9480278AFF280113A
:100F9000002007F057FC10E0C5480278AFF290112E
:100FA000002007F04FFC08E0C1480278AFF2A01122
:100FB000002007F047FC00E000BF00BFBC480279FA
:100FC000BCA1002007F03EFC05E0B9480279BEA1B3
:100FD000002007F037FC0DF5017DBDE8F08F0128FA
:100FE00005D1C0490968491CBE4A116006E00228C3
:100FF00004D1BD490968491CBB4A1160704770B5EE
:10100000C0B04FF48071684607F049FC4FF480612E
:10101000B64804F0B0FF06464FF40061B34804F050
:10102000AAFF46EA40064FF48051B04804F0A3FFFF
:1010300046EA80060121AE4804F09DFF46EAC0065C
:101040001021AB4804F097FF46EA00160821A84893
:1010500004F091FF46EA40160421A54804F08BFFF6
:1010600046EA80160221A24804F085FF46EAC01035
:10107000C4B2A0480078002868D101219B4804F040
:101080007AFF002862D14FF47A70FFF739F84FF4F5
:101090000061994804F089FF4FF47A70FFF730F847
:1010A0000A2004F052FC0121904804F064FF00285B
:1010B0003FD1224691A107F0C5FB8E48027894A14A
:1010C000002007F0BFFB01208A490870AFF2E06002
:1010D0000068009060208DF804008DF80540012024
:1010E0008DF806000121814804F045FF012803D155
:1010F00011208DF8070002E000208DF80700042180
:1011000001A8FFF78CF805468DF80850AFF20830BB
:101110000188ADF8091080788DF80B0000208DF85B
:101120000C000C216846FFF742F80C216846FFF7D7
:1011300019F84FF47A70FEF7E3FF4FF400616E4840
:1011400004F035FF4FF47A70FEF7DAFF6948007853
:10115000002869D00121654804F00DFF012863D102
:101160004FF47A70FEF7CCFF4FF40061624804F050
:101170001CFF4FF47A70FEF7C3FF0A2004F0E5FB72
:1011800001215A4804F0F7FE012840D122465BA114
:10119000002007F057FB5748027863A1002007F0B2
:1011A00051FB002053490870AFF2BC7000680090FA
:1011B00060208DF804008DF8054001208DF80600B0
:1011C00001214A4804F0D7FE012803D111208DF8EF
:1011D000070002E000208DF80700042101A8FFF7B6
:1011E0001EF805468DF80850AFF2E4300188ADF8DE
:1011F000091080788DF80B0000208DF80C000C2170
:101200006846FEF7D4FF0C216846FEF7ABFF4FF4AB
:101210007A70FEF775FF4FF40061374804F0C7FE9F
:101220004FF47A70FEF76CFF4448007800283ED1F6
:1012300004212E4804F09FFE002838D14FF47A7024
:10124000FEF75EFF4FF400612B4804F0AEFE4FF452
:101250007A70FEF755FF0A2004F077FB042123483B
:1012600004F089FE002877D1224624A107F0EAFA8B
:101270003248027832A1002007F0E4FA01202F4919
:101280000870AFF694000068009060208DF80400AC
:101290008DF8054002208DF806000421134804F063
:1012A0006AFE012859D111208DF8070058E07EE030
:1012B000000000206D5F646174612E626363203DF5
:1012C0002025780A000000006572726F722D312DA2
:1012D0006D5F646174612E626363203D2025780A2E
:1012E00000000000080000200C0000200010014059
:1012F000001401401900002000080140626F617273
:10130000645F61646472203D20253032780A0000F9
:10131000636C6F73652D6B6579315F666C61673DDA
:101320002025640A000000006F70656E2D6B6579E2
:10133000315F666C61673D2025640A001A00002059
:10134000636C6F73652D6B6579325F666C61673DA9
:101350002025640A000000001CE000208DF8070032
:10136000042101A8FEF75BFF05468DF80850AFF297
:1013700068500188ADF8091080788DF80B000020C6
:101380008DF80C000C216846FEF711FF0C21684611
:10139000FEF7E8FE4FF47A70FEF7B2FE4FF40061FC
:1013A000FE4804F004FE4FF47A70FEF7A9FEFC48F4
:1013B000007800286AD00421FA4804F0DCFD0128F6
:1013C00064D14FF47A70FEF79BFE4FF40061F3484E
:1013D00004F0EBFD4FF47A70FEF792FE0A2004F061
:1013E000B4FA0421EF4804F0C6FD012841D1224699
:1013F000AFF2F801002007F025FAE9480278EAA1E7
:10140000002007F01FFA0020E5490870AFF6202001
:101410000068009060208DF804008DF805400220DF
:101420008DF806000421DF4804F0A5FD012803D152
:1014300011208DF8070002E000208DF8070004213C
:1014400001A8FEF7ECFE05468DF80850AFF24860A3
:101450000188ADF8091080788DF80B0000208DF818
:101460000C000C216846FEF7A2FE0C216846FEF730
:1014700079FE4FF47A70FEF743FE4FF40061C748DF
:1014800004F095FD4FF47A70FEF73AFECB480078F1
:10149000002869D10121C14804F06DFD002863D105
:1014A0004FF47A70FEF72CFE4FF40061BB4804F055
:1014B0007CFD4FF47A70FEF723FE0A2004F045FA13
:1014C0000121B64804F057FD002840D12246AFF272
:1014D000D41107F0B7F9B9480278B9A1002007F094
:1014E000B1F90120B5490870AFF6FC200068009002
:1014F00060208DF804008DF8054003208DF806006B
:101500000121A64804F037FD012803D111208DF8F0
:10151000070002E000208DF80700042101A8FEF773
:101520007EFE05468DF80850AFF224700188ADF8B4
:10153000091080788DF80B0000208DF80C000C212C
:101540006846FEF734FE0C216846FEF70BFE4FF4AA
:101550007A70FEF7D5FD4FF40061904804F027FD46
:101560004FF47A70FEF7CCFD9448007800286AD0DA
:1015700001218A4804F0FFFC012864D14FF47A70FD
:10158000FEF7BEFD4FF40061844804F00EFD4FF4F9
:101590007A70FEF7B5FD0A2004F0D7F901217F48E3
:1015A00004F0E9FC012841D12246AFF2B02100202D
:1015B00007F048F98148027887A1002007F042F936
:1015C00000207E490870AFF6D83000680090602097
:1015D0008DF804008DF8054003208DF806000121E8
:1015E0006E4804F0C8FC012803D111208DF80700D3
:1015F00002E000208DF80700042101A8FEF70FFE8D
:1016000005468DF80850AFF600000188ADF80910C6
:1016100080788DF80B0000208DF80C000C216846B6
:10162000FEF7C5FD0C216846FEF79CFD4FF47A706D
:10163000FEF766FD4FF40061584804F0B8FC4FF423
:101640007A70FEF75DFD69480078002869D10421B1
:10165000524804F090FC002863D14FF47A70FEF7F2
:101660004FFD4FF400614D4804F09FFC4FF47A7039
:10167000FEF746FD0A2004F068F90421474804F00B
:101680007AFC002840D12246AFF2903107F0DAF818
:101690005648027856A1002007F0D4F8012053499B
:1016A0000870AFF6B4400068009060208DF8040028
:1016B0008DF8054004208DF806000421374804F019
:1016C0005AFC012803D111208DF8070002E0002008
:1016D0008DF80700042101A8FEF7A1FD05468DF84D
:1016E0000850AFF6DC000188ADF8091080788DF85D
:1016F0000B0000208DF80C000C216846FEF757FD0A
:101700000C216846FEF72EFD4FF47A70FEF7F8FCC8
:101710004FF40061214804F04AFC4FF47A70FEF760
:10172000EFFC32480078002878D004211B4804F0F0
:1017300022FC012872D14FF47A70FEF7E1FC4FF4DD
:101740000061164804F031FC4FF47A70FEF7D8FCC3
:101750000A2004F0FAF80421104804F00CFC0128D7
:101760007ED12246AFF26C41002007F06BF81F4893
:10177000027825A1002007F065F800201B490870B9
:10178000AFF694500068009060208DF804008DF84A
:10179000054004208DF80600042140E000080140C7
:1017A0001A000020001001406F70656E2D6B657986
:1017B000325F666C61673D2025640A001B000020D3
:1017C000636C6F73652D6B6579335F666C61673D24
:1017D0002025640A000000006F70656E2D6B65792E
:1017E000335F666C61673D2025640A001C000020A1
:1017F000636C6F73652D6B6579345F666C61673DF3
:101800002025640A000000006F70656E2D6B6579FD
:10181000345F666C61673D2025640A0034E0FE4851
:1018200004F0A9FB012803D111208DF8070002E084
:1018300000208DF80700042101A8FEF7F0FC054602
:101840008DF80850AFF640200188ADF80910807877
:101850008DF80B0000208DF80C000C21684600E08C
:1018600005E0FEF7A4FC0C216846FEF77BFC4FF474
:101870007A70FEF745FC4FF40061E74804F097FBEF
:101880004FF47A70FEF73CFCE448007800286BD1F6
:101890001021E14804F06FFB002865D14FF47A7005
:1018A000FEF72EFC4FF40061DB4804F07EFB4FF4A2
:1018B0007A70FEF725FC0A2004F047F81021D6487C
:1018C00004F059FBF0BB2246AFF2D051002006F0E5
:1018D000B9FFD2480278D2A1002006F0B3FF012060
:1018E000CE490870AFF6F8600068009060208DF86F
:1018F00004008DF8054005208DF806001021C6482B
:1019000004F039FB012803D111208DF8070002E013
:1019100000208DF80700042101A8FEF780FC054691
:101920008DF80850AFF620300188ADF809108078A6
:101930008DF80B0000208DF80C000C216846FEF796
:1019400036FC00E003E00C216846FEF70BFC4FF488
:101950007A70FEF7D5FB4FF40061AF4804F027FB27
:101960004FF47A70FEF7CCFBAC48007800286AD0C0
:101970001021A94804F0FFFA012864D14FF47A70CD
:10198000FEF7BEFB4FF40061A34804F00EFB4FF4DA
:101990007A70FEF7B5FB0A2003F0D7FF10219E48AE
:1019A00004F0E9FA012841D12246AFF2B0610020EB
:1019B00006F048FF994802789FA1002006F042FFF8
:1019C000002096490870AFF6D8700068009060203B
:1019D0008DF804008DF8054005208DF806001021D3
:1019E0008D4804F0C8FA012803D111208DF80700B2
:1019F00002E000208DF80700042101A8FEF70FFC8B
:101A000005468DF80850AFF600400188ADF8091082
:101A100080788DF80B0000208DF80C000C216846B2
:101A2000FEF7C5FB0C216846FEF79CFB4FF47A706D
:101A3000FEF766FB4FF40061774804F0B8FA4FF404
:101A40007A70FEF75DFB8148007800286AD140215A
:101A5000714804F090FA002864D14FF47A70FEF7D0
:101A60004FFB4FF400616C4804F09FFA4FF47A701A
:101A7000FEF746FB0A2003F068FF4021664804F0A9
:101A80007AFAE8BB2246AFF28C71002006F0DAFE4B
:101A90006E4802786EA1002006F0D4FE01206B494A
:101AA000087071480068009060208DF804008DF87F
:101AB000054006208DF806004021574804F05BFAE7
:101AC000012803D111208DF8070002E000208DF8D5
:101AD0000700042101A8FEF7A2FB05468DF8085077
:101AE000AFF6DC400188ADF8091080788DF80B0066
:101AF00000208DF80C000C216846FEF758FB00E032
:101B000003E00C216846FEF72DFB4FF47A70FEF7D8
:101B1000F7FA4FF40061404804F049FA4FF47A7044
:101B2000FEF7EEFA49480078002869D040213A488B
:101B300004F021FA012863D14FF47A70FEF7E0FA3D
:101B40004FF40061344804F030FA4FF47A70FEF735
:101B5000D7FA0A2003F0F9FE40212F4804F00BFACF
:101B6000012840D12246AFF66C01002006F06AFE43
:101B7000364802783DA1002006F064FE002033497B
:101B8000087039480068009060208DF804008DF8D6
:101B9000054006208DF8060040211F4804F0EBF9AF
:101BA000012803D111208DF8070002E000208DF8F4
:101BB0000700042101A8FEF732FB05468DF8085006
:101BC000AFF6BC500188ADF8091080788DF80B0095
:101BD00000208DF80C000C216846FEF7E8FA0C2175
:101BE0006846FEF7BFFA4FF47A70FEF789FA4FF4B1
:101BF0000061094804F0DBF94FF47A70FEF780FACF
:101C00001F480078002878D110211E4804F0B3F94D
:101C1000002872D138E00000000801401D000020BB
:101C2000636C6F73652D6B6579355F666C61673DBD
:101C30002025640A000000006F70656E2D6B6579C9
:101C4000355F666C61673D2025640A001E00002038
:101C5000636C6F73652D6B6579365F666C61673D8C
:101C60002025640A00000000F00900086F70656E0E
:101C70002D6B6579365F666C61673D2025640A00CF
:101C80001F000020001001404FF47A70FEF738FA70
:101C90004FF40061F54804F088F94FF47A70FEF7CC
:101CA0002FFA0A2003F051FE1021F14804F063F9E5
:101CB000F0BB2246AFF6BC11002006F0C3FDED4894
:101CC0000278EDA1002006F0BDFD0120E949087071
:101CD000EF480068009060208DF804008DF8054002
:101CE00007208DF806001021E14804F044F901288E
:101CF00004D111208DF8070003E02BE000208DF8BF
:101D00000700042101A8FEF78AFA05468DF808505D
:101D1000AFF60C700188ADF8091080788DF80B00D3
:101D200000208DF80C000C216846FEF740FA00E018
:101D300003E00C216846FEF715FA4FF47A70FEF7BF
:101D4000DFF94FF40061C94804F031F94FF47A70BB
:101D5000FEF7D6F9C7480078002869D01021C4489A
:101D600004F009F9012863D14FF47A70FEF7C8F93D
:101D70004FF40061BD4804F018F94FF47A70FEF793
:101D8000BFF90A2003F0E1FD1021B94804F0F3F88F
:101D9000012840D12246AFF69C21002006F052FDDA
:101DA000B4480278BBA1002006F04CFD0020B149E8
:101DB0000870B7480068009060208DF804008DF826
:101DC000054007208DF806001021A94804F0D3F83B
:101DD000012803D111208DF8070002E000208DF8C2
:101DE0000700042101A8FEF71AFA05468DF80850ED
:101DF000AFF6EC700188ADF8091080788DF80B0013
:101E000000208DF80C000C216846FEF7D0F90C215B
:101E10006846FEF7A7F94FF47A70FEF771F94FF4B0
:101E20000061924804F0C3F84FF47A70FEF768F945
:101E30009D480078002869D101219C4804F09BF856
:101E4000002863D14FF47A70FEF75AF94FF400611D
:101E5000864804F0AAF84FF47A70FEF751F90A2088
:101E600003F073FD0121914804F085F8F0BB224690
:101E7000AFF67831002006F0E5FC8B4802788CA1A3
:101E8000002006F0DFFC01208749087080480068C8
:101E9000009060208DF804008DF8054008208DF832
:101EA00006000121814804F066F8012803D11120C1
:101EB0008DF8070002E000208DF80700042101A83A
:101EC000FEF7ADF905468DF808507F480188ADF85A
:101ED000091080788DF80B0000208DF80C000C2183
:101EE0006846FEF764F90C21684600E001E0FEF761
:101EF00039F94FF47A70FEF703F94FF400615B484B
:101F000004F055F84FF47A70FEF7FAF86648007856
:101F1000002868D00121654804F02DF8012862D11D
:101F20004FF47A70FEF7ECF84FF400614F4804F07C
:101F30003CF84FF47A70FEF7E3F80A2003F005FD51
:101F400001215A4804F017F801283FD12246AFF684
:101F50005441002006F076FC534802785BA1002033
:101F600006F070FC00205049087049480068009055
:101F700060208DF804008DF8054008208DF80600DB
:101F800001214A4803F0F7FF012803D111208DF801
:101F9000070002E000208DF80700042101A8FEF7E9
:101FA0003EF905468DF8085047480188ADF80910FC
:101FB00080788DF80B0000208DF80C000C2168460D
:101FC000FEF7F5F80C216846FEF7CCF84FF47A706E
:101FD000FEF796F84FF40061244803F0E8FF4FF451
:101FE0007A70FEF78DF83E480078E8BB08213D483E
:101FF00003F0C1FFC0BB4FF47A70FEF781F84FF4D5
:1020000000611A4803F0D1FF4FF47A70FEF778F8B8
:102010000A2003F09AFC0821324803F0ACFF20BBF1
:102020002246AFF62851002006F00CFC2C4802781E
:102030002DA1002006F006FC012029490870144853
:102040000068009060208DF804008DF8054009209C
:102050008DF806000821234803F08DFF01284FD199
:1020600011208DF807004EE073E065E000080140A4
:10207000001001401F000020636C6F73652D6B65BD
:1020800079375F666C61673D2025640A00000000B7
:10209000F00900086F70656E2D6B6579375F666CAF
:1020A00061673D2025640A0020000020000C0140EB
:1020B000636C6F73652D6B6579385F666C61673D26
:1020C0002025640A00000000080E00086F70656E8D
:1020D0002D6B6579385F666C61673D2025640A0069
:1020E0002100002000180140636C6F73652D6B6543
:1020F00079395F666C61673D2025640A0000000045
:1021000000208DF80700042101A8FEF788F8054695
:102110008DF80850FC480188ADF8091080788DF8DA
:102120000B0000208DF80C000C216846FEF73FF8EC
:102130000C216846FEF716F84FF47A70FDF7E0FFC1
:102140004FF40061F14803F032FF4FF47A70FDF76D
:10215000D7FFEF480078E8B30821EE4803F00BFF03
:10216000012864D14FF47A70FDF7CAFF4FF4006183
:10217000E64803F01AFF4FF47A70FDF7C1FF0A201A
:1021800003F0E3FB0821E34803F0F5FE012841D109
:102190002246AFF69861002006F054FBDC48027836
:1021A000DDA1002006F04EFB0020D9490870DF4871
:1021B0000068009060208DF804008DF8054009202B
:1021C0008DF806000821D34803F0D5FE012805D17B
:1021D000112000E02BE08DF8070002E000208DF8D0
:1021E0000700042101A8FEF71AF805468DF80850EB
:1021F000C5480188ADF8091080788DF80B000020E3
:102200008DF80C000C216846FDF7D1FF0C216846C3
:10221000FDF7A8FF4FF47A70FDF772FF4FF40061ED
:10222000BA4803F0C4FE4FF47A70FDF769FFC04866
:102230000078E8BB1021B74803F09DFEC0BB4FF407
:102240007A70FDF75DFF4FF40061B04803F0ADFE1A
:102250004FF47A70FDF754FF0A2003F076FB10214B
:10226000AC4803F088FEE8BB2246AFF67071002050
:1022700006F0E8FAAE480278AEA1002006F0E2FAD5
:102280000120AB490870A9480068009060208DF8D3
:1022900004008DF805400A208DF8060010219D48A5
:1022A00003F069FE012804D111208DF8070003E036
:1022B0002AE000208DF80700042101A8FDF7AFFFF8
:1022C00005468DF8085090480188ADF809108078CF
:1022D0008DF80B0000208DF80C000C216846FDF7EE
:1022E00066FF00E003E00C216846FDF73BFF4FF47A
:1022F0007A70FDF705FF4FF40061844803F057FE44
:102300004FF47A70FDF7FCFE89480078F0B3102195
:10231000804803F030FE012862D14FF47A70FDF757
:10232000EFFE4FF40061794803F03FFE4FF47A70FE
:10233000FDF7E6FE0A2003F008FB1021754803F0C4
:102340001AFE01283FD122468049002006F07AFA81
:10235000774802787EA1002006F074FA00207449C4
:10236000087072480068009060208DF804008DF8B5
:1023700005400A208DF806001021664803F0FBFD99
:10238000012804D111208DF8070003E028E0002087
:102390008DF80700042101A8FDF741FF05468DF8DF
:1023A000085059480188ADF8091080788DF80B0065
:1023B00000208DF80C000C216846FDF7F8FE0C217A
:1023C0006846FDF7CFFE4FF47A70FDF799FE4FF4A3
:1023D00000614E4803F0EBFD4FF47A70FDF790FE7C
:1023E00061480078E0BB80214A4803F0C4FDB8BBD7
:1023F0004FF47A70FDF784FE4FF40061434803F018
:10240000D4FD4FF47A70FDF77BFE0A2003F09DFAAD
:102410008021404803F0AFFDF0BB22464B4900202D
:1024200006F010FA5048027850A1002006F00AFA8F
:1024300001204D4908703D480068009060208DF8EB
:1024400004008DF805400B208DF8060080213148EE
:1024500003F091FD012804D111208DF8070003E05D
:102460002AE000208DF80700042101A8FDF7D7FE1F
:1024700005468DF8085024480188ADF80910807889
:102480008DF80B0000208DF80C000C216846FDF73C
:102490008EFE0C21684600E001E0FDF763FE4FF47C
:1024A0007A70FDF72DFE4FF40061184803F07FFDB0
:1024B0004FF47A70FDF724FE2B48007818B3802182
:1024C000144803F058FD01281DD14FF47A70FDF730
:1024D00017FE4FF400610D4803F067FD4FF47A706A
:1024E000FDF70EFE0A2003F030FA8021094803F0C0
:1024F00042FD01287DD122461449002006F0A2F9B0
:10250000194802783EE084E0080E00080008014007
:1025100021000020001801406F70656E2D6B6579F9
:10252000395F666C61673D2025640A00F009000888
:1025300022000020636C6F73652D6B657931305F0D
:10254000666C61673D2025640A000000FC120008EB
:102550006F70656E2D6B657931305F666C61673DBC
:102560002025640A0000000023000020636C6F73C4
:10257000652D6B657931315F666C61673D2025643F
:102580000A000000FAA1002006F05CF90020FE49D4
:102590000870FE480068009060208DF804008DF8F7
:1025A00005400B208DF806008021F94803F0E3FC7C
:1025B000012803D111208DF8070002E000208DF8DA
:1025C0000700042101A8FDF72AFE05468DF80850F2
:1025D000F0480188ADF8091080788DF80B000020D4
:1025E0008DF80C000C216846FDF7E1FD0C216846D2
:1025F00000E001E0FDF7B6FD4FF47A70FDF780FDD5
:102600004FF40061E44803F0D2FC4FF47A70FDF718
:1026100077FDE2480078E8BB4FF40071DC4803F036
:10262000AAFCB8BB4FF47A70FDF76AFD4FF4006165
:10263000D94803F0BAFC4FF47A70FDF761FD0A2027
:1026400003F083F94FF40071D14803F094FCE0BB30
:102650002246D349002006F0F5F8D0480278D1A1EF
:10266000002006F0EFF80120CC490870C748006848
:10267000009060208DF804008DF805400C208DF846
:1026800006004FF40071C24803F075FC012805D123
:10269000112000E02DE08DF8070002E000208DF809
:1026A0000700042101A8FDF7BAFD05468DF8085082
:1026B000B8480188ADF8091080788DF80B0000202B
:1026C0008DF80C000C21684600E005E0FDF76FFD79
:1026D0000C216846FDF746FD4FF47A70FDF710FDBA
:1026E0004FF40061AC4803F062FC4FF47A70FDF7E0
:1026F00007FDAA480078E8B34FF40071A44803F03E
:102700003AFC012865D14FF47A70FDF7F9FC4FF4DB
:102710000061A14803F049FC4FF47A70FDF7F0FC2A
:102720000A2003F012F94FF40071994803F023FCDA
:10273000012841D122469A49002006F083F89748A3
:1027400002789EA1002006F07DF8002093490870D1
:102750008E480068009060208DF804008DF80540D8
:102760000C208DF806004FF40071894803F003FC3B
:10277000012800E02DE003D111208DF8070002E0D0
:1027800000208DF80700042101A8FDF748FD05464B
:102790008DF808507F480188ADF8091080788DF8D1
:1027A0000B0000208DF80C000C216846FDF7FFFCA3
:1027B0000C216846FDF7D6FC4FF47A70FDF7A0FCBB
:1027C0004FF40061744803F0F2FB4FF47A70FDF7A8
:1027D00097FC80480078E8BB4FF400616C4803F038
:1027E000CAFBB8BB4FF47A70FDF78AFC4FF4006166
:1027F000694803F0DAFB4FF47A70FDF781FC0A2098
:1028000003F0A3F84FF40061614803F0B4FBE0BBB0
:1028100022466349002006F015F86E4802786EA142
:10282000002006F00FF801206A4908705748006838
:10283000009060208DF804008DF805400D208DF883
:1028400006004FF40061524803F095FB012805D1C2
:10285000112000E02DE08DF8070002E000208DF847
:102860000700042101A8FDF7DAFC05468DF80850A1
:1028700048480188ADF8091080788DF80B000020D9
:102880008DF80C000C21684600E005E0FDF78FFC98
:102890000C216846FDF766FC4FF47A70FDF730FCBA
:1028A0004FF400613C4803F082FB4FF47A70FDF76F
:1028B00027FC48480078E8B34FF40061344803F03F
:1028C0005AFB012836D14FF47A70FDF719FC4FF40A
:1028D0000061314803F069FB4FF47A70FDF710FC9A
:1028E0000A2003F032F84FF40061294803F043FB5B
:1028F00001283BD122462A49002005F0A3FF354894
:1029000002783BA1002005F09DFF002031490870AE
:102910001E480068009060208DF804008DF8054086
:102920000D208DF806004FF40061194803F023FBD9
:10293000012800E07CE003D111208DF8070002E0BF
:1029400000208DF80700042101A8FDF768FC05466A
:102950008DF808500F480188ADF8091080788DF87F
:102960000B0000208DF80C000C214DE053E000001E
:102970006F70656E2D6B657931315F666C61673D97
:102980002025640A0000000023000020F009000850
:1029900000180140080E0008000801402400002033
:1029A000FC120008636C6F73652D6B657931325FC3
:1029B000666C61673D2025640A0000006F70656EDB
:1029C0002D6B657931325F666C61673D2025640A45
:1029D0000000000025000020636C6F73652D6B659F
:1029E0007931335F666C61673D2025640A00000021
:1029F0006F70656E2D6B657931335F666C61673D15
:102A00002025640A000000006846FDF7D0FB0C2179
:102A10006846FDF7A7FB4FF47A70FDF771FB4FF4A2
:102A20000061FE4803F0C3FA4FF47A70FDF768FBCB
:102A3000FB480078E8BB4FF40051FA4803F09BFADA
:102A4000B8BB4FF47A70FDF75BFB4FF40061F348BD
:102A500003F0ABFA4FF47A70FDF752FB0A2002F054
:102A600074FF4FF40051EF4803F085FAF0BB2246A3
:102A7000ED49002005F0E6FEE9480278EBA10020D0
:102A800005F0E0FE0120E6490870EE48006800907D
:102A900060208DF804008DF805400E208DF80600AA
:102AA0004FF40051DF4803F066FA012805D11120E8
:102AB00000E02DE08DF8070002E000208DF807000F
:102AC000042101A8FDF7ABFB05468DF80850DE4850
:102AD0000188ADF8091080788DF80B0000208DF882
:102AE0000C000C216846FDF762FB00E003E00C21BE
:102AF0006846FDF737FB4FF47A70FDF701FB4FF4A2
:102B00000061C64803F053FA4FF47A70FDF7F8FA03
:102B1000C3480078F0B34FF40051C24803F02BFAD9
:102B2000012865D14FF47A70FDF7EAFA4FF400619D
:102B3000BA4803F03AFA4FF47A70FDF7E1FA0A2046
:102B400002F003FF4FF40051B64803F014FA0128D5
:102B500041D12246B449002005F074FEB048027805
:102B6000BAA1002005F06EFE0020AD490870B548FE
:102B70000068009060208DF804008DF805400E205C
:102B80008DF806004FF40051A64803F0F4F901282F
:102B900005D100E02CE011208DF8070002E00020B4
:102BA0008DF80700042101A8FDF739FB05468DF8D3
:102BB0000850A5480188ADF8091080788DF80B0001
:102BC00000208DF80C000C216846FDF7F0FA0C216E
:102BD0006846FDF7C7FA4FF47A70FDF791FA4FF4A3
:102BE00000618E4803F0E3F94FF47A70FDF788FA3C
:102BF0009C480078E8BB4FF400418A4803F0BBF9D9
:102C0000B8BB4FF47A70FDF77BFA4FF4006183484C
:102C100003F0CBF94FF47A70FDF772FA0A2002F054
:102C200094FE4FF400417F4803F0A5F9F0BB224623
:102C30007D49002005F006FE8A4802788AA100201E
:102C400005F000FE0120874908707E48006800906A
:102C500060208DF804008DF805400F208DF80600E7
:102C60004FF400416F4803F086F9012805D1112087
:102C700000E02DE08DF8070002E000208DF807004D
:102C8000042101A8FDF7CBFA05468DF808506E48DF
:102C90000188ADF8091080788DF80B0000208DF8C0
:102CA0000C000C216846FDF782FA00E003E00C21DD
:102CB0006846FDF757FA4FF47A70FDF721FA4FF4A2
:102CC0000061564803F073F94FF47A70FDF718FA73
:102CD00064480078F0B34FF40041524803F04BF9D8
:102CE000012865D14FF47A70FDF70AFA4FF40061BC
:102CF0004A4803F05AF94FF47A70FDF701FA0A20B6
:102D000002F023FE4FF40041464803F034F9012855
:102D100041D122464449002005F094FD51480278F3
:102D200057A1002005F08EFD00204E49087045484F
:102D30000068009060208DF804008DF805400F2099
:102D40008DF806004FF40041364803F014F90128CD
:102D500005D100E02CE011208DF8070002E00020F2
:102D60008DF80700042101A8FDF759FA05468DF8F2
:102D7000085035480188ADF8091080788DF80B00AF
:102D800000208DF80C000C216846FDF710FA0C218C
:102D90006846FDF7E7F94FF47A70FDF7B1F94FF4A3
:102DA00000611E4803F003F94FF47A70FDF7A8F9AB
:102DB0003948007880BB4FF40061384803F0DBF8F5
:102DC00050BB4FF47A70FDF79BF94FF40061134844
:102DD00003F0EBF84FF47A70FDF792F90A2002F055
:102DE000B4FD4FF400612D4803F0C5F8A8B92246A0
:102DF0000D49002005F026FD2748027828A1002073
:102E000005F020FD0120244908700E48006800905C
:102E100060208DF804004FE086E078E00008014073
:102E20002600002000180140FC120008636C6F733C
:102E3000652D6B657931345F666C61673D20256473
:102E40000A000000F0090008080E00086F70656EA7
:102E50002D6B657931345F666C61673D2025640AAE
:102E60000000000027000020636C6F73652D6B6508
:102E70007931355F666C61673D2025640A0000008A
:102E80006F70656E2D6B657931355F666C61673D7E
:102E90002025640A0000000028000020000C0140EA
:102EA000636C6F73652D6B657931365F666C616736
:102EB0003D2025640A0000008DF8054010208DF8A3
:102EC0000600C101FE4803F056F8012803D1112085
:102ED0008DF8070002E000208DF80700042101A80A
:102EE000FDF79DF905468DF80850F6480188ADF8C4
:102EF000091080788DF80B0000208DF80C000C2153
:102F00006846FDF754F90C216846FDF72BF94FF49C
:102F10007A70FDF7F5F84FF40061EB4803F047F8DD
:102F20004FF47A70FDF7ECF8E8480078F0B34FF40E
:102F30000061E34803F01FF8012864D14FF47A7070
:102F4000FDF7DEF84FF40061DF4803F02EF84FF490
:102F50007A70FDF7D5F80A2002F0F7FC4FF4006113
:102F6000D74803F008F8012840D12246D84900206C
:102F700005F068FCD5480278D6A1002005F062FC77
:102F80000020D2490870D9480068009060208DF870
:102F900004008DF8054010208DF80600C101C848D6
:102FA00002F0E9FF012805D1112000E02BE08DF8A7
:102FB000070002E000208DF80700042101A8FDF7BA
:102FC0002EF905468DF80850BE480188ADF8091065
:102FD00080788DF80B0000208DF80C000C216846DD
:102FE000FDF7E5F80C216846FDF7BCF84FF47A7060
:102FF000FDF786F84FF40061B34802F0D8FF4FF4B4
:103000007A70FDF77DF8BA480078E8BB4FF40051BC
:10301000AB4802F0B0FFB8BB4FF47A70FDF770F820
:103020004FF40061A84802F0C0FF4FF47A70FDF73A
:1030300067F80A2002F089FC4FF40051A04802F022
:103040009AFFE0BB2246A249002005F0FBFBA848FE
:103050000278A8A1002005F0F5FB0120A449087022
:10306000A2480068009060208DF804008DF80540AB
:1030700011208DF806004FF40051914802F07BFFBB
:10308000012805D1112000E02DE08DF8070002E0B5
:1030900000208DF80700042101A8FDF7C0F80546BF
:1030A0008DF8085087480188ADF8091080788DF8B0
:1030B0000B0000208DF80C000C21684600E005E0B4
:1030C000FDF775F80C216846FDF74CF84FF47A705F
:1030D000FDF716F84FF400617B4802F068FF4FF4EB
:1030E0007A70FDF70DF882480078E8B34FF400518C
:1030F000734802F040FF012865D14FF47A70FCF765
:10310000FFFF4FF40061704802F04FFF4FF47A70F8
:10311000FCF7F6FF0A2002F018FC4FF40051684853
:1031200002F029FF012841D122466949002005F01B
:1031300089FB6F48027875A1002005F083FB002011
:103140006B49087069480068009060208DF80400A1
:103150008DF8054011208DF806004FF400515848B5
:1031600002F009FF012800E02DE003D111208DF8C5
:10317000070002E000208DF80700042101A8FDF7F8
:103180004EF805468DF808504E480188ADF80910F4
:1031900080788DF80B0000208DF80C000C2168461B
:1031A000FDF705F80C216846FCF7DCFF4FF47A7058
:1031B000FCF7A6FF4FF40061434802F0F8FE4FF41D
:1031C0007A70FCF79DFF57480078E8BB4FF4004148
:1031D0003B4802F0D0FEB8BB4FF47A70FCF790FF8A
:1031E0004FF40061384802F0E0FE4FF47A70FCF7CB
:1031F00087FF0A2002F0A9FB4FF40041304802F09B
:10320000BAFEE0BB22463249002005F01BFB4548D0
:10321000027845A1002005F015FB01204149087006
:1032200032480068009060208DF804008DF8054059
:1032300012208DF806004FF40041214802F09BFE59
:10324000012805D1112000E02DE08DF8070002E0F3
:1032500000208DF80700042101A8FCF7E0FF0546D7
:103260008DF8085017480188ADF8091080788DF85E
:103270000B0000208DF80C000C21684600E005E0F2
:10328000FCF795FF0C216846FCF76CFF4FF47A7051
:10329000FCF736FF4FF400610B4802F088FE4FF454
:1032A0007A70FCF72DFF1F48007838B14FF40041C9
:1032B000034802F060FE012800D141E0A4E00000D4
:1032C000000C0140080E0008000801402800002002
:1032D000FC1200086F70656E2D6B657931365F6684
:1032E0006C61673D2025640A00000000F0090008B9
:1032F00029000020636C6F73652D6B657931375F32
:10330000666C61673D2025640A0000006F70656E81
:103310002D6B657931375F666C61673D2025640AE6
:10332000000000002A000020636C6F73652D6B6540
:103330007931385F666C61673D2025640A000000C2
:103340004FF47A70FCF7DCFE4FF40061FA4802F0AB
:103350002CFE4FF47A70FCF7D3FE0A2002F0F5FA47
:103360004FF40041F54802F006FE01283FD1224605
:10337000F349002005F066FAF2480278F2A1002035
:1033800005F060FA0020EF490870F54800680090E9
:1033900060208DF804008DF8054012208DF806009D
:1033A0004FF40041E54802F0E6FD012803D1112069
:1033B0008DF8070002E000208DF80700042101A825
:1033C000FCF72DFF05468DF80850E6480188ADF85A
:1033D000091080788DF80B0000208DF80C000C216E
:1033E0006846FCF7E4FE0C216846FCF7BBFE4FF490
:1033F0007A70FCF785FE4FF40061CF4802F0D7FDEC
:103400004FF47A70FCF77CFED7480078E8BB4FF4A5
:103410000071D64802F0AFFDB8BB4FF47A70FCF7EC
:103420006FFE4FF40061C44802F0BFFD4FF47A70A4
:10343000FCF766FE0A2002F088FA4FF40071CB48D0
:1034400002F099FDF0BB2246BD49002005F0FAF9D3
:10345000C5480278C6A1002005F0F4F90120C24950
:103460000870BF480068009060208DF804008DF857
:10347000054013208DF806004FF40071BB4802F0A0
:103480007AFD012805D1112000E02DE08DF807001C
:1034900002E000208DF80700042101A8FCF7BFFE20
:1034A00005468DF80850AF480188ADF809108078BE
:1034B0008DF80B0000208DF80C000C216846FCF7FD
:1034C00076FE00E003E00C216846FCF74BFE4FF46B
:1034D0007A70FCF715FE4FF40061974802F067FD23
:1034E0004FF47A70FCF70CFE9F480078F0B34FF46D
:1034F00000719E4802F03FFD012865D14FF47A70BB
:10350000FCF7FEFD4FF400618B4802F04EFD4FF4D6
:103510007A70FCF7F5FD0A2002F017FA4FF40071FB
:10352000924802F028FD012841D12246844900201A
:1035300005F088F98C48027893A1002005F082F903
:1035400000208949087086480068009060208DF846
:1035500004008DF8054013208DF806004FF400712B
:10356000824802F008FD012805D100E02CE011207E
:103570008DF8070002E000208DF80700042101A863
:10358000FCF74DFE05468DF8085076480188ADF8E9
:10359000091080788DF80B0000208DF80C000C21AC
:1035A0006846FCF704FE0C216846FCF7DBFD4FF48F
:1035B0007A70FCF7A5FD4FF400615F4802F0F7FC5C
:1035C0004FF47A70FCF79CFD75480078E8BB4FF427
:1035D0000061664802F0CFFCB8BB4FF47A70FCF78C
:1035E0008FFD4FF40061544802F0DFFC4FF47A7015
:1035F000FCF786FD0A2002F0A8F94FF400615B4851
:1036000002F0B9FCF0BB22464D49002005F01AF942
:103610006348027863A1002005F014F90120604995
:1036200008704F480068009060208DF804008DF805
:10363000054014208DF806004FF400614B4802F05D
:103640009AFC012805D1112000E02DE08DF807003B
:1036500002E000208DF80700042101A8FCF7DFFD3F
:1036600005468DF808503F480188ADF8091080786C
:103670008DF80B0000208DF80C000C216846FCF73B
:1036800096FD00E003E00C216846FCF76BFD4FF46B
:103690007A70FCF735FD4FF40061274802F087FC93
:1036A0004FF47A70FCF72CFD3D480078F0B34FF4EE
:1036B00000612E4802F05FFC012837D14FF47A7088
:1036C000FCF71EFD4FF400611B4802F06EFC4FF446
:1036D0007A70FCF715FD0A2002F037F94FF400610B
:1036E000224802F048FC012825D122461449002036
:1036F00005F0A8F82A48027830A1002005F0A2F8C9
:1037000000202749087016480068009060208DF856
:1037100004008DF8054014208DF806004FF4006178
:10372000124802F028FC012854D100E07BE011206F
:103730008DF8070051E069E000080140000C0140ED
:10374000FC1200082A0000206F70656E2D6B6579F1
:1037500031385F666C61673D2025640A0000000017
:10376000F0090008080E00082B000020001401409A
:10377000636C6F73652D6B657931395F666C61675A
:103780003D2025640A0000006F70656E2D6B657921
:1037900031395F666C61673D2025640A00000000D6
:1037A0002C000020636C6F73652D6B657932305F80
:1037B000666C61673D2025640A0000006F70656ECD
:1037C0002D6B657932305F666C61673D2025640A38
:1037D0000000000000208DF80700042101A8FCF77C
:1037E0001EFD05468DF80850FE480188ADF8091009
:1037F00080788DF80B0000208DF80C000C216846B5
:10380000FCF7D5FC0C216846FCF7ACFC4FF47A7051
:10381000FCF776FC4FF40061F34802F0C8FB4FF46C
:103820007A70FCF76DFCF1480078E8BB4FF400516A
:10383000EF4802F0A0FBB8BB4FF47A70FCF760FCD5
:103840004FF40061E84802F0B0FB4FF47A70FCF7E7
:1038500057FC0A2002F079F84FF40051E44802F0D6
:103860008AFBE0BB2246E349002004F0EBFFDF487F
:103870000278E1A1002004F0E5FF0120DB49087097
:10388000E3480068009060208DF804008DF8054042
:1038900015208DF806004FF40051D54802F06BFB5F
:1038A000012805D1112000E02DE08DF8070002E08D
:1038B00000208DF80700042101A8FCF7B0FC0546A4
:1038C0008DF80850C7480188ADF8091080788DF848
:1038D0000B0000208DF80C000C21684600E005E08C
:1038E000FCF765FC0C216846FCF73CFC4FF47A7051
:1038F000FCF706FC4FF40061BB4802F058FB4FF4A4
:103900007A70FCF7FDFBB9480078E8B34FF400513A
:10391000B74802F030FB012865D14FF47A70FCF70C
:10392000EFFB4FF40061B04802F03FFB4FF47A70B8
:10393000FCF7E6FB0A2002F008F84FF40051AC480F
:1039400002F019FB012841D12246AA49002004F0C7
:1039500079FFA6480278AFA1002004F073FF002091
:10396000A2490870AA480068009060208DF8040001
:103970008DF8054015208DF806004FF400519C4845
:1039800002F0F9FA012800E02DE003D111208DF8B2
:10399000070002E000208DF80700042101A8FCF7D1
:1039A0003EFC05468DF808508E480188ADF8091098
:1039B00080788DF80B0000208DF80C000C216846F3
:1039C000FCF7F5FB0C216846FCF7CCFB4FF47A7052
:1039D000FCF796FB4FF40061834802F0E8FA4FF4DD
:1039E0007A70FCF78DFB91480078E8BB4FF40041FA
:1039F0007F4802F0C0FAB8BB4FF47A70FCF780FB46
:103A00004FF40061784802F0D0FA4FF47A70FCF776
:103A100077FB0A2001F099FF4FF40041744802F04F
:103A2000AAFAE0BB22467349002004F00BFF7F484E
:103A300002787FA1002004F005FF01207B49087077
:103A400073480068009060208DF804008DF80540F0
:103A500016208DF806004FF40041654802F08BFAFD
:103A6000012805D1112000E02DE08DF8070002E0CB
:103A700000208DF80700042101A8FCF7D0FB0546C3
:103A80008DF8085057480188ADF8091080788DF8F6
:103A90000B0000208DF80C000C21684600E005E0CA
:103AA000FCF785FB0C216846FCF75CFB4FF47A7051
:103AB000FCF726FB4FF400614B4802F078FA4FF414
:103AC0007A70FCF71DFB59480078E8B34FF40041C9
:103AD000474802F050FA012865D14FF47A70FCF79C
:103AE0000FFB4FF40061404802F05FFA4FF47A7028
:103AF000FCF706FB0A2001F028FF4FF400413C4888
:103B000002F039FA012841D122463A49002004F056
:103B100099FE464802784CA1002004F093FE002054
:103B2000424908703A480068009060208DF804000F
:103B30008DF8054016208DF806004FF400412C4802
:103B400002F019FA012800E02DE003D111208DF8D0
:103B5000070002E000208DF80700042101A8FCF70F
:103B60005EFB05468DF808501E480188ADF8091027
:103B700080788DF80B0000208DF80C000C21684631
:103B8000FCF715FB0C216846FCF7ECFA4FF47A7051
:103B9000FCF7B6FA4FF40061134802F008FA4FF44C
:103BA0007A70FCF7ADFA2E480078C8B980212D480C
:103BB00002F0E1F9A0B94FF47A70FCF7A1FA4FF4E2
:103BC0000061094802F0F1F94FF47A70FCF798FAB5
:103BD0000A2001F0BAFE8021224802F0CCF943E02D
:103BE00091E00000080E0008000801402D000020B0
:103BF00000140140FC120008636C6F73652D6B6547
:103C00007932315F666C61673D2025640A000000EF
:103C1000F00900086F70656E2D6B657932315F6653
:103C20006C61673D2025640A000000002E00002022
:103C3000636C6F73652D6B657932325F666C61679B
:103C40003D2025640A0000006F70656E2D6B65795C
:103C500032325F666C61673D2025640A0000000017
:103C60002F00002000100140E8BB2246FC49002044
:103C700004F0E8FDFB480278FBA1002004F0E2FD1F
:103C80000120F8490870FE480068009060208DF817
:103C900004008DF8054017208DF806008021F948B2
:103CA00002F069F9012803D111208DF8070002E024
:103CB00000208DF80700042101A8FCF7B0FA0546A2
:103CC0008DF80850F0480188ADF8091080788DF81B
:103CD0000B0000208DF80C000C216846FCF767FAF9
:103CE0000C21684600E001E0FCF73CFA4FF47A70E2
:103CF000FCF706FA4FF40061E44802F058F94FF47B
:103D00007A70FCF7FDF9D7480078E0B38021DD48F0
:103D100002F031F9012863D14FF47A70FCF7F0F921
:103D20004FF40061D94802F040F94FF47A70FCF783
:103D3000E7F90A2001F009FE8021D24802F01BF9C0
:103D4000012840D12246C649002004F07BFDC54829
:103D50000278CFA1002004F075FD0020C149087051
:103D6000C7480068009060208DF804008DF8054079
:103D700017208DF806008021C24802F0FCF80128C7
:103D800005D1112000E02BE08DF8070002E00020B3
:103D90008DF80700042101A8FCF741FA05468DF8CB
:103DA0000850B9480188ADF8091080788DF80B00EB
:103DB00000208DF80C000C216846FCF7F8F90C2166
:103DC0006846FCF7CFF94FF47A70FCF799F94FF495
:103DD0000061AE4802F0EBF84FF47A70FCF790F90E
:103DE000B1480078E8BB4FF40071A64802F0C3F870
:103DF000B8BB4FF47A70FCF783F94FF40061A34825
:103E000002F0D3F84FF47A70FCF77AF90A2001F047
:103E10009CFD4FF400719B4802F0ADF8F0BB2246C8
:103E20008F49002004F00EFD9F4802789FA10020DA
:103E300004F008FD01209C4908709148006800903A
:103E400060208DF804008DF8054018208DF80600DC
:103E50004FF400718B4802F08EF8012805D1112033
:103E600000E02DE08DF8070002E000208DF807004B
:103E7000042101A8FCF7D3F905468DF808508248C3
:103E80000188ADF8091080788DF80B0000208DF8BE
:103E90000C000C216846FCF78AF900E003E00C21D5
:103EA0006846FCF75FF94FF47A70FCF729F94FF494
:103EB0000061764802F07BF84FF47A70FCF720F945
:103EC00079480078F0B34FF400716E4802F053F86F
:103ED000012865D14FF47A70FCF712F94FF40061B4
:103EE0006A4802F062F84FF47A70FCF709F90A2088
:103EF00001F02BFD4FF40071624802F03CF80128FC
:103F000041D122465649002004F09CFC66480278C4
:103F10006CA1002004F096FC00206349087058480A
:103F20000068009060208DF804008DF8054018208E
:103F30008DF806004FF40071524802F01CF8012879
:103F400005D100E02CE011208DF8070002E00020F0
:103F50008DF80700042101A8FCF761F905468DF8EA
:103F6000085049480188ADF8091080788DF80B0099
:103F700000208DF80C000C216846FCF718F90C2184
:103F80006846FCF7EFF84FF47A70FCF7B9F84FF495
:103F900000613E4802F00BF84FF47A70FCF7B0F87D
:103FA00040B070BD00BF002401F092FC4FF4A0604F
:103FB00002F072FC494801F0BCFD00F0C2FA41F683
:103FC0001F4140F6B73000F0B2FC002000F09EFC2C
:103FD000022001F0AAFA4249022001F06CFB41F6EE
:103FE0001F41632001F0BEF9002001F0AAF93D490C
:103FF000002004F027FC39E13B48007801282DD14E
:104000004FF47A70FCF77CF84FF400611F4801F020
:10401000CCFF4FF47A70FCF773F818A1002004F07D
:1040200011FC3248027832A1002004F00BFC36A1CA
:10403000002004F007FC2D4801783748FCF792F87F
:10404000FCF7FAF84FF47A70FCF75AF84FF4006175
:104050000E4801F0ACFF4FF47A705FE069E00000B9
:10406000FC1200082F000020636C6F73652D6B65D8
:104070007932335F666C61673D2025640A00000079
:10408000F009000800100140080E00080008014077
:104090006F70656E2D6B657932335F666C61673D5D
:1040A0002025640A0000000030000020636C6F735C
:1040B000652D6B657932345F666C61673D202564E0
:1040C0000A0000006F70656E2D6B657932345F6693
:1040D0006C61673D2025640A0000000001020008B1
:1040E000DF0F0008189A00089B00002094000020B1
:1040F0002D6D61696E2D55617274315F5278203D6E
:104100002025640A000000002D2D2D7263762D6499
:10411000617461732D2D2D00B0010020FBF7F0FFBD
:104120000D21534804F0BBFB00205249087052494E
:104130000870022001F0B4FA0546002D4ED0012D82
:1041400030D14E480068401C4C4908604C4800780B
:10415000A8B941F61F4140F2E73000F0E8FB01202A
:1041600000F0D4FB02204749087001204449087040
:104170000846027844A1002004F064FB0BE0012013
:104180004049087000203E4908700846027843A163
:10419000002004F057FB3948026845A1002004F0D4
:1041A00051FB1BE037480078012809D147A10020C6
:1041B00004F048FB032033490870012000F0A6FBFF
:1041C00001202F49087046480068401C4449086097
:1041D0000846026843A1002004F034FB641C6420FC
:1041E000B4FBF0F100FB114078B9264800780128B3
:1041F0000BD143A1002004F025FB4548006808B915
:10420000012000E00020424908600A20B4FBF0F1E0
:1042100000FB114078B91B48007802280BD13DA162
:10422000002004F00FFB3A48006808B9012000E0C4
:104230000020374908600A20B4FBF0F100FB114070
:1042400078B91048007803280BD136A1002004F07B
:10425000F9FA2F48006808B9012000E000202C4935
:1042600008600A2001F071FBFCF7C9FEC4E60000FB
:10427000B0010020940000209B00002010000020CE
:104280001800002031000020316D6F64655F6E6F93
:104290006D616C203D2025640A000000326D6F6462
:1042A000655F6E6F6D616C203D2025640A00000023
:1042B0006B65793253686F72745072657373436FB4
:1042C000756E74203D2025640A0000002D2D2D6B95
:1042D00065795F6D6F6465203D332D2D2D0A0000DB
:1042E000140000206B6579324C6F6E6750726573F5
:1042F00073436F756E74203D2025640A0000000032
:104300002D2D2D74657374312D2D2D0A00000000A4
:10431000948121422D2D2D74657374322D2D2D0A1B
:10432000000000002D2D2D74657374332D2D2D0A82
:1043300000000000704700BFFEE700BFFEE700BFBF
:10434000FEE700BFFEE77047704770477047000008
:104350000CB50020019000906C48006840F480305B
:104360006A49086000BF6948006800F400300090A6
:104370000198401C0190009818B90198B0F5A06F01
:10438000F1D16248006800F4003010B101200090C3
:1043900001E0002000900098012843D15C480068AB
:1043A00040F010005A4908600846006820F00300F9
:1043B00008600846006840F0020008605348406802
:1043C000524948600846406848600846406840F4E2
:1043D000806048600846406820F47C1048600846C9
:1043E000406840F4E81048600846006840F080707B
:1043F000086000BF4548006800F000700028F9D050
:104400004248406820F00300404948600846406840
:1044100040F00200486000BF3C48406800F00C00DB
:104420000828F9D10CBD10B5FFF792FF10BD10B5EB
:104430003648006840F0010034490860084640688A
:10444000344908403149486008460068324908400C
:104450002E4908600846006820F48020086008465D
:10446000406820F4FE0048604FF41F008860FFF7AA
:10447000DAFF4FF000602949086010BD10B5002137
:1044800000200022214B5B6803F00C0121B10429BC
:1044900006D0082928D107E0214B224C236027E0D1
:1044A0001F4B204C236023E0184B5B6803F4701013
:1044B000164B5B6803F48032022303EB904022B971
:1044C000194B4343174C23600DE0104B5B6803F41A
:1044D000003323B1144B4343124C236003E0104BD1
:1044E0004343104C236003E00D4B0E4C236000BF90
:1044F00000BF064B5B68C3F303130C4CE15C094B34
:104500001B68CB40074C236010BD00000010024028
:10451000002002400000FFF8FFFFF6FE08ED00E07B
:1045200000127A003400002000093D00380000200D
:1045300001B502E00098401E009000980028F9D1D3
:1045400008BD08B501217C2001F03EFF10208DF848
:10455000030003208DF802000121FE4801F049FD0F
:104560002020ADF800006946FB4801F071FC2021D5
:10457000F94801F01CFD4FF40060ADF800006946F9
:10458000F64801F065FC4FF47A70FFF7D1FF4FF465
:104590000061F24801F00BFD4FF47A70FFF7C8FF9D
:1045A0000120ADF8000048208DF803006946EC4872
:1045B00001F04EFC0420ADF8000048208DF8030007
:1045C0006946E74801F044FC0220ADF800001020E5
:1045D0008DF8030003208DF802006946E04801F0E1
:1045E00037FC0020DF4908600820ADF800001020EB
:1045F0008DF8030003208DF802006946D84801F0C9
:1046000027FC0020D849C1F88C010220ADF8000039
:1046100010208DF8030003208DF802006946CF4872
:1046200001F016FC0020D14908600820ADF8000018
:1046300010208DF8030003208DF802006946C7485A
:1046400001F006FC0020CA49C1F88C012020ADF819
:10465000000010208DF8030003208DF80200694649
:10466000BE4801F0F5FB0020C049103108608020F1
:10467000ADF8000010208DF8030003208DF8020033
:104680006946B64801F0E4FB0020B949C1F89C0135
:104690002020ADF8000010208DF8030003208DF8D5
:1046A00002006946AE4801F0D3FB0020AD4910314D
:1046B00008600220ADF8000010208DF803000320F0
:1046C0008DF802006946A44801F0C2FB0020A94908
:1046D000C1F884012020ADF8000010208DF80300FF
:1046E00003208DF802006946A34801F0B1FB0020C9
:1046F000A24908600420ADF8000010208DF80300E6
:1047000003208DF8020069469B4801F0A1FB0020C0
:104710009B49C1F888014FF48070ADF8000010206B
:104720008DF8030003208DF802006946924801F0DD
:104730008FFB002091490C3108604FF48060ADF888
:10474000000010208DF8030003208DF80200694658
:10475000894801F07DFB00208949C1F8A8014FF488
:104760008050ADF8000010208DF8030003208DF874
:1047700002006946804801F06BFB00207F491C3134
:1047800008604FF48040ADF8000010208DF8030061
:1047900003208DF802006946774801F059FB00209C
:1047A0007749C1F8B8014FF48060ADF800001020DF
:1047B0008DF8030003208DF802006946664801F079
:1047C00047FB00206F4908604FF48050ADF80000AF
:1047D00010208DF8030003208DF8020069465E4822
:1047E00001F036FB00206349C1F8B0014FF480406E
:1047F000ADF8000010208DF8030003208DF80200B2
:104800006946554801F024FB00205A49C1F8B80117
:104810004FF48070ADF8000010208DF803000320E5
:104820008DF802006946584801F012FB00205749F4
:10483000C1F8A0014FF48060ADF8000010208DF8A1
:10484000030003208DF8020069464F4801F000FB89
:1048500000204E49C1F8A8014FF48050ADF8000087
:1048600010208DF8030003208DF8020069464648A9
:1048700001F0EEFA00204549C1F8B0014FF4804044
:10488000ADF8000010208DF8030003208DF8020021
:1048900069463D4801F0DCFA00203C49C1F8B80106
:1048A0004020ADF8000010208DF8030003208DF8A3
:1048B000020069462A4801F0CBFA00202A49C1F8D3
:1048C00098014FF48070ADF8000010208DF80300BF
:1048D00003208DF802006946214801F0B9FA002052
:1048E0002149C1F8A0014FF48070ADF800001020FC
:1048F0008DF8030003208DF802006946174801F087
:10490000A7FA00201A49C1F8A00108BD10B5044655
:1049100044B100211E4802F0F1FE01211C4802F0C2
:1049200059FC03E000211A4802F054FC10BD7FB589
:1049300005460C460121042001F053FDADF8085056
:10494000ADF804400020ADF80A00ADF8060001A95A
:104950000F481FE000023000000C01400008014039
:1049600000100140840122420000224284012142C1
:10497000000021420080214200180140940123429E
:1049800000002342A88121420014014000802242FD
:104990000008004002F0C2F801221146FA4802F075
:1049A00034FC1E208DF8000000208DF8010001204D
:1049B0008DF802008DF80300684601F072FF0121B6
:1049C000F14802F007FC0121EF4802F0DDFE7FBD57
:1049D00010B5EEA1002003F035FF0121EA4802F0F6
:1049E000C2FE00287CD00121E74802F0CDFEEC4851
:1049F0000078032875D1EB480278EBA1002003F082
:104A000021FFE848007819286CDCE648007819286E
:104A100069D2DFE800F0680D1B2A384756697886AE
:104A200094A3B2C1D0DFF7F5F4F3F2F1F0EFEE00AA
:104A30000120E3490860142000F087FF0020E149CD
:104A4000C1F88401142000F080FF62E10120DC49FC
:104A500008310860142000F078FF0020D949C1F81F
:104A60008C01142000F071FF53E10120D649086049
:104A7000142000F06AFF0020D449C1F884011420FA
:104A800000F063FF45E10120CF49083108601420A0
:104A900000F05BFF0020CD49C1F88C01142000F02C
:104AA00054FF36E10120C84910310860142000F09D
:104AB0004CFF0020C549C1F89401142000F045FFC7
:104AC00027E10120C04918310860142000F03DFFA3
:104AD0000020BE49C1F89C01142000F036FF18E107
:104AE000FEE329E11AE113E10120B5491031086024
:104AF000142000F02AFF0020B249C1F894011420CC
:104B000000F023FF05E10120B1490860142000F006
:104B10001CFF0020AF49C1F88401142000F015FFEC
:104B2000F7E00120AC490860142000F00EFF0020DF
:104B3000AA49C1F89401142000F007FFE9E0012020
:104B4000A5490C390860142000F0FFFE0020A3499D
:104B5000C1F88801142000F0F8FEDAE001209E4937
:104B60000C310860142000F0F0FE00209B49C1F8D1
:104B7000A001142000F0E9FECBE001209649143199
:104B80000860142000F0E1FE00209449C1F8A8015B
:104B9000142000F0DAFEBCE001208F491C310860CF
:104BA000142000F0D2FE00208C49C1F8B00114207E
:104BB00000F0CBFEADE001208749243108601420CD
:104BC00000F0C3FE00208549C1F8B801142000F0B0
:104BD000BCFE9EE001207E4924310860142000F0D4
:104BE000B4FE00207B49C1F8A801142000F0ADFEFE
:104BF0008FE07EE06EE05EE04EE03EE02EE01FE003
:104C00000FE0FFE7012072492C310860142000F00A
:104C10009CFE00206F49C1F8B001142000F095FE01
:104C200077E001206A4934310860142000F08DFEDD
:104C300000206849C1F8B801142000F086FE68E041
:104C4000012067490860142000F07FFE00206549BC
:104C5000C1F8A001142000F078FE5AE0012060495C
:104C600008310860142000F070FE00205D49C1F892
:104C7000A801142000F069FE4BE0012058491031D2
:104C80000860142000F061FE00205649C1F8B00110
:104C9000142000F05AFE3CE0012051491831086010
:104CA000142000F052FE00204E49C1F8B801142033
:104CB00000F04BFE2DE00120414914310860142022
:104CC00000F043FE00203F49C1F89801142000F095
:104CD0003CFE1EE001203A491C310860142000F01F
:104CE00034FE00203749C1F8A001142000F02DFE49
:104CF0000FE0012034491C310860142000F025FE2B
:104D000000203249C1F8A001142000F01EFE00E08E
:104D100000BF00BF0120FFF7F9FD08E00020FFF70A
:104D2000F5FD00201F49087001201D4908701D482D
:104D30000078401C1B49087019480078022867D188
:104D40002948027829A1002003F07CFD264800783C
:104D500019286EDC2448007819286BD2DFE800F0AF
:104D60006A0D6B8298AFC6EFEDECEBEAE9E8E7E697
:104D7000E5E4E3E2E1E0DFDEDD000121234801F0CC
:104D8000FAF80446224644E00008004054494D34F5
:104D90005F49525148616E646C65720A0000000000
:104DA00031000020480000206D6F6465332D6C6F6A
:104DB000636B5F6368616E6E656C3D2025640A00FD
:104DC000840122420000224284012142000021424B
:104DD0008481214200802142940123420000234229
:104DE000A081224200802242490000206D6F64654C
:104DF000332D6C6F636B5F6368616E6E656C5F6DA6
:104E00006F6465323D2025640A00000000100140F7
:104E100075E2FBA1002003F015FD4CB90120FD490E
:104E20000860142000F091FD0020FB49C1F88401C6
:104E300058E25CE255E20421F84801F09CF804468F
:104E40002246EFA1002003F0FDFC54B90120F149F6
:104E500008310860142000F078FD0020EE49C1F808
:104E60008C013FE20121EE4801F085F8044622461C
:104E7000E3A1002003F0E6FC4CB90120E9490860F9
:104E8000142000F062FD0020E749C1F8840129E206
:104E90000421E34801F06FF804462246D8A100201F
:104EA00003F0D0FC54B90120DE4908310860142019
:104EB00000F04BFD0020DC49C1F88C0112E210210A
:104EC000D74801F058F804462246CDA1002003F04F
:104ED000B9FC54B90120D34910310860142000F006
:104EE00034FD0020D049C1F89401FBE14021CC48B9
:104EF00001F041F804462246C1A1002003F0A2FCC3
:104F000054B90120C74918310860142000F01DFD74
:104F10000020C549C1F89C01E4E1C9E1B0E197E195
:104F200055E13CE123E10BE1F2E0D9E0C0E0A7E08C
:104F30008EE075E05DE045E02EE017E0FFE7102130
:104F4000B64801F018F804462246ADA1002003F04F
:104F500079FC54B90120AF4910310860142000F0E9
:104F6000F4FC0020AC49C1F89401BBE10121AF4839
:104F700001F001F804462246A1A1002003F062FCE2
:104F80004CB90120AA490860142000F0DEFC002082
:104F9000A849C1F88401A5E10821A74800F0EBFF6A
:104FA0000446224696A1002003F04CFC4CB9012097
:104FB000A2490860142000F0C8FC0020A049C1F8F4
:104FC00094018FE110219C4800F0D5FF0446224651
:104FD0008BA1002003F036FC54B9012097490C390D
:104FE0000860142000F0B1FC00209549C1F8880148
:104FF00078E18021904800F0BEFF0446224680A15F
:10500000002003F01FFC54B901208C490C310860CA
:10501000142000F09AFC00208949C1F8A00161E148
:105020004FF40071844800F0A6FF0446224674A1A4
:10503000002003F007FC54B90120804914310860B6
:10504000142000F082FC00207D49C1F8A80149E14C
:105050004FF40061784800F08EFF0446224668A1B4
:10506000002003F0EFFB54B9012074491C310860A3
:10507000142000F06AFC00207149C1F8B00131E150
:105080004FF400516C4800F076FF044622465CA1C4
:10509000002003F0D7FB54B901206849243108608F
:1050A000142000F052FC00206549C1F8B80119E154
:1050B0004FF40041604800F05EFF0446224650A1D4
:1050C000002003F0BFFB54B9012059492431086086
:1050D000142000F03AFC00205649C1F8A80101E173
:1050E0004FF40061514800F046FF0446224644A1B7
:1050F000002003F0A7FB54B901204D492C31086072
:10510000142000F022FC00204A49C1F8B001E9E077
:105110004FF40051454800F02EFF0446224638A1C6
:10512000002003F08FFB54B901204149343108605D
:10513000142000F00AFC00203E49C1F8B801D1E07B
:105140004FF40041394800F016FF044622462CA1D6
:10515000002003F077FB4CB901203A490860142085
:1051600000F0F3FB00203849C1F8A001BAE04FF489
:105170000071364800F0FFFE0446224620A10020C0
:1051800003F060FB54B901202E4908310860142057
:1051900000F0DBFB00202C49C1F8A801A2E04FF48D
:1051A00000612A4800F0E7FE0446224614A10020D0
:1051B00003F048FB54B90120224910310860142043
:1051C00000F0C3FB00202049C1F8B0018AE04FF491
:1051D00000511E4800F0CFFE0446224608A10020E0
:1051E00003F030FB54B9012016491831086014202F
:1051F00000F0ABFB00201449C1F8B80172E00000D8
:105200006770696F5F6C6576656C203D2025780A54
:1052100000000000840122420000224200100140F0
:10522000000801408401214200002142000C01409D
:1052300084812142008021420018014094012342D0
:1052400000002342A081224200802242001401403B
:105250004FF400412E4800F08EFE04462246AFF285
:105260006001002003F0EEFA4CB9012029490860E2
:10527000142000F06AFB00202749C1F8980131E0B2
:105280008021264800F077FE04462246AFF29001C6
:10529000002003F0D7FA54B901201E4908310860F4
:1052A000142000F052FB00201B49C1F8A00119E0B6
:1052B0004FF40071194800F05EFE04462246AFF23A
:1052C000C001002003F0BEFA4CB901201449086067
:1052D000142000F03AFB00201249C1F8A00101E0BF
:1052E00014E000BF00BF0120FFF710FB02E0002028
:1052F0000D4908700C480078401C0B4908700B4899
:105300000078012802D10020FFF700FB10BD00004B
:105310000014014098012242000022420010014086
:10532000A00121420000214249000020310000205C
:1053300001B502E00098401E009000980028F9D1C5
:1053400008BD10B5044644B100212A4802F0D6F940
:105350000121284801F03EFF03E00021254801F02B
:1053600039FF10BD7FB505460C460121022001F032
:1053700038F8ADF80850ADF804400020ADF80A0048
:10538000ADF8060001A91B4801F0C8FB0122114637
:10539000184801F03AFF1D208DF8000000208DF81C
:1053A000010003208DF8020001208DF803006846FB
:1053B00001F077FA01210F4801F00CFF01210D489F
:1053C00002F0E2F97FBD10B501210A4802F0CBF9E5
:1053D00070B10121074802F0D7F90748027807A108
:1053E000002003F02FFA002003490870FFF7A9FFFF
:1053F00010BD0000000400409400002054494D33CB
:105400005F49525148616E646C65722055617274D7
:10541000315F52783D2025780A00000010B5012147
:10542000142000F0D1FF0121E04800F0E2FD10BDA2
:1054300010B5044614B10120DD490870DC4800783D
:10544000E8B10421DB4800F096FD20B10421DA48E0
:1054500000F091FD98B90A2000F077FA0020D449B5
:1054600008700421D34800F086FD08B9022010BD61
:105470000421D14800F07FFD78B90420F7E704212A
:10548000CC4800F078FD012807D10421CA4800F07B
:1054900072FD012801D1C64908700020E7E710B568
:1054A000C6480078D0B90421C24800F064FD20B19C
:1054B0000421C14800F05FFD80B90A2000F045FAE0
:1054C0000421BC4800F057FD08B9022010BD04219A
:1054D000B94800F050FD08B90420F7E70020F5E7CF
:1054E00010B5B6480078F0B10421B24800F043FD91
:1054F000012805D00421B04800F03DFD012812D15B
:105500000A2000F022FA0421AA4800F034FD012804
:1055100001D1022010BD0421A74800F02CFD012874
:1055200001D10420F6E70020F4E710B586B0044668
:10553000002005900290039004900190A048005D27
:1055400020BB01209E49085500209E4941F82400B7
:105550009D4941F824009D4908559D4908559D499C
:1055600041F824009C4951F82400012100F02CFF4F
:105570009A4830F81400ADF8140048208DF8170050
:10558000974951F8240005A900F062FC954800787D
:1055900098BB0120934908700121084600F021FFC3
:1055A0005320ADF808000020ADF80A0041F2873022
:1055B000ADF80C000020ADF80E0002A94FF08040BD
:1055C00001F0ACFA0121880702F0CAF80122114665
:1055D000900701F01AFE0121880701F0FBFD1C2055
:1055E0008DF8040000208DF805008DF806000120DC
:1055F0008DF8070001A801F054F906B010BD7CB584
:1056000004460020019000906D48005D01281DD1E6
:1056100000206B4908556B4941F824006A4941F85C
:1056200024006A4908556A4908556A4941F8240026
:105630006A4830F81400ADF8040048208DF80700DF
:10564000674951F8240001A900F002FC6548007880
:10565000012824D10126002505E05948405D012894
:1056600000D100266D1C032DF7D3012E16D100208A
:105670005C490870B00701F07DF90021012000F0BD
:10568000B0FE1C208DF8000000208DF801008DF880
:1056900002008DF80300684601F003F900BF7CBDED
:1056A000014600204A4A525C22B1494A505C00221D
:1056B000474B5A547047474A42F82010704710B57C
:1056C0000121880702F04FF800286ED001218807D9
:1056D00002F05AF8002466E0404A32F81410404ABA
:1056E00052F8240000F047FC3F49095D884227D169
:1056F000354850F82400401C334941F8240008463E
:1057000050F82400012803D900202E4941F8240034
:105710002D4850F82400C82844D900202A4941F8CF
:10572000240002202949085529490855294850F8DC
:10573000240068B3274850F824100220884731E03D
:10574000204850F82400401C1E4941F82400084617
:1057500050F82400012825D91C48005DC8B91A4812
:1057600050F82400012814D9002041F824001649DB
:1057700041F82400012015490855154908551548D8
:1057800050F8240020B1134850F824100120884715
:1057900008E000200B4941F824000B4941F824009F
:1057A0000A490855641C032C96D310BD0002300032
:1057B0007E00002000100140000801404C00002045
:1057C00074000020C4000020D000002077000020DA
:1057D0007A000020DC000020680000205C0000202F
:1057E000500000207D0000206200002001B502E092
:1057F0000098401E009000980028F9D108BD10B50F
:105800000121084600F0E0FDFFF708FE10BD10B5CD
:105810000A2000F09AF804210F4800F0ACFB20B9F0
:105820000EA1002003F00EF803E013A1002003F006
:1058300009F80421174800F09EFB20B916A10020AA
:1058400003F000F803E01BA1002002F0FBFF04209E
:1058500002F023F810BD000000100140322D636CEF
:105860006F73652D45585449325F49525148616EF6
:10587000646C65720A000000322D6F70656E2D45F4
:10588000585449325F49525148616E646C65720ADE
:105890000000000000080140342D636C6F73652D1B
:1058A00045585449325F49525148616E646C657283
:1058B0000A000000342D6F70656E2D455854493232
:1058C0005F49525148616E646C65720A00000000C5
:1058D00010B56FF0040001F02EF82E4800682E4934
:1058E000B0FBF1F02D4908700846007800EB40014C
:1058F000C1EBC0104FF6FF7101EAC00028490880D3
:1059000010BD0146254A12784A434FF0E0235A6100
:1059100000229A611A46126942F001021A6100BF20
:105920004FF0E022106900F001021AB100F4803259
:10593000002AF5D04FF0E022126922F001024FF068
:10594000E0231A6100229A6170470146144A1288C6
:105950004A434FF0E0235A6100229A611A461269C5
:1059600042F001021A6100BF4FF0E022106900F01E
:1059700001021AB100F48032002AF5D04FF0E02283
:10598000126922F001024FF0E0231A6100229A61AD
:10599000704700003400002000127A0080000020D0
:1059A00082000020014600BF704770B504460D46D6
:1059B0002946204600F0A8FE00BF8021204600F0C6
:1059C00011FF0028F9D070BD2DE9F04107460D46C2
:1059D0001646002405E0295D3846FFF7E6FF601C07
:1059E000C4B2B442F7DB00BF4021384600F0FAFEF3
:1059F0000028F9D0BDE8F08170B506460C460025B8
:105A000000BF615D3046FFF7D0FF6D1C605D002870
:105A1000F7D100BF4021304600F0E4FE0028F9D065
:105A200070BD2DE9F04105460C46260AE7B2314625
:105A3000284600F069FE00BF8021284600F0D2FE13
:105A40000028F9D03946284600F05EFE00BF8021CC
:105A5000284600F0C7FE0028F9D0BDE8F08170B5F7
:105A600004460D46E1B29F4800F04EFE00BF802183
:105A70009C4800F0B7FE0028F9D0204670BD10B554
:105A8000044600BF2021974800F0ACFE0028F9D062
:105A9000944800F03DFE10BD30B587B004460D4679
:105AA000012144F2040000F08FFC4FF40070ADF8C7
:105AB000180003208DF81A0018208DF81B0006A985
:105AC000894800F0C5F94FF48060ADF81800042053
:105AD0008DF81B0006A9844800F0BAF925208DF83E
