:020000040800F2
:10000000680B00203D6C0008895200088B520008E4
:100010008F52000893520008975200080000000019
:100020000000000000000000000000009B520008DB
:100030009D520008000000009F520008A1520008D5
:10004000576C0008576C0008576C0008576C000884
:10005000576C0008576C0008576C0008576C000874
:10006000DF660008576C0008576C0008576C0008E2
:10007000576C0008576C0008576C0008576C000854
:10008000576C0008576C0008576C0008576C000844
:10009000576C0008576C0008576C0008576C000834
:1000A000576C0008576C0008576C0008576C000824
:1000B0008F6500089762000825590008576C0008F2
:1000C000576C0008576C0008576C0008576C000804
:1000D000576C0008BB6A0008576C0008576C000892
:1000E000576C0008576C0008576C0008DFF80CD0FC
:1000F00009F058FD004800470D4F0008680B00202C
:1001000001B502E00098401E009000980028F9D147
:1001100008BD0FB430B59BB000241FA80190652125
:1001200002A8019B1E9A09F0EDFDC5B20EE0204623
:10013000621CD4B202AA115CF74807F04DFA00BF66
:100140004021F54807F0B6FA0028F9D0642C03DA0C
:10015000AC4201DA002DEADC002001901BB030BC7B
:100160005DF814FB70B504460D46ECA1002009F0C3
:10017000D1FA05E02278EDA1002009F0CBFA641C49
:10018000281EA5F10101CDB2F4D1EAA109F0C2FA0D
:1001900070BD10B504462146DF4807F01DFA00BFC8
:1001A0008021DD4807F086FA0028F9D010BD70B52F
:1001B00004460D460BE02178D74807F00DFA00BF42
:1001C0004021D54807F076FA0028F9D0641C281E93
:1001D000A5F10101CDB2EED170BD10B504460BE022
:1001E0002178CD4807F0F8F900BF4021CA4807F050
:1001F00061FA0028F9D0641C20780028F0D110BDE5
:1002000070B504460D462178C34807F0E5F970BD86
:1002100010B504462146C8A009F064FD10BD10B514
:1002200002460B460020002103E0545C60404C1C59
:10023000A1B29942F9DB10BD0020C3490860C3494F
:10024000C1F88C01C2490860C14908310860C04941
:1002500010310860BE4918310860BB491031086090
:10026000BC490860BC490860BB490C390860BA4900
:100270000C310860B84914310860B7491C31086076
:10028000B54924310860B34924310860B1492C31A3
:100290000860B04934310860B0490860AF4908319E
:1002A0000860AE4910310860AC4918310860A649B1
:1002B00014310860A4491C310860A949C1F8A001A3
:1002C000704710B50120A0490860642006F0A5FA27
:1002D0000121A44806F0B7FD012803D14FF4967020
:1002E00006F09BFA01219F4806F0ADFD012803D1DD
:1002F0004FF4167006F091FA0020934908604FF40D
:10030000FA7006F08AFA01209049C1F88C01642045
:1003100006F083FA0421934806F095FD012803D1E5
:100320004FF4967006F079FA04218E4806F08BFDA2
:10033000012803D14FF4167006F06FFA00208249AD
:10034000083108604FF4FA7006F067FA8648D0F872
:10035000940108B9012000E000207E4910310860B6
:1003600001207F49C1F88401642006F056FA01217A
:100370007E4806F068FD012803D14FF4967006F020
:100380004CFA0121794806F05EFD012803D14FF4B3
:10039000167006F042FA00206D4908604FF4FA70BA
:1003A00006F03BFA7048D0F8940108B9012000E04B
:1003B000002068491031086001206949C1F88C01AA
:1003C000642006F02AFA0421684806F03CFD012862
:1003D00003D14FF4967006F020FA0421634806F02A
:1003E00032FD012803D14FF4167006F016FA0020F2
:1003F0005749083108604FF4FA7006F00EFA5A486F
:10040000D0F8940108B9012000E0002051491031D2
:10041000086001205249C1F89401642006F0FDF9FA
:100420001021524806F00FFD012803D14FF49670B9
:1004300006F0F3F910214D4806F005FD012803D11F
:100440004FF4167006F0E9F90020414910310860B8
:100450004FF4FA7006F0E1F94348D0F8940108B976
:10046000012000E000203B491031086001203C4998
:10047000C1F89C01642006F0D0F940213B4806F009
:10048000E2FC012803D14FF4967006F0C6F9402132
:10049000364806F0D8FC012803D14FF4167006F058
:1004A000BCF900202A49183108604FF4FA7006F0B0
:1004B000B4F92D48D0F8940108B9012000E00020DB
:1004C00024491031086001202049C1F894016420BA
:1004D00006F0A3F91021234806F0B5FC012803D14A
:1004E0004FF4967006F099F910211E4806F0ABFC07
:1004F000012803D14FF4167006F08FF9002012493D
:10050000103108604FF4FA7006F087F91648D0F8F9
:10051000940168BB01202DE0003801407274742DF5
:1005200074656D703D3D3D3D3D00000025303278E5
:10053000200000000A000000726563765F64617449
:10054000613D25780D0A000084012242000022420C
:10055000840121428481214294012342A0812242CC
:1005600000002142001001400080214200080140AB
:10057000FFE70020F74908600120F749C1F884012E
:10058000642006F04AF90121F44806F05CFC0128D9
:1005900003D14FF4967006F040F90121EF4806F0C0
:1005A00052FC012803D14FF4167006F036F90020F2
:1005B000E849103908604FF4FA7006F02EF9E64861
:1005C000D0F8940108B9012000E00020E14908605A
:1005D0000120E349C1F89401642006F01EF90821C6
:1005E000E04806F030FC012803D14FF4967006F085
:1005F00014F90821DB4806F026FC012803D14FF44A
:10060000167006F00AF90020D74908604FF4FA7016
:1006100006F003F9D048D0F8940108B9012000E0B1
:100620000020CC4908600120CD49C1F88801642030
:1006300006F0F3F81021CB4806F005FC012803D1A1
:100640004FF4967006F0E9F81021C64806F0FBFB5F
:10065000012803D14FF4167006F0DFF80020C249DC
:100660000C3908604FF4FA7006F0D7F8BA48D0F8A1
:10067000940108B9012000E00020B649086001207B
:10068000B749C1F8A001642006F0C7F88021B54839
:1006900006F0D9FB012803D14FF4967006F0BDF89F
:1006A0008021B04806F0CFFB012803D14FF416702B
:1006B00006F0B3F80020AC490C3108604FF4FA7032
:1006C00006F0ABF8A448D0F8940108B9012000E086
:1006D0000020A04908600120A149C1F8A8016420B8
:1006E00006F09BF84FF400719E4806F0ACFB012821
:1006F00003D14FF4967006F090F84FF400719948CA
:1007000006F0A1FB012803D14FF4167006F085F81E
:1007100000209549143108604FF4FA7006F07DF816
:100720008D48D0F8940108B9012000E000208949E3
:10073000086001208A49C1F8B001642006F06DF814
:100740004FF40061874806F07EFB012803D14FF487
:10075000967006F062F84FF40061824806F073FB71
:10076000012803D14FF4167006F057F800207E4997
:100770001C3108604FF4FA7006F04FF87648D0F854
:10078000940108B9012000E00020724908600120AE
:100790007349C1F8B801642006F03FF84FF40051E6
:1007A000704806F050FB012803D14FF4967006F014
:1007B00034F84FF400516B4806F045FB012803D193
:1007C0004FF4167006F029F80020674924310860BC
:1007D0004FF4FA7006F021F85F48D0F8940108B998
:1007E000012000E000205B49086001205A49C1F85F
:1007F000A801642006F011F84FF40041594806F0B2
:1008000022FB012803D14FF4967006F006F84FF44E
:100810000041544806F017FB012803D14FF416702D
:1008200005F0FBFF00204B49143108604FF4FA70CB
:1008300005F0F3FF4848D0F8940108B9012000E022
:1008400000204449086001204349C1F8B0016420F8
:1008500005F0E3FF4FF40061404806F0F4FA012888
:1008600003D14FF4967005F0D8FF4FF400613B4878
:1008700006F0E9FA012803D14FF4167005F0CDFF18
:10088000002034491C3108604FF4FA7005F0C5FFB0
:100890003148D0F8940108B9012000E000202D492A
:1008A000086001202C49C1F8B801642005F0B5FFAB
:1008B0004FF40051294806F0C6FA012803D14FF43D
:1008C000967005F0AAFF4FF40051244806F0BBFAD9
:1008D000012803D14FF4167005F09FFF00201D4939
:1008E000243108604FF4FA7005F097FF1A48D0F8E9
:1008F000940108B9012000E0002016490860012099
:100900001A49C1F8A001642005F087FF4FF40041A7
:10091000124806F098FA012803D14FF4967005F0BA
:100920007CFF4FF400410D4806F08DFA012803D1F9
:100930004FF4167005F071FF00200D4908604FF468
:10094000FA7005F06AFF0448D0F8940190B90120CC
:1009500011E000009481214200802142000C0140FE
:1009600000002342001801409401234200802242EB
:10097000A08122420020FE4908600120FD49C1F803
:10098000A801642005F049FF4FF40071FA4806F011
:100990005AFA012803D14FF4967005F03EFF4FF448
:1009A0000071F54806F04FFA012803D14FF4167094
:1009B00005F033FF0020F14908604FF4FA7005F0AC
:1009C0002CFFEF48D0F8940108B9012000E0002086
:1009D000E74908600120E749C1F8B001642005F04B
:1009E0001CFF4FF40061E44806F02DFA012803D102
:1009F0004FF4967005F011FF4FF40061DE4806F0E9
:100A000022FA012803D14FF4167005F006FF0020EA
:100A1000DA49083108604FF4FA7005F0FEFED84854
:100A2000D0F8940108B9012000E00020D049086006
:100A30000120D049C1F8B801642005F0EEFE4FF462
:100A40000051CD4806F0FFF9012803D14FF496700C
:100A500005F0E3FE4FF40051C74806F0F4F9012811
:100A600003D14FF4167005F0D8FE0020C3491031B1
:100A700008604FF4FA7005F0D0FEC148D0F8940138
:100A800008B9012000E00020B94908600120BD49F3
:100A9000C1F89801642005F0C0FE4FF40041B6484B
:100AA00006F0D1F9012803D14FF4967005F0B5FE98
:100AB0004FF40041B04806F0C6F9012803D14FF4C5
:100AC000167005F0AAFE0020AF4908604FF4FA70D6
:100AD00005F0A3FEAA48D0F8940108B9012000E06F
:100AE0000020A34908600120A649C1F8A0016420A4
:100AF00005F093FE8021A54806F0A5F9012803D151
:100B00004FF4967005F089FE8021A04806F09BF90D
:100B1000012803D14FF4167005F07FFE00209A499A
:100B2000083108604FF4FA7005F077FE9448D0F869
:100B3000940108B9012000E000208D4908600120DF
:100B40009349C1F8A001642005F067FE4FF40071DD
:100B50008E4806F078F9012803D14FF4967005F01D
:100B60005CFE4FF40071894806F06DF9012803D14D
:100B70004FF4167005F051FE002086490860FFF71B
:100B80005BFB10BD2DE9F04FADF5017D4FF4807199
:100B900041A808F0ECFD4FF4807101A808F0E7FDD2
:100BA0004FF000097C4802787CA1002008F0B2FDDB
:100BB00079480078083800F0FF094A467DA10020F6
:100BC00008F0A8FD4A46804901A808F0B7FD4FF497
:100BD00080616E4806F037F983464FF400616B4838
:100BE00006F031F94BEA400B4FF48051674806F0AC
:100BF0002AF94BEA800B01215F4806F024F94BEA01
:100C0000C00B10215C4806F01EF94BEA001B0821BE
:100C1000594806F018F94BEA401B0421564806F0E3
:100C200012F94BEA801B0221534806F00CF94BEAFB
:100C3000C01000F0FF0A9DF80500504541F06C819E
:100C4000B9F1050F7ED19DF80400604908709DF848
:100C5000050048709DF8060088709DF80700C87070
:100C60009DF808000871042101A8FFF7D8FA05468D
:100C70002A4657A1002008F04DFD54480079A842AB
:100C800070D15248007880286DD08A286CD14F48A6
:100C9000C078112869D14D488078192866D2DFE8DC
:100CA00000F0650D41C1F9F7F6F5F4F3F2F1F0EF5C
:100CB000EEEDECEBEAE9E8E7E6E5E4000120324995
:100CC00014390860642005F0A8FD01212F4806F0C2
:100CD000BAF8012807D142A1002008F01BFD4FF40B
:100CE000967005F09AFD0121284806F0ACF801281D
:100CF00007D13FA1002008F00DFD4FF4167005F05C
:100D00008CFD002020491439086001211F4806F09D
:100D10009AF804462D488278234639A1002008F02D
:100D2000F9FCE9E3012018490C390860642005F05A
:100D300074FD0421154806F086F8012805D14FF40A
:100D4000967000E0F7E305F068FD04210F4806F017
:100D50007AF8012803D14FF4167005F05EFD0020EB
:100D6000094957E0E8E3E8E3E8E3E8E3C3E3000028
:100D7000948121420080224200140140A881224235
:100D800000802142000022429801224200100140CE
:100D900000002142A0012142940000202D706172C8
:100DA00073652D55617274315F5278203D20256442
:100DB0000A0000002D55617274315F52785F542033
:100DC0003D2025640A000000B4010020000000203E
:100DD0006263635F74656D70203D2025780A0000B2
:100DE0002D2D2D2D313131312D2D2D2D2D0A0000A0
:100DF0002D2D2D2D323232322D2D2D2D2D0A00008C
:100E000025643A6770696F5F6C6576656C203D207C
:100E100025780A000C3908600421FE4806F013F812
:100E2000044669E30120FC490860642005F0F5FCF4
:100E30000121FA4806F007F8012803D14FF4967013
:100E400005F0EBFC0121F54805F0FDFF012803D179
:100E50004FF4167005F0E1FC0020EF490860012115
:100E6000EE4805F0F0FF044646E31EE3F8E2D1E267
:100E7000A8E27FE256E22FE206E2DFE1A4E17BE1B5
:100E800052E129E103E1DDE0B9E095E071E04BE0FA
:100E900025E0FFE70120E04908310860642005F003
:100EA000BCFC0421DD4805F0CEFF012803D14FF43E
:100EB000967005F0B2FC0421D84805F0C4FF012863
:100EC00003D14FF4167005F0A8FC0020D249083178
:100ED00008600421D14805F0B6FF04460CE3012068
:100EE000CD4910310860642005F097FC1021CB48F3
:100EF00005F0A9FF012803D14FF4967005F08DFC91
:100F00001021C64805F09FFF012803D14FF4167049
:100F100005F083FC0020C049103108601021BF4853
:100F200005F091FF0446E7E20120BB491831086053
:100F3000642005F072FC4021B84805F084FF0128C8
:100F400003D14FF4967005F068FC4021B34805F0DA
:100F50007AFF012803D14FF4167005F05EFC0020E3
:100F6000AD49183108604021AC4805F06CFF0446DB
:100F7000C2E20120AA490860642005F04EFC10215D
:100F8000A44805F060FF012803D14FF4967005F0E6
:100F900044FC10219F4805F056FF012803D14FF46F
:100FA000167005F03AFC00209D4908601021994810
:100FB00005F049FF04469FE201209A490860642039
:100FC00005F02BFC0121984805F03DFF012803D1D5
:100FD0004FF4967005F021FC0121934805F033FF92
:100FE000012803D14FF4167005F017FC00208D493D
:100FF00008600421874805F026FF04467CE20120B2
:101000008A490860642005F008FC0821884805F03A
:101010001AFF012803D14FF4967005F0FEFB08215A
:10102000834805F010FF012803D14FF4167005F036
:10103000F4FB00207D49086008217D4805F003FF8E
:10104000044659E2012079490C390860642005F012
:10105000E4FB1021764805F0F6FE012803D14FF499
:10106000967005F0DAFB1021714805F0ECFE0128BE
:1010700003D14FF4167005F0D0FB00206B490C39FA
:10108000086010216A4805F0DEFE044634E20120C3
:1010900066490C310860642005F0BFFB802164487C
:1010A00005F0D1FE012803D14FF4967005F0B5FB91
:1010B00080215F4805F0C7FE012803D14FF4167068
:1010C00005F0ABFB002059490C31086080215848DD
:1010D00005F0B9FE04460FE20120544914310860BE
:1010E000642005F09AFB4FF40071514805F0ABFE07
:1010F000012803D14FF4967005F08FFB4FF4007177
:101100004B4805F0A0FE012803D14FF4167005F0FE
:1011100084FB00204549143108604FF400714448B5
:1011200005F091FE0446E7E1012040491C310860CA
:10113000642005F072FB4FF400613D4805F083FE2A
:10114000012803D14FF4967005F067FB4FF400615E
:10115000374805F078FE012803D14FF4167005F0EA
:101160005CFB002031491C3108604FF400613048BD
:1011700005F069FE0446BFE101202C4924310860D6
:10118000642005F04AFB4FF40051294805F05BFE4E
:10119000012803D14FF4967005F03FFB4FF4005146
:1011A000234805F050FE012803D14FF4167005F0D6
:1011B00034FB00201D49243108604FF400511C48C5
:1011C00005F041FE044697E10120164924310860EC
:1011D000642005F022FB4FF40041154805F033FE72
:1011E000012803D14FF4967005F017FB4FF400412E
:1011F0000F4805F028FE012803D14FF4167005F0C2
:101200000CFB00200749243108604FF400410848D6
:1012100010E000000010014084012142000801405C
:101220009401224284812142000C01409401234216
:101230000018014005F007FE04465DE10120FE496B
:101240000860642005F0E9FA4FF40061FB4805F0FE
:10125000FAFD012803D14FF4967005F0DEFA4FF441
:101260000061F64805F0EFFD012803D14FF4167038
:1012700005F0D3FA0020F04908604FF40061EF4810
:1012800005F0E1FD044637E10120EB490831086033
:10129000642005F0C2FA4FF40051E84805F0D3FD90
:1012A000012803D14FF4967005F0B7FA4FF40051BE
:1012B000E24805F0C8FD012803D14FF4167005F08F
:1012C000ACFA0020DC49083108604FF40051DB48DB
:1012D00005F0B9FD04460FE10120D94908606420FA
:1012E00005F09BFA4FF40041D44805F0ACFD01280D
:1012F00003D14FF4967005F090FA4FF40041CF48B7
:1013000005F0A1FD012803D14FF4167005F085FA10
:101310000020CB4908604FF40041C84805F093FD18
:101320000446E9E00120C64908310860642005F060
:1013300074FA4FF40071C34805F085FD012803D10C
:101340004FF4967005F069FA4FF40071BD4805F04E
:101350007AFD012803D14FF4167005F05EFA0020E3
:10136000B749083108604FF40071B64805F06BFDCD
:101370000446C1E00120B24910310860642005F044
:101380004CFA4FF40061AF4805F05DFD012803D130
:101390004FF4967005F041FA4FF40061A94805F04A
:1013A00052FD012803D14FF4167005F036FA0020E3
:1013B000A349103108604FF40061A24805F043FDD5
:1013C000044699E001209E4918310860642005F028
:1013D00024FA4FF400519B4805F035FD012803D154
:1013E0004FF4967005F019FA4FF40051954805F046
:1013F0002AFD012803D14FF4167005F00EFA0020E3
:101400008F49183108604FF400518E4805F01BFDDC
:10141000044671E001208C490860642005F0FDF964
:101420004FF40041874805F00EFD012803D14FF429
:10143000967005F0F2F94FF40041824805F003FD83
:10144000012803D14FF4167005F0E7F900207E491A
:1014500008604FF400417B4805F0F5FC04464BE082
:101460000120794908310860642005F0D6F980210F
:10147000764805F0E8FC012803D14FF4967005F09A
:10148000CCF98021714805F0DEFC012803D14FF42E
:10149000167005F0C2F900206B4908310860802100
:1014A0006A4805F0D0FC044626E00120684908603F
:1014B000642005F0B2F94FF40071644805F0C3FCF4
:1014C000012803D14FF4967005F0A7F94FF400718D
:1014D0005E4805F0B8FC012803D14FF4167005F002
:1014E0009CF900205A4908604FF40071574805F0F4
:1014F000AAFC044600E000BF00BFFEF79DFE554871
:101500008278234654A1002008F004F959A000680D
:101510004190504800788DF808014E4840788DF889
:1015200009014C4880788DF80A01012C08D111205E
:101530008DF80B0107E066E25EE22BE053E222E069
:1015400000208DF80B01042142A8FEF768FE054635
:101550008DF80C5149A00188ADF80D1180788DF8F7
:101560000F0100208DF810010C2141A8FEF71FFE8D
:101570000C2141A8FEF7F6FD3648027840A1002074
:1015800008F0C8F805E03348027843A1002008F0CD
:10159000C1F829E22F48C07833284AD12D488078F5
:1015A000002847D10121294805F04DFC834604213C
:1015B000264805F048FC4BEA400B01213D4805F068
:1015C00042FC4BEA800B04213A4805F03CFC4BEA14
:1015D000C00B1021374805F036FC4BEA001B4021B8
:1015E000344805F030FC4BEA401B1021174805F049
:1015F0002AFC4BEA801B0121104805F024FC4BEA31
:10160000C010C6B208212C4805F01DFC83461021ED
:10161000294805F018FC4BEA400B8021264805F0CC
:1016200012FC4BEA800B4FF40071234805F00BFCD1
:1016300044E0D0E1DCE00000B0812142000C014038
:10164000A081224200140140980122420010014072
:10165000A0012142000000206C6F636B203D20251B
:10166000643A6770696F5F6C6576656C203D202514
:10167000780A00007374617200000000656E6400F7
:101680006F6B2C6D5F646174612E6F70636F646546
:101690003D253032780A00006572726F722D322C4F
:1016A0006D5F646174612E6F70636F64653D25309A
:1016B00032780A0000080140001801404BEAC00BD4
:1016C0004FF40061FE4805F0BEFB4BEA001B4FF4EF
:1016D0000051FB4805F0B7FB4BEA401B4FF40041BB
:1016E000F74805F0B0FB4BEA801B4FF40061F5486A
:1016F00005F0A9FB4BEAC010C7B24FF40051F14806
:1017000005F0A1FB83464FF40041EE4805F09BFB3A
:101710004BEA400B4FF40071EB4805F094FB4BEAA9
:10172000800B4FF40061E84805F08DFB4BEAC00BDD
:101730004FF40051E44805F086FB4BEA001B4FF4E0
:101740000041E14805F07FFB4BEA401B8021DF4868
:1017500005F079FB4BEA801B4FF40071DB4805F084
:1017600072FB4BEAC01000F0FF083246D8A10020FF
:1017700007F0D0FF3A46DBA1002007F0CBFF42463E
:10178000DDA1002007F0C6FFAFF2181000684190FD
:10179000DE4800788DF80801DC4840788DF80901B2
:1017A0008DF80A618DF80B718DF80C81052142A826
:1017B000FEF735FD05468DF80D51AFF2401001885A
:1017C000ADF80E1180788DF8100100208DF8100111
:1017D0000C2141A8FEF7EBFC0C2141A8FEF7C2FC4E
:1017E000CA480278AFF26811002007F093FFF9E0D1
:1017F000C6488078192873D2DFE800F0AA0D1319C3
:101800001F252B31373D43494F565D646B737A81F9
:10181000888F969DA3000121AC4805F014FB044677
:1018200097E00421A94805F00EFB044691E0012150
:10183000B74805F008FB04468BE00421B44805F0E6
:1018400002FB044685E01021B14805F0FCFA04468D
:101850007FE04021AE4805F0F6FA044600BF1021B3
:101860009A4805F0F0FA044673E00121954805F026
:10187000EAFA04466DE00821914805F0E4FA0446CE
:1018800067E010218E4805F0DEFA044661E0802111
:101890008B4805F0D8FA04465BE04FF400718848A5
:1018A00005F0D1FA044654E04FF40061844805F095
:1018B000CAFA04464DE04FF40051814805F0C3FADE
:1018C000044646E04FF400417D4805F0BCFA04466A
:1018D00000BF4FF400617B4805F0B5FA044638E0DC
:1018E00036E04FF40051774805F0ADFA044630E099
:1018F0004FF40041734805F0A6FA044629E04FF47E
:101900000071714805F09FFA044622E04FF400612F
:101910006D4805F098FA04461BE04FF400516A4800
:1019200005F091FA044614E04FF40041664805F0D2
:101930008AFA04460DE08021644805F084FA0446E2
:1019400007E04FF40071614805F07DFA044600E0BD
:1019500000BF00BF6D48827823466EA1002007F0CB
:10196000D9FEAFF2F02000684190684800788DF809
:101970000801664840788DF80901644880788DF840
:101980000A01012C03D111208DF80B0102E0002087
:101990008DF80B01042142A8FEF741FC05468DF8A5
:1019A0000C51AFF228300188ADF80D1180788DF818
:1019B0000F0100208DF810010C2141A8FEF7F7FB64
:1019C0000C2141A8FEF7CEFB5048027857A1002019
:1019D00007F0A0FE06E04D480278AFF24431002047
:1019E00007F098FE00E000BF00BF4848027956A10A
:1019F000002007F08FFE8FE24448027957A10020B3
:101A000007F088FE88E2B9F1030FF4D19DF80400D5
:101A10003E4908709DF8050048709DF80600087161
:101A2000022101A8FEF7FBFB05462A46AFF66041FE
:101A3000002007F06FFE35480079A84239D13348BD
:101A40000078912836D006DC702834D0712833D045
:101A5000902832D104E0922830D09328F9D132E294
:101A60002A480278AFF2E831002007F053FEFEF773
:101A700028FC0121154805F0E6F9834604211348A6
:101A800005F0E1F94BEA400B0121214805F0DBF9B3
:101A90004BEA800B04211E4805F0D5F94BEAC00B38
:101AA00010211B4805F0CFF94BEA001B40211848D4
:101AB00062E02AE218E10EE215E21CE2FBE100001E
:101AC00000180140000C01400014014000100140CA
:101AD0006772705F6C6576656C5F31203D2025789C
:101AE0000A0000006772705F6C6576656C5F32207B
:101AF0003D2025780A0000006772705F6C6576658E
:101B00006C5F33203D2025780A0000000000002093
:101B1000000801402D2D25643A6770696F5F6C6580
:101B200076656C203D2025780A0000002D2D6F6B16
:101B30002C6D5F646174612E6F70636F64653D2509
:101B40003032780A000000006D5F646174612E62BB
:101B50006363203D2025780A000000006572726FE3
:101B6000722D312D6D5F646174612E626363203D5F
:101B70002025780A0000000005F065F94BEA401BBB
:101B80001021FE4805F05FF94BEA801B0121FC485B
:101B900005F059F94BEAC010C6B20821F94805F022
:101BA00052F983461021F74805F04DF94BEA400BF6
:101BB0008021F44805F047F94BEA800B4FF400719F
:101BC000F04805F040F94BEAC00B4FF40061ED48D6
:101BD00005F039F94BEA001B4FF40051E94805F0D4
:101BE00032F94BEA401B4FF40041E64805F02BF96F
:101BF0004BEA801B4FF40061E14805F024F94BEA01
:101C0000C010C7B24FF40051DD4805F01CF98346FF
:101C10004FF40041DA4805F016F94BEA400B4FF457
:101C20000071D94805F00FF94BEA800B4FF40061C1
:101C3000D54805F008F94BEAC00B4FF40051D248E3
:101C400005F001F94BEA001B4FF40041CE4805F0C6
:101C5000FAF84BEA401B8021C84805F0F4F84BEA3B
:101C6000801B4FF40071C54805F0EDF84BEAC01039
:101C700000F0FF083246AFF2A811002007F04AFD3D
:101C80003A46AFF2A011002007F044FD4246AFF201
:101C90009811002007F03EFDAFF2286000684190E7
:101CA00080208DF80801B94840788DF809018DF839
:101CB0000A618DF80B718DF80C81052142A8FEF7A1
:101CC000AEFA05468DF80D51AFF250600188ADF8BF
:101CD0000E1180788DF8100100208DF810010C2174
:101CE00041A8FEF764FA07E1A8480278AFF27061F4
:101CF000002007F00FFDA5480278AFF27C610020BC
:101D000007F008FDFEF7DDFA01219C4805F09BF87D
:101D100083460421994805F096F84BEA400B0121CF
:101D20009B4805F090F84BEA800B0421984805F099
:101D30008AF84BEAC00B1021954805F084F84BEA6D
:101D4000001B4021924805F07EF84BEA401B102111
:101D50008A4805F078F84BEA801B0121884805F095
:101D600072F84BEAC010C6B20821864805F06BF83D
:101D700083461021834805F066F84BEA400B80212A
:101D8000804805F060F84BEA800B4FF400717D4805
:101D900005F059F84BEAC00B4FF40061794805F0A3
:101DA00052F84BEA001B4FF40051764805F04BF80F
:101DB0004BEA401B4FF40041724805F044F84BEAEF
:101DC000801B4FF400616E4805F03DF84BEAC010EF
:101DD000C7B24FF400516A4805F035F883464FF416
:101DE0000041674805F02FF84BEA400B4FF40071B3
:101DF000654805F028F84BEA800B4FF40061624813
:101E000005F021F84BEAC00B4FF400515E4805F095
:101E10001AF84BEA001B4FF400415B4805F013F839
:101E20004BEA401B8021554805F00DF84BEA801B1A
:101E30004FF40071514805F006F84BEAC01000F06D
:101E4000FF083246AFF27831002007F063FC3A46D3
:101E5000AFF27031002007F05DFC4246AFF268310E
:101E6000002007F057FCAFF2F4700068419080202A
:101E70008DF80801454840788DF809018DF80A6110
:101E80008DF80B718DF80C81052142A8FEF7C7F97A
:101E900005468DF80D51AFF61C000188ADF80E1106
:101EA00080788DF8100100208DF810010C2141A8D8
:101EB000FEF77DF920E035480278AFF63C010020BE
:101EC00007F028FC18E031480278AFF64C010020FA
:101ED00007F020FC10E02D480278AFF65C010020EE
:101EE00007F018FC08E029480278AFF66C010020E2
:101EF00007F010FC00E000BF00BF24480279AFF2F9
:101F0000B831002007F006FC06E020480279AFF265
:101F1000B431002007F0FEFB0DF5017DBDE8F08F28
:101F2000012805D11B490968491C1A4A116006E0BD
:101F3000022804D118490968491C174A11607047E2
:101F400070B5C0B04FF48071684607F010FC4FF4D4
:101F500080610A4804F077FF06464FF400610748A5
:101F600004F071FF46EA40064FF48051034804F044
:101F70006AFF46EA8006012103480FE00010014095
:101F8000000C014000180140001401400000002036
:101F900000080140080000200C00002004F053FF5E
:101FA00046EAC0061021FA4804F04DFF46EA001642
:101FB0000821F74804F047FF46EA40160421F44898
:101FC00004F041FF46EA80160221F14804F03BFF8D
:101FD00046EAC010C4B2EF480078002868D1012159
:101FE000ED4804F030FF002862D14FF47A70FEF71C
:101FF00087F84FF40061E94804F03FFF4FF47A702E
:10200000FEF77EF80A2004F008FC0121E24804F003
:102010001AFF00283FD12246E1A107F07BFBDD48F3
:102020000278E4A1002007F075FB0120D94908706F
:10203000AFF6C0100068009060208DF804008DF8A5
:10204000054001208DF806000121D34804F0FBFE75
:10205000012803D111208DF8070002E000208DF83F
:102060000700042101A8FEF7DAF805468DF80850AC
:10207000AFF6F8100188ADF8091080788DF80B00E4
:1020800000208DF80C000C216846FEF790F80C211A
:102090006846FEF767F84FF47A70FEF731F84FF4B0
:1020A0000061BE4804F0EBFE4FF47A70FEF728F8AA
:1020B000B8480078002869D00121B74804F0C3FE71
:1020C000012863D14FF47A70FEF71AF84FF40061DB
:1020D000B24804F0D2FE4FF47A70FEF711F80A20ED
:1020E00004F09BFB0121AC4804F0ADFE012840D177
:1020F0002246ABA1002007F00DFBA6480278B3A151
:10210000002007F007FB0020A2490870AFF69C20D2
:102110000068009060208DF804008DF805400120D3
:102120008DF8060001219C4804F08DFE012803D1A2
:1021300011208DF8070002E000208DF8070004212F
:1021400001A8FEF76CF805468DF80850AFF6D420CC
:102150000188ADF8091080788DF80B0000208DF80B
:102160000C000C216846FEF722F80C216846FDF7AA
:10217000F9FF4FF47A70FDF7C3FF4FF40061874811
:1021800004F07DFE4FF47A70FDF7BAFF94480078B2
:10219000002868D10421804804F055FE002862D14F
:1021A0004FF47A70FDF7ACFF4FF400617B4804F008
:1021B00064FE4FF47A70FDF7A3FF0A2004F02DFBB4
:1021C0000421754804F03FFE00283FD1224674A147
:1021D00007F0A0FA8248027882A1002007F09AFA5C
:1021E00001207F490870AFF67430006800906020CD
:1021F0008DF804008DF8054002208DF806000421BA
:10220000654804F020FE012803D111208DF8070055
:1022100002E000208DF80700042101A8FDF7FFFF70
:1022200005468DF80850AFF6AC300188ADF80910BE
:1022300080788DF80B0000208DF80C000C2168468A
:10224000FDF7B5FF0C216846FDF78CFF4FF47A705F
:10225000FDF756FF4FF40061504804F010FE4FF4B4
:102260007A70FDF74DFF5E480078002869D00421A0
:10227000494804F0E8FD012863D14FF47A70FDF776
:102280003FFF4FF40061454804F0F7FD4FF47A70CA
:10229000FDF736FF0A2004F0C0FA04213E4804F09E
:1022A000D2FD012840D122463DA1002007F032FA9C
:1022B0004B48027851A1002007F02CFA0020484931
:1022C0000870AFF650400068009060208DF8040060
:1022D0008DF8054002208DF8060004212E4804F0F8
:1022E000B2FD012803D111208DF8070002E0002083
:1022F0008DF80700042101A8FDF791FF05468DF830
:102300000850AFF688400188ADF8091080788DF844
:102310000B0000208DF80C000C216846FDF747FFEC
:102320000C216846FDF71EFF4FF47A70FDF7E8FEBA
:102330004FF40061194804F0A2FD4FF47A70FDF7E4
:10234000DFFE3348007800287ED10121134804F0D5
:102350007AFD002878D14FF47A70FDF7D1FE4FF462
:1023600000610E4804F089FD4FF47A70FDF7C8FE55
:102370000A2004F052FA0121084804F064FD002804
:102380007ED1224606A107F0C5F92148027841E036
:102390000014014019000020001001400008014015
:1023A000626F6172645F61646472203D2025303227
:1023B000780A0000636C6F73652D6B6579315F6619
:1023C0006C61673D2025640A000000006F70656E37
:1023D0002D6B6579315F666C61673D2025640A006D
:1023E0001A000020636C6F73652D6B6579325F6630
:1023F0006C61673D2025640A000000006F70656E07
:102400002D6B6579325F666C61673D2025640A003B
:102410001B000020FAA1002007F07CF90120FE49F2
:102420000870AFF6B0500068009060208DF804008E
:102430008DF8054003208DF806000121F74804F0CF
:1024400002FD012805D100E02FE011208DF80700E2
:1024500002E000208DF80700042101A8FDF7DFFE4F
:1024600005468DF80850AFF6EC500188ADF809101C
:1024700080788DF80B0000208DF80C000C2100E016
:1024800006E06846FDF793FE0C216846FDF76AFEFC
:102490004FF47A70FDF734FE4FF40061DF4804F02A
:1024A000EEFC4FF47A70FDF72BFEDB480078002835
:1024B0006AD00121D94804F0C6FC012864D14FF448
:1024C0007A70FDF71DFE4FF40061D44804F0D5FC8E
:1024D0004FF47A70FDF714FE0A2004F09EF90121F2
:1024E000CE4804F0B0FC012841D12246AFF2501191
:1024F000002007F00FF9C8480278C9A1002007F0B2
:1025000009F90020C4490870AFF69860006800908F
:1025100060208DF804008DF8054003208DF806003A
:102520000121BE4804F08FFC012803D111208DF851
:10253000070002E000208DF80700042101A8FDF744
:102540006EFE05468DF80850AFF6D0600188ADF8F4
:10255000091080788DF80B0000208DF80C000C21FC
:102560006846FDF724FE0C216846FDF7FBFD4FF49D
:102570007A70FDF7C5FD4FF40061A84804F07FFCB8
:102580004FF47A70FDF7BCFDAA480078002869D1A5
:102590000421A24804F057FC002863D14FF47A705C
:1025A000FDF7AEFD4FF400619C4804F066FC4FF46B
:1025B0007A70FDF7A5FD0A2004F02FF90421974851
:1025C00004F041FC002840D12246AFF22C2107F054
:1025D000A1F89848027898A1002007F09BF8012004
:1025E00094490870AFF674700068009060208DF810
:1025F00004008DF8054004208DF80600042187486A
:1026000004F021FC012803D111208DF8070002E01D
:1026100000208DF80700042101A8FDF700FE054603
:102620008DF80850AFF6AC700188ADF809108078CD
:102630008DF80B0000208DF80C000C216846FDF78A
:10264000B6FD0C216846FDF78DFD4FF47A70FDF75D
:1026500057FD4FF40061714804F011FC4FF47A709B
:10266000FDF74EFD73480078002869D004216B48BF
:1026700004F0E9FB012863D14FF47A70FDF740FDC7
:102680004FF40061654804F0F8FB4FF47A70FDF7F1
:1026900037FD0A2004F0C1F80421604804F0D3FBA0
:1026A000012840D12246AFF20831002007F032F86D
:1026B0006048027866A1002007F02CF800205D49F0
:1026C000087068480068009060208DF804008DF85C
:1026D000054004208DF806000421504804F0B3FBA7
:1026E000012803D111208DF8070002E000208DF8A9
:1026F0000700042101A8FDF792FD05468DF808505A
:10270000584808300188ADF8091080788DF80B0022
:1027100000208DF80C000C216846FDF748FD0C21C7
:102720006846FDF71FFD4FF47A70FDF7E9FC4FF4A2
:1027300000613A4804F0A3FB4FF47A70FDF7E0FC27
:102740004948007800285AD11021344804F07BFB16
:10275000002854D14FF47A70FDF7D2FC4FF4006199
:102760002E4804F08AFB4FF47A70FDF7C9FC0A206A
:1027700004F053F81021294804F065FBF0BB224611
:10278000AFF2E431002006F0C5FF3748027837A1E8
:10279000002006F0BFFF012033490870314800686F
:1027A000009060208DF804008DF8054005208DF81C
:1027B00006001021194804F046FB012803D111201E
:1027C0008DF8070002E000208DF80700042101A821
:1027D000FDF725FD05468DF8085022480830018890
:1027E000ADF8091080788DF80B0000208DF80C00F2
:1027F0000C216846FDF7DBFC0C2143E045E051E08D
:10280000636C6F73652D6B6579335F666C61673DD3
:102810002025640A000000001B0000200008014081
:102820006F70656E2D6B6579335F666C61673D20F7
:1028300025640A001C000020636C6F73652D6B65B6
:1028400079345F666C61673D2025640A00000000F2
:102850006F70656E2D6B6579345F666C61673D20C6
:1028600025640A00741600081D000020636C6F7355
:10287000652D6B6579355F666C61673D2025640A5F
:10288000000000006846FDF76DFC4FF47A70FDF71C
:1028900037FC4FF40061FE4804F0F1FA4FF47A700F
:1028A000FDF72EFCFB480078002869D01021F8487D
:1028B00004F0C9FA012863D14FF47A70FDF720FCC7
:1028C0004FF40061F24804F0D8FA4FF47A70FDF743
:1028D00017FC0A2003F0A1FF1021ED4804F0B3FA21
:1028E000012840D12246AFF24851002006F012FFE5
:1028F000E8480278E8A1002006F00CFF0020E54936
:102900000870EA480068009060208DF804008DF897
:10291000054005208DF806001021DD4804F093FAEB
:10292000012803D111208DF8070002E000208DF866
:102930000700042101A8FDF772FC05468DF8085038
:10294000DA4808300188ADF8091080788DF80B005E
:1029500000208DF80C000C216846FDF728FC0C21A6
:102960006846FDF7FFFB4FF47A70FDF7C9FB4FF4A3
:102970000061C74804F083FA4FF47A70FDF7C0FB9A
:10298000CB48007800286AD14021C14804F05BFAA6
:10299000002864D14FF47A70FDF7B2FB4FF4006168
:1029A000BB4804F06AFA4FF47A70FDF7A9FB0A20DD
:1029B00003F033FF4021B64804F045FAF0BB22464D
:1029C000AFF22461002006F0A5FEB9480278B9A153
:1029D000002006F09FFE0120B5490870B34800684A
:1029E000009060208DF804008DF8054006208DF8D9
:1029F00006004021A64804F026FA012803D1112040
:102A00008DF8070002E000208DF80700042101A8DE
:102A1000FDF705FC05468DF80850A44808300188EC
:102A2000ADF8091080788DF80B0000208DF80C00AF
:102A30000C216846FDF7BBFB0C2100E002E0684674
:102A4000FDF790FB4FF47A70FDF75AFB4FF40061ED
:102A50008F4804F014FA4FF47A70FDF751FB944854
:102A60000078002869D04021894804F0ECF9012859
:102A700063D14FF47A70FDF743FB4FF40061844853
:102A800004F0FBF94FF47A70FDF73AFB0A2003F0EB
:102A9000C4FE40217E4804F0D6F9012840D12246E8
:102AA000AFF20471002006F035FE8148027887A15C
:102AB000002006F02FFE00207D4908707B4800684A
:102AC000009060208DF804008DF8054006208DF8F8
:102AD000060040216E4804F0B6F9012803D1112008
:102AE0008DF8070002E000208DF80700042101A8FE
:102AF000FDF795FB05468DF808506C4808300188B5
:102B0000ADF8091080788DF80B0000208DF80C00CE
:102B10000C216846FDF74BFB0C216846FDF722FBB4
:102B20004FF47A70FDF7ECFA4FF40061584804F066
:102B3000A6F94FF47A70FDF7E3FA694800780028A7
:102B40006AD11021674804F07EF9002864D14FF45F
:102B50007A70FDF7D5FA4FF400614D4804F08DF915
:102B60004FF47A70FDF7CCFA0A2003F056FE1021DC
:102B70005C4804F068F9E8BB2246AFF2DC71002043
:102B800006F0C8FD5648027857A1002006F0C2FDA5
:102B900001205349087045480068009060208DF876
:102BA00004008DF8054007208DF8060010214D48DF
:102BB00004F049F9012803D111208DF8070002E043
:102BC00000208DF80700042101A8FDF728FB054629
:102BD0008DF80850354808300188ADF80910807824
:102BE0008DF80B0000208DF80C000C216846FDF7D5
:102BF000DEFA00E003E00C216846FDF7B3FA4FF47B
:102C00007A70FDF77DFA4FF40061214804F037F93E
:102C10004FF47A70FDF774FA31480078002879D0C3
:102C20001021304804F00FF9012873D14FF47A7065
:102C3000FDF766FA4FF40061154804F01EF94FF4F1
:102C40007A70FDF75DFA0A2003F0E7FD10212548B0
:102C500004F0F9F801287DD12246AFF6BC0100202E
:102C600006F058FD1E48027825A1002006F052FD0E
:102C700000201B4908700D480068009060208DF806
:102C800004008DF8054007208DF80600102142E071
:102C9000000801401D0000206F70656E2D6B657986
:102CA000355F666C61673D2025640A007416000874
:102CB0001E000020636C6F73652D6B6579365F664F
:102CC0006C61673D2025640A000000006F70656E2E
:102CD0002D6B6579365F666C61673D2025640A005F
:102CE0001F00002000100140636C6F73652D6B6541
:102CF00079375F666C61673D2025640A000000003B
:102D00006F70656E2D6B6579375F666C61673D200E
:102D100025640A0033E0FE4804F095F8012803D149
:102D200011208DF8070002E000208DF80700042133
:102D300001A8FDF774FA05468DF80850F54801889A
:102D4000ADF8091080788DF80B0000208DF80C008C
:102D50000C2100E006E06846FDF729FA0C216846E0
:102D6000FDF700FA4FF47A70FDF7CAF94FF40061ED
:102D7000E94804F084F84FF47A70FDF7C1F9E748A8
:102D8000007800286AD10121E54804F05CF80028A9
:102D900064D14FF47A70FDF7B3F94FF40061DE4867
:102DA00004F06BF84FF47A70FDF7AAF90A2003F0EB
:102DB00034FD0121DA4804F046F8E8BB2246AFF6BC
:102DC0002021002006F0A6FCD4480278D5A10020DE
:102DD00006F0A0FC0120D1490870CE4808380068F0
:102DE000009060208DF804008DF8054008208DF8D3
:102DF00006000121CA4804F026F8012803D1112059
:102E00008DF8070002E000208DF80700042101A8DA
:102E1000FDF705FA05468DF80850BE480188ADF863
:102E2000091080788DF80B0000208DF80C000C2123
:102E30006846FDF7BCF900E003E00C216846FDF7A9
:102E400091F94FF47A70FDF75BF94FF40061B248E5
:102E500004F015F84FF47A70FDF752F9AF48007896
:102E6000002869D00121AE4803F0EDFF012863D1AD
:102E70004FF47A70FDF744F94FF40061A64803F06F
:102E8000FCFF4FF47A70FDF73BF90A2003F0C5FC14
:102E90000121A34803F0D7FF012840D12246AFF615
:102EA0000031002006F036FC9C480278A3A10020E7
:102EB00006F030FC002099490870964808380068F0
:102EC000009060208DF804008DF8054008208DF8F2
:102ED00006000121924803F0B6FF012803D111201A
:102EE0008DF8070002E000208DF80700042101A8FA
:102EF000FDF795F905468DF8085086480188ADF82C
:102F0000091080788DF80B0000208DF80C000C2142
:102F10006846FDF74CF90C216846FDF723F94FF49C
:102F20007A70FDF7EDF84FF400617B4803F0A7FFDE
:102F30004FF47A70FDF7E4F885480078F0BB08217B
:102F4000844803F080FFC8BB4FF47A70FDF7D8F8CF
:102F50004FF40061704803F090FF4FF47A70FDF772
:102F6000CFF80A2003F059FC08217A4803F06BFFE0
:102F7000F0BB2246AFF6D831002006F0CBFB7448F8
:102F8000027875A1002006F0C5FB01207049087089
:102F9000604808380068009060208DF804008DF8C3
:102FA000054009208DF8060008216A4803F04BFF10
:102FB000012804D111208DF8070003E02AE0002049
:102FC0008DF80700042101A8FDF729F905468DF8C1
:102FD000085050480188ADF8091080788DF80B0032
:102FE00000208DF80C000C216846FDF7E0F800E0A9
:102FF00003E00C216846FDF7B5F84FF47A70FDF751
:103000007FF84FF40061444803F039FF4FF47A70C1
:10301000FDF776F84E480078F0B308214D4803F0EC
:1030200012FF012865D14FF47A70FDF769F84FF46B
:103030000061394803F021FF4FF47A70FDF760F822
:103040000A2003F0EAFB0821424803F0FCFE0128B5
:1030500042D12246AFF6B841002006F05BFB3C4867
:10306000027843A1002006F055FB00203849087083
:10307000284808380068009060208DF804008DF81A
:10308000054009208DF806000821324803F0DBFED8
:10309000012805D1112000E02BE08DF8070002E0A7
:1030A00000208DF80700042101A8FDF7B8F80546B7
:1030B0008DF8085017480188ADF8091080788DF810
:1030C0000B0000208DF80C000C216846FDF76FF80E
:1030D0000C216846FDF746F84FF47A70FDF710F8BA
:1030E0004FF400610C4803F0CAFE4FF47A70FDF70C
:1030F00007F82448007848B91021164803F0A3FEC9
:1031000020B94FF47A70FCF7FBFF3DE09DE0000032
:10311000001001407C16000800080140200000203B
:10312000000C0140636C6F73652D6B6579385F66C9
:103130006C61673D2025640A000000006F70656EB9
:103140002D6B6579385F666C61673D2025640A00E8
:103150002100002000180140636C6F73652D6B65C2
:1031600079395F666C61673D2025640A00000000C4
:103170006F70656E2D6B6579395F666C61673D2098
:1031800025640A00220000204FF40061F74803F094
:1031900074FE4FF47A70FCF7B3FF0A2003F03DFB96
:1031A0001021F34803F04FFEF0BB2246AFF610614A
:1031B000002006F0AFFAEF480278EFA1002006F0F9
:1031C000A9FA0120EB490870F148006800906020DE
:1031D0008DF804008DF805400A208DF806001021B6
:1031E000E34803F030FE012803D111208DF80700D9
:1031F00002E000208DF80700042101A8FDF70FF878
:1032000005468DF80850E24808300188ADF80910ED
:1032100080788DF80B0000208DF80C000C2168469A
:10322000FCF7C5FF0C2100E002E06846FCF79AFFBE
:103230004FF47A70FCF764FF4FF40061CB4803F061
:103240001EFE4FF47A70FCF75BFFCA480078E8B3C3
:103250001021C74803F0F7FD012865D14FF47A70BB
:10326000FCF74EFF4FF40061C04803F006FE4FF438
:103270007A70FCF745FF0A2003F0CFFA1021BC4812
:1032800003F0E1FD012842D12246AFF6EC610020B7
:1032900006F040FAB7480278BEA1002006F03AFADC
:1032A0000020B4490870BA480068009060208DF88A
:1032B00004008DF805400A208DF806001021AC4866
:1032C00003F0C1FD012805D1112000E02CE08DF8AC
:1032D000070002E000208DF80700042101A8FCF798
:1032E0009EFF05468DF80850A94808300188ADF8C2
:1032F000091080788DF80B0000208DF80C000C214F
:103300006846FCF754FF0C216846FCF72BFF4FF48E
:103310007A70FCF7F5FE4FF40061944803F0AFFDBE
:103320004FF47A70FCF7ECFEA0480078E8BB8021EF
:103330008F4803F088FDC0BB4FF47A70FCF7E0FEC5
:103340004FF40061894803F098FD4FF47A70FCF760
:10335000D7FE0A2003F061FA8021854803F073FD4F
:10336000F0BB2246AFF6C871002006F0D3F98F48B3
:1033700002788FA1002006F0CDF901208B4908705A
:1033800083480068009060208DF804008DF80540A7
:103390000B208DF806008021754803F054FD0128AC
:1033A00004D111208DF8070003E02BE000208DF8F8
:1033B0000700042101A8FCF732FF05468DF80850EC
:1033C000734808300188ADF8091080788DF80B003B
:1033D00000208DF80C000C216846FCF7E8FE00E0A8
:1033E00003E00C216846FCF7BDFE4FF47A70FCF751
:1033F00087FE4FF400615D4803F041FD4FF47A70A1
:10340000FCF77EFE69480078F0B38021584803F04D
:103410001AFD012863D14FF47A70FCF771FE4FF466
:103420000061524803F029FD4FF47A70FCF768FE02
:103430000A2003F0F2F980214D4803F004FD012831
:1034400040D122466049002006F064F957480278CE
:103450005EA1002006F05EF90020544908704C4837
:103460000068009060208DF804008DF805400B2066
:103470008DF8060080213E4803F0E5FC012804D1C8
:1034800011208DF8070003E029E000208DF80700E7
:10349000042101A8FCF7C3FE05468DF808503C48FE
:1034A00008300188ADF8091080788DF80B000020F5
:1034B0008DF80C000C216846FCF779FE0C2168465B
:1034C000FCF750FE4FF47A70FCF71AFE4FF40061DF
:1034D000264803F0D4FC4FF47A70FCF711FE414803
:1034E0000078E8BB4FF40071214803F0ACFCB8BB96
:1034F0004FF47A70FCF704FE4FF400611B4803F0B0
:10350000BCFC4FF47A70FCF7FBFD0A2003F085F950
:103510004FF40071164803F096FC28BB22462A4956
:10352000002006F0F7F82F4802782FA1002006F0BF
:10353000F1F801202B4908701548006800906020C0
:103540008DF804008DF805400C208DF806004FF42E
:103550000071074803F077FC012851D1112000E0E9
:1035600077E08DF807004EE066E0000000080140BB
:103570000018014022000020636C6F73652D6B659D
:103580007931305F666C61673D2025640A00000078
:10359000741600086F70656E2D6B657931305F664B
:1035A0006C61673D2025640A0000000023000020B4
:1035B000636C6F73652D6B657931315F666C616724
:1035C0003D2025640A000000A02300086F70656E8E
:1035D0002D6B657931315F666C61673D2025640A2A
:1035E0000000000024000020636C6F73652D6B6584
:1035F0007931325F666C61673D2025640A00000006
:1036000000208DF80700042101A8FCF708FE0546FC
:103610008DF80850FE480188ADF8091080788DF8C3
:103620000B0000208DF80C000C216846FCF7BFFD54
:103630000C216846FCF796FD4FF47A70FCF760FDAC
:103640004FF40061F34803F01AFC4FF47A70FCF772
:1036500057FDF1480078E8B34FF40071EF4803F0EC
:10366000F2FB012866D14FF47A70FCF749FD4FF464
:103670000061E84803F001FC4FF47A70FCF740FD6C
:103680000A2003F0CAF84FF40071E44803F0DBFBB2
:10369000012842D12246E249002006F03BF8DE48EC
:1036A0000278E0A1002006F035F80020DA49087021
:1036B000D74808380068009060208DF804008DF825
:1036C00005400C208DF806004FF40071D34803F03C
:1036D000BAFB00E02EE0012803D111208DF807008D
:1036E00002E000208DF80700042101A8FCF797FDF7
:1036F00005468DF80850C6480188ADF80910807855
:103700008DF80B0000208DF80C000C216846FCF7AA
:103710004EFD0C216846FCF725FD4FF47A70FCF74E
:10372000EFFC4FF40061BB4803F0A9FB4FF47A7043
:10373000FCF7E6FCC1480078F0BB4FF40061B748E5
:1037400003F081FBC0BB4FF47A70FCF7D9FC4FF457
:103750000061B04803F091FB4FF47A70FCF7D0FCA5
:103760000A2003F05AF84FF40061AC4803F06BFBF9
:10377000E8BB2246AA49002005F0CCFFAF480278FA
:10378000AFA1002005F0C6FF0120AC490870A04899
:1037900008380068009060208DF804008DF805401E
:1037A0000D208DF806004FF400619C4803F04BFBA0
:1037B000012805D1112000E02DE08DF8070002E07E
:1037C00000208DF80700042101A8FCF728FD05461C
:1037D0008DF808508E480188ADF8091080788DF872
:1037E0000B0000208DF80C000C21684600E005E07D
:1037F000FCF7DDFC0C216846FCF7B4FC4FF47A7052
:10380000FCF77EFC4FF40061824803F038FB4FF474
:103810007A70FCF775FC89480078E8B34FF40061D2
:103820007E4803F010FB012866D14FF47A70FCF754
:1038300067FC4FF40061774803F01FFB4FF47A7088
:10384000FCF75EFC0A2002F0E8FF4FF400617348C9
:1038500003F0F9FA012842D122467149002005F00F
:1038600059FF764802787CA1002005F053FF002024
:1038700072490870664808380068009060208DF82A
:1038800004008DF805400D208DF806004FF400610E
:10389000624803F0D8FA00E02EE0012803D111209D
:1038A0008DF8070002E000208DF80700042101A830
:1038B000FCF7B5FC05468DF8085055480188ADF871
:1038C000091080788DF80B0000208DF80C000C2179
:1038D0006846FCF76CFC0C216846FCF743FC4FF48F
:1038E0007A70FCF70DFC4FF400614A4803F0C7FA08
:1038F0004FF47A70FCF704FC5D480078F0BB4FF49D
:103900000051464803F09FFAC0BB4FF47A70FCF7B1
:10391000F7FB4FF400613F4803F0AFFA4FF47A70C1
:10392000FCF7EEFB0A2002F078FF4FF400513B4811
:1039300003F089FAE8BB22463949002005F0EAFE87
:103940004B4802784BA1002005F0E4FE01204849D5
:1039500008702F4808380068009060208DF8040037
:103960008DF805400E208DF806004FF400512B48CD
:1039700003F069FA012805D1112000E02DE08DF84F
:10398000070002E000208DF80700042101A8FCF7E1
:1039900046FC05468DF808501D480188ADF8091011
:1039A00080788DF80B0000208DF80C000C21684603
:1039B00000E005E0FCF7FBFB0C216846FCF7D2FBBE
:1039C0004FF47A70FCF79CFB4FF40061114803F050
:1039D00056FA4FF47A70FCF793FB25480078A8B1AB
:1039E0004FF400510D4803F02EFA01280ED14FF488
:1039F0007A70FCF785FB4FF40061064803F03DFA4E
:103A00004FF47A70FCF77CFB0A203FE095E0000061
:103A10007C16000800080140240000200018014026
:103A2000A02300086F70656E2D6B657931325F667B
:103A30006C61673D2025640A00000000250000201D
:103A4000636C6F73652D6B657931335F666C61678D
:103A50003D2025640A0000006F70656E2D6B65794E
:103A600031335F666C61673D2025640A0000000009
:103A700026000020636C6F73652D6B657931345FB0
:103A8000666C61673D2025640A00000002F0C5FEF7
:103A90004FF40051FE4803F0D6F9012840D12246E8
:103AA000FC49002005F036FEFB480278FBA100200F
:103AB00005F030FE0020F8490870FE4800680090CC
:103AC00060208DF804008DF805400E208DF806006A
:103AD0004FF40051EE4803F0B6F9012803D111204C
:103AE0008DF8070002E000208DF80700042101A8EE
:103AF000FCF795FB05468DF80850EE480830018824
:103B0000ADF8091080788DF80B0000208DF80C00BE
:103B10000C216846FCF74BFB0C216846FCF722FBA6
:103B20004FF47A70FCF7ECFA4FF40061E24803F0CE
:103B3000A6F94FF47A70FCF7E3FAE0480078E8BBA6
:103B40004FF40041D24803F07EF9B8BB4FF47A70CD
:103B5000FCF7D6FA4FF40061D74803F08EF94FF422
:103B60007A70FCF7CDFA0A2002F057FE4FF40041BC
:103B7000C74803F068F9E8BB2246C649002005F0B3
:103B8000C9FDCE480278CEA1002005F0C3FD01207A
:103B9000CA490870C7480068009060208DF804008A
:103BA0008DF805400F208DF806004FF40041B8480D
:103BB00003F049F9012805D1112000E02EE08DF82D
:103BC000070002E000208DF80700042101A8FCF79F
:103BD00026FB05468DF80850B64808300188ADF838
:103BE000091080788DF80B0000208DF80C000C2156
:103BF000684600E005E0FCF7DAFA0C216846FCF7BD
:103C0000B1FA4FF47A70FCF77BFA4FF40061AA48DE
:103C100003F035F94FF47A70FCF772FAA748007890
:103C2000F0B34FF400419A4803F00DF9012866D132
:103C30004FF47A70FCF764FA4FF400619E4803F089
:103C40001CF94FF47A70FCF75BFA0A2002F0E5FDEC
:103C50004FF400418E4803F0F6F8012842D1224685
:103C60008C49002005F056FD944802789AA1002066
:103C700005F050FD0020914908708E4800680090C2
:103C800060208DF804008DF805400F208DF80600A7
:103C90004FF400417E4803F0D6F8012805D100E03A
:103CA0002DE011208DF8070002E000208DF80700BC
:103CB000042101A8FCF7B3FA05468DF808507D48A9
:103CC00008300188ADF8091080788DF80B000020CD
:103CD0008DF80C000C216846FCF769FA0C21684647
:103CE000FCF740FA4FF47A70FCF70AFA4FF40061DF
:103CF000714803F0C4F84FF47A70FCF701FA7C487D
:103D00000078E0BB4FF400617A4803F09CF8B0BB48
:103D10004FF47A70FCF7F4F94FF40061664803F051
:103D2000ACF84FF47A70FCF7EBF90A2002F075FD5D
:103D30004FF400616F4803F086F8E0BB2246554916
:103D4000002005F0E7FC6A4802786BA1002005F02E
:103D5000E1FC012066490870564800680090602028
:103D60008DF804008DF8054010208DF80600C10183
:103D7000604803F068F8012805D1112000E02EE02A
:103D80008DF8070002E000208DF80700042101A84B
:103D9000FCF745FA05468DF808504648083001887A
:103DA000ADF8091080788DF80B0000208DF80C001C
:103DB0000C21684600E005E0FCF7F9F90C216846A3
:103DC000FCF7D0F94FF47A70FCF79AF94FF40061E0
:103DD000394803F054F84FF47A70FCF791F94448ED
:103DE0000078E8B34FF40061424803F02CF8012852
:103DF00036D14FF47A70FCF783F94FF400612E4806
:103E000003F03BF84FF47A70FCF77AF90A2002F0DD
:103E100004FD4FF40061374803F015F8012835D14F
:103E200022461C49002005F075FC3148027838A173
:103E3000002005F06FFC00202D4908701D48006827
:103E4000009060208DF804008DF8054010208DF85A
:103E50000600C101274802F0F6FF012805D100E065
:103E60007CE011208DF8070002E000208DF80700AB
:103E7000042101A8FCF7D3F905468DF808500D4838
:103E800008300188ADF8091080784DE059E0000055
:103E900000180140A0230008260000206F70656E06
:103EA0002D6B657931345F666C61673D2025640A4E
:103EB00000000000741600080008014027000020E0
:103EC000636C6F73652D6B657931355F666C616707
:103ED0003D2025640A0000006F70656E2D6B6579CA
:103EE00031355F666C61673D2025640A0000000083
:103EF00028000020000C0140636C6F73652D6B651A
:103F00007931365F666C61673D2025640A000000E8
:103F10006F70656E2D6B657931365F666C61673DDC
:103F20002025640A000000008DF80B0000208DF8A9
:103F30000C000C216846FCF73AF90C216846FCF7A6
:103F400011F94FF47A70FCF7DBF84FF40061FA488E
:103F500002F095FF4FF47A70FCF7D2F8F74800783A
:103F6000E8BB4FF40051F64802F06DFFB8BB4FF4C8
:103F70007A70FCF7C5F84FF40061EF4802F07DFF5E
:103F80004FF47A70FCF7BCF80A2002F046FC4FF4BC
:103F90000051EB4802F057FFE8BB2246E9490020F8
:103FA00005F0B8FBE5480278E7A1002005F0B2FB78
:103FB0000120E2490870EA480068009060208DF80E
:103FC00004008DF8054011208DF806004FF40051D3
:103FD000DB4802F038FF012805D1112000E02EE077
:103FE0008DF8070002E000208DF80700042101A8E9
:103FF000FCF715F905468DF80850D94808300188B6
:10400000ADF8091080788DF80B0000208DF80C00B9
:104010000C21684600E005E0FCF7C9F80C21684671
:10402000FCF7A0F84FF47A70FCF76AF84FF40061DF
:10403000C14802F024FF4FF47A70FCF761F8BF48E2
:104040000078E8B34FF40051BD4802F0FCFE0128AF
:1040500066D14FF47A70FCF753F84FF40061B6481C
:1040600002F00BFF4FF47A70FCF74AF80A2002F0D6
:10407000D4FB4FF40051B24802F0E5FE012842D1D2
:104080002246B049002005F045FBAC480278B5A1B6
:10409000002005F03FFB0020A8490870B0480068E8
:1040A000009060208DF804008DF8054011208DF8F7
:1040B00006004FF40051A24802F0C5FE012800E0BE
:1040C0002EE003D111208DF8070002E000208DF8CA
:1040D0000700042101A8FCF7A2F805468DF8085056
:1040E0009F4808300188ADF8091080788DF80B00E2
:1040F00000208DF80C000C216846FCF758F80C21C4
:104100006846FCF72FF84FF47A70FBF7F9FF4FF48D
:104110000061894802F0B3FE4FF47A70FBF7F0FFBC
:1041200096480078E8BB4FF40041854802F08BFECA
:10413000B8BB4FF47A70FBF7E3FF4FF400617E48A1
:1041400002F09BFE4FF47A70FBF7DAFF0A2002F0D0
:1041500064FB4FF400417A4802F075FEE8BB22464A
:104160007849002005F0D6FA8448027884A100201E
:1041700005F0D0FA01208149087079480068009064
:1041800060208DF804008DF8054012208DF806009F
:104190004FF400416A4802F056FE012805D1112073
:1041A00000E02EE08DF8070002E000208DF8070007
:1041B000042101A8FCF733F805468DF8085068483B
:1041C00008300188ADF8091080788DF80B000020C8
:1041D0008DF80C000C21684600E005E0FBF7E7FFD6
:1041E0000C216846FBF7BEFF4FF47A70FBF788FF9F
:1041F0004FF40061504802F042FE4FF47A70FBF732
:104200007FFF5E480078E8B34FF400414C4802F06D
:104210001AFE012866D14FF47A70FBF771FF4FF454
:104220000061454802F029FE4FF47A70FBF768FF01
:104230000A2002F0F2FA4FF40041414802F003FE76
:10424000012842D122463F49002005F063FA4B483D
:10425000027851A1002005F05DFA0020474908705E
:104260003F480068009060208DF804008DF80540FC
:1042700012208DF806004FF40041314802F0E3FDB2
:10428000012800E02EE003D111208DF8070002E0A4
:1042900000208DF80700042101A8FBF7C0FF0546A8
:1042A0008DF808502E4808300188ADF80910807844
:1042B0008DF80B0000208DF80C000C216846FBF7F0
:1042C00076FF0C216846FBF74DFF4FF47A70FBF741
:1042D00017FF4FF40061184802F0D1FD4FF47A70D7
:1042E000FBF70EFF3248007818BB4FF400713148DD
:1042F00002F0A9FDE8B94FF47A70FBF701FF4FF423
:1043000000610D4802F0B9FD4FF47A70FBF7F8FE3A
:104310000A2002F082FA4FF40071264802F093FD61
:1043200040B922460749002005F0F4F920480278F8
:1043300042E088E07AE00000000801402900002007
:10434000000C0140A0230008636C6F73652D6B6542
:104350007931375F666C61673D2025640A00000093
:10436000741600086F70656E2D6B657931375F6666
:104370006C61673D2025640A000000002A000020CF
:10438000636C6F73652D6B657931385F666C61673F
:104390003D2025640A0000006F70656E2D6B657905
:1043A00031385F666C61673D2025640A00000000BB
:1043B0002B00002000140140F9A1002005F0AAF90B
:1043C0000120FD490870FD480068009060208DF8CC
:1043D00004008DF8054013208DF806004FF400719D
:1043E000F74802F030FD012803D111208DF80700B5
:1043F00002E000208DF80700042101A8FBF70FFF61
:1044000005468DF80850ED4808300188ADF80910D0
:1044100080788DF80B0000208DF80C000C21684688
:10442000FBF7C5FE0C216846FBF79CFE4FF47A7043
:10443000FBF766FE4FF40061E24802F020FD4FF406
:104440007A70FBF75DFEDC480078E8B34FF400714A
:10445000DB4802F0F8FC012866D14FF47A70FBF7D4
:104460004FFE4FF40061D74802F007FD4FF47A7019
:10447000FBF746FE0A2002F0D0F94FF40071D04855
:1044800002F0E1FC012842D12246CF49002005F08C
:1044900041F9C9480278CDA1002005F03BF9002080
:1044A000C5490870C5480068009060208DF8040078
:1044B0008DF8054013208DF806004FF40071C048B8
:1044C00002F0C1FC012800E02EE003D111208DF89C
:1044D000070002E000208DF80700042101A8FBF787
:1044E0009EFE05468DF80850B44808300188ADF8A6
:1044F000091080788DF80B0000208DF80C000C213D
:104500006846FBF754FE0C216846FBF72BFE4FF480
:104510007A70FBF7F5FD4FF40061AA4802F0AFFC9A
:104520004FF47A70FBF7ECFDAE480078E8BB4FF42F
:104530000061A34802F087FCB8BB4FF47A70FBF728
:10454000DFFD4FF400619F4802F097FC4FF47A7052
:10455000FBF7D6FD0A2002F060F94FF4006198489D
:1045600002F071FCE8BB22469749002005F0D2F822
:104570009C4802789CA1002005F0CCF801209949C4
:1045800008708E480068009060208DF804008DF857
:10459000054014208DF806004FF40061884802F0B1
:1045A00052FC012805D1112000E02EE08DF8070013
:1045B00002E000208DF80700042101A8FBF72FFE80
:1045C00005468DF808507D4808300188ADF809107F
:1045D00080788DF80B0000208DF80C000C216846C7
:1045E00000E005E0FBF7E3FD0C216846FBF7BAFDB0
:1045F0004FF47A70FBF784FD4FF40061714802F0CC
:104600003EFC4FF47A70FBF77BFD76480078E8B308
:104610004FF400616A4802F016FC012866D14FF49D
:104620007A70FBF76DFD4FF40061664802F025FCDF
:104630004FF47A70FBF764FD0A2002F0EEF84FF4B5
:1046400000615F4802F0FFFB012842D122465E492B
:10465000002005F05FF86348027869A1002005F0AA
:1046600059F800205F4908705448006800906020A5
:104670008DF804008DF8054014208DF806004FF4E5
:1046800000614F4802F0DFFB012800E02EE003D17B
:1046900011208DF8070002E000208DF807000421AA
:1046A00001A8FBF7BCFD05468DF8085043480830CB
:1046B0000188ADF8091080788DF80B0000208DF886
:1046C0000C000C216846FBF772FD0C216846FBF7D5
:1046D00049FD4FF47A70FBF713FD4FF40061394840
:1046E00002F0CDFB4FF47A70FBF70AFD4A480078E0
:1046F000E8BB4FF40051324802F0A5FBB8BB4FF4C1
:104700007A70FBF7FDFC4FF400612E4802F0B5FB18
:104710004FF47A70FBF7F4FC0A2002F07EF84FF4B5
:104720000051274802F08FFBC8BB224626490020D3
:1047300004F0F0FF3848027838A1002004F0EAFFC6
:104740000120354908701D480068009060208DF8F0
:1047500004008DF8054015208DF806004FF4005137
:10476000174802F070FB012805D1112000E078E025
:104770008DF8070002E000208DF80700042101A851
:10478000FBF74DFD05468DF808500C4808300188B0
:10479000ADF8091080788DF80B0000204AE053E056
:1047A000636C6F73652D6B657931395F666C61671A
:1047B0003D2025640A0000002B000020741600082C
:1047C0000014014000080140A02300086F70656ECE
:1047D0002D6B657931395F666C61673D2025640A10
:1047E000000000002C000020636C6F73652D6B656A
:1047F0007932305F666C61673D2025640A000000F5
:104800006F70656E2D6B657932305F666C61673DE8
:104810002025640A000000002D000020636C6F73E7
:10482000652D6B657932315F666C61673D2025646B
:104830000A0000008DF80C000C216846FBF7B7FC5D
:104840000C216846FBF78EFC4FF47A70FBF758FC9E
:104850004FF40061F74802F012FB4FF47A70FBF757
:104860004FFCF5480078E8B34FF40051F34802F0EC
:10487000EAFA012866D14FF47A70FBF741FC4FF455
:104880000061EC4802F0F9FA4FF47A70FBF738FC5B
:104890000A2001F0C2FF4FF40051E84802F0D3FAB9
:1048A000012842D12246E649002004F033FFE248C5
:1048B0000278E4A1002004F02DFF0020DE490870FA
:1048C000E6480068009060208DF804008DF80540EF
:1048D00015208DF806004FF40051D84802F0B3FAC5
:1048E000012800E02EE003D111208DF8070002E03E
:1048F00000208DF80700042101A8FBF790FC054675
:104900008DF80850D54808300188ADF80910807836
:104910008DF80B0000208DF80C000C216846FBF789
:1049200046FC0C216846FBF71DFC4FF47A70FBF740
:10493000E7FB4FF40061BF4802F0A1FA4FF47A7030
:10494000FBF7DEFBC6480078E8BB4FF40041BB48EC
:1049500002F079FAB8BB4FF47A70FBF7D1FB4FF451
:104960000061B44802F089FA4FF47A70FBF7C8FB93
:104970000A2001F052FF4FF40041B04802F063FA00
:10498000E8BB2246AE49002004F0C4FEB4480278D9
:10499000B4A1002004F0BEFE0120B1490870AF4868
:1049A0000068009060208DF804008DF80540162006
:1049B0008DF806004FF40041A04802F044FA0128A7
:1049C00005D1112000E02EE08DF8070002E0002064
:1049D0008DF80700042101A8FBF721FC05468DF89E
:1049E00008509E4808300188ADF8091080788DF88D
:1049F0000B0000208DF80C000C21684600E005E05B
:104A0000FBF7D5FB0C216846FBF7ACFB4FF47A7043
:104A1000FBF776FB4FF40061864802F030FA4FF462
:104A20007A70FBF76DFB8E480078E8B34FF40041D5
:104A3000824802F008FA012866D14FF47A70FBF739
:104A40005FFB4FF400617B4802F017FA4FF47A7075
:104A5000FBF756FB0A2001F0E0FE4FF400417748D7
:104A600002F0F1F9012842D122467549002004F0F4
:104A700051FE7B48027881A1002004F04BFE00200B
:104A80007749087075480068009060208DF8040030
:104A90008DF8054016208DF806004FF40041674858
:104AA00002F0D1F9012800E02EE003D111208DF8A9
:104AB000070002E000208DF80700042101A8FBF7A1
:104AC000AEFB05468DF80850644808300188ADF803
:104AD000091080788DF80B0000208DF80C000C2157
:104AE0006846FBF764FB0C216846FBF73BFB4FF481
:104AF0007A70FBF705FB4FF400614E4802F0BFF9F6
:104B00004FF47A70FBF7FCFA62480078E0BB802132
:104B1000614802F098F9B8BB4FF47A70FBF7F0FAED
:104B20004FF40061434802F0A8F94FF47A70FBF7A4
:104B3000E7FA0A2001F071FE8021574802F083F95C
:104B4000F0BB22463E49002004F0E4FD51480278C3
:104B500052A1002004F0DEFD01204E4908703F48BC
:104B60000068009060208DF804008DF80540172043
:104B70008DF806008021484802F065F9012804D12B
:104B800011208DF8070003E02BE000208DF80700CE
:104B9000042101A8FBF743FB05468DF808502F4878
:104BA00008300188ADF8091080788DF80B000020DE
:104BB0008DF80C000C216846FBF7F9FA0C2100E097
:104BC00002E06846FBF7CEFA4FF47A70FBF798FAEA
:104BD0004FF40061174802F052F94FF47A70FBF776
:104BE0008FFA2C48007818B380212B4802F02BF95B
:104BF00001281DD14FF47A70FBF782FA4FF400615F
:104C00000C4802F03AF94FF47A70FBF779FA0A206F
:104C100001F003FE8021204802F015F901287DD122
:104C200022460749002004F075FD1A48027841E049
:104C300088E00000000801402D0000200014014021
:104C4000A02300086F70656E2D6B657932315F6649
:104C50006C61673D2025640A00000000741600089E
:104C60002E000020636C6F73652D6B657932325FA7
:104C7000666C61673D2025640A0000006F70656EF8
:104C80002D6B657932325F666C61673D2025640A61
:104C9000000000002F00002000100140636C6F73C3
:104CA000652D6B657932335F666C61673D202564E5
:104CB0000A000000FAA1002004F02CFD0020FE49AB
:104CC0000870FE480068009060208DF804008DF8A0
:104CD000054017208DF806008021F94802F0B3F84E
:104CE000012803D111208DF8070002E000208DF883
:104CF0000700042101A8FBF792FA05468DF8085039
:104D0000EE4808300188ADF8091080788DF80B0066
:104D100000208DF80C000C21684600E005E0FBF750
:104D200046FA0C216846FBF71DFA4FF47A70FBF740
:104D3000E7F94FF40061E34802F0A1F84FF47A700C
:104D4000FBF7DEF9E0480078E8BB4FF40071DC487F
:104D500002F079F8B8BB4FF47A70FBF7D1F94FF451
:104D60000061D84802F089F84FF47A70FBF7C8F96F
:104D70000A2001F052FD4FF40071D14802F063F8AF
:104D8000E8BB2246D149002004F0C4FCCE4802789A
:104D9000CFA1002004F0BEFC0120CB490870C74819
:104DA0000068009060208DF804008DF80540182000
:104DB0008DF806004FF40071C14802F044F8012854
:104DC00005D1112000E02EE08DF8070002E0002060
:104DD0008DF80700042101A8FBF721FA05468DF89C
:104DE0000850B64808300188ADF8091080788DF871
:104DF0000B0000208DF80C000C21684600E005E057
:104E0000FBF7D5F90C216846FBF7ACF94FF47A7043
:104E1000FBF776F94FF40061AA4802F030F84FF43E
:104E20007A70FBF76DF9A8480078E8B34FF4007189
:104E3000A34802F008F8012866D14FF47A70FBF716
:104E40005FF94FF400619F4802F017F84FF47A7051
:104E5000FBF756F90A2001F0E0FC4FF40071984886
:104E600001F0F1FF012842D122469849002004F0C8
:104E700051FC954802789CA1002004F04BFC0020D6
:104E8000914908708D480068009060208DF80400FA
:104E90008DF8054018208DF806004FF40071884801
:104EA00001F0D1FF012800E02EE003D111208DF8A0
:104EB000070002E000208DF80700042101A8FBF79D
:104EC000AEF905468DF808507C4808300188ADF8E9
:104ED000091080788DF80B0000208DF80C000C2153
:104EE0006846FBF764F90C216846FBF73BF94FF481
:104EF0007A70FBF705F94FF40061724801F0BFFFCB
:104F00004FF47A70FBF7FCF840B070BD00BF00248E
:104F100001F046FC4FF4A06002F026FC784801F056
:104F200070FD00F0B8FA41F61F4140F6B73000F0CE
:104F3000A8FC002000F094FC022001F05EFA714908
:104F4000022001F020FB41F61F41632001F072F9BD
:104F5000002001F05EF96C49002004F0DBFB75E1F4
:104F60006A480078012837D14FF47A70FBF7C8F807
:104F70004FF40061534801F080FF4FF47A70FBF763
:104F8000BFF858A1002004F0C5FB6148027861A178
:104F9000002004F0BFFB65A1002004F0BBFB5C48CF
:104FA00001786648FBF7DEF8FBF7ECFD4FF47A700A
:104FB000FBF7A6F84FF40061424801F060FF4FF4A0
:104FC0007A70FBF79DF80D215C4804F0D0FB0020BF
:104FD0004F4908704D490870022001F0C9FA054692
:104FE000002D57D0012D30D155480068401C544940
:104FF000086054480078A8B941F61F4140F6B73020
:1050000000F03FFC012000F02BFC02204E4908700C
:1050100001204C490870084602784CA1002004F099
:1050200079FB0BE0012048490870002045490870D1
:10503000084602784AA1002004F06CFB4048026850
:105040004CA1002004F066FB24E041F61F4141F230
:10505000873000F016FC012000F002FC3A4800788E
:10506000012809D14AA1002004F054FB032036494D
:105070000870012000F0F4FB012032490870494813
:105080000068401C474908600846026846A10020A5
:1050900004F040FB641C6420B4FBF0F192E00000DB
:1050A0006F70656E2D6B657932335F666C61673D3D
:1050B0002025640A000000002F000020741600085C
:1050C000001001400008014030000020A02300082B
:1050D000636C6F73652D6B657932345F666C6167E5
:1050E0003D2025640A0000006F70656E2D6B6579A8
:1050F00032345F666C61673D2025640A0000000061
:1051000001020008211F0008E8A800089B000020F9
:10511000940000202D6D61696E2D55617274315FB0
:105120005278203D2025640A000000002D2D2D72AC
:1051300063762D64617461732D2D2D00B001002004
:10514000100000201800002031000020316D6F6435
:10515000655F6E6F6D616C203D2025640A00000064
:10516000326D6F64655F6E6F6D616C203D202564EC
:105170000A0000006B65793253686F727450726573
:105180007373436F756E74203D2025640A00000020
:105190002D2D2D6B65795F6D6F6465203D332D2D51
:1051A0002D0A0000140000206B6579324C6F6E6789
:1051B0005072657373436F756E74203D2025640AC9
:1051C0000000000000FB114078B921480078012858
:1051D0000BD120A1002004F09DFA2248006808B9F4
:1051E000012000E000201F4908600A20B4FBF0F114
:1051F00000FB114078B91648007802280BD11AA19B
:10520000002004F087FA1748006808B9012000E080
:105210000020144908600A20B4FBF0F100FB1140A3
:1052200078B90B48007803280BD113A1002004F0B3
:1052300071FA0C48006808B9012000E00020094913
:1052400008600A2001F0E9FAFCF77AFE88E600001F
:10525000310000202D2D2D74657374312D2D2D0AF4
:1052600000000000948121422D2D2D74657374324D
:105270002D2D2D0A000000002D2D2D746573743323
:105280002D2D2D0A00000000704700BFFEE700BF73
:10529000FEE700BFFEE700BFFEE7704770477047BC
:1052A000704700000CB50020019000906C48006829
:1052B00040F480306A49086000BF6948006800F423
:1052C000003000900198401C0190009818B9019896
:1052D000B0F5A06FF1D16248006800F4003010B161
:1052E0000120009001E0002000900098012843D1A7
:1052F0005C48006840F010005A49086008460068A1
:1053000020F0030008600846006840F002000860D2
:10531000534840685249486008464068486008461B
:10532000406840F4806048600846406820F47C1083
:1053300048600846406840F4E81048600846006845
:1053400040F08070086000BF4548006800F00070C1
:105350000028F9D04248406820F0030040494860E6
:105360000846406840F00200486000BF3C48406882
:1053700000F00C000828F9D10CBD10B5FFF792FF22
:1053800010BD10B53648006840F00100344908608F
:10539000084640683449084031494860084600687A
:1053A000324908402E4908600846006820F48020F1
:1053B00008600846406820F4FE0048604FF41F0073
:1053C0008860FFF7DAFF4FF000602949086010BDE0
:1053D00010B5002100200022214B5B6803F00C0176
:1053E00021B1042906D0082928D107E0214B224CFD
:1053F000236027E01F4B204C236023E0184B5B68A1
:1054000003F47010164B5B6803F48032022303EB45
:10541000904022B9194B4343174C23600DE0104BC9
:105420005B6803F4003323B1144B4343124C2360F5
:1054300003E0104B4343104C236003E00D4B0E4C34
:10544000236000BF00BF064B5B68C3F303130C4C23
:10545000E15C094B1B68CB40074C236010BD00008A
:1054600000100240002002400000FFF8FFFFF6FE9F
:1054700008ED00E000127A003400002000093D0031
:105480003800002001B502E00098401E009000980E
:105490000028F9D108BD08B501217C2001F0FCFEEF
:1054A00010208DF8030003208DF802000121FE4832
:1054B00001F007FD2020ADF800006946FB4801F02F
:1054C0002FFC2021F94801F0DAFC4FF40060ADF820
:1054D00000006946F64801F023FC4FF47A70FFF7AC
:1054E000D1FF4FF40061F24801F0C9FC4FF47A702B
:1054F000FFF7C8FF0120ADF8000048208DF8030039
:105500006946EC4801F00CFC0420ADF8000048208E
:105510008DF803006946E74801F002FC0220ADF86F
:10552000000010208DF8030003208DF8020069466A
:10553000E04801F0F5FB0020DF4908600820ADF8E5
:10554000000010208DF8030003208DF8020069464A
:10555000D84801F0E5FB0020D849C1F88C010220B1
:10556000ADF8000010208DF8030003208DF8020034
:105570006946CF4801F0D4FB0020D14908600820DB
:10558000ADF8000010208DF8030003208DF8020014
:105590006946C74801F0C4FB0020CA49C1F88C0124
:1055A0002020ADF8000010208DF8030003208DF8B6
:1055B00002006946BE4801F0B3FB0020C04910312B
:1055C00008608020ADF8000010208DF80300032053
:1055D0008DF802006946B64801F0A2FB0020B949E7
:1055E000C1F89C012020ADF8000010208DF80300C8
:1055F00003208DF802006946AE4801F091FB0020BF
:10560000AD49103108600220ADF8000010208DF87F
:10561000030003208DF802006946A44801F080FBD6
:105620000020A949C1F884012020ADF80000102015
:105630008DF8030003208DF802006946A34801F0AD
:105640006FFB0020A24908600420ADF80000102084
:105650008DF8030003208DF8020069469B4801F095
:105660005FFB00209B49C1F888014FF48070ADF8C2
:10567000000010208DF8030003208DF80200694619
:10568000924801F04DFB002091490C3108604FF425
:105690008060ADF8000010208DF8030003208DF825
:1056A00002006946894801F03BFB00208949C1F8A6
:1056B000A8014FF48050ADF8000010208DF80300D1
:1056C00003208DF802006946804801F029FB002084
:1056D0007F491C3108604FF48040ADF80000102075
:1056E0008DF8030003208DF802006946774801F029
:1056F00017FB00207749C1F8B8014FF48060ADF87E
:10570000000010208DF8030003208DF80200694688
:10571000664801F005FB00206F4908604FF4805097
:10572000ADF8000010208DF8030003208DF8020072
:1057300069465E4801F0F4FA00206349C1F8B001FF
:105740004FF48040ADF8000010208DF803000320D6
:105750008DF802006946554801F0E2FA00205A49E6
:10576000C1F8B8014FF48070ADF8000010208DF83A
:10577000030003208DF802006946584801F0D0FA72
:1057800000205749C1F8A0014FF48060ADF8000037
:1057900010208DF8030003208DF8020069464F4861
:1057A00001F0BEFA00204E49C1F8A8014FF4805024
:1057B000ADF8000010208DF8030003208DF80200E2
:1057C0006946464801F0ACFA00204549C1F8B001ED
:1057D0004FF48040ADF8000010208DF80300032046
:1057E0008DF8020069463D4801F09AFA00203C49D4
:1057F000C1F8B8014020ADF8000010208DF803007A
:1058000003208DF8020069462A4801F089FA002039
:105810002A49C1F898014FF48070ADF800001020BB
:105820008DF8030003208DF802006946214801F03D
:1058300077FA00202149C1F8A0014FF48070ADF83B
:10584000000010208DF8030003208DF80200694647
:10585000174801F065FA00201A49C1F8A00108BDF7
:1058600010B5044644B100211E4802F0AFFE0121EC
:105870001C4802F017FC03E000211A4802F012FC59
:1058800010BD7FB505460C460121042001F011FD35
:10589000ADF80850ADF804400020ADF80A00ADF8AE
:1058A000060001A90F481FE000023000000C014073
:1058B0000008014000100140840122420000224201
:1058C0008401214200002142008021420018014051
:1058D0009401234200002342A88121420014014088
:1058E000008022420008004002F080F801221146A8
:1058F000FE4802F0F2FB1E208DF8000000208DF81B
:10590000010001208DF802008DF80300684601F0C7
:1059100030FF0121F54802F0C5FB0121F34802F0F8
:105920009BFE7FBD10B5F2A1002003F0F3FE012124
:10593000EE4802F080FE002876D00121EB4802F00C
:105940008BFEF048007803286FD1EF480278EFA172
:10595000002003F0DFFEEC480078192871DCEA48EB
:10596000007819286ED2DFE800F06D0D18242F3B67
:105970004753616E7985919DA9B5C1CDD9E4F5F301
:10598000F2F1F0000120E7490860642000F045FFD3
:105990000020E549C1F8840119E10120E1490831FD
:1059A0000860642000F039FF0020DF49C1F88C0155
:1059B0000DE10120DD490860642000F02EFF002089
:1059C000DB49C1F8840102E10120D84908310860AF
:1059D000642000F022FF0020D549C1F88C01F6E0D8
:1059E0000120D24910310860642000F016FF002029
:1059F000CF49C1F89401EAE00120CC491831086090
:105A0000642000F00AFF0020C949C1F89C01DEE0D3
:105A10000120C44910310860642000F0FEFE00201F
:105A2000C149C1F89401D2E0E5E3E5E00120C149B4
:105A30000860642000F0F1FE0020BF49C1F8840135
:105A4000C5E0CBE0C2E00120BC490860642000F062
:105A5000E4FE0020BA49C1F89401B8E00120B7493A
:105A60000C390860642000F0D8FE0020B449C1F869
:105A70008801ACE00120B1490C310860642000F0DD
:105A8000CCFE0020AE49C1F8A001A0E00120AB4946
:105A900014310860642000F0C0FE0020A849C1F85D
:105AA000A80194E00120A5491C310860642000F0A1
:105AB000B4FE0020A249C1F8B00188E001209F494E
:105AC00024310860642000F0A8FE00209C49C1F841
:105AD000B8017CE00120974924310860642000F07F
