:020000040800F2
:10000000680B0020B96C0008E1520008E3520008B8
:10001000E7520008EB520008EF5200080000000011
:10002000000000000000000000000000F352000883
:10003000F552000800000000F7520008F9520008CD
:10004000D36C0008D36C0008D36C0008D36C000894
:10005000D36C0008D36C0008D36C0008D36C000884
:10006000D36C0008D36C0008D36C0008D36C000874
:10007000D36C0008D36C0008D36C0008D36C000864
:10008000D36C0008D36C0008D36C0008D36C000854
:10009000D36C0008D36C0008D36C0008B16700086B
:1000A000D36C0008D36C0008D36C0008D36C000834
:1000B0001B6600080F63000881590008D36C000814
:1000C000D36C0008D36C0008D36C0008D36C000814
:1000D000D36C0008376B0008D36C0008D36C0008A1
:1000E000D36C0008D36C0008D36C0008DFF80CD088
:1000F00009F098FD004800470D4F0008680B0020EC
:1001000001B502E00098401E009000980028F9D147
:1001100008BD0FB430B59BB000241FA80190652125
:1001200002A8019B1E9A09F02DFEC5B20EE02046E2
:10013000621CD4B202AA115CF74807F08DFA00BF26
:100140004021F54807F0F6FA0028F9D0642C03DACC
:10015000AC4201DA002DEADC002001901BB030BC7B
:100160005DF814FB70B504460D46ECA1002009F0C3
:1001700011FB05E02278EDA1002009F00BFB641CC7
:10018000281EA5F10101CDB2F4D1EAA109F002FBCC
:1001900070BD10B504462146DF4807F05DFA00BF88
:1001A0008021DD4807F0C6FA0028F9D010BD70B5EF
:1001B00004460D460BE02178D74807F04DFA00BF02
:1001C0004021D54807F0B6FA0028F9D0641C281E53
:1001D000A5F10101CDB2EED170BD10B504460BE022
:1001E0002178CD4807F038FA00BF4021CA4807F00F
:1001F000A1FA0028F9D0641C20780028F0D110BDA5
:1002000070B504460D462178C34807F025FA70BD45
:1002100010B504462146C8A009F0A4FD10BD10B5D4
:1002200002460B460020002103E0545C60404C1C59
:10023000A1B29942F9DB10BD0020C3490860C3494F
:10024000C1F88C01C2490860C14908310860C04941
:1002500010310860BE4918310860BB491031086090
:10026000BC490860BC490860BB490C390860BA4900
:100270000C310860B84914310860B7491C31086076
:10028000B54924310860B34924310860B1492C31A3
:100290000860B04934310860B0490860AF4908319E
:1002A0000860AE4910310860AC4918310860A649B1
:1002B00014310860A4491C310860A949C1F8A001A3
:1002C000704710B50120A0490860642006F0E3FAE9
:1002D0000121A44806F0F5FD012803D14FF49670E2
:1002E00006F0D9FA01219F4806F0EBFD012803D161
:1002F0004FF4167006F0CFFA0020934908604FF4CF
:10030000FA7006F0C8FA01209049C1F88C01642007
:1003100006F0C1FA0421934806F0D3FD012803D169
:100320004FF4967006F0B7FA04218E4806F0C9FD26
:10033000012803D14FF4167006F0ADFA002082496F
:10034000083108604FF4FA7006F0A5FA8648D0F834
:10035000940108B9012000E000207E4910310860B6
:1003600001207F49C1F88401642006F094FA01213C
:100370007E4806F0A6FD012803D14FF4967006F0E2
:100380008AFA0121794806F09CFD012803D14FF437
:10039000167006F080FA00206D4908604FF4FA707C
:1003A00006F079FA7048D0F8940108B9012000E00D
:1003B000002068491031086001206949C1F88C01AA
:1003C000642006F068FA0421684806F07AFD0128E6
:1003D00003D14FF4967006F05EFA0421634806F0EC
:1003E00070FD012803D14FF4167006F054FA002076
:1003F0005749083108604FF4FA7006F04CFA5A4831
:10040000D0F8940108B9012000E0002051491031D2
:10041000086001205249C1F89401642006F03BFABB
:100420001021524806F04DFD012803D14FF496707B
:1004300006F031FA10214D4806F043FD012803D1A2
:100440004FF4167006F027FA002041491031086079
:100450004FF4FA7006F01FFA4348D0F8940108B937
:10046000012000E000203B491031086001203C4998
:10047000C1F89C01642006F00EFA40213B4806F0CA
:1004800020FD012803D14FF4967006F004FA4021B4
:10049000364806F016FD012803D14FF4167006F019
:1004A000FAF900202A49183108604FF4FA7006F072
:1004B000F2F92D48D0F8940108B9012000E000209D
:1004C00024491031086001202049C1F894016420BA
:1004D00006F0E1F91021234806F0F3FC012803D1CE
:1004E0004FF4967006F0D7F910211E4806F0E9FC8B
:1004F000012803D14FF4167006F0CDF900201249FF
:10050000103108604FF4FA7006F0C5F91648D0F8BB
:10051000940168BB01202DE0003801407274742DF5
:1005200074656D703D3D3D3D3D00000025303278E5
:10053000200000000A000000726563765F64617449
:10054000613D25780D0A000084012242000022420C
:10055000840121428481214294012342A0812242CC
:1005600000002142001001400080214200080140AB
:10057000FFE70020F74908600120F749C1F884012E
:10058000642006F088F90121F44806F09AFC01285D
:1005900003D14FF4967006F07EF90121EF4806F082
:1005A00090FC012803D14FF4167006F074F9002076
:1005B000E849103908604FF4FA7006F06CF9E64823
:1005C000D0F8940108B9012000E00020E14908605A
:1005D0000120E349C1F89401642006F05CF9082188
:1005E000E04806F06EFC012803D14FF4967006F047
:1005F00052F90821DB4806F064FC012803D14FF4CE
:10060000167006F048F90020D74908604FF4FA70D8
:1006100006F041F9D048D0F8940108B9012000E073
:100620000020CC4908600120CD49C1F88801642030
:1006300006F031F91021CB4806F043FC012803D124
:100640004FF4967006F027F91021C64806F039FCE1
:10065000012803D14FF4167006F01DF90020C2499D
:100660000C3908604FF4FA7006F015F9BA48D0F862
:10067000940108B9012000E00020B649086001207B
:10068000B749C1F8A001642006F005F98021B548FA
:1006900006F017FC012803D14FF4967006F0FBF822
:1006A0008021B04806F00DFC012803D14FF41670EC
:1006B00006F0F1F80020AC490C3108604FF4FA70F4
:1006C00006F0E9F8A448D0F8940108B9012000E048
:1006D0000020A04908600120A149C1F8A8016420B8
:1006E00006F0D9F84FF400719E4806F0EAFB0128A5
:1006F00003D14FF4967006F0CEF84FF4007199488C
:1007000006F0DFFB012803D14FF4167006F0C3F8A2
:1007100000209549143108604FF4FA7006F0BBF8D8
:100720008D48D0F8940108B9012000E000208949E3
:10073000086001208A49C1F8B001642006F0ABF8D6
:100740004FF40061874806F0BCFB012803D14FF449
:10075000967006F0A0F84FF40061824806F0B1FBF5
:10076000012803D14FF4167006F095F800207E4959
:100770001C3108604FF4FA7006F08DF87648D0F816
:10078000940108B9012000E00020724908600120AE
:100790007349C1F8B801642006F07DF84FF40051A8
:1007A000704806F08EFB012803D14FF4967006F0D6
:1007B00072F84FF400516B4806F083FB012803D117
:1007C0004FF4167006F067F800206749243108607E
:1007D0004FF4FA7006F05FF85F48D0F8940108B95A
:1007E000012000E000205B49086001205A49C1F85F
:1007F000A801642006F04FF84FF40041594806F074
:1008000060FB012803D14FF4967006F044F84FF4D2
:100810000041544806F055FB012803D14FF41670EF
:1008200006F039F800204B49143108604FF4FA7093
:1008300006F031F84848D0F8940108B9012000E0EA
:1008400000204449086001204349C1F8B0016420F8
:1008500006F021F84FF40061404806F032FB012811
:1008600003D14FF4967006F016F84FF400613B4840
:1008700006F027FB012803D14FF4167006F00BF8A1
:10088000002034491C3108604FF4FA7006F003F878
:100890003148D0F8940108B9012000E000202D492A
:1008A000086001202C49C1F8B801642005F0F3FF6D
:1008B0004FF40051294806F004FB012803D14FF4FE
:1008C000967005F0E8FF4FF40051244806F0F9FA5D
:1008D000012803D14FF4167005F0DDFF00201D49FB
:1008E000243108604FF4FA7005F0D5FF1A48D0F8AB
:1008F000940108B9012000E0002016490860012099
:100900001A49C1F8A001642005F0C5FF4FF4004169
:10091000124806F0D6FA012803D14FF4967005F07C
:10092000BAFF4FF400410D4806F0CBFA012803D17D
:100930004FF4167005F0AFFF00200D4908604FF42A
:10094000FA7005F0A8FF0448D0F8940190B901208E
:1009500011E000009481214200802142000C0140FE
:1009600000002342001801409401234200802242EB
:10097000A08122420020FE4908600120FD49C1F803
:10098000A801642005F087FF4FF40071FA4806F0D3
:1009900098FA012803D14FF4967005F07CFF4FF4CC
:1009A0000071F54806F08DFA012803D14FF4167056
:1009B00005F071FF0020F14908604FF4FA7005F06E
:1009C0006AFFEF48D0F8940108B9012000E0002048
:1009D000E74908600120E749C1F8B001642005F04B
:1009E0005AFF4FF40061E44806F06BFA012803D186
:1009F0004FF4967005F04FFF4FF40061DE4806F0AB
:100A000060FA012803D14FF4167005F044FF00206E
:100A1000DA49083108604FF4FA7005F03CFFD84815
:100A2000D0F8940108B9012000E00020D049086006
:100A30000120D049C1F8B801642005F02CFF4FF423
:100A40000051CD4806F03DFA012803D14FF49670CD
:100A500005F021FF4FF40051C74806F032FA012893
:100A600003D14FF4167005F016FF0020C349103172
:100A700008604FF4FA7005F00EFFC148D0F89401F9
:100A800008B9012000E00020B94908600120BD49F3
:100A9000C1F89801642005F0FEFE4FF40041B6480D
:100AA00006F00FFA012803D14FF4967005F0F3FE1B
:100AB0004FF40041B04806F004FA012803D14FF486
:100AC000167005F0E8FE0020AF4908604FF4FA7098
:100AD00005F0E1FEAA48D0F8940108B9012000E031
:100AE0000020A34908600120A649C1F8A0016420A4
:100AF00005F0D1FE8021A54806F0E3F9012803D1D5
:100B00004FF4967005F0C7FE8021A04806F0D9F991
:100B1000012803D14FF4167005F0BDFE00209A495C
:100B2000083108604FF4FA7005F0B5FE9448D0F82B
:100B3000940108B9012000E000208D4908600120DF
:100B40009349C1F8A001642005F0A5FE4FF400719F
:100B50008E4806F0B6F9012803D14FF4967005F0DF
:100B60009AFE4FF40071894806F0ABF9012803D1D1
:100B70004FF4167005F08FFE002086490860FFF7DD
:100B80005BFB10BD2DE9F04FADF5017D4FF4807199
:100B900041A808F02CFE4FF4807101A808F027FE50
:100BA0004FF000097C4802787CA1002008F0F2FD9B
:100BB00079480078083800F0FF094A467DA10020F6
:100BC00008F0E8FD4A46804901A808F0F7FD4FF417
:100BD00080616E4806F075F983464FF400616B48FA
:100BE00006F06FF94BEA400B4FF48051674806F06E
:100BF00068F94BEA800B01215F4806F062F94BEA85
:100C0000C00B10215C4806F05CF94BEA001B082180
:100C1000594806F056F94BEA401B0421564806F0A5
:100C200050F94BEA801B0221534806F04AF94BEA7F
:100C3000C01000F0FF0A9DF80500504541F06C819E
:100C4000B9F1050F7ED19DF80400604908709DF848
:100C5000050048709DF8060088709DF80700C87070
:100C60009DF808000871042101A8FFF7D8FA05468D
:100C70002A4657A1002008F08DFD54480079A8426B
:100C800070D15248007880286DD08A286CD14F48A6
:100C9000C078112869D14D488078192866D2DFE8DC
:100CA00000F0650D41C1F9F7F6F5F4F3F2F1F0EF5C
:100CB000EEEDECEBEAE9E8E7E6E5E4000120324995
:100CC00014390860642005F0E6FD01212F4806F084
:100CD000F8F8012807D142A1002008F05BFD4FF48D
:100CE000967005F0D8FD0121284806F0EAF80128A1
:100CF00007D13FA1002008F04DFD4FF4167005F01C
:100D0000CAFD002020491439086001211F4806F05F
:100D1000D8F804462D488278234639A1002008F0EF
:100D200039FDE9E3012018490C390860642005F019
:100D3000B2FD0421154806F0C4F8012805D14FF48E
:100D4000967000E0F7E305F0A6FD04210F4806F0D9
:100D5000B8F8012803D14FF4167005F09CFD00206F
:100D6000094957E0E8E3E8E3E8E3E8E3C3E3000028
:100D7000948121420080224200140140A881224235
:100D800000802142000022429801224200100140CE
:100D900000002142A0012142940000202D706172C8
:100DA00073652D55617274315F5278203D20256442
:100DB0000A0000002D55617274315F52785F542033
:100DC0003D2025640A000000B4010020000000203E
:100DD0006263635F74656D70203D2025780A0000B2
:100DE0002D2D2D2D313131312D2D2D2D2D0A0000A0
:100DF0002D2D2D2D323232322D2D2D2D2D0A00008C
:100E000025643A6770696F5F6C6576656C203D207C
:100E100025780A000C3908600421FE4806F051F8D4
:100E2000044669E30120FC490860642005F033FDB5
:100E30000121FA4806F045F8012803D14FF49670D5
:100E400005F029FD0121F54806F03BF8012803D102
:100E50004FF4167005F01FFD0020EF4908600121D6
:100E6000EE4806F02EF8044646E31EE3F8E2D1E22F
:100E7000A8E27FE256E22FE206E2DFE1A4E17BE1B5
:100E800052E129E103E1DDE0B9E095E071E04BE0FA
:100E900025E0FFE70120E04908310860642005F003
:100EA000FAFC0421DD4806F00CF8012803D14FF4C8
:100EB000967005F0F0FC0421D84806F002F80128ED
:100EC00003D14FF4167005F0E6FC0020D24908313A
:100ED00008600421D14805F0F4FF04460CE301202A
:100EE000CD4910310860642005F0D5FC1021CB48B5
:100EF00005F0E7FF012803D14FF4967005F0CBFC15
:100F00001021C64805F0DDFF012803D14FF416700B
:100F100005F0C1FC0020C049103108601021BF4815
:100F200005F0CFFF0446E7E20120BB491831086015
:100F3000642005F0B0FC4021B84805F0C2FF01284C
:100F400003D14FF4967005F0A6FC4021B34805F09C
:100F5000B8FF012803D14FF4167005F09CFC002067
:100F6000AD49183108604021AC4805F0AAFF04469D
:100F7000C2E20120AA490860642005F08CFC10211F
:100F8000A44805F09EFF012803D14FF4967005F0A8
:100F900082FC10219F4805F094FF012803D14FF4F3
:100FA000167005F078FC00209D49086010219948D2
:100FB00005F087FF04469FE201209A4908606420FB
:100FC00005F069FC0121984805F07BFF012803D159
:100FD0004FF4967005F05FFC0121934805F071FF16
:100FE000012803D14FF4167005F055FC00208D49FF
:100FF00008600421874805F064FF04467CE2012074
:101000008A490860642005F046FC0821884805F0FC
:1010100058FF012803D14FF4967005F03CFC0821DD
:10102000834805F04EFF012803D14FF4167005F0F8
:1010300032FC00207D49086008217D4805F041FF11
:10104000044659E2012079490C390860642005F012
:1010500022FC1021764805F034FF012803D14FF41B
:10106000967005F018FC1021714805F02AFF012840
:1010700003D14FF4167005F00EFC00206B490C39BB
:10108000086010216A4805F01CFF044634E2012084
:1010900066490C310860642005F0FDFB802164483E
:1010A00005F00FFF012803D14FF4967005F0F3FB14
:1010B00080215F4805F005FF012803D14FF4167029
:1010C00005F0E9FB002059490C310860802158489F
:1010D00005F0F7FE04460FE2012054491431086080
:1010E000642005F0D8FB4FF40071514805F0E9FE8B
:1010F000012803D14FF4967005F0CDFB4FF4007139
:101100004B4805F0DEFE012803D14FF4167005F0C0
:10111000C2FB00204549143108604FF40071444877
:1011200005F0CFFE0446E7E1012040491C3108608C
:10113000642005F0B0FB4FF400613D4805F0C1FEAE
:10114000012803D14FF4967005F0A5FB4FF4006120
:10115000374805F0B6FE012803D14FF4167005F0AC
:101160009AFB002031491C3108604FF4006130487F
:1011700005F0A7FE0446BFE101202C492431086098
:10118000642005F088FB4FF40051294805F099FED2
:10119000012803D14FF4967005F07DFB4FF4005108
:1011A000234805F08EFE012803D14FF4167005F098
:1011B00072FB00201D49243108604FF400511C4887
:1011C00005F07FFE044697E10120164924310860AE
:1011D000642005F060FB4FF40041154805F071FEF6
:1011E000012803D14FF4967005F055FB4FF40041F0
:1011F0000F4805F066FE012803D14FF4167005F084
:101200004AFB00200749243108604FF40041084898
:1012100010E000000010014084012142000801405C
:101220009401224284812142000C01409401234216
:101230000018014005F045FE04465DE10120FE492D
:101240000860642005F027FB4FF40061FB4805F0BF
:1012500038FE012803D14FF4967005F01CFB4FF4C3
:101260000061F64805F02DFE012803D14FF41670F9
:1012700005F011FB0020F04908604FF40061EF48D1
:1012800005F01FFE044637E10120EB4908310860F4
:10129000642005F000FB4FF40051E84805F011FE12
:1012A000012803D14FF4967005F0F5FA4FF4005180
:1012B000E24805F006FE012803D14FF4167005F050
:1012C000EAFA0020DC49083108604FF40051DB489D
:1012D00005F0F7FD04460FE10120D94908606420BC
:1012E00005F0D9FA4FF40041D44805F0EAFD012891
:1012F00003D14FF4967005F0CEFA4FF40041CF4879
:1013000005F0DFFD012803D14FF4167005F0C3FA94
:101310000020CB4908604FF40041C84805F0D1FDDA
:101320000446E9E00120C64908310860642005F060
:10133000B2FA4FF40071C34805F0C3FD012803D190
:101340004FF4967005F0A7FA4FF40071BD4805F010
:10135000B8FD012803D14FF4167005F09CFA002067
:10136000B749083108604FF40071B64805F0A9FD8F
:101370000446C1E00120B24910310860642005F044
:101380008AFA4FF40061AF4805F09BFD012803D1B4
:101390004FF4967005F07FFA4FF40061A94805F00C
:1013A00090FD012803D14FF4167005F074FA002067
:1013B000A349103108604FF40061A24805F081FD97
:1013C000044699E001209E4918310860642005F028
:1013D00062FA4FF400519B4805F073FD012803D1D8
:1013E0004FF4967005F057FA4FF40051954805F008
:1013F00068FD012803D14FF4167005F04CFA002067
:101400008F49183108604FF400518E4805F059FD9E
:10141000044671E001208C490860642005F03BFA25
:101420004FF40041874805F04CFD012803D14FF4EB
:10143000967005F030FA4FF40041824805F041FD06
:10144000012803D14FF4167005F025FA00207E49DB
:1014500008604FF400417B4805F033FD04464BE043
:101460000120794908310860642005F014FA8021D0
:10147000764805F026FD012803D14FF4967005F05B
:101480000AFA8021714805F01CFD012803D14FF4B0
:10149000167005F000FA00206B49083108608021C1
:1014A0006A4805F00EFD044626E001206849086000
:1014B000642005F0F0F94FF40071644805F001FD77
:1014C000012803D14FF4967005F0E5F94FF400714F
:1014D0005E4805F0F6FC012803D14FF4167005F0C4
:1014E000DAF900205A4908604FF40071574805F0B6
:1014F000E8FC044600E000BF00BFFEF79DFE554833
:101500008278234654A1002008F044F959A00068CD
:101510004190504800788DF808014E4840788DF889
:1015200009014C4880788DF80A01012C08D111205E
:101530008DF80B0107E066E25EE22BE053E222E069
:1015400000208DF80B01042142A8FEF768FE054635
:101550008DF80C5149A00188ADF80D1180788DF8F7
:101560000F0100208DF810010C2141A8FEF71FFE8D
:101570000C2141A8FEF7F6FD3648027840A1002074
:1015800008F008F905E03348027843A1002008F08C
:1015900001F929E22F48C07833284AD12D488078B4
:1015A000002847D10121294805F08BFC83460421FE
:1015B000264805F086FC4BEA400B01213D4805F02A
:1015C00080FC4BEA800B04213A4805F07AFC4BEA98
:1015D000C00B1021374805F074FC4BEA001B40217A
:1015E000344805F06EFC4BEA401B1021174805F00B
:1015F00068FC4BEA801B0121104805F062FC4BEAB5
:10160000C010C6B208212C4805F05BFC83461021AF
:10161000294805F056FC4BEA400B8021264805F08E
:1016200050FC4BEA800B4FF40071234805F049FC55
:1016300044E0D0E1DCE00000B0812142000C014038
:10164000A081224200140140980122420010014072
:10165000A0012142000000206C6F636B203D20251B
:10166000643A6770696F5F6C6576656C203D202514
:10167000780A00007374617200000000656E6400F7
:101680006F6B2C6D5F646174612E6F70636F646546
:101690003D253032780A00006572726F722D322C4F
:1016A0006D5F646174612E6F70636F64653D25309A
:1016B00032780A0000080140001801404BEAC00BD4
:1016C0004FF40061FE4805F0FCFB4BEA001B4FF4B1
:1016D0000051FB4805F0F5FB4BEA401B4FF400417D
:1016E000F74805F0EEFB4BEA801B4FF40061F5482C
:1016F00005F0E7FB4BEAC010C7B24FF40051F148C8
:1017000005F0DFFB83464FF40041EE4805F0D9FBBE
:101710004BEA400B4FF40071EB4805F0D2FB4BEA6B
:10172000800B4FF40061E84805F0CBFB4BEAC00B9F
:101730004FF40051E44805F0C4FB4BEA001B4FF4A2
:101740000041E14805F0BDFB4BEA401B8021DF482A
:1017500005F0B7FB4BEA801B4FF40071DB4805F046
:10176000B0FB4BEAC01000F0FF083246D8A10020C1
:1017700008F010F83A46DBA1002008F00BF84246CA
:10178000DDA1002008F006F8AFF2181000684190C3
:10179000DE4800788DF80801DC4840788DF80901B2
:1017A0008DF80A618DF80B718DF80C81052142A826
:1017B000FEF735FD05468DF80D51AFF2401001885A
:1017C000ADF80E1180788DF8100100208DF8100111
:1017D0000C2141A8FEF7EBFC0C2141A8FEF7C2FC4E
:1017E000CA480278AFF26811002007F0D3FFF9E091
:1017F000C6488078192873D2DFE800F0AA0D1319C3
:101800001F252B31373D43494F565D646B737A81F9
:10181000888F969DA3000121AC4805F052FB044639
:1018200097E00421A94805F04CFB044691E0012112
:10183000B74805F046FB04468BE00421B44805F0A8
:1018400040FB044685E01021B14805F03AFB044610
:101850007FE04021AE4805F034FB044600BF102174
:101860009A4805F02EFB044673E00121954805F0E7
:1018700028FB04466DE00821914805F022FB044650
:1018800067E010218E4805F01CFB044661E08021D2
:101890008B4805F016FB04465BE04FF40071884866
:1018A00005F00FFB044654E04FF40061844805F056
:1018B00008FB04464DE04FF40051814805F001FB60
:1018C000044646E04FF400417D4805F0FAFA04462C
:1018D00000BF4FF400617B4805F0F3FA044638E09E
:1018E00036E04FF40051774805F0EBFA044630E05B
:1018F0004FF40041734805F0E4FA044629E04FF440
:101900000071714805F0DDFA044622E04FF40061F1
:101910006D4805F0D6FA04461BE04FF400516A48C2
:1019200005F0CFFA044614E04FF40041664805F094
:10193000C8FA04460DE08021644805F0C2FA044666
:1019400007E04FF40071614805F0BBFA044600E07F
:1019500000BF00BF6D48827823466EA1002007F0CB
:1019600019FFAFF2F02000684190684800788DF8C8
:101970000801664840788DF80901644880788DF840
:101980000A01012C03D111208DF80B0102E0002087
:101990008DF80B01042142A8FEF741FC05468DF8A5
:1019A0000C51AFF228300188ADF80D1180788DF818
:1019B0000F0100208DF810010C2141A8FEF7F7FB64
:1019C0000C2141A8FEF7CEFB5048027857A1002019
:1019D00007F0E0FE06E04D480278AFF24431002007
:1019E00007F0D8FE00E000BF00BF4848027956A1CA
:1019F000002007F0CFFE8FE24448027957A1002073
:101A000007F0C8FE88E2B9F1030FF4D19DF8040095
:101A10003E4908709DF8050048709DF80600087161
:101A2000022101A8FEF7FBFB05462A46AFF66041FE
:101A3000002007F0AFFE35480079A84239D133487D
:101A40000078912836D006DC702834D0712833D045
:101A5000902832D104E0922830D09328F9D132E294
:101A60002A480278AFF2E831002007F093FEFEF733
:101A700028FC0121154805F024FA83460421134867
:101A800005F01FFA4BEA400B0121214805F019FA35
:101A90004BEA800B04211E4805F013FA4BEAC00BF9
:101AA00010211B4805F00DFA4BEA001B4021184895
:101AB00062E02AE218E10EE215E21CE2FBE100001E
:101AC00000180140000C01400014014000100140CA
:101AD0006772705F6C6576656C5F31203D2025789C
:101AE0000A0000006772705F6C6576656C5F32207B
:101AF0003D2025780A0000006772705F6C6576658E
:101B00006C5F33203D2025780A0000000000002093
:101B1000000801402D2D25643A6770696F5F6C6580
:101B200076656C203D2025780A0000002D2D6F6B16
:101B30002C6D5F646174612E6F70636F64653D2509
:101B40003032780A000000006D5F646174612E62BB
:101B50006363203D2025780A000000006572726FE3
:101B6000722D312D6D5F646174612E626363203D5F
:101B70002025780A0000000005F0A3F94BEA401B7D
:101B80001021FE4805F09DF94BEA801B0121FC481D
:101B900005F097F94BEAC010C6B20821F94805F0E4
:101BA00090F983461021F74805F08BF94BEA400B7A
:101BB0008021F44805F085F94BEA800B4FF4007161
:101BC000F04805F07EF94BEAC00B4FF40061ED4898
:101BD00005F077F94BEA001B4FF40051E94805F096
:101BE00070F94BEA401B4FF40041E64805F069F9F3
:101BF0004BEA801B4FF40061E14805F062F94BEAC3
:101C0000C010C7B24FF40051DD4805F05AF98346C1
:101C10004FF40041DA4805F054F94BEA400B4FF419
:101C20000071D94805F04DF94BEA800B4FF4006183
:101C3000D54805F046F94BEAC00B4FF40051D248A5
:101C400005F03FF94BEA001B4FF40041CE4805F088
:101C500038F94BEA401B8021C84805F032F94BEABD
:101C6000801B4FF40071C54805F02BF94BEAC010FA
:101C700000F0FF083246AFF2A811002007F08AFDFD
:101C80003A46AFF2A011002007F084FD4246AFF2C1
:101C90009811002007F07EFDAFF2286000684190A7
:101CA00080208DF80801B94840788DF809018DF839
:101CB0000A618DF80B718DF80C81052142A8FEF7A1
:101CC000AEFA05468DF80D51AFF250600188ADF8BF
:101CD0000E1180788DF8100100208DF810010C2174
:101CE00041A8FEF764FA07E1A8480278AFF27061F4
:101CF000002007F04FFDA5480278AFF27C6100207C
:101D000007F048FDFEF7DDFA01219C4805F0D9F8FF
:101D100083460421994805F0D4F84BEA400B012191
:101D20009B4805F0CEF84BEA800B0421984805F05B
:101D3000C8F84BEAC00B1021954805F0C2F84BEAF1
:101D4000001B4021924805F0BCF84BEA401B1021D3
:101D50008A4805F0B6F84BEA801B0121884805F057
:101D6000B0F84BEAC010C6B20821864805F0A9F8C1
:101D700083461021834805F0A4F84BEA400B8021EC
:101D8000804805F09EF84BEA800B4FF400717D48C7
:101D900005F097F84BEAC00B4FF40061794805F065
:101DA00090F84BEA001B4FF40051764805F089F893
:101DB0004BEA401B4FF40041724805F082F84BEAB1
:101DC000801B4FF400616E4805F07BF84BEAC010B1
:101DD000C7B24FF400516A4805F073F883464FF4D8
:101DE0000041674805F06DF84BEA400B4FF4007175
:101DF000654805F066F84BEA800B4FF400616248D5
:101E000005F05FF84BEAC00B4FF400515E4805F057
:101E100058F84BEA001B4FF400415B4805F051F8BD
:101E20004BEA401B8021554805F04BF84BEA801BDC
:101E30004FF40071514805F044F84BEAC01000F02F
:101E4000FF083246AFF27831002007F0A3FC3A4693
:101E5000AFF27031002007F09DFC4246AFF26831CE
:101E6000002007F097FCAFF2F470006841908020EA
:101E70008DF80801454840788DF809018DF80A6110
:101E80008DF80B718DF80C81052142A8FEF7C7F97A
:101E900005468DF80D51AFF61C000188ADF80E1106
:101EA00080788DF8100100208DF810010C2141A8D8
:101EB000FEF77DF920E035480278AFF63C010020BE
:101EC00007F068FC18E031480278AFF64C010020BA
:101ED00007F060FC10E02D480278AFF65C010020AE
:101EE00007F058FC08E029480278AFF66C010020A2
:101EF00007F050FC00E000BF00BF24480279AFF2B9
:101F0000B831002007F046FC06E020480279AFF225
:101F1000B431002007F03EFC0DF5017DBDE8F08FE7
:101F2000012805D11B490968491C1A4A116006E0BD
:101F3000022804D118490968491C174A11607047E2
:101F400070B5C0B04FF48071684607F050FC4FF494
:101F500080610A4804F0B5FF06464FF40061074867
:101F600004F0AFFF46EA40064FF48051034804F006
:101F7000A8FF46EA8006012103480FE00010014057
:101F8000000C014000180140001401400000002036
:101F900000080140080000200C00002004F091FF20
:101FA00046EAC0061021FA4804F08BFF46EA001604
:101FB0000821F74804F085FF46EA40160421F4485A
:101FC00004F07FFF46EA80160221F14804F079FF11
:101FD00046EAC010C4B2EF480078002868D1012159
:101FE000ED4804F06EFF002862D14FF47A70FEF7DE
:101FF00087F84FF40061E94804F07DFF4FF47A70F0
:10200000FEF77EF80A2004F046FC0121E24804F0C5
:1020100058FF00283FD12246E1A107F0BBFBDD4875
:102020000278E4A1002007F0B5FB0120D94908702F
:10203000AFF6C0100068009060208DF804008DF8A5
:10204000054001208DF806000121D34804F039FF36
:10205000012803D111208DF8070002E000208DF83F
:102060000700042101A8FEF7DAF805468DF80850AC
:10207000AFF6F8100188ADF8091080788DF80B00E4
:1020800000208DF80C000C216846FEF790F80C211A
:102090006846FEF767F84FF47A70FEF731F84FF4B0
:1020A0000061BE4804F029FF4FF47A70FEF728F86B
:1020B000B8480078002869D00121B74804F001FF32
:1020C000012863D14FF47A70FEF71AF84FF40061DB
:1020D000B24804F010FF4FF47A70FEF711F80A20AE
:1020E00004F0D9FB0121AC4804F0EBFE012840D1FB
:1020F0002246ABA1002007F04DFBA6480278B3A111
:10210000002007F047FB0020A2490870AFF69C2092
:102110000068009060208DF804008DF805400120D3
:102120008DF8060001219C4804F0CBFE012803D164
:1021300011208DF8070002E000208DF8070004212F
:1021400001A8FEF76CF805468DF80850AFF6D420CC
:102150000188ADF8091080788DF80B0000208DF80B
:102160000C000C216846FEF722F80C216846FDF7AA
:10217000F9FF4FF47A70FDF7C3FF4FF40061874811
:1021800004F0BBFE4FF47A70FDF7BAFF9448007874
:10219000002868D10421804804F093FE002862D111
:1021A0004FF47A70FDF7ACFF4FF400617B4804F008
:1021B000A2FE4FF47A70FDF7A3FF0A2004F06BFB38
:1021C0000421754804F07DFE00283FD1224674A109
:1021D00007F0E0FA8248027882A1002007F0DAFADC
:1021E00001207F490870AFF67430006800906020CD
:1021F0008DF804008DF8054002208DF806000421BA
:10220000654804F05EFE012803D111208DF8070017
:1022100002E000208DF80700042101A8FDF7FFFF70
:1022200005468DF80850AFF6AC300188ADF80910BE
:1022300080788DF80B0000208DF80C000C2168468A
:10224000FDF7B5FF0C216846FDF78CFF4FF47A705F
:10225000FDF756FF4FF40061504804F04EFE4FF476
:102260007A70FDF74DFF5E480078002869D00421A0
:10227000494804F026FE012863D14FF47A70FDF737
:102280003FFF4FF40061454804F035FE4FF47A708B
:10229000FDF736FF0A2004F0FEFA04213E4804F060
:1022A00010FE012840D122463DA1002007F072FA1D
:1022B0004B48027851A1002007F06CFA00204849F1
:1022C0000870AFF650400068009060208DF8040060
:1022D0008DF8054002208DF8060004212E4804F0F8
:1022E000F0FD012803D111208DF8070002E0002045
:1022F0008DF80700042101A8FDF791FF05468DF830
:102300000850AFF688400188ADF8091080788DF844
:102310000B0000208DF80C000C216846FDF747FFEC
:102320000C216846FDF71EFF4FF47A70FDF7E8FEBA
:102330004FF40061194804F0E0FD4FF47A70FDF7A6
:10234000DFFE3348007800287ED10121134804F0D5
:10235000B8FD002878D14FF47A70FDF7D1FE4FF424
:1023600000610E4804F0C7FD4FF47A70FDF7C8FE17
:102370000A2004F090FA0121084804F0A2FD002888
:102380007ED1224606A107F005FA2148027841E0F5
:102390000014014019000020001001400008014015
:1023A000626F6172645F61646472203D2025303227
:1023B000780A0000636C6F73652D6B6579315F6619
:1023C0006C61673D2025640A000000006F70656E37
:1023D0002D6B6579315F666C61673D2025640A006D
:1023E0001A000020636C6F73652D6B6579325F6630
:1023F0006C61673D2025640A000000006F70656E07
:102400002D6B6579325F666C61673D2025640A003B
:102410001B000020FAA1002007F0BCF90120FE49B2
:102420000870AFF6B0500068009060208DF804008E
:102430008DF8054003208DF806000121F74804F0CF
:1024400040FD012805D100E02FE011208DF80700A4
:1024500002E000208DF80700042101A8FDF7DFFE4F
:1024600005468DF80850AFF6EC500188ADF809101C
:1024700080788DF80B0000208DF80C000C2100E016
:1024800006E06846FDF793FE0C216846FDF76AFEFC
:102490004FF47A70FDF734FE4FF40061DF4804F02A
:1024A0002CFD4FF47A70FDF72BFEDB4800780028F6
:1024B0006AD00121D94804F004FD012864D14FF409
:1024C0007A70FDF71DFE4FF40061D44804F013FD4F
:1024D0004FF47A70FDF714FE0A2004F0DCF90121B4
:1024E000CE4804F0EEFC012841D12246AFF2501153
:1024F000002007F04FF9C8480278C9A1002007F072
:1025000049F90020C4490870AFF69860006800904F
:1025100060208DF804008DF8054003208DF806003A
:102520000121BE4804F0CDFC012803D111208DF813
:10253000070002E000208DF80700042101A8FDF744
:102540006EFE05468DF80850AFF6D0600188ADF8F4
:10255000091080788DF80B0000208DF80C000C21FC
:102560006846FDF724FE0C216846FDF7FBFD4FF49D
:102570007A70FDF7C5FD4FF40061A84804F0BDFC7A
:102580004FF47A70FDF7BCFDAA480078002869D1A5
:102590000421A24804F095FC002863D14FF47A701E
:1025A000FDF7AEFD4FF400619C4804F0A4FC4FF42D
:1025B0007A70FDF7A5FD0A2004F06DF90421974813
:1025C00004F07FFC002840D12246AFF22C2107F016
:1025D000E1F89848027898A1002007F0DBF8012084
:1025E00094490870AFF674700068009060208DF810
:1025F00004008DF8054004208DF80600042187486A
:1026000004F05FFC012803D111208DF8070002E0DF
:1026100000208DF80700042101A8FDF700FE054603
:102620008DF80850AFF6AC700188ADF809108078CD
:102630008DF80B0000208DF80C000C216846FDF78A
:10264000B6FD0C216846FDF78DFD4FF47A70FDF75D
:1026500057FD4FF40061714804F04FFC4FF47A705D
:10266000FDF74EFD73480078002869D004216B48BF
:1026700004F027FC012863D14FF47A70FDF740FD88
:102680004FF40061654804F036FC4FF47A70FDF7B2
:1026900037FD0A2004F0FFF80421604804F011FC23
:1026A000012840D12246AFF20831002007F072F82D
:1026B0006048027866A1002007F06CF800205D49B0
:1026C000087068480068009060208DF804008DF85C
:1026D000054004208DF806000421504804F0F1FB69
:1026E000012803D111208DF8070002E000208DF8A9
:1026F0000700042101A8FDF792FD05468DF808505A
:10270000584808300188ADF8091080788DF80B0022
:1027100000208DF80C000C216846FDF748FD0C21C7
:102720006846FDF71FFD4FF47A70FDF7E9FC4FF4A2
:1027300000613A4804F0E1FB4FF47A70FDF7E0FCE9
:102740004948007800285AD11021344804F0B9FBD8
:10275000002854D14FF47A70FDF7D2FC4FF4006199
:102760002E4804F0C8FB4FF47A70FDF7C9FC0A202C
:1027700004F091F81021294804F0A3FBF0BB224695
:10278000AFF2E431002007F005F83748027837A1AE
:10279000002006F0FFFF012033490870314800682F
:1027A000009060208DF804008DF8054005208DF81C
:1027B00006001021194804F084FB012803D11120E0
:1027C0008DF8070002E000208DF80700042101A821
:1027D000FDF725FD05468DF8085022480830018890
:1027E000ADF8091080788DF80B0000208DF80C00F2
:1027F0000C216846FDF7DBFC0C2143E045E051E08D
:10280000636C6F73652D6B6579335F666C61673DD3
:102810002025640A000000001B0000200008014081
:102820006F70656E2D6B6579335F666C61673D20F7
:1028300025640A001C000020636C6F73652D6B65B6
:1028400079345F666C61673D2025640A00000000F2
:102850006F70656E2D6B6579345F666C61673D20C6
:1028600025640A00741600081D000020636C6F7355
:10287000652D6B6579355F666C61673D2025640A5F
:10288000000000006846FDF76DFC4FF47A70FDF71C
:1028900037FC4FF40061FE4804F02FFB4FF47A70D0
:1028A000FDF72EFCFB480078002869D01021F8487D
:1028B00004F007FB012863D14FF47A70FDF720FC88
:1028C0004FF40061F24804F016FB4FF47A70FDF704
:1028D00017FC0A2003F0DFFF1021ED4804F0F1FAA5
:1028E000012840D12246AFF24851002006F052FFA5
:1028F000E8480278E8A1002006F04CFF0020E549F6
:102900000870EA480068009060208DF804008DF897
:10291000054005208DF806001021DD4804F0D1FAAD
:10292000012803D111208DF8070002E000208DF866
:102930000700042101A8FDF772FC05468DF8085038
:10294000DA4808300188ADF8091080788DF80B005E
:1029500000208DF80C000C216846FDF728FC0C21A6
:102960006846FDF7FFFB4FF47A70FDF7C9FB4FF4A3
:102970000061C74804F0C1FA4FF47A70FDF7C0FB5C
:10298000CB48007800286AD14021C14804F099FA68
:10299000002864D14FF47A70FDF7B2FB4FF4006168
:1029A000BB4804F0A8FA4FF47A70FDF7A9FB0A209F
:1029B00003F071FF4021B64804F083FAF0BB2246D1
:1029C000AFF22461002006F0E5FEB9480278B9A113
:1029D000002006F0DFFE0120B5490870B34800680A
:1029E000009060208DF804008DF8054006208DF8D9
:1029F00006004021A64804F064FA012803D1112002
:102A00008DF8070002E000208DF80700042101A8DE
:102A1000FDF705FC05468DF80850A44808300188EC
:102A2000ADF8091080788DF80B0000208DF80C00AF
:102A30000C216846FDF7BBFB0C2100E002E0684674
:102A4000FDF790FB4FF47A70FDF75AFB4FF40061ED
:102A50008F4804F052FA4FF47A70FDF751FB944816
:102A60000078002869D04021894804F02AFA01281A
:102A700063D14FF47A70FDF743FB4FF40061844853
:102A800004F039FA4FF47A70FDF73AFB0A2003F0AC
:102A900002FF40217E4804F014FA012840D122466A
:102AA000AFF20471002006F075FE8148027887A11C
:102AB000002006F06FFE00207D4908707B4800680A
:102AC000009060208DF804008DF8054006208DF8F8
:102AD000060040216E4804F0F4F9012803D11120CA
:102AE0008DF8070002E000208DF80700042101A8FE
:102AF000FDF795FB05468DF808506C4808300188B5
:102B0000ADF8091080788DF80B0000208DF80C00CE
:102B10000C216846FDF74BFB0C216846FDF722FBB4
:102B20004FF47A70FDF7ECFA4FF40061584804F066
:102B3000E4F94FF47A70FDF7E3FA69480078002869
:102B40006AD11021674804F0BCF9002864D14FF421
:102B50007A70FDF7D5FA4FF400614D4804F0CBF9D7
:102B60004FF47A70FDF7CCFA0A2003F094FE10219E
:102B70005C4804F0A6F9E8BB2246AFF2DC71002005
:102B800006F008FE5648027857A1002006F002FE23
:102B900001205349087045480068009060208DF876
:102BA00004008DF8054007208DF8060010214D48DF
:102BB00004F087F9012803D111208DF8070002E005
:102BC00000208DF80700042101A8FDF728FB054629
:102BD0008DF80850354808300188ADF80910807824
:102BE0008DF80B0000208DF80C000C216846FDF7D5
:102BF000DEFA00E003E00C216846FDF7B3FA4FF47B
:102C00007A70FDF77DFA4FF40061214804F075F900
:102C10004FF47A70FDF774FA31480078002879D0C3
:102C20001021304804F04DF9012873D14FF47A7027
:102C3000FDF766FA4FF40061154804F05CF94FF4B3
:102C40007A70FDF75DFA0A2003F025FE1021254871
:102C500004F037F901287DD12246AFF6BC010020EF
:102C600006F098FD1E48027825A1002006F092FD8E
:102C700000201B4908700D480068009060208DF806
:102C800004008DF8054007208DF80600102142E071
:102C9000000801401D0000206F70656E2D6B657986
:102CA000355F666C61673D2025640A007416000874
:102CB0001E000020636C6F73652D6B6579365F664F
:102CC0006C61673D2025640A000000006F70656E2E
:102CD0002D6B6579365F666C61673D2025640A005F
:102CE0001F00002000100140636C6F73652D6B6541
:102CF00079375F666C61673D2025640A000000003B
:102D00006F70656E2D6B6579375F666C61673D200E
:102D100025640A0033E0FE4804F0D3F8012803D10B
:102D200011208DF8070002E000208DF80700042133
:102D300001A8FDF774FA05468DF80850F54801889A
:102D4000ADF8091080788DF80B0000208DF80C008C
:102D50000C2100E006E06846FDF729FA0C216846E0
:102D6000FDF700FA4FF47A70FDF7CAF94FF40061ED
:102D7000E94804F0C2F84FF47A70FDF7C1F9E7486A
:102D8000007800286AD10121E54804F09AF800286B
:102D900064D14FF47A70FDF7B3F94FF40061DE4867
:102DA00004F0A9F84FF47A70FDF7AAF90A2003F0AD
:102DB00072FD0121DA4804F084F8E8BB2246AFF640
:102DC0002021002006F0E6FCD4480278D5A100209E
:102DD00006F0E0FC0120D1490870CE4808380068B0
:102DE000009060208DF804008DF8054008208DF8D3
:102DF00006000121CA4804F064F8012803D111201B
:102E00008DF8070002E000208DF80700042101A8DA
:102E1000FDF705FA05468DF80850BE480188ADF863
:102E2000091080788DF80B0000208DF80C000C2123
:102E30006846FDF7BCF900E003E00C216846FDF7A9
:102E400091F94FF47A70FDF75BF94FF40061B248E5
:102E500004F053F84FF47A70FDF752F9AF48007858
:102E6000002869D00121AE4804F02BF8012863D175
:102E70004FF47A70FDF744F94FF40061A64804F06E
:102E80003AF84FF47A70FDF73BF90A2003F003FD9E
:102E90000121A34804F015F8012840D12246AFF6DD
:102EA0000031002006F076FC9C480278A3A10020A7
:102EB00006F070FC002099490870964808380068B0
:102EC000009060208DF804008DF8054008208DF8F2
:102ED00006000121924803F0F4FF012803D11120DC
:102EE0008DF8070002E000208DF80700042101A8FA
:102EF000FDF795F905468DF8085086480188ADF82C
:102F0000091080788DF80B0000208DF80C000C2142
:102F10006846FDF74CF90C216846FDF723F94FF49C
:102F20007A70FDF7EDF84FF400617B4803F0E5FFA0
:102F30004FF47A70FDF7E4F885480078F0BB08217B
:102F4000844803F0BEFFC8BB4FF47A70FDF7D8F891
:102F50004FF40061704803F0CEFF4FF47A70FDF734
:102F6000CFF80A2003F097FC08217A4803F0A9FF64
:102F7000F0BB2246AFF6D831002006F00BFC7448B7
:102F8000027875A1002006F005FC01207049087048
:102F9000604808380068009060208DF804008DF8C3
:102FA000054009208DF8060008216A4803F089FFD2
:102FB000012804D111208DF8070003E02AE0002049
:102FC0008DF80700042101A8FDF729F905468DF8C1
:102FD000085050480188ADF8091080788DF80B0032
:102FE00000208DF80C000C216846FDF7E0F800E0A9
:102FF00003E00C216846FDF7B5F84FF47A70FDF751
:103000007FF84FF40061444803F077FF4FF47A7083
:10301000FDF776F84E480078F0B308214D4803F0EC
:1030200050FF012865D14FF47A70FDF769F84FF42D
:103030000061394803F05FFF4FF47A70FDF760F8E4
:103040000A2003F028FC0821424803F03AFF012837
:1030500042D12246AFF6B841002006F09BFB3C4827
:10306000027843A1002006F095FB00203849087043
:10307000284808380068009060208DF804008DF81A
:10308000054009208DF806000821324803F019FF99
:10309000012805D1112000E02BE08DF8070002E0A7
:1030A00000208DF80700042101A8FDF7B8F80546B7
:1030B0008DF8085017480188ADF8091080788DF810
:1030C0000B0000208DF80C000C216846FDF76FF80E
:1030D0000C216846FDF746F84FF47A70FDF710F8BA
:1030E0004FF400610C4803F008FF4FF47A70FDF7CD
:1030F00007F82448007848B91021164803F0E1FE8B
:1031000020B94FF47A70FCF7FBFF3DE09DE0000032
:10311000001001407C16000800080140200000203B
:10312000000C0140636C6F73652D6B6579385F66C9
:103130006C61673D2025640A000000006F70656EB9
:103140002D6B6579385F666C61673D2025640A00E8
:103150002100002000180140636C6F73652D6B65C2
:1031600079395F666C61673D2025640A00000000C4
:103170006F70656E2D6B6579395F666C61673D2098
:1031800025640A00220000204FF40061F74803F094
:10319000B2FE4FF47A70FCF7B3FF0A2003F07BFB1A
:1031A0001021F34803F08DFEF0BB2246AFF610610C
:1031B000002006F0EFFAEF480278EFA1002006F0B9
:1031C000E9FA0120EB490870F1480068009060209E
:1031D0008DF804008DF805400A208DF806001021B6
:1031E000E34803F06EFE012803D111208DF807009B
:1031F00002E000208DF80700042101A8FDF70FF878
:1032000005468DF80850E24808300188ADF80910ED
:1032100080788DF80B0000208DF80C000C2168469A
:10322000FCF7C5FF0C2100E002E06846FCF79AFFBE
:103230004FF47A70FCF764FF4FF40061CB4803F061
:103240005CFE4FF47A70FCF75BFFCA480078E8B385
:103250001021C74803F035FE012865D14FF47A707C
:10326000FCF74EFF4FF40061C04803F044FE4FF4FA
:103270007A70FCF745FF0A2003F00DFB1021BC48D3
:1032800003F01FFE012842D12246AFF6EC61002078
:1032900006F080FAB7480278BEA1002006F07AFA5C
:1032A0000020B4490870BA480068009060208DF88A
:1032B00004008DF805400A208DF806001021AC4866
:1032C00003F0FFFD012805D1112000E02CE08DF86E
:1032D000070002E000208DF80700042101A8FCF798
:1032E0009EFF05468DF80850A94808300188ADF8C2
:1032F000091080788DF80B0000208DF80C000C214F
:103300006846FCF754FF0C216846FCF72BFF4FF48E
:103310007A70FCF7F5FE4FF40061944803F0EDFD80
:103320004FF47A70FCF7ECFEA0480078E8BB8021EF
:103330008F4803F0C6FDC0BB4FF47A70FCF7E0FE87
:103340004FF40061894803F0D6FD4FF47A70FCF722
:10335000D7FE0A2003F09FFA8021854803F0B1FDD3
:10336000F0BB2246AFF6C871002006F013FA8F4872
:1033700002788FA1002006F00DFA01208B49087019
:1033800083480068009060208DF804008DF80540A7
:103390000B208DF806008021754803F092FD01286E
:1033A00004D111208DF8070003E02BE000208DF8F8
:1033B0000700042101A8FCF732FF05468DF80850EC
:1033C000734808300188ADF8091080788DF80B003B
:1033D00000208DF80C000C216846FCF7E8FE00E0A8
:1033E00003E00C216846FCF7BDFE4FF47A70FCF751
:1033F00087FE4FF400615D4803F07FFD4FF47A7063
:10340000FCF77EFE69480078F0B38021584803F04D
:1034100058FD012863D14FF47A70FCF771FE4FF428
:103420000061524803F067FD4FF47A70FCF768FEC4
:103430000A2003F030FA80214D4803F042FD0128B4
:1034400040D122466049002006F0A4F9574802788E
:103450005EA1002006F09EF90020544908704C48F7
:103460000068009060208DF804008DF805400B2066
:103470008DF8060080213E4803F023FD012804D189
:1034800011208DF8070003E029E000208DF80700E7
:10349000042101A8FCF7C3FE05468DF808503C48FE
:1034A00008300188ADF8091080788DF80B000020F5
:1034B0008DF80C000C216846FCF779FE0C2168465B
:1034C000FCF750FE4FF47A70FCF71AFE4FF40061DF
:1034D000264803F012FD4FF47A70FCF711FE4148C4
:1034E0000078E8BB4FF40071214803F0EAFCB8BB58
:1034F0004FF47A70FCF704FE4FF400611B4803F0B0
:10350000FAFC4FF47A70FCF7FBFD0A2003F0C3F9D4
:103510004FF40071164803F0D4FC28BB22462A4918
:10352000002006F037F92F4802782FA1002006F07E
:1035300031F901202B49087015480068009060207F
:103540008DF804008DF805400C208DF806004FF42E
:103550000071074803F0B5FC012851D1112000E0AB
:1035600077E08DF807004EE066E0000000080140BB
:103570000018014022000020636C6F73652D6B659D
:103580007931305F666C61673D2025640A00000078
:10359000741600086F70656E2D6B657931305F664B
:1035A0006C61673D2025640A0000000023000020B4
:1035B000636C6F73652D6B657931315F666C616724
:1035C0003D2025640A000000A02300086F70656E8E
:1035D0002D6B657931315F666C61673D2025640A2A
:1035E0000000000024000020636C6F73652D6B6584
:1035F0007931325F666C61673D2025640A00000006
:1036000000208DF80700042101A8FCF708FE0546FC
:103610008DF80850FE480188ADF8091080788DF8C3
:103620000B0000208DF80C000C216846FCF7BFFD54
:103630000C216846FCF796FD4FF47A70FCF760FDAC
:103640004FF40061F34803F058FC4FF47A70FCF734
:1036500057FDF1480078E8B34FF40071EF4803F0EC
:1036600030FC012866D14FF47A70FCF749FD4FF425
:103670000061E84803F03FFC4FF47A70FCF740FD2E
:103680000A2003F008F94FF40071E44803F019FC34
:10369000012842D12246E249002006F07BF8DE48AC
:1036A0000278E0A1002006F075F80020DA490870E1
:1036B000D74808380068009060208DF804008DF825
:1036C00005400C208DF806004FF40071D34803F03C
:1036D000F8FB00E02EE0012803D111208DF807004F
:1036E00002E000208DF80700042101A8FCF797FDF7
:1036F00005468DF80850C6480188ADF80910807855
:103700008DF80B0000208DF80C000C216846FCF7AA
:103710004EFD0C216846FCF725FD4FF47A70FCF74E
:10372000EFFC4FF40061BB4803F0E7FB4FF47A7005
:10373000FCF7E6FCC1480078F0BB4FF40061B748E5
:1037400003F0BFFBC0BB4FF47A70FCF7D9FC4FF419
:103750000061B04803F0CFFB4FF47A70FCF7D0FC67
:103760000A2003F098F84FF40061AC4803F0A9FB7D
:10377000E8BB2246AA49002006F00CF8AF480278C0
:10378000AFA1002006F006F80120AC490870A0485F
:1037900008380068009060208DF804008DF805401E
:1037A0000D208DF806004FF400619C4803F089FB62
:1037B000012805D1112000E02DE08DF8070002E07E
:1037C00000208DF80700042101A8FCF728FD05461C
:1037D0008DF808508E480188ADF8091080788DF872
:1037E0000B0000208DF80C000C21684600E005E07D
:1037F000FCF7DDFC0C216846FCF7B4FC4FF47A7052
:10380000FCF77EFC4FF40061824803F076FB4FF436
:103810007A70FCF775FC89480078E8B34FF40061D2
:103820007E4803F04EFB012866D14FF47A70FCF716
:1038300067FC4FF40061774803F05DFB4FF47A704A
:10384000FCF75EFC0A2003F026F84FF40061734891
:1038500003F037FB012842D122467149002005F0D0
:1038600099FF764802787CA1002005F093FF0020A4
:1038700072490870664808380068009060208DF82A
:1038800004008DF805400D208DF806004FF400610E
:10389000624803F016FB00E02EE0012803D111205E
:1038A0008DF8070002E000208DF80700042101A830
:1038B000FCF7B5FC05468DF8085055480188ADF871
:1038C000091080788DF80B0000208DF80C000C2179
:1038D0006846FCF76CFC0C216846FCF743FC4FF48F
:1038E0007A70FCF70DFC4FF400614A4803F005FBC9
:1038F0004FF47A70FCF704FC5D480078F0BB4FF49D
:103900000051464803F0DDFAC0BB4FF47A70FCF773
:10391000F7FB4FF400613F4803F0EDFA4FF47A7083
:10392000FCF7EEFB0A2002F0B6FF4FF400513B48D3
:1039300003F0C7FAE8BB22463949002005F02AFF08
:103940004B4802784BA1002005F024FF0120484994
:1039500008702F4808380068009060208DF8040037
:103960008DF805400E208DF806004FF400512B48CD
:1039700003F0A7FA012805D1112000E02DE08DF811
:10398000070002E000208DF80700042101A8FCF7E1
:1039900046FC05468DF808501D480188ADF8091011
:1039A00080788DF80B0000208DF80C000C21684603
:1039B00000E005E0FCF7FBFB0C216846FCF7D2FBBE
:1039C0004FF47A70FCF79CFB4FF40061114803F050
:1039D00094FA4FF47A70FCF793FB25480078A8B16D
:1039E0004FF400510D4803F06CFA01280ED14FF44A
:1039F0007A70FCF785FB4FF40061064803F07BFA10
:103A00004FF47A70FCF77CFB0A203FE095E0000061
:103A10007C16000800080140240000200018014026
:103A2000A02300086F70656E2D6B657931325F667B
:103A30006C61673D2025640A00000000250000201D
:103A4000636C6F73652D6B657931335F666C61678D
:103A50003D2025640A0000006F70656E2D6B65794E
:103A600031335F666C61673D2025640A0000000009
:103A700026000020636C6F73652D6B657931345FB0
:103A8000666C61673D2025640A00000002F003FFB8
:103A90004FF40051FE4803F014FA012840D12246A9
:103AA000FC49002005F076FEFB480278FBA10020CF
:103AB00005F070FE0020F8490870FE48006800908C
:103AC00060208DF804008DF805400E208DF806006A
:103AD0004FF40051EE4803F0F4F9012803D111200E
:103AE0008DF8070002E000208DF80700042101A8EE
:103AF000FCF795FB05468DF80850EE480830018824
:103B0000ADF8091080788DF80B0000208DF80C00BE
:103B10000C216846FCF74BFB0C216846FCF722FBA6
:103B20004FF47A70FCF7ECFA4FF40061E24803F0CE
:103B3000E4F94FF47A70FCF7E3FAE0480078E8BB68
:103B40004FF40041D24803F0BCF9B8BB4FF47A708F
:103B5000FCF7D6FA4FF40061D74803F0CCF94FF4E4
:103B60007A70FCF7CDFA0A2002F095FE4FF400417E
:103B7000C74803F0A6F9E8BB2246C649002005F075
:103B800009FECE480278CEA1002005F003FE0120F8
:103B9000CA490870C7480068009060208DF804008A
:103BA0008DF805400F208DF806004FF40041B8480D
:103BB00003F087F9012805D1112000E02EE08DF8EF
:103BC000070002E000208DF80700042101A8FCF79F
:103BD00026FB05468DF80850B64808300188ADF838
:103BE000091080788DF80B0000208DF80C000C2156
:103BF000684600E005E0FCF7DAFA0C216846FCF7BD
:103C0000B1FA4FF47A70FCF77BFA4FF40061AA48DE
:103C100003F073F94FF47A70FCF772FAA748007852
:103C2000F0B34FF400419A4803F04BF9012866D1F4
:103C30004FF47A70FCF764FA4FF400619E4803F089
:103C40005AF94FF47A70FCF75BFA0A2002F023FE6F
:103C50004FF400418E4803F034F9012842D1224646
:103C60008C49002005F096FD944802789AA1002026
:103C700005F090FD0020914908708E480068009082
:103C800060208DF804008DF805400F208DF80600A7
:103C90004FF400417E4803F014F9012805D100E0FB
:103CA0002DE011208DF8070002E000208DF80700BC
:103CB000042101A8FCF7B3FA05468DF808507D48A9
:103CC00008300188ADF8091080788DF80B000020CD
:103CD0008DF80C000C216846FCF769FA0C21684647
:103CE000FCF740FA4FF47A70FCF70AFA4FF40061DF
:103CF000714803F002F94FF47A70FCF701FA7C483E
:103D00000078E0BB4FF400617A4803F0DAF8B0BB0A
:103D10004FF47A70FCF7F4F94FF40061664803F051
:103D2000EAF84FF47A70FCF7EBF90A2002F0B3FDE1
:103D30004FF400616F4803F0C4F8E0BB22465549D8
:103D4000002005F027FD6A4802786BA1002005F0ED
:103D500021FD0120664908705648006800906020E7
:103D60008DF804008DF8054010208DF80600C10183
:103D7000604803F0A6F8012805D1112000E02EE0EC
:103D80008DF8070002E000208DF80700042101A84B
:103D9000FCF745FA05468DF808504648083001887A
:103DA000ADF8091080788DF80B0000208DF80C001C
:103DB0000C21684600E005E0FCF7F9F90C216846A3
:103DC000FCF7D0F94FF47A70FCF79AF94FF40061E0
:103DD000394803F092F84FF47A70FCF791F94448AF
:103DE0000078E8B34FF40061424803F06AF8012814
:103DF00036D14FF47A70FCF783F94FF400612E4806
:103E000003F079F84FF47A70FCF77AF90A2002F09F
:103E100042FD4FF40061374803F053F8012835D1D3
:103E200022461C49002005F0B5FC3148027838A133
:103E3000002005F0AFFC00202D4908701D480068E7
:103E4000009060208DF804008DF8054010208DF85A
:103E50000600C101274803F034F8012805D100E02D
:103E60007CE011208DF8070002E000208DF80700AB
:103E7000042101A8FCF7D3F905468DF808500D4838
:103E800008300188ADF8091080784DE059E0000055
:103E900000180140A0230008260000206F70656E06
:103EA0002D6B657931345F666C61673D2025640A4E
:103EB00000000000741600080008014027000020E0
:103EC000636C6F73652D6B657931355F666C616707
:103ED0003D2025640A0000006F70656E2D6B6579CA
:103EE00031355F666C61673D2025640A0000000083
:103EF00028000020000C0140636C6F73652D6B651A
:103F00007931365F666C61673D2025640A000000E8
:103F10006F70656E2D6B657931365F666C61673DDC
:103F20002025640A000000008DF80B0000208DF8A9
:103F30000C000C216846FCF73AF90C216846FCF7A6
:103F400011F94FF47A70FCF7DBF84FF40061FA488E
:103F500002F0D3FF4FF47A70FCF7D2F8F7480078FC
:103F6000E8BB4FF40051F64802F0ABFFB8BB4FF48A
:103F70007A70FCF7C5F84FF40061EF4802F0BBFF20
:103F80004FF47A70FCF7BCF80A2002F084FC4FF47E
:103F90000051EB4802F095FFE8BB2246E9490020BA
:103FA00005F0F8FBE5480278E7A1002005F0F2FBF8
:103FB0000120E2490870EA480068009060208DF80E
:103FC00004008DF8054011208DF806004FF40051D3
:103FD000DB4802F076FF012805D1112000E02EE039
:103FE0008DF8070002E000208DF80700042101A8E9
:103FF000FCF715F905468DF80850D94808300188B6
:10400000ADF8091080788DF80B0000208DF80C00B9
:104010000C21684600E005E0FCF7C9F80C21684671
:10402000FCF7A0F84FF47A70FCF76AF84FF40061DF
:10403000C14802F062FF4FF47A70FCF761F8BF48A4
:104040000078E8B34FF40051BD4802F03AFF012870
:1040500066D14FF47A70FCF753F84FF40061B6481C
:1040600002F049FF4FF47A70FCF74AF80A2002F098
:1040700012FC4FF40051B24802F023FF012842D154
:104080002246B049002005F085FBAC480278B5A176
:10409000002005F07FFB0020A8490870B0480068A8
:1040A000009060208DF804008DF8054011208DF8F7
:1040B00006004FF40051A24802F003FF012800E07F
:1040C0002EE003D111208DF8070002E000208DF8CA
:1040D0000700042101A8FCF7A2F805468DF8085056
:1040E0009F4808300188ADF8091080788DF80B00E2
:1040F00000208DF80C000C216846FCF758F80C21C4
:104100006846FCF72FF84FF47A70FBF7F9FF4FF48D
:104110000061894802F0F1FE4FF47A70FBF7F0FF7E
:1041200096480078E8BB4FF40041854802F0C9FE8C
:10413000B8BB4FF47A70FBF7E3FF4FF400617E48A1
:1041400002F0D9FE4FF47A70FBF7DAFF0A2002F092
:10415000A2FB4FF400417A4802F0B3FEE8BB2246CE
:104160007849002005F016FB8448027884A10020DD
:1041700005F010FB01208149087079480068009023
:1041800060208DF804008DF8054012208DF806009F
:104190004FF400416A4802F094FE012805D1112035
:1041A00000E02EE08DF8070002E000208DF8070007
:1041B000042101A8FCF733F805468DF8085068483B
:1041C00008300188ADF8091080788DF80B000020C8
:1041D0008DF80C000C21684600E005E0FBF7E7FFD6
:1041E0000C216846FBF7BEFF4FF47A70FBF788FF9F
:1041F0004FF40061504802F080FE4FF47A70FBF7F4
:104200007FFF5E480078E8B34FF400414C4802F06D
:1042100058FE012866D14FF47A70FBF771FF4FF416
:104220000061454802F067FE4FF47A70FBF768FFC3
:104230000A2002F030FB4FF40041414802F041FEF9
:10424000012842D122463F49002005F0A3FA4B48FD
:10425000027851A1002005F09DFA0020474908701E
:104260003F480068009060208DF804008DF80540FC
:1042700012208DF806004FF40041314802F021FE73
:10428000012800E02EE003D111208DF8070002E0A4
:1042900000208DF80700042101A8FBF7C0FF0546A8
:1042A0008DF808502E4808300188ADF80910807844
:1042B0008DF80B0000208DF80C000C216846FBF7F0
:1042C00076FF0C216846FBF74DFF4FF47A70FBF741
:1042D00017FF4FF40061184802F00FFE4FF47A7098
:1042E000FBF70EFF3248007818BB4FF400713148DD
:1042F00002F0E7FDE8B94FF47A70FBF701FF4FF4E5
:1043000000610D4802F0F7FD4FF47A70FBF7F8FEFC
:104310000A2002F0C0FA4FF40071264802F0D1FDE5
:1043200040B922460749002005F034FA20480278B7
:1043300042E088E07AE00000000801402900002007
:10434000000C0140A0230008636C6F73652D6B6542
:104350007931375F666C61673D2025640A00000093
:10436000741600086F70656E2D6B657931375F6666
:104370006C61673D2025640A000000002A000020CF
:10438000636C6F73652D6B657931385F666C61673F
:104390003D2025640A0000006F70656E2D6B657905
:1043A00031385F666C61673D2025640A00000000BB
:1043B0002B00002000140140F9A1002005F0EAF9CB
:1043C0000120FD490870FD480068009060208DF8CC
:1043D00004008DF8054013208DF806004FF400719D
:1043E000F74802F06EFD012803D111208DF8070077
:1043F00002E000208DF80700042101A8FBF70FFF61
:1044000005468DF80850ED4808300188ADF80910D0
:1044100080788DF80B0000208DF80C000C21684688
:10442000FBF7C5FE0C216846FBF79CFE4FF47A7043
:10443000FBF766FE4FF40061E24802F05EFD4FF4C8
:104440007A70FBF75DFEDC480078E8B34FF400714A
:10445000DB4802F036FD012866D14FF47A70FBF795
:104460004FFE4FF40061D74802F045FD4FF47A70DB
:10447000FBF746FE0A2002F00EFA4FF40071D04816
:1044800002F01FFD012842D12246CF49002005F04D
:1044900081F9C9480278CDA1002005F07BF9002000
:1044A000C5490870C5480068009060208DF8040078
:1044B0008DF8054013208DF806004FF40071C048B8
:1044C00002F0FFFC012800E02EE003D111208DF85E
:1044D000070002E000208DF80700042101A8FBF787
:1044E0009EFE05468DF80850B44808300188ADF8A6
:1044F000091080788DF80B0000208DF80C000C213D
:104500006846FBF754FE0C216846FBF72BFE4FF480
:104510007A70FBF7F5FD4FF40061AA4802F0EDFC5C
:104520004FF47A70FBF7ECFDAE480078E8BB4FF42F
:104530000061A34802F0C5FCB8BB4FF47A70FBF7EA
:10454000DFFD4FF400619F4802F0D5FC4FF47A7014
:10455000FBF7D6FD0A2002F09EF94FF4006198485F
:1045600002F0AFFCE8BB22469749002005F012F9A3
:104570009C4802789CA1002005F00CF90120994983
:1045800008708E480068009060208DF804008DF857
:10459000054014208DF806004FF40061884802F0B1
:1045A00090FC012805D1112000E02EE08DF80700D5
:1045B00002E000208DF80700042101A8FBF72FFE80
:1045C00005468DF808507D4808300188ADF809107F
:1045D00080788DF80B0000208DF80C000C216846C7
:1045E00000E005E0FBF7E3FD0C216846FBF7BAFDB0
:1045F0004FF47A70FBF784FD4FF40061714802F0CC
:104600007CFC4FF47A70FBF77BFD76480078E8B3CA
:104610004FF400616A4802F054FC012866D14FF45F
:104620007A70FBF76DFD4FF40061664802F063FCA1
:104630004FF47A70FBF764FD0A2002F02CF94FF476
:1046400000615F4802F03DFC012842D122465E49EC
:10465000002005F09FF86348027869A1002005F06A
:1046600099F800205F490870544800680090602065
:104670008DF804008DF8054014208DF806004FF4E5
:1046800000614F4802F01DFC012800E02EE003D13C
:1046900011208DF8070002E000208DF807000421AA
:1046A00001A8FBF7BCFD05468DF8085043480830CB
:1046B0000188ADF8091080788DF80B0000208DF886
:1046C0000C000C216846FBF772FD0C216846FBF7D5
:1046D00049FD4FF47A70FBF713FD4FF40061394840
:1046E00002F00BFC4FF47A70FBF70AFD4A480078A1
:1046F000E8BB4FF40051324802F0E3FBB8BB4FF483
:104700007A70FBF7FDFC4FF400612E4802F0F3FBDA
:104710004FF47A70FBF7F4FC0A2002F0BCF84FF477
:104720000051274802F0CDFBC8BB22462649002095
:1047300005F030F83848027838A1002005F02AF852
:104740000120354908701D480068009060208DF8F0
:1047500004008DF8054015208DF806004FF4005137
:10476000174802F0AEFB012805D1112000E078E0E7
:104770008DF8070002E000208DF80700042101A851
:10478000FBF74DFD05468DF808500C4808300188B0
:10479000ADF8091080788DF80B0000204AE053E056
:1047A000636C6F73652D6B657931395F666C61671A
:1047B0003D2025640A0000002B000020741600082C
:1047C0000014014000080140A02300086F70656ECE
:1047D0002D6B657931395F666C61673D2025640A10
:1047E000000000002C000020636C6F73652D6B656A
:1047F0007932305F666C61673D2025640A000000F5
:104800006F70656E2D6B657932305F666C61673DE8
:104810002025640A000000002D000020636C6F73E7
:10482000652D6B657932315F666C61673D2025646B
:104830000A0000008DF80C000C216846FBF7B7FC5D
:104840000C216846FBF78EFC4FF47A70FBF758FC9E
:104850004FF40061F74802F050FB4FF47A70FBF719
:104860004FFCF5480078E8B34FF40051F34802F0EC
:1048700028FB012866D14FF47A70FBF741FC4FF416
:104880000061EC4802F037FB4FF47A70FBF738FC1C
:104890000A2002F000F84FF40051E84802F011FB42
:1048A000012842D12246E649002004F073FFE24885
:1048B0000278E4A1002004F06DFF0020DE490870BA
:1048C000E6480068009060208DF804008DF80540EF
:1048D00015208DF806004FF40051D84802F0F1FA87
:1048E000012800E02EE003D111208DF8070002E03E
:1048F00000208DF80700042101A8FBF790FC054675
:104900008DF80850D54808300188ADF80910807836
:104910008DF80B0000208DF80C000C216846FBF789
:1049200046FC0C216846FBF71DFC4FF47A70FBF740
:10493000E7FB4FF40061BF4802F0DFFA4FF47A70F2
:10494000FBF7DEFBC6480078E8BB4FF40041BB48EC
:1049500002F0B7FAB8BB4FF47A70FBF7D1FB4FF413
:104960000061B44802F0C7FA4FF47A70FBF7C8FB55
:104970000A2001F090FF4FF40041B04802F0A1FA84
:10498000E8BB2246AE49002004F004FFB448027898
:10499000B4A1002004F0FEFE0120B1490870AF4828
:1049A0000068009060208DF804008DF80540162006
:1049B0008DF806004FF40041A04802F082FA012869
:1049C00005D1112000E02EE08DF8070002E0002064
:1049D0008DF80700042101A8FBF721FC05468DF89E
:1049E00008509E4808300188ADF8091080788DF88D
:1049F0000B0000208DF80C000C21684600E005E05B
:104A0000FBF7D5FB0C216846FBF7ACFB4FF47A7043
:104A1000FBF776FB4FF40061864802F06EFA4FF424
:104A20007A70FBF76DFB8E480078E8B34FF40041D5
:104A3000824802F046FA012866D14FF47A70FBF7FB
:104A40005FFB4FF400617B4802F055FA4FF47A7037
:104A5000FBF756FB0A2001F01EFF4FF40041774898
:104A600002F02FFA012842D122467549002004F0B5
:104A700091FE7B48027881A1002004F08BFE00208B
:104A80007749087075480068009060208DF8040030
:104A90008DF8054016208DF806004FF40041674858
:104AA00002F00FFA012800E02EE003D111208DF86A
:104AB000070002E000208DF80700042101A8FBF7A1
:104AC000AEFB05468DF80850644808300188ADF803
:104AD000091080788DF80B0000208DF80C000C2157
:104AE0006846FBF764FB0C216846FBF73BFB4FF481
:104AF0007A70FBF705FB4FF400614E4802F0FDF9B8
:104B00004FF47A70FBF7FCFA62480078E0BB802132
:104B1000614802F0D6F9B8BB4FF47A70FBF7F0FAAF
:104B20004FF40061434802F0E6F94FF47A70FBF766
:104B3000E7FA0A2001F0AFFE8021574802F0C1F9E0
:104B4000F0BB22463E49002004F024FE5148027882
:104B500052A1002004F01EFE01204E4908703F487B
:104B60000068009060208DF804008DF80540172043
:104B70008DF806008021484802F0A3F9012804D1ED
:104B800011208DF8070003E02BE000208DF80700CE
:104B9000042101A8FBF743FB05468DF808502F4878
:104BA00008300188ADF8091080788DF80B000020DE
:104BB0008DF80C000C216846FBF7F9FA0C2100E097
:104BC00002E06846FBF7CEFA4FF47A70FBF798FAEA
:104BD0004FF40061174802F090F94FF47A70FBF738
:104BE0008FFA2C48007818B380212B4802F069F91D
:104BF00001281DD14FF47A70FBF782FA4FF400615F
:104C00000C4802F078F94FF47A70FBF779FA0A2031
:104C100001F041FE8021204802F053F901287DD1A6
:104C200022460749002004F0B5FD1A48027841E009
:104C300088E00000000801402D0000200014014021
:104C4000A02300086F70656E2D6B657932315F6649
:104C50006C61673D2025640A00000000741600089E
:104C60002E000020636C6F73652D6B657932325FA7
:104C7000666C61673D2025640A0000006F70656EF8
:104C80002D6B657932325F666C61673D2025640A61
:104C9000000000002F00002000100140636C6F73C3
:104CA000652D6B657932335F666C61673D202564E5
:104CB0000A000000FAA1002004F06CFD0020FE496B
:104CC0000870FE480068009060208DF804008DF8A0
:104CD000054017208DF806008021F94802F0F1F810
:104CE000012803D111208DF8070002E000208DF883
:104CF0000700042101A8FBF792FA05468DF8085039
:104D0000EE4808300188ADF8091080788DF80B0066
:104D100000208DF80C000C21684600E005E0FBF750
:104D200046FA0C216846FBF71DFA4FF47A70FBF740
:104D3000E7F94FF40061E34802F0DFF84FF47A70CE
:104D4000FBF7DEF9E0480078E8BB4FF40071DC487F
:104D500002F0B7F8B8BB4FF47A70FBF7D1F94FF413
:104D60000061D84802F0C7F84FF47A70FBF7C8F931
:104D70000A2001F090FD4FF40071D14802F0A1F833
:104D8000E8BB2246D149002004F004FDCE48027859
:104D9000CFA1002004F0FEFC0120CB490870C748D9
:104DA0000068009060208DF804008DF80540182000
:104DB0008DF806004FF40071C14802F082F8012816
:104DC00005D1112000E02EE08DF8070002E0002060
:104DD0008DF80700042101A8FBF721FA05468DF89C
:104DE0000850B64808300188ADF8091080788DF871
:104DF0000B0000208DF80C000C21684600E005E057
:104E0000FBF7D5F90C216846FBF7ACF94FF47A7043
:104E1000FBF776F94FF40061AA4802F06EF84FF400
:104E20007A70FBF76DF9A8480078E8B34FF4007189
:104E3000A34802F046F8012866D14FF47A70FBF7D8
:104E40005FF94FF400619F4802F055F84FF47A7013
:104E5000FBF756F90A2001F01EFD4FF40071984847
:104E600002F02FF8012842D122469849002004F090
:104E700091FC954802789CA1002004F08BFC002056
:104E8000914908708D480068009060208DF80400FA
:104E90008DF8054018208DF806004FF40071884801
:104EA00002F00FF8012800E02EE003D111208DF868
:104EB000070002E000208DF80700042101A8FBF79D
:104EC000AEF905468DF808507C4808300188ADF8E9
:104ED000091080788DF80B0000208DF80C000C2153
:104EE0006846FBF764F90C216846FBF73BF94FF481
:104EF0007A70FBF705F94FF40061724801F0FDFF8D
:104F00004FF47A70FBF7FCF840B070BD00BF00248E
:104F100001F084FC4FF4A06002F066FC784801F0D8
:104F2000AEFD01F01FFA01F01AFC00F0E0FA41F6C4
:104F30001F4140F6B73000F0D2FC002000F0BEFC6C
:104F4000022001F0A0FA6F49022001F062FB41F655
:104F50001F41632001F0AAF9002001F096F96A4987
:104F6000002004F017FC8CE168480078012837D154
:104F70004FF47A70FBF7C4F84FF40061514801F028
:104F8000BAFF4FF47A70FBF7BBF856A1002004F08B
:104F900001FC5F4802785FA1002004F0FBFB63A1E5
:104FA000002004F0F7FB5A4801786448FBF7DAF870
:104FB000FBF7E8FD4FF47A70FBF7A2F84FF40061BD
:104FC000404801F09AFF4FF47A70FBF799F80D21F1
:104FD0005A4804F00CFC00204D4908704B490870F9
:104FE000022001F00BFB0546002D57D0012D30D1DA
:104FF00053480068401C5249086052480078A8B9DC
:1050000041F61F4140F6B73000F069FC012000F086
:1050100055FC02204C49087001204A490870084696
:1050200002784AA1002004F0B5FB0BE001204649BC
:1050300008700020434908700846027848A1002003
:1050400004F0A8FB3E4802684AA1002004F0A2FB3D
:1050500024E041F61F4141F2873000F040FC01207E
:1050600000F02CFC38480078012809D148A1002024
:1050700004F090FB032034490870012000F01EFC6E
:1050800001203049087047480068401C45490860C5
:105090000846026844A1002004F07CFB641C91E0F7
:1050A0006F70656E2D6B657932335F666C61673D3D
:1050B0002025640A000000002F000020741600085C
:1050C000001001400008014030000020A02300082B
:1050D000636C6F73652D6B657932345F666C6167E5
:1050E0003D2025640A0000006F70656E2D6B6579A8
:1050F00032345F666C61673D2025640A0000000061
:1051000001020008211F000868A900089B00002078
:10511000940000202D6D61696E2D55617274315FB0
:105120005278203D2025640A000000002D2D2D72AC
:1051300063762D64617461732D2D2D00B001002004
:10514000100000201800002031000020316D6F6435
:10515000655F6E6F6D616C203D2025640A00000064
:10516000326D6F64655F6E6F6D616C203D202564EC
:105170000A0000006B65793253686F727450726573
:105180007373436F756E74203D2025640A00000020
:105190002D2D2D6B65795F6D6F6465203D332D2D51
:1051A0002D0A0000140000206B6579324C6F6E6789
:1051B0005072657373436F756E74203D2025640AC9
:1051C000000000006420B4FBF0F100FB114078B94E
:1051D0002C48007801280BD12BA1002004F0DAFA2A
:1051E0002D48006808B9012000E000202A49086025
:1051F0000A20B4FBF0F100FB114078B92148007897
:1052000002280BD125A1002004F0C4FA224800682E
:1052100008B9012000E000201F4908600A20B4FB03
:10522000F0F100FB114078B91648007803280BD143
:105230001EA1002004F0AEFA1748006808B901204A
:1052400000E00020144908600A20B4FBF0F100FBE4
:10525000114088B91948007801280DD118A1002003
:1052600004F098FA0C480838006808B9012000E0FA
:1052700000200949083908600A2001F00CFBFCF7FE
:105280005FFE71E6310000202D2D2D7465737431A1
:105290002D2D2D0A00000000948121422D2D2D740A
:1052A000657374322D2D2D0A000000002D2D2D74F4
:1052B000657374332D2D2D0A000000007F0000203F
:1052C0002D2D2D746573743420206C6F636B5F6AB1
:1052D00069616E63655F666C61672D2D2D0A000044
:1052E000704700BFFEE700BFFEE700BFFEE700BF5C
:1052F000FEE7704770477047704700000CB500200C
:10530000019000906C48006840F480306A49086061
:1053100000BF6948006800F4003000900198401C0C
:105320000190009820B94FF6FF7101988842F0D1A2
:105330006148006800F4003010B10120009001E0E5
:10534000002000900098012843D15C48006840F09C
:1053500010005A4908600846006820F00300086001
:105360000846006840F0020008605348406852490F
:1053700048600846406848600846406840F48060DD
:1053800048600846406820F47C1048600846406841
:1053900040F4E81048600846006840F080700860FB
:1053A00000BF4548006800F000700028F9D042486E
:1053B000406820F00300404948600846406840F0DB
:1053C0000200486000BF3C48406800F00C0008281C
:1053D000F9D10CBD10B5FFF791FF10BD10B53648DF
:1053E000006840F0010034490860084640683449CC
:1053F00008403149486008460068324908402E4953
:1054000008600846006820F480200860084640686C
:1054100020F4FE0048604FF41F008860FFF7DAFFB9
:105420004FF000602849086010BD10B50021002031
:105430000022214B5B6803F00C0121B1042906D046
:10544000082928D107E0214B214C236027E01F4B7E
:105450001F4C236023E0184B5B6803F47010164B5D
:105460005B6803F48032022303EB904022B9194BAE
:105470004343174C23600DE00F4B5B6803F400338C
:1054800023B1144B4343124C236003E00F4B4343BF
:105490000F4C236003E00D4B0D4C236000BF00BF99
:1054A000054B5B68C3F303130B4CE15C084B1B68B3
:1054B000CB40074C236010BD00100240002002408A
:1054C0000000FFF8FFFFF6FE08ED00E000127A0092
:1054D0003400002000093D003800002001B502E042
:1054E0000098401E009000980028F9D108BD08B52A
:1054F00001217C2001F00FFF10208DF80300032014
:105500008DF802000121FE4801F019FD2020ADF8C0
:1055100000006946FB4801F041FC2021F94801F0F8
:10552000ECFC4FF40060ADF800006946F64801F06D
:1055300035FC4FF47A70FFF7D1FF4FF40061F24869
:1055400001F0DBFC4FF47A70FFF7C8FF0820ADF8DC
:1055500000006946EB4801F021FC0821E94801F010
:10556000CCFC8020ADF800006946E64801F016FC4E
:105570008021E44801F0C1FC0220ADF800001020B9
:105580008DF8030003208DF802006946DF4801F022
:1055900005FC0020DE4908600820ADF8000010205E
:1055A0008DF8030003208DF802006946D74801F00A
:1055B000F5FB0020D749C1F88C010220ADF80000AE
:1055C00010208DF8030003208DF802006946CE48B4
:1055D00001F0E4FB0020D04908600820ADF800008D
:1055E00010208DF8030003208DF802006946C6489C
:1055F00001F0D4FB0020C949C1F88C012020ADF88E
:10560000000010208DF8030003208DF80200694689
:10561000BD4801F0C3FB0020BF4910310860802065
:10562000ADF8000010208DF8030003208DF8020073
:105630006946B54801F0B2FB0020B849C1F89C01A9
:105640002020ADF8000010208DF8030003208DF815
:1056500002006946AD4801F0A1FB0020AC491031C1
:1056600008600220ADF8000010208DF80300032030
:105670008DF802006946A34801F090FB0020A8497C
:10568000C1F884012020ADF8000010208DF803003F
:1056900003208DF802006946A24801F07FFB00203C
:1056A000A14908600420ADF8000010208DF8030027
:1056B00003208DF8020069469A4801F06FFB002034
:1056C0009A49C1F888014FF48070ADF800001020AD
:1056D0008DF8030003208DF802006946914801F01F
:1056E0005DFB002090490C3108604FF48060ADF8FC
:1056F000000010208DF8030003208DF80200694699
:10570000884801F04BFB00208849C1F8A8014FF4FC
:105710008050ADF8000010208DF8030003208DF8B4
:10572000020069467F4801F039FB00207E491C31A8
:1057300008604FF48040ADF8000010208DF80300A1
:1057400003208DF802006946764801F027FB00200F
:105750007649C1F8B8014FF48060ADF80000102020
:105760008DF8030003208DF802006946654801F0BA
:1057700015FB00206E4908604FF48050ADF8000022
:1057800010208DF8030003208DF8020069465D4863
:1057900001F004FB00206249C1F8B0014FF48040E1
:1057A000ADF8000010208DF8030003208DF80200F2
:1057B0006946544801F0F2FA00205949C1F8B8018D
:1057C0004FF48070ADF8000010208DF80300032026
:1057D0008DF802006946574801F0E0FA002056496A
:1057E000C1F8A0014FF48060ADF8000010208DF8E2
:1057F000030003208DF8020069464E4801F0CEFAFE
:1058000000204D49C1F8A8014FF48050ADF80000C8
:1058100010208DF8030003208DF8020069464548EA
:1058200001F0BCFA00204449C1F8B0014FF48040B7
:10583000ADF8000010208DF8030003208DF8020061
:1058400069463C4801F0AAFA00203B49C1F8B8017A
:105850004020ADF8000010208DF8030003208DF8E3
:1058600002006946294801F099FA00202949C1F847
:1058700098014FF48070ADF8000010208DF80300FF
:1058800003208DF802006946204801F087FA0020C5
:105890002049C1F8A0014FF48070ADF8000010203D
:1058A0008DF8030003208DF802006946164801F0C8
:1058B00075FA00201949C1F8A00108BD10B50446C9
:1058C00044B100211D4802F0C1FE01211B4802F035
:1058D00029FC03E00021194802F024FC10BD7FB52B
:1058E00005460C460121042001F022FDADF80850C8
:1058F000ADF804400020ADF80A00ADF806001FE046
:1059000000023000000C014000080140001001407E
:1059100084012242000022428401214200002142EF
:1059200000802142001801409401234200002342DC
:10593000A88121420014014000802242000800405A
:1059400001A9FA4802F092F801221146F74802F044
:1059500004FC1E208DF8000000208DF801000120BD
:105960008DF802008DF80300684601F042FF012126
:10597000EE4802F0D7FB0121EC4802F0ADFE7FBDFE
:1059800010B5EBA1002003F005FF0121E74802F06C
:1059900092FE00286FD00121E44802F09DFEE94804
:1059A0000078032868D1E8480278E8A1002003F0D5
:1059B000F1FEE5480078192876DCE34800781928DC
:1059C00073D2DFE800F0720D182434404C5A66732D
:1059D0007E8A96A2AEBAC6D2DEE9FAF8F7F6F500EC
:1059E0000120E0490860642000F055FF0020DE49F6
:1059F000C1F884011EE10120DA4908310860642001
:105A000000F049FF0020D849C1F88C0112E10120C3
:105A1000D6490860D649C1F89C01642000F03BFFDC
:105A20000020D2490860D249C1F89C0102E101205E
:105A3000CE4908310860642000F02DFF0020CD49D8
:105A4000C1F88C01F6E00120C849103108606420DB
:105A500000F021FF0020C749C1F89401EAE00120CD
:105A6000C24918310860642000F015FF0020C149C8
:105A7000C1F89C01DEE0F2E3F1E00120B949103108
:105A80000860642000F007FF0020B749C1F89401C6
:105A9000D0E00120B8490860642000F0FCFE00203E
:105AA000B349C1F88401C5E0CBE0C2E00120B349AD
:105AB0000860642000F0EFFE0020B149C1F89401B5
:105AC000B8E00120AD490C390860642000F0E3FE25
:105AD0000020AB49C1F88801ACE00120A7490C3196
