:020000040800F2
:10000000500B0020ED1A0008090B00080B0B00082C
:100010000F0B0008130B0008170B0008000000006E
:100020000000000000000000000000001B0B0008A2
:100030001D0B0008000000001F0B0008210B00082A
:10004000071B0008071B0008071B0008071B000808
:10005000071B0008071B0008071B0008071B0008F8
:100060008F150008071B0008071B0008071B000866
:10007000071B0008071B0008071B0008071B0008D8
:10008000071B0008071B0008071B0008071B0008C8
:10009000071B0008071B0008071B0008071B0008B8
:1000A000071B0008071B0008071B0008071B0008A8
:1000B0003F14000847110008630E0008071B0008E2
:1000C000071B0008071B0008071B0008071B000888
:1000D000071B00086B190008071B0008071B000816
:1000E000071B0008071B0008071B0008DFF80CD0DF
:1000F00004F0B0FC0048004795070008500B0020B2
:1001000001B502E00098401E009000980028F9D147
:1001100008BD0FB430B59BB000241FA80190652125
:1001200002A8019B1E9A04F045FDC5B20EE02046D0
:10013000621CD4B202AA115CF94802F0A5F900BF12
:100140004021F74802F00EFA0028F9D0642C03DAB7
:10015000AC4201DA002DEADC002001901BB030BC7B
:100160005DF814FB70B504460D46EEA1002004F0C6
:1001700029FA05E02278EFA1002004F023FA641C9C
:10018000281EA5F10101CDB2F4D1ECA104F01AFAB8
:1001900070BD10B504462146E14802F075F900BF74
:1001A0008021DF4802F0DEF90028F9D010BD70B5DB
:1001B00004460D460BE02178D94802F065F900BFEE
:1001C0004021D74802F0CEF90028F9D0641C281E3F
:1001D000A5F10101CDB2EED170BD10B504460BE022
:1001E0002178CF4802F050F900BF4021CC4802F0FE
:1001F000B9F90028F9D0641C20780028F0D110BD8E
:1002000070B504460D462178C54802F03DF970BD31
:1002100010B504462146CAA004F0BCFC10BD10B5C0
:1002200002460B460020002103E0545C60404C1C59
:10023000A1B29942F9DB10BDF0B5ADF5017D4FF4E7
:10024000807141A804F0EBF900274FF4807101A8F8
:1002500004F0E5F90026BE480278BEA1002004F0B3
:10026000B1F9BB4800780838C6B23246BFA10020B9
:1002700004F0A8F93246C24901A804F0B7F9052EE6
:1002800076D19DF80400BF4908709DF805004870BC
:100290009DF8060088709DF80700C8709DF808005A
:1002A0000871042101A8FFF7BAFF04462246B6A14F
:1002B000002004F087F9B3480079A04278D1B14812
:1002C0000078802875D08A2874D1AE48C07811286B
:1002D00077D1AC488078012802D0022831D117E0CC
:1002E0000120AD490860142001F0EFF90020AB496E
:1002F000C1F88401142001F0E8F90121A84801F0B7
:10030000FAFC05462A46A7A1002004F05BF919E093
:100310000120A14908310860142001F0D6F900201D
:100320009E49C1F88C01142001F0CFF904219C48AA
:1003300001F0E1FC05462A469AA1002004F042F9AA
:1003400000E000BF00BF9CA0006841908D4800788D
:100350008DF808018B4840788DF80901894880782C
:100360008DF80A01012D04D111208DF80B0103E055
:100370009EE000208DF80B01042142A8FFF74FFFFB
:1003800004468DF80C418EA00188ADF80D118078DF
:100390008DF80F0100208DF810010C2141A8FFF706
:1003A00006FF0C2141A8FFF7DDFE7648027803E046
:1003B00077E00DE06CE004E082A1002004F002F997
:1003C00005E07048027885A1002004F0FBF860E0A9
:1003D0006C48C078332854D16A488078002856D0B9
:1003E00068488078012802D0082810D10AE004214A
:1003F0006B4801F080FC05462A466AA1002004F003
:10040000E1F805E00421664801F091FC00BF00BF5F
:1004100000BF69A0006841905A4800788DF8080133
:10042000584840788DF80901564880788DF80A01BF
:10043000012D03D111208DF80B0102E000208DF871
:100440000B01042142A8FFF7EAFE04468DF80C4197
:100450005BA00188ADF80D1180788DF80F010020A8
:100460008DF810010C2141A8FFF7A1FE0C2141A835
:10047000FFF778FE4348027852A1002004F0A2F86A
:1004800005E04048027855A1002004F09BF800E008
:1004900000BF00BF3B48027957A1002004F092F84A
:1004A000FBE03848027959A1002004F08BF8F4E011
:1004B000032EF5D19DF80400324908709DF805001F
:1004C00048709DF806000871022101A8FFF7A7FEF9
:1004D000044622462CA1002004F074F82948007933
:1004E000A04217D127480078912814D006DC702844
:1004F00012D0712811D0902810D104E092280ED08B
:1005000093280BD1A0E01F4802782EA1002004F010
:1005100059F8B2E0BAE087E09EE0A5E0ACE08BE0FD
:10052000003801407274742D74656D703D3D3D3D21
:100530003D00000025303278200000000A00000055
:10054000726563765F646174613D25780D0A000011
:100550007C0000202D70617273652D5561727431BD
:100560005F5278203D2025640A0000002D556172FD
:1005700074315F52785F54203D2025640A000000EA
:100580009C010020000000206263635F74656D7051
:10059000203D2025780A00008401224200002242EA
:1005A000001001406770696F5F6C6576656C203D77
:1005B0002025780A000000007374617200000000BA
:1005C000656E64006F6B2C6D5F646174612E6F707B
:1005D000636F64653D253032780A00006572726F82
:1005E000722D322C6D5F646174612E6F70636F6465
:1005F000653D253032780A006D5F646174612E625A
:100600006363203D2025780A000000006572726F48
:10061000722D312D6D5F646174612E626363203DC4
:100620002025780A00000000DD480278AFF26C0156
:10063000002003F0C7FF20E0D9480278AFF27C0128
:10064000002003F0BFFF18E0D5480278AFF28C011C
:10065000002003F0B7FF10E0D1480278AFF29C0110
:10066000002003F0AFFF08E0CD480278AFF2AC0104
:10067000002003F0A7FF00E000BF00BFC8480279D8
:10068000AFF28C01002003F09DFF06E0C448027920
:10069000AFF28801002003F095FF0DF5017DF0BD5C
:1006A000012805D1BF490968491CBE4A116006E00E
:1006B000022804D1BC490968491CBB4A1160704733
:1006C00010B5BA480078A8B90421B94801F013FB65
:1006D00080B90A2000F0F9FF0421B54801F00BFBB6
:1006E00040B9B2480278B3A1002003F06BFF0120AB
:1006F000AE490870AD480078B8B10421AC4801F0AB
:10070000FAFA012811D10A2000F0DFFF0421A848DD
:1007100001F0F1FA012808D1A4480278ABA1002029
:1007200003F050FF0020A1490870AD480078A8B937
:100730000421AC4801F0DFFA80B90A2000F0C5FFBF
:100740000421A84801F0D7FA40B9A5480278A6A12B
:10075000002003F037FF0120A1490870A04800786D
:10076000B8B104219F4801F0C6FA012811D10A202E
:1007700000F0ABFF04219B4801F0BDFA012808D12D
:10078000974802789EA1002003F01CFF00209449A6
:10079000087010BD00BF002400F05AFF4FF4A060A5
:1007A00001F03AFFAFF2A75001F083F800F0B3FA7E
:1007B00041F61F4140F6B73000F023FB002000F067
:1007C0000FFB022000F071FD9249022000F033FE81
:1007D00041F61F41632000F085FC002000F071FC11
:1007E0008D49002003F0EEFED9E08C480078012806
:1007F00038D14FF47A70FFF783FC4FF400617948E9
:1008000001F093FA4FF47A70FFF77AFCAFF2D4213B
:10081000002003F0D7FE8248027882A1002003F076
:10082000D1FE86A1002003F0CDFE7D4801788748E7
:10083000FFF798FCFFF700FD4FF47A70FFF760FCBC
:100840004FF40061674801F072FA4FF47A70FFF7D5
:1008500057FC0D217D4803F0E2FE0020704908702E
:100860006E490870022000F0DBFD0546002D4ED0D9
:10087000012D30D176480068401C754908607548E4
:100880000078A8B941F61F4140F2E73000F0B9FA0C
:10089000012000F0A5FA02206F49087001206D497F
:1008A0000870084602786DA1002003F08BFE0BE073
:1008B00001206949087000206649087008460278DE
:1008C0006BA1002003F07EFE614802686DA100204C
:1008D00003F078FE1BE060480078012809D170A180
:1008E000002003F06FFE03205B490870012000F038
:1008F00077FA0120574908706E480068401C6D491E
:100900000860084602686CA1002003F05BFE641CCE
:100910006420B4FBF0F100FB114078B94E48007838
:1009200001280BD16BA1002003F04CFE6D4800683C
:1009300008B9012000E000206A4908600A20B4FBE1
:10094000F0F100FB114078B94348007802280BD140
:1009500065A1002003F036FE6248006808B9012056
:1009600000E000205F4908600A20B4FBF0F100FBC2
:10097000114078B93848007803280BD15EA10020D7
:1009800003F020FE5748006808B9012000E000206D
:10099000544908600A2000F098FEFFF791FE24E712
:1009A00000000020080000200C000020190000209A
:1009B00000100140636C6F73652D6B6579325F6663
:1009C0006C61673D2025640A000000006F70656E51
:1009D0002D6B6579325F666C61673D2025640A0086
:1009E0001A00002000080140636C6F73652D6B6571
:1009F00079345F666C61673D2025640A0000000061
:100A00006F70656E2D6B6579345F666C61673D2034
:100A100025640A00A10600089857000883000020FA
:100A20007C0000202D6D61696E2D55617274315FFF
:100A30005278203D2025640A000000002D2D2D72E3
:100A400063762D64617461732D2D2D009801002053
:100A500010000020180000201B000020316D6F6482
:100A6000655F6E6F6D616C203D2025640A0000009B
:100A7000326D6F64655F6E6F6D616C203D20256423
:100A80000A0000006B65793253686F7274507265AA
:100A90007373436F756E74203D2025640A00000057
:100AA0002D2D2D6B65795F6D6F6465203D332D2D88
:100AB0002D0A0000140000206B6579324C6F6E67C0
:100AC0005072657373436F756E74203D2025640A00
:100AD000000000002D2D2D74657374312D2D2D0A0D
:100AE00000000000948121422D2D2D746573743215
:100AF0002D2D2D0A000000002D2D2D7465737433EB
:100B00002D2D2D0A00000000704700BFFEE700BF3A
:100B1000FEE700BFFEE700BFFEE770477047704783
:100B2000704700000CB50020019000906C480068F0
:100B300040F480306A49086000BF6948006800F4EA
:100B4000003000900198401C0190009818B901985D
:100B5000B0F5A06FF1D16248006800F4003010B128
:100B60000120009001E0002000900098012843D16E
:100B70005C48006840F010005A4908600846006868
:100B800020F0030008600846006840F0020008609A
:100B900053484068524948600846406848600846E3
:100BA000406840F4806048600846406820F47C104B
:100BB00048600846406840F4E8104860084600680D
:100BC00040F08070086000BF4548006800F0007089
:100BD0000028F9D04248406820F0030040494860AE
:100BE0000846406840F00200486000BF3C4840684A
:100BF00000F00C000828F9D10CBD10B5FFF792FFEA
:100C000010BD10B53648006840F001003449086056
:100C10000846406834490840314948600846006841
:100C2000324908402E4908600846006820F48020B8
:100C300008600846406820F4FE0048604FF41F003A
:100C40008860FFF7DAFF4FF000602949086010BDA7
:100C500010B5002100200022214B5B6803F00C013D
:100C600021B1042906D0082928D107E0214B224CC4
:100C7000236027E01F4B204C236023E0184B5B6868
:100C800003F47010164B5B6803F48032022303EB0D
:100C9000904022B9194B4343174C23600DE0104B91
:100CA0005B6803F4003323B1144B4343124C2360BD
:100CB00003E0104B4343104C236003E00D4B0E4CFC
:100CC000236000BF00BF064B5B68C3F303130C4CEB
:100CD000E15C094B1B68CB40074C236010BD000052
:100CE00000100240002002400000FFF8FFFFF6FE67
:100CF00008ED00E000127A001C00002000093D0011
:100D00002000002001B502E00098401E00900098ED
:100D10000028F9D108BD08B501211C2001F014FA02
:100D200010208DF8030003208DF802000121B34844
:100D300001F01FF82020ADF800006946B04800F02F
:100D400047FF2021AE4800F0F2FF4FF40060ADF8FD
:100D500000006946AB4800F03BFF4FF47A70FFF7A4
:100D6000D1FF4FF40061A74800F0E1FF4FF47A7023
:100D7000FFF7C8FF0120ADF8000048208DF8030000
:100D80006946A14800F024FF0220ADF800001020C1
:100D90008DF8030003208DF8020069469A4800F0A0
:100DA00017FF0020994908600420ADF80000482092
:100DB0008DF803006946944800F00AFF0820ADF85A
:100DC000000010208DF8030003208DF80200694612
:100DD0008D4800F0FDFE00208D49C1F88C0108BD52
:100DE00010B5044644B100218A4802F047FB0121B6
:100DF000884802F0AFF803E00021864802F0AAF824
:100E000010BD7FB505460C460121042001F0A9F96B
:100E1000ADF80850ADF804400020ADF80A00ADF878
:100E2000060001A97B4801F039FD012211467948ED
:100E300002F0ABF81E208DF8000000208DF80100B4
:100E400001208DF802008DF80300684601F0E9FBEF
:100E50000121704802F07EF801216E4802F054FB37
:100E60007FBD10B56CA1002003F0ACFB01216948E7
:100E700002F039FB00287DD00121664802F044FBD6
:100E80006A48007803284DD16948027869A100209A
:100E900003F098FB66480078192835DC6448007830
:100EA000012802D0022829D113E06148027867A105
:100EB000002003F087FB012054490860142000F053
:100EC00004FC00205249C1F88401142000F0FDFB0D
:100ED00015E0574802785DA1002003F073FB012064
:100EE0004A4908310860142000F0EFFB002048490F
:100EF000C1F88C01142000F0E8FB00E000BF00BF47
:100F00000120FFF76DFF08E00020FFF769FF0020D8
:100F10004749087001204549087045480078401C41
:100F2000434908704148007802285FD14C48027854
:100F30004CA1002003F046FB4948007819284DDCFD
:100F400047480078012802D0022841D120E04448D7
:100F500002784CA1002003F035FB01212A4800F063
:100F6000CAFE044622464DA1002003F02BFB74B9B3
:100F7000012000E041E025490860142000F0A5FBB5
:100F800000202349C1F88401142000F09EFB20E0DA
:100F9000334802783BA1002003F014FB04211A48D7
:100FA00000F0A9FE044622463CA1002003F00AFB03
:100FB0006CB90120154908310860142000F085FB48
:100FC00000201349C1F88C01142000F07EFB00E0E2
:100FD00000BF00BF0120FFF703FF02E0002020490F
:100FE00008701F480078401C1D4908700F480078A1
:100FF000012802D10020FFF7F3FE10BD00023000EF
:10100000000C014000080140001001408401224210
:10101000000022420008004054494D345F495251BB
:1010200048616E646C65720A000000001B000020BD
:10103000300000206D6F6465332D6C6F636B5F63F0
:1010400068616E6E656C3D2025640A006C6F636B91
:101050005F6368616E6E656C3D25640A0000000088
:10106000310000206D6F6465332D6C6F636B5F63BF
:1010700068616E6E656C5F6D6F6465323D202564DE
:101080000A0000006C6F636B5F6368616E6E656C75
:101090005F6D6F6465323D25640A00006770696F9B
:1010A0005F6C6576656C203D2025780A00000000A5
:1010B00001B502E00098401E009000980028F9D188
:1010C00008BD10B5044644B100212A4802F0D6F903
:1010D0000121284801F03EFF03E00021254801F0EE
:1010E00039FF10BD7FB505460C460121022001F0F5
:1010F00038F8ADF80850ADF804400020ADF80A000B
:10110000ADF8060001A91B4801F0C8FB01221146F9
:10111000184801F03AFF1D208DF8000000208DF8DE
:10112000010003208DF8020001208DF803006846BD
:1011300001F077FA01210F4801F00CFF01210D4861
:1011400002F0E2F97FBD10B501210A4802F0CBF9A7
:1011500070B10121074802F0D7F90748027807A1CA
:10116000002003F02FFA002003490870FFF7A9FFC1
:1011700010BD0000000400407C00002054494D33A5
:101180005F49525148616E646C657220556172749A
:10119000315F52783D2025780A00000010B501210A
:1011A000142000F0D1FF0121E04800F0E2FD10BD65
:1011B00010B5044614B10120DD490870DC48007800
:1011C000E8B10421DB4800F096FD20B10421DA48A3
:1011D00000F091FD98B90A2000F077FA0020D44978
:1011E00008700421D34800F086FD08B9022010BD24
:1011F0000421D14800F07FFD78B90420F7E70421ED
:10120000CC4800F078FD012807D10421CA4800F03D
:1012100072FD012801D1C64908700020E7E710B52A
:10122000C6480078D0B90421C24800F064FD20B15E
:101230000421C14800F05FFD80B90A2000F045FAA2
:101240000421BC4800F057FD08B9022010BD04215C
:10125000B94800F050FD08B90420F7E70020F5E791
:1012600010B5B6480078F0B10421B24800F043FD53
:10127000012805D00421B04800F03DFD012812D11D
:101280000A2000F022FA0421AA4800F034FD0128C7
:1012900001D1022010BD0421A74800F02CFD012837
:1012A00001D10420F6E70020F4E710B586B004462B
:1012B000002005900290039004900190A048005DEA
:1012C00020BB01209E49085500209E4941F824007A
:1012D0009D4941F824009D4908559D4908559D495F
:1012E00041F824009C4951F82400012100F02CFF12
:1012F0009A4830F81400ADF8140048208DF8170013
:10130000974951F8240005A900F062FC954800783F
:1013100098BB0120934908700121084600F021FF85
:101320005320ADF808000020ADF80A0041F28730E4
:10133000ADF80C000020ADF80E0002A94FF080407F
:1013400001F0ACFA0121880702F0CAF80122114627
:10135000900701F01AFE0121880701F0FBFD1C2017
:101360008DF8040000208DF805008DF8060001209E
:101370008DF8070001A801F054F906B010BD7CB546
:1013800004460020019000906D48005D01281DD1A9
:1013900000206B4908556B4941F824006A4941F81F
:1013A00024006A4908556A4908556A4941F82400E9
:1013B0006A4830F81400ADF8040048208DF80700A2
:1013C000674951F8240001A900F002FC6548007843
:1013D000012824D10126002505E05948405D012857
:1013E00000D100266D1C032DF7D3012E16D100204D
:1013F0005C490870B00701F07DF90021012000F080
:10140000B0FE1C208DF8000000208DF801008DF842
:1014100002008DF80300684601F003F900BF7CBDAF
:10142000014600204A4A525C22B1494A505C0022DF
:10143000474B5A547047474A42F82010704710B53E
:101440000121880702F04FF800286ED0012188079B
:1014500002F05AF8002466E0404A32F81410404A7C
:1014600052F8240000F047FC3F49095D884227D12B
:10147000354850F82400401C334941F82400084600
:1014800050F82400012803D900202E4941F82400F7
:101490002D4850F82400C82844D900202A4941F892
:1014A000240002202949085529490855294850F89F
:1014B000240068B3274850F824100220884731E000
:1014C000204850F82400401C1E4941F824000846DA
:1014D00050F82400012825D91C48005DC8B91A48D5
:1014E00050F82400012814D9002041F8240016499E
:1014F00041F824000120154908551549085515489B
:1015000050F8240020B1134850F8241001208847D7
:1015100008E000200B4941F824000B4941F8240061
:101520000A490855641C032C96D310BD00023000F4
:101530006600002000100140000801403400002037
:101540005C000020AC000020B80000205F000020FC
:1015500062000020C4000020500000204400002051
:1015600038000020650000204A00002001B502E09C
:101570000098401E009000980028F9D108BD10B5D1
:101580000121084600F0E0FDFFF708FE10BD10B590
:101590000A2000F09AF804210F4800F0ACFB20B9B3
:1015A0000EA1002003F00EF803E013A1002003F0C9
:1015B00009F80421174800F09EFB20B916A100206D
:1015C00003F000F803E01BA1002002F0FBFF042061
:1015D00002F023F810BD000000100140322D636CB2
:1015E0006F73652D45585449325F49525148616EB9
:1015F000646C65720A000000322D6F70656E2D45B7
:10160000585449325F49525148616E646C65720AA0
:101610000000000000080140342D636C6F73652DDD
:1016200045585449325F49525148616E646C657245
:101630000A000000342D6F70656E2D4558544932F4
:101640005F49525148616E646C65720A0000000087
:1016500010B56FF0040001F02EF82E4800682E49F6
:10166000B0FBF1F02D4908700846007800EB40010E
:10167000C1EBC0104FF6FF7101EAC0002849088095
:1016800010BD0146254A12784A434FF0E0235A61C3
:1016900000229A611A46126942F001021A6100BFE3
:1016A0004FF0E022106900F001021AB100F480321C
:1016B000002AF5D04FF0E022126922F001024FF02B
:1016C000E0231A6100229A6170470146144A128889
:1016D0004A434FF0E0235A6100229A611A46126988
:1016E00042F001021A6100BF4FF0E022106900F0E1
:1016F00001021AB100F48032002AF5D04FF0E02246
:10170000126922F001024FF0E0231A6100229A616F
:10171000704700001C00002000127A0068000020C2
:101720006A000020014600BF704770B504460D46B0
:101730002946204600F0A8FE00BF8021204600F088
:1017400011FF0028F9D070BD2DE9F04107460D4684
:101750001646002405E0295D3846FFF7E6FF601CC9
:10176000C4B2B442F7DB00BF4021384600F0FAFEB5
:101770000028F9D0BDE8F08170B506460C4600257A
:1017800000BF615D3046FFF7D0FF6D1C605D002833
:10179000F7D100BF4021304600F0E4FE0028F9D028
:1017A00070BD2DE9F04105460C46260AE7B23146E8
:1017B000284600F069FE00BF8021284600F0D2FED6
:1017C0000028F9D03946284600F05EFE00BF80218F
:1017D000284600F0C7FE0028F9D0BDE8F08170B5BA
:1017E00004460D46E1B29F4800F04EFE00BF802146
:1017F0009C4800F0B7FE0028F9D0204670BD10B517
:10180000044600BF2021974800F0ACFE0028F9D024
:10181000944800F03DFE10BD30B587B004460D463B
:10182000012144F2040000F08FFC4FF40070ADF889
:10183000180003208DF81A0018208DF81B0006A947
:10184000894800F0C5F94FF48060ADF81800042015
:101850008DF81B0006A9844800F0BAF925208DF800
:10186000040003208DF805008DF8060001208DF896
:10187000070001A800F0D5FE02940020ADF80C008E
:10188000ADF80E00ADF81000ADF814000C20ADF866
:10189000120002A9734800F0FEFC012240F225511B
:1018A000704800F090FD01216E4800F080FD07B007
:1018B00030BD10B586B004466C480460012144F286
:1018C000040000F041FC4FF40070ADF81400032058
:1018D0008DF8160018208DF8170005A9624800F051
:1018E00077F94FF48060ADF8140004208DF81700EC
:1018F00005A95D4800F06CF925208DF80000032053
:101900008DF801008DF8020001208DF80300684673
:1019100000F087FE4FF4165001900020ADF808004B
:10192000ADF80A00ADF80C00ADF810000C20ADF8D1
:101930000E0001A94B4800F0AEFC012240F22551F7
:10194000484800F040FD0121464800F030FD06B057
:1019500010BD70B504460D464448006820B14348A8
:10196000294602682046904770BD10B540F22551C7
:101970003C4800F00DFE002872D040F22551394855
:1019800000F030FE374800F083FDC4B2224638A193
:10199000002002F017FE3948394909784454384884
:1019A00000780D2802DD00203549087033480078A2
:1019B00073284DD131484078742849D12F48807818
:1019C000612845D12D48C078722841D12C48007833
:1019D00004283DDD29482A490978425C28480378D3
:1019E00028A1002002F0EEFD3248007830B1012835
:1019F0000AD002280ED0032828D111E0652C02D18C
:101A000001202C49087022E06E2C02D102202949C5
:101A100008701CE0642C02D103202649087016E0EF
:101A20006F2C12D10020FFF74CFB144814490978A1
:101A3000425C1348037820A1002002F0C3FD00207F
:101A40001C49087001202849087000E000BF02E02E
:101A50000120FFF736FB0A480078401C084908704F
:101A600010BD000000380140000801407400002053
:101A70006368203D20253032780A0000980100205C
:101A80007C000020312D55617274315F42756666AD
:101A900065725B55617274315F52785D203D20251F
:101AA0003032782C2055617274315F52783D256454
:101AB0000A0000007F000020332D55617274315FF1
:101AC0004275666665725B55617274315F52785D0E
:101AD000203D20253032782C2055617274315F52C0
:101AE000783D25640A0000008300002006488047F6
:101AF00006480047FEE7FEE7FEE7FEE7FEE7FEE7F3
:101B0000FEE7FEE7FEE7FEE7030C0008ED00000835
:101B100010B50446CC48844208D10121042000F0CD
:101B20002DFB0021042000F029FB46E0C748844239
:101B300008D10121082000F021FB0021082000F03D
:101B40001DFB3AE0C248844208D10121102000F078
:101B500015FB0021102000F011FB2EE0BD4884424F
:101B600008D10121202000F009FB0021202000F0F5
:101B700005FB22E0B848844208D10121402000F052
:101B8000FDFA0021402000F0F9FA16E0B348844243
:101B900008D10121802000F0F1FA0021802000F01E
:101BA000EDFA0AE0AE48844207D10121801500F029
:101BB000E5FA0021A01500F0E1FA10BD10B50121F1
:101BC000084600F0DBFA0021012000F0D7FA10BD32
:101BD0002DE9F041024600250026002000230024C4
:101BE000002791F803C00CF00F0591F803C00CF02A
:101BF000100CBCF1000F03D091F802C04CEA0505AF
:101C000091F800C0BCF1000F31D0146800202BE027
:101C10004FF0010C0CFA00F3B1F800C00CEA030617
:101C20009E4220D183004FF00F0C0CFA03F7BC4307
:101C300005FA03FC4CEA040491F803C0BCF1280F38
:101C400006D14FF0010C0CFA00FCC2F814C00AE0F7
:101C500091F803C0BCF1480F05D14FF0010C0CFA0C
:101C600000FCC2F810C0401C0828D1D31460B1F8A1
:101C700000C0BCF1FF0F34DD546800202EE000F1FD
:101C8000080C4FF0010808FA0CF3B1F800C00CEA98
:101C900003069E4221D183004FF00F0C0CFA03F78C
:101CA000BC4305FA03FC4CEA040491F803C0BCF100
:101CB000280F05D100F1080C08FA0CF8C2F81480BE
:101CC00091F803C0BCF1480F07D100F1080C4FF0A8
:101CD000010808FA0CF8C2F81080401C0828CED37E
:101CE0005460BDE8F0814FF6FF71018002218170E0
:101CF0000421C17070470246002093680B400BB16D
:101D0000012000E0002070470146886880B27047DB
:101D100002460020D3680B400BB1012000E00020F8
:101D200070470146C86880B27047016170474161E1
:101D300070470AB1016100E041617047C1607047BE
:101D40004FF480320A4382618161826182698269D3
:101D5000704702460020434B18684FF680731840C6
:101D600040EA021008433F4B186070473E49C86183
:101D70007047F0B50A46002300240021002500F03A
:101D80000046B6F1004F02D1364EF16901E0354E02
:101D90007168C0F3034583B200F44016B6F5401FE6
:101DA00008D121F070612F4E766826F070662D4FB5
:101DB0007E6012E000F48016B6F5801F06D103267F
:101DC00006FA05F4A14341F0706106E0460D3601C4
:101DD00003FA06F6B14341F0706122B1460D3601B7
:101DE00003FA06F6314300F00046B6F1004F02D187
:101DF0001C4EF16101E01B4E7160F0BD30B5002258
:101E00008B071C0F0F2303FA04F2164B08338C10B8
:101E100053F824309343134C08348D1044F8253084
:101E200023468C1053F824308C07240F00FA04F456
:101E300023430C4C08348D1044F8253030BD0A493A
:101E4000DC3108607047000000080140000C0140D0
:101E5000001001400014014000180140001C014026
:101E6000002001400000014000002042DF480068DF
:101E700040F00100DD49086008464068DC49084040
:101E8000DA49486008460068DA490840D7490860DE
:101E90000846006820F4802008600846406820F466
:101EA000FE0048604FF41F0088607047CF49096802
:101EB00021F48031CD4A11601146096821F4802156
:101EC0001160B0F5803F03D0B0F5802F0ED106E051
:101ED000C649096841F48031C44A116007E0C3492A
:101EE000096841F4A021C14A116000E000BF00BFB1
:101EF000704710B501460022002300204A11012A34
:101F000002D1BA4C236806E0022A02D1B74C236AF8
:101F100001E0B64C636A01F01F02012494401C40AA
:101F20000CB1012000E0002010BD38B50020009069
:101F30000024002500BF3120FFF7DBFF0546009895
:101F4000401C00900098B0F5A06F01D0002DF2D099
:101F50003120FFF7CEFF08B1012400E00024204625
:101F600038BD01460020A14A106820F0F80040EA80
:101F7000C10010607047A049086070470246002009
:101F80009A4B586820F47C1042EA01031843974B9F
:101F90005860704798490866704701460020934A88
:101FA000506820F003000843506070478F48406835
:101FB00000F00C007047014600208C4A506820F069
:101FC000F00008435060704701460020874A50687F
:101FD00020F4E06008435060704701460020834AC7
:101FE000506820F4605040EAC1005060704729B149
:101FF0007E4A527A02437D4B5A7204E07B4A527AFF
:1020000082437A4B5A7270477B49D83108607047D7
:1020100001460020754A506820F440400843506053
:1020200070470021714A20321170704A82F82010E6
:10203000012802D004280AD104E001216B4A203291
:10204000117005E00521694A2032117000E000BFDF
:1020500000BF70476949086070476449096A0143D5
:10206000624A11627047654944390860704730B56B
:1020700000210022002400235C4D6D6805F00C0156
:1020800021B1042905D0082923D105E05C4D056064
:1020900022E05B4D05601FE0544D6D6805F4701241
:1020A000524D6D6805F48034022505EB92421CB94F
:1020B000544D554305600BE04C4D6D6805F40035FB
:1020C0001DB1504D5543056002E04D4D554305602F
:1020D00002E04B4D056000BF00BF444D6D6805F048
:1020E000F0010909484D6B5C0568DD4045603F4DD6
:1020F0006D6805F4E061090A434D6B5C4568DD409D
:1021000085603A4D6D6805F46051C90A3E4D6B5CBF
:102110004568DD40C560354D6D6805F44041890B6B
:102120003A4D6B5CC568B5FBF3F5056130BD29B16F
:102130002E4A526902432D4B5A6104E02B4A5269E0
:1021400082432A4B5A61704729B1284A9269024357
:10215000264B9A6104E0254A92698243234B9A6197
:10216000704729B1214AD2690243204BDA6104E069
:102170001E4AD26982431D4BDA61704729B11B4A5E
:10218000D2680243194BDA6004E0184AD2688243ED
:10219000164BDA60704729B1144A12690243134B97
:1021A0001A6104E0114A12698243104B1A617047A8
:1021B00012494039086070470F49C86470470B499D
:1021C000C87170470948406A40F08070074948620A
:1021D000704701460020054A92680A400AB1012072
:1021E00000E00020704701498872704700100240EB
:1021F0000000FFF8FFFFF6FE00004242800442426A
:1022000000127A0000093D008400002094000020A4
:1022100010B50446FB48844209D101218803FFF729
:10222000ADFF00214FF48040FFF7A8FF32E0F648F1
:10223000844209D101214804FFF7ADFF00214FF48A
:102240000030FFF7A8FF25E0F048844209D10121C2
:102250008804FFF7A0FF00214FF48020FFF79BFFC9
:1022600018E0EB48844209D10121C804FFF793FF2D
:1022700000214FF40020FFF78EFF0BE0E548844279
:1022800008D101210805FFF786FF00214FF48010D7
:10229000FFF781FF10BD2DE9F04786B005460E46D9
:1022A0000024A24600BFA1460027B08900B100BFAC
:1022B0002F462C8A4CF6FF700440F08804432C8291
:1022C000AC894EF6F3100440B08831890843718917
:1022D00008430443AC81AC8A4FF6FF400440B08908
:1022E0000443AC8201A8FFF7C2FEC648874202D170
:1022F000DDF810A001E0DDF80CA0A88900F4004092
:1023000040B10AEBCA0000EB0A1031684900B0FB8B
:10231000F1F807E00AEBCA0000EB0A103168890007
:10232000B0FBF1F86420B8FBF0F00401200964214F
:1023300001FB1089A88900F4004040B1322000EB75
:10234000C900B0FBF1F000F00700044308E03220C0
:1023500000EB09106421B0FBF1F000F00F00044322
:102360002C8106B0BDE8F0874FF4165101600021C2
:102370008180C18001810C214181002181817047D0
:1023800010B502460020108A4FF2FF0318400B8858
:102390004C8823438C882343CC88234318431082E2
:1023A00010BD0021018041808180C180704721B132
:1023B000828942F40052828104E082894DF6FF73E3
:1023C0001A4082817047F0B503460024002600259C
:1023D000002040F66A17B94200D100BF1846C1F389
:1023E000421401F01F06012707FA06F5012C01D15E
:1023F0000C3004E0022C01D1103000E014301AB18E
:1024000007682F43076002E00768AF430760F0BD2D
:102410001AB1838A0B43838202E0838A8B438382CF
:102420007047028A4FF6F0731A400282028A0A430A
:102430000282704782894FF2FF731A40828182893B
:102440000A438281704721B1828942F0020282816F
:1024500004E082894FF6FD731A4082817047028A38
:102460004FF6DF731A400282028A0A4302827047E3
:1024700021B1028A42F48042028204E0028A4BF6D1
:10248000FF731A4002827047C1F3080282807047CE
:1024900001468888C0F308007047818941F0010136
:1024A00081817047028BD2B20283028B42EA012201
:1024B00002837047028B02F47F420283028B0A433D
:1024C0000283704721B1828A42F02002828204E0B6
:1024D000828A4FF6DF731A408282704721B1828A66
:1024E00042F01002828204E0828A4FF6EF731A40B3
:1024F0008282704721B1828A42F00802828204E01F
:10250000828A4FF6F7731A408282704721B182891E
:1025100042F40042828103E08289C2F30E0282818A
:10252000704721B1828A42F40062828204E0828A8A
:102530004FF2FF731A4082827047828A4FF6FB7314
:102540001A408282828A0A438282704721B1828A3B
:1025500042F00202828204E0828A4FF6FD731A4042
:102560008282704702460020B1F5007F00D100BF93
:1025700013880B400BB1012000E00020704701F4EC
:102580000072B2F5007F00D100BFCA4302807047DD
:1025900070B50246002400230025002040F66A168C
:1025A000B14200D100BFC1F3421501F01F03012663
:1025B00006FA03F3012D02D19689334006E0022D7D
:1025C00002D1168A334001E0968A33400C1201266C
:1025D00006FA04F41688344013B10CB1012000E06F
:1025E000002070BD10B50022002340F66A14A142FD
:1025F00000D100BF0A1201249440A3B2DC4304803E
:1026000010BD000000380140004400400048004078
:10261000004C00400050004031490143314A1160F4
:10262000704770B5002100230F22C47804B32D4CED
:10263000246804F4E064C4F5E064210AC1F10403F1
:10264000CA40447804FA03F1847814402143090114
:10265000254C0678A155047804F01F050124AC40F0
:1026600005786D11AD0005F1E025C5F8004109E0E0
:10267000047804F01F050124AC401C4D0678761147
:1026800045F8264070BD1A4A0A400243154B1B1FED
:102690001A60704739B1134A121D12680243114B78
:1026A0001B1D1A6006E00F4A121D126882430D4B73
:1026B0001B1D1A607047042808D14FF0E0210969FA
:1026C00041F004014FF0E022116107E04FF0E021FA
:1026D000096921F004014FF0E02211617047000008
:1026E0000000FA050CED00E000E400E080E100E00D
:1026F00080FFFF1F10B50446FE48844208D1012127
:10270000C014FFF73BFD0021E014FFF737FDC4E0E4
:10271000B4F1804F08D101210846FFF73CFD0021AC
:102720000120FFF738FDB8E0F348844208D10121C9
:102730000220FFF730FD00210220FFF72CFDACE066
:10274000EE48844208D101210420FFF724FD002136
:102750000420FFF720FDA0E0E948844208D10121D0
:102760000820FFF718FD00210820FFF714FD94E072
:10277000E448844208D101211020FFF70CFD00211C
:102780001020FFF708FD88E0DF48844208D10121CE
:102790002020FFF700FD00212020FFF7FCFC7CE05B
:1027A000DA48844208D101214014FFF7E7FC0021F8
:1027B0006014FFF7E3FC70E0D548844209D10121A1
:1027C000C804FFF7DBFC00214FF40020FFF7D6FC24
:1027D00063E0D048844209D101210805FFF7CEFC0F
:1027E00000214FF48010FFF7C9FC56E0CA4884422C
:1027F00009D101214805FFF7C1FC00214FF4001069
:10280000FFF7BCFC49E0C548844208D101214020C3
:10281000FFF7C1FC00214020FFF7BDFC3DE0C048B0
:10282000844208D101218020FFF7B5FC00218020DF
:10283000FFF7B1FC31E0BB48844208D1012180158B
:10284000FFF7A9FC0021A015FFF7A5FC25E0B6487D
:10285000844209D101210804FFF790FC00214FF4C4
:102860008030FFF78BFC18E0B048844209D1012189
:102870004804FFF783FC00214FF40030FFF77EFC93
:102880000BE0AB48844208D101218804FFF776FCB5
:1028900000214FF48020FFF771FC10BD0022028858
:1028A000944B98420ED0994B98420BD0B0F1804F88
:1028B00008D0914B984205D0904B984202D0904B53
:1028C000984204D14FF68F731A404B881A438D4BB0
:1028D000984207D08C4B984204D04FF6FF431A40E1
:1028E000CB881A4302808B8883850B880385814BB4
:1028F00098420BD0854B984208D08B4B984205D01C
:102900008A4B984202D08A4B984201D10B7A0386B7
:1029100001238382704770B5002400220023058CB8
:102920004FF6FE7635400584028C8388048B4FF683
:102930008F752C40B51E2C400D882C43751E2A40E7
:102940000D892A434D882A436A4DA8420BD06F4D0A
:10295000A84208D0744DA84205D0744DA84202D0B8
:10296000734DA84213D14FF6F7752A404D892A437B
:102970004FF6FB752A408D882A434FF6FF652B40A2
:102980004FF6FF552B408D892B43CD892B438380F8
:102990000483CD888586028470BD70B50024002232
:1029A0000023058C4FF6EF7635400584028C838832
:1029B000048B48F6FF752C404FF6FF452C400D88E0
:1029C0004FF6FF7606EA05252C434FF6DF752A40C1
:1029D0000D8906EA05152A434D8806EA05152A439E
:1029E000444DA84202D0494DA8421DD14FF67F75F3
:1029F0002A404D894FF6FF7606EA05152A434FF621
:102A0000BF752A408D8806EA05152A434FF6FF3523
:102A10002B404FF2FF752B408D8906EA85052B432D
:102A2000CD8906EA85052B4383800483CD880587FD
:102A3000028470BD70B5002400220023058C4FF67F
:102A4000FF6635400584028C8388848B4FF68F7532
:102A50002C404FF6FC752C400D882C434FF6FF554B
:102A60002A400D894FF6FF7606EA05252A434D8850
:102A700006EA05252A431F4DA84202D0234DA8424D
:102A80001DD14FF2FF752A404D894FF6FF7606EAB9
:102A900005252A434FF6FF352A408D8806EA05258D
:102AA0002A434EF6FF752B404DF6FF752B408D895E
:102AB00006EA05152B43CD8906EA05152B438380CD
:102AC0008483CD888587028470BD70B50022002381
:102AD0000024058C4EF6FF7635400584038C8488EF
:102AE000828B48F6FF752A404FF6FF452A400D8835
:102AF00020E00000002C01400004004000080040DD
:102B0000000C004000100040001400400034014060
:102B1000004C0140005001400054014000180040AA
:102B2000001C0040002000400040014000440140E3
:102B3000004801404FF6FF7606EA05252A434DF688
:102B4000FF752B400D8906EA05352B434D8806EAB3
:102B500005352B43FA4DA84202D0FA4DA84208D1C0
:102B60004BF6FF752C408D894FF6FF7606EA8515EA
:102B70002C4384808283CD88A0F84050038470BDAC
:102B8000828B4FF2FF331A408283828B4FF6FF73A2
:102B900003EA01231A4382837047F0B50C461546B9
:102BA000002200210026078C4EF6FF7C07EA0C0766
:102BB0000784828B018C4FF6FF7707EA043640F6D4
:102BC000FF473A404FF6FF7707EA05273A434FF6AB
:102BD000FF7707EA03373A43D94FB8420ED0D94FAF
:102BE000B8420BD0B0F1804F08D0D74FB84205D0D3
:102BF000D64FB84202D0D64FB84206D14DF6FF7735
:102C0000394046F48057394305E047F6FF573940CD
:102C100044F48057394382830184F0BD828B4FF6A0
:102C2000F3731A408283828B0A4382837047F0B524
:102C30000C461546002200210026078C4FF6FF6C3B
:102C400007EA0C070784828B018C4FF6FF7707EAAF
:102C500004264FF60C773A404FF6FF7707EA031742
:102C60002F433A43B64FB8420ED0B64FB8420BD0BE
:102C7000B0F1804F08D0B44FB84205D0B34FB8423E
:102C800002D0B34FB84206D14FF6FF57394046F451
:102C90008077394305E04FF2FF57394044F480779D
:102CA000394382830184F0BD028B4FF2FF331A4017
:102CB0000283028B4FF6FF7303EA01231A43028358
:102CC0007047F0B50C461546002200210026078CFF
:102CD0004FF6EF7C07EA0C070784028B018C4FF656
:102CE000FF7707EA041640F6FF473A404FF6FF77B2
:102CF00007EA03373A434FF6FF7707EA05273A43D7
:102D00008F4FB8420ED08F4FB8420BD0B0F1804FEA
:102D100008D08D4FB84205D08C4FB84202D08C4FAE
:102D2000B84206D14FF6DF77394046F010073943F5
:102D300005E04FF65F77394044F0100739430283CE
:102D40000184F0BD028B4FF6F3731A400283028BAD
:102D50000A4302837047F0B50C4615460022002155
:102D6000068C4FF6FE773E400684028B018C4FF6B0
:102D70000C7632407E1C06EA03162E433243704E18
:102D8000B0420ED06F4EB0420BD0B0F1804F08D0A1
:102D90006D4EB04205D06D4EB04202D06C4EB04286
:102DA00006D14FF6FD76314044F00106314305E08F
:102DB0004FF6F576314044F0010631430283018439
:102DC000F0BD70B505460C465D4885420ED05D48A5
:102DD00085420BD0B5F1804F08D05B48854205D0C5
:102DE0005A48854202D05A48854200D100E000BFCF
:102DF000208850B92389A28861882846FFF7ABFF55
:102E0000E1882846FFF79EFF25E0208804280AD1A4
:102E10002389A28861882846FFF753FFE188284666
:102E2000FFF742FF17E0208808280AD12389A288EB
:102E300061882846FFF7FBFEE1882846FFF7EEFE93
:102E400009E02389A28861882846FFF7A6FEE18869
:102E50002846FFF795FE70BD2DE9F04105460C466A
:102E600000260127608808B9022600E00026A08815
:102E7000012801D1022700E001272088A0B9238979
:102E8000A28861882846FFF766FFE1882846FFF799
:102E900059FF23893A4631462846FFF712FFE18859
:102EA0002846FFF701FF13E02389A288618828469E
:102EB000FFF707FFE1882846FFF7F6FE23893A4629
:102EC00031462846FFF747FFE1882846FFF73AFFDB
:102ED000BDE8F0810A884B881A438B881A43CB8857
:102EE0001A430B891A434B891A438B891A43A0F85A
:102EF000442070474FF6FF71818000210180C1801E
:102F00004180017270470021018041808180C18031
:102F1000018141818181C18170470021018041800F
:102F2000012181800021C180018170470021018041
:102F300041808180C1800181418181817047000091
:102F4000002C014000340140000400400008004013
:102F5000000C004021B1028842F00102028004E02E
:102F600002884FF6FE731A400280704731B1B0F804
:102F7000442042F40042A0F8442005E0B0F8442088
:102F8000C2F30E02A0F8442070471AB183890B43A4
:102F9000838102E083898B438381704781827047FC
:102FA00041EA0203A0F8483070471AB183890B4305
:102FB000838102E083898B438381704701894FF6C7
:102FC000F8721140018170470A46002101894FF6CD
:102FD0008F73194011430181704730B504460D4687
:102FE00029462046FFF7F0FF208940F007002081A6
:102FF00030BD2DE9F04104460D4616461F46602DB2
:1030000006D13B46012231462046FFF75AFE05E035
:103010003B46012231462046FFF79DFE29462046C9
:10302000FFF7D2FF208940F007002081BDE8F08142
:1030300030B50C4600210189C9B24FF6FF7505EA8B
:103040000325154325432943018130BD2DE9F04176
:1030500005460E4617469846002443463A463146F2
:103060002846FFF7E5FF2C894FF6F870044044F03E
:1030700007044FF68F70044044F070042C81BDE8C3
:10308000F081F0B504460D4616461F463B463246D3
:1030900029462046FFF7CCFF208940F4804020815C
:1030A000F0BD0185828270470A46002101884FF6F3
:1030B0008F731940114301807047F0B50C461546D7
:1030C0001E460021002200230189028B038C4FF64B
:1030D000F877394021434FF6FC473A4040F2011758
:1030E0003A434FF6DD773B404FF6FF7707EA061786
:1030F0002F433B43018102830384F0BD0A46002134
:10310000018B4FF68F7319401143018370470A46B4
:103110000021018B48F6FF7319404FF6FF7303EA55
:1031200002231943018370470A460021818B4FF621
:103130008F7319401143818370470A460021818BA8
:1031400048F6FF7319404FF6FF7303EA0223194351
:103150008183704721B1028842F08002028004E03E
:1031600002884FF67F731A400280704721B182882F
:1031700042F00402828004E082884FF6FB731A401A
:103180008280704721B1828842F00802828004E088
:1031900082884FF6F7731A408280704721B1828887
:1031A00042F00102828004E082884FF6FE731A40EA
:1031B000828070470A460021018B4FF6F773194051
:1031C0001143018370470A460021018B4FF2FF73C0
:1031D00019404FF6FF7303EA022319430183704736
:1031E0000A460021818B4FF6F77319401143818302
:1031F00070470A460021818B4FF2FF7319404FF64A
:10320000FF7303EA02231943818370470A460021B2
:10321000018B4FF6FB7319401143018370470A4637
:103220000021018B4FF6FF3319404FF6FF7303EA7D
:1032300002231943018370470A460021818B4FF610
:10324000FB7319401143818370470A460021818B2B
:103250004FF6FF3319404FF6FF7303EA0223194379
:10326000818370470A460021018B4FF67F73194016
:103270001143018370470A460021018BC1F30E01FF
:103280004FF6FF7303EA02231943018370470A468E
:103290000021818B4FF67F73194011438183704762
:1032A0000A460021818BC1F30E014FF6FF7303EA3A
:1032B00002231943818370470A460021018C4FF68F
:1032C000FD7319401143018470470A460021018CA7
:1032D0004FF6F77319401143018470470A460021E5
:1032E000018C4FF6DF7319404FF6FF7303EA0213A8
:1032F0001943018470470A460021018C4FF67F7301
:1033000019404FF6FF7303EA021319430184704713
:103310000A460021018C4FF6FF5319404FF6FF7308
:1033200003EA02231943018470470A460021018CF5
:103330004FF2FF7319404FF6FF7303EA022319435C
:10334000018470470A460021018C4DF6FF73194035
:103350004FF6FF7303EA023319430184704730B517
:10336000002301248C40A3B2048C9C430484048C6D
:1033700002FA01F5ADB22C43048430BD30B5002310
:1033800004248C40A3B2048C9C430484048C02FA71
:1033900001F5ADB22C43048430BD70B50346002066
:1033A00000241846183001258D40ACB21D8CA54371
:1033B0001D8409B1082909D100EB6100056825F0D9
:1033C000700505600568154305600EE00D1FC5F327
:1033D0004E052844056825F4E045056005684FF66C
:1033E000FF7606EA02263543056070BD21B10288EA
:1033F00042F00202028004E002884FF6FD731A4098
:103400000280704721B1028842F00402028004E089
:1034100002884FF6FB731A400280704721B1828800
:1034200042F08002828004E082884FF67F731A4067
:103430008280704702884FF6F7731A400280028834
:103440000A430280704782884FF68F731A40828049
:1034500082880A438280704702894FF6F8731A40C7
:10346000028102890A430281704702894FF67F7305
:103470001A40028102890A430281704781847047A1
:1034800081857047818670470187704781877047C3
:10349000A0F84010704702884FF6FF431A400280A0
:1034A00002880A43028070470146888E70470146B1
:1034B000088F70470146888F70470146B1F8400079
:1034C00070470146888C70470146088D7047024658
:1034D0000020138A0B400BB1012000E00020704750
:1034E000CA430282704730B5024600200023002400
:1034F000158A05EA0103958905EA010413B10CB1A7
:10350000012000E0002030BDCA4302827047000065
:10351000002044490860091D0860091D0860091D54
:10352000086041483F4914310860704700213D4917
:103530008279002A3AD00A46126803689A430B46F9
:103540001A600A1D126803689A430B1D1A600279FB
:1035500011440A6803681A430A60324A0832126842
:1035600003689A432F4B08331A601A1D12680368C8
:103570009A432C4B0C331A604279102A0ED11A1F31
:10358000126803681A43274B08331A601A1D126821
:1035900003681A43234B0C331A600DE0214942792A
:1035A00011440A6803681A430A6005E0027911446D
:1035B0000A6803689A430A6070470021016001713C
:1035C0000C21417100218171704716491031096841
:1035D0000143144A10321160704701460020114A1D
:1035E000143212680A400AB1012000E0002070473E
:1035F0000C49143108607047014600200022094B35
:103600001B6803EA0102074B14331B680B4013B11C
:103610000AB1012000E0002070470249143108601F
:103620007047000000040140FFFF0F0010B5FD4C83
:10363000032020616061FCA0A061FE49E1614FF4BC
:10364000806121620021A1626162E162F6A02066D0
:10365000F94961661021A16600212167E166616771
:10366000F6A1E01D00F0EDFFF5A1204600F0E9FF16
:103670002020A07110BD2DE9F04704468946174669
:103680004FF0000AE56800BFD4F81080A84503D9C0
:10369000A8EB0500461E04E0A5EB0800401CA1684D
:1036A0000E1AA068401BB04201D9304601E0A06864
:1036B000401B0646BE4201D2304600E03846064670
:1036C000616848193246494600F090FFB244B1445F
:1036D000BF1B3544A068A84200D10025E560002F3B
:1036E000D2D15046BDE8F0872DE9F047044689461F
:1036F0001546E668A068871BAF4208D9616888193B
:103700002A46494600F072FF7019E06010E0B846A2
:10371000616888194246494600F068FFA5EB070832
:1037200009EB07014246606800F060FFC4F80C80B6
:10373000BDE8F08738B505460C46FF208DF800003F
:10374000C148005D8DF80100022269462846FFF756
:1037500092FF38BD10B501460A69CB689A4204D879
:103760008C68641EE41AA01801E0D41A601E10BD13
:103770002DE9F74F8346174600BFAA48007808B9DD
:10378000FFF754FF00BF0BEB4B01A648603000EB86
:10379000C106DDF804903569D6F80CA04FF000089A
:1037A000554515D9B068441BBC4201D2204600E003
:1037B00038460446706841192246484600F016FF14
:1037C000A044A1443F1B2544B068A84200D1002575
:1037D000AAEB0504BC4201D2204600E0384604466C
:1037E0004CB1706841192246484600F0FFFEA044E3
:1037F000A1443F1B2544B8F1000F00D0356140467D
:10380000BDE8FE8F2DE9F04104460D461646EFF364
:1038100011808046202080F3118800BF00BF32460F
:1038200029462046FFF7A4FF074608F0FF0080F373
:10383000118800BF00BF3846BDE8F0812DE9F04790
:10384000074688461646C14607EB470175481830BB
:1038500000EBC104D4E90301884202D1A068451EEF
:103860000EE0D4E90301884204D22069E168401ADD
:10387000451E05E02069E168401A401EA168451810
:10388000AE420CD92069711B0844206103E0206915
:10389000A168401A20612069A1688842F7D2D4E962
:1038A0000201451A00BFB5420AD9E268616888186A
:1038B0003246494600F09AFEE0683044E0600EE08F
:1038C000E268616888182A46494600F08FFEA944DC
:1038D0000020E060761BA068451E002EE3D100BFEB
:1038E000BDE8F0872DE9F84F82468B461546CDF8A6
:1038F00000B00AEB4A014B48183000EBC104D4F881
:103900001090E668B14529D8A068801B471EAF42D9
:103910000BD300BF616888192A46009900F066FE43
:103920007019E0600120BDE8F88F4F44AF421BD30F
:10393000A068A0EB0608616888194246009900F06B
:1039400055FEA5EB080535B1009A02EB08012A46A1
:10395000606800F04BFEE5600120E4E7A9EB06009B
:10396000471EAF4200D3D5E70020DCE72DE9F04742
:10397000074688461646C24607EB470129481830D5
:1039800000EBC109D9F8140020B1012811D0022898
:1039900026D11EE04846FFF7DDFE0546B54201D2BE
:1039A000002405E03446324651464846FFF79CFE67
:1039B00018E04846FFF7CEFE0546B54201D228463C
:1039C00000E030460446224651464846FFF78CFE4A
:1039D00008E0324651464846FFF74DFE044601E0F6
:1039E000002400BF00BF2046BDE8F0872DE9F0416C
:1039F00004460D46164600BF0A48007808B9FFF78E
:103A000015FE00BFEFF311800746202080F31188D8
:103A100000BF00BF324629462046FFF7A7FF804679
:103A2000F8B213E0980200205465726D696E616C03
:103A300000000000400300204007002052545400C2
:103A400053454747455200009800002080F31188F5
:103A500000BF00BF4046BDE8F08170B505460C468A
:103A6000204600F0E7FD0646324621462846FFF78D
:103A7000BDFF70BD70B503460C4603EB4306FE4D1B
:103A800005EBC601CD686A1C8D68954200D1002205
:103A90000D69954205D0CE684D68AC55CA600120CD
:103AA00000E0002070BD2DE9F0410746884600BFC8
:103AB000F1481838007808B9FFF7B8FD00BFEFF3F8
:103AC00011810846202181F3118800BF00BF07EB58
:103AD0004702E94901EBC204E1684D1CA168A94213
:103AE00000D100252169A94206D0E268616801F889
:103AF0000280E560012600E00026C1B281F3118852
:103B000000BF00BF3046BDE8F0812DE9F041074617
:103B1000884600BFD8481838007808B9FFF786FDF6
:103B200000BFEFF311810846202181F3118800BF07
:103B300000BF07EB4702D04901EBC204E1684D1C0E
:103B4000A168A94200D100256169022903D100BF03
:103B50002169A942FCD02169A94206D0E2686168C6
:103B600001F80280E560012600E00026C1B281F381
:103B7000118800BF00BF3046BDE8F08138B5012292
:103B800069460020FFF73EFE0446012C02D19DF855
:103B9000004001E04FF0FF34204638BD10B500BFB3
:103BA000FFF7ECFF0028FBDB10BD70B500BFB2488B
:103BB0001838007808B9FFF739FD00BFAE4818384B
:103BC000056FC06EA84201D0012400E00024204609
:103BD00070BD10B5014601EB4104A748483000EB29
:103BE000C402D3681069181A10BD10B5014601EB64
:103BF0004104A14800EBC4021369D068C01A10BD8B
:103C00002DE9F04105460E461746984600BF9A48F2
:103C10001838007808B9FFF709FD00BFEFF31181EC
:103C20000846202181F3118800BF00BF002400BF97
:103C300004EB44029049483101EBC201496801B9E3
:103C400005E0641C8C4918394969A142F0DC00BFC9
:103C5000894918394969A14229DD04EB44028649A2
:103C6000483141F8325004EB440201EBC2014E608E
:103C700004EB44028049483101EBC2018F6000220D
:103C800004EB44037C49483101EBC3010A6104EBB6
:103C900044037949483101EBC301CA6004EB440293
:103CA0007549483101EBC201C1F8148001E04FF0C1
:103CB000FF34C1B281F3118800BF00BF2046BDE8C8
:103CC000F0812DE9F04105460E461746984600BFA3
:103CD00069481838007808B9FFF7A8FC00BFEFF36F
:103CE00011810846202181F3118800BF00BF002404
:103CF00000BF04EB4402604901EBC201496801B90D
:103D000005E0641C5C4918390969A142F1DC00BF77
:103D1000594918390969A14224DD04EB4402564986
:103D200041F8325004EB440201EBC2014E6004EB57
:103D30004402514901EBC2018F60002204EB4403AD
:103D40004D4901EBC3010A6104EB44034A4901EB0D
:103D5000C301CA6004EB4402474901EBC201C1F848
:103D6000148001E04FF0FF34C1B281F3118800BF2D
:103D700000BF2046BDE8F0812DE9F04704460E461D
:103D800017469846DDF8209000BF3B481838007869
:103D900008B9FFF74BFC00BF374818380069A0424C
:103DA00034D9EFF311810846202181F3118800BF37
:103DB00000BFECB104EB44022F4941F8326004EB40
:103DC000440201EBC2014F6004EB44022A4901EBBB
:103DD000C201C1F80880002204EB4403264901EB2C
:103DE000C3010A6104EB4403234901EBC301CA6028
:103DF00004EB4402204901EBC201C1F81490C1B2A6
:103E000081F3118800BF00BF002501E04FF0FF35AE
:103E10002846BDE8F0872DE9F04704460E461746D0
:103E20009846DDF8209000BF13481838007808B98C
:103E3000FFF7FCFB00BF104818384069A0423AD990
:103E4000EFF311810846202181F3118800BF00BFE4
:103E50001CB304EB44020849483141F8326004EBDA
:103E6000440201EBC2014F6004EB440202494831B5
:103E700001EBC20102E00000B0020020C1F808809E
:103E8000002204EB4403C44901EBC3010A6104EBC3
:103E90004403C14901EBC301CA6004EB4402BE49BB
:103EA00001EBC201C1F81490C1B281F3118800BFC7
:103EB00000BF002501E04FF0FF352846BDE8F08740
:103EC00070B504460E4600BFB3486038007808B9A4
:103ED000FFF7ACFB00BFB04860380069A04214D9BE
:103EE000EFF311810846202181F3118800BF00BF44
:103EF00004EB4402A849483941F83260C1B281F369
:103F0000118800BF00BF002501E04FF0FF352846B3
:103F100070BD70B504460E4600BF9F4860380078FB
:103F200008B9FFF783FB00BF9B4860384069A04297
:103F300013D9EFF311810846202181F3118800BFC6
:103F400000BF04EB4402944941F83260C1B281F3EE
:103F5000118800BF00BF002501E04FF0FF35284663
:103F600070BD70B504460E4600BF8B4860380078BF
:103F700008B9FFF75BFB00BF874860380069A042C3
:103F800015D9EFF311810846202181F3118800BF74
:103F900000BF04EB44028049483901EBC2014E6185
:103FA000C1B281F3118800BF00BF002501E04FF0CE
:103FB000FF35284670BD70B504460E4600BF7648F2
:103FC0006038007808B9FFF731FB00BF72486038ED
:103FD0004069A04214D9EFF311810846202181F3F2
:103FE000118800BF00BF04EB44026B4901EBC20122
:103FF0004E61C1B281F3118800BF00BF002501E00E
:104000004FF0FF35284670BD10B5FFF70FFB10BD10
:104010002DE9F843044600BF5F486038007808B9CE
:10402000FFF704FB00BF0027FF208DF80000102CD5
:1040300031D25A48005D8DF80100574D483DEFF3ED
:1040400011808046202080F3118800BF00BF287DAA
:1040500000F00300022807D151480470022269468B
:104060002846FFF708FB0FE02846FFF773FB0646DC
:10407000022E07D34A480470022269462846FFF7F9
:1040800033FB01E04FF0FF3708F0FF0080F31188A9
:1040900000BF00BF01E04FF0FF373846BDE8F883AE
:1040A0002DE9F0470746894600BF3B486038007855
:1040B00008B9FFF7BBFA00BF102F68DADFF8D88025
:1040C000A8F14808484600F0B5FA0646EFF311801B
:1040D0008246202080F3118800BF00BF4046FFF7D2
:1040E00039FB054698F8140000F0030020B10128C0
:1040F00017D0022840D12FE0301D854201D2002484
:104100000EE039464046FFF715FB32464946404629
:10411000FFF7B1FA0446224801784046FFF70AFB50
:104120002DE0042D02D24FF0FF3414E03946404612
:10413000FFF700FB281FB04201D9304600E0281FDE
:10414000024649464046FFF796FA0446144801786D
:104150004046FFF7EFFA12E039464046FFF7EAFA29
:10416000324649464046FFF786FA04460C48017835
:104170004046FFF7DFFA02E04FF0FF3400BF00BF18
:104180000AF0FF0080F3118800BF00BF01E04FF08C
:10419000FF342046BDE8F087F80200209800002098
:1041A000A800002070B504460E46A568681C61682A
:1041B000814206D320684655681CA060E068401C18
:1041C000E060D4E9011088420DD1A268216820691D
:1041D000FFF70CFCA168884203D04FF0FF30E0608D
:1041E00001E00020A06070BD2DE9FC5F804689469B
:1041F00015461E460C9CCDF804900127BB4605E0F1
:104200000198B0FBF5F001900BF1010B0198A84269
:10421000F6D25E4500D9B3460D9800F00100D0B942
:10422000CCB10D9800F00200022803D116B930205D
:10423000009001E02020009009E0641E40460099B3
:10424000FFF7B0FFD8F80C00002800DA02E00CB14C
:10425000A345F2D300BFD8F80C00002835DB09E0F5
:10426000012E01D9761E04E0B9FBF7FAAA4500D267
:1042700001E06F43F4E700BF00BFB9FBF7FA0AFBA8
:104280001799D94810F80A104046FFF78BFFD8F865
:104290000C00002800DA03E0B7FBF5F7002FECD1A3
:1042A00000BF0D9800F0010078B174B109E0641E00
:1042B00020214046FFF776FFD8F80C00002800DAEE
:1042C00002E00CB1A345F2D300BFBDE8FC9F2DE98D
:1042D000FC5F06460F4692469846DDE90C45002FE6
:1042E00001DA784200E0384683464FF0010903E0E6
:1042F0009BFBFAFB09F10109D345F9DAC84500D95E
:10430000C14634B1002F03DB05F00400042800D1BE
:10431000641E05F0020010B1B8F1000F11D005F0D5
:10432000010070B96CB108E0641E20213046FFF72F
:1043300039FFF068002800DA02E00CB1A145F3D3A0
:1043400000BFF068002836DB002F05DA7F422D2100
:104350003046FFF727FF07E005F00400042803D1EB
:104360002B213046FFF71EFFF068002823DB05F005
:104370000200022814D105F0010088B9B8F1000F3D
:104380000ED16CB108E0641E30213046FFF70AFF01
:10439000F068002800DA02E00CB1A145F3D300BFB9
:1043A000F068002807DB4346524639463046CDE9DF
:1043B0000045FFF719FFBDE8FC9F2DE9F04F99B0CC
:1043C00082460D46144603A8149040201590002004
:1043D0001690CDF860A0179000BF2E786D1C06B91E
:1043E000DDE0252E79D100274FF0010900BF2E789E
:1043F000232E12D02B2E0CD02D2E02D0302E10D1E9
:1044000003E047F001076D1C0EE047F002076D1C4A
:104410000AE047F004076D1C06E047F008076D1C32
:1044200002E04FF0000900BF00BFB9F1000FDED17C
:104430004FF0000800BF2E78302E01DB392E00DD52
:1044400007E06D1CA6F1300008EB880100EB410885
:10445000F1E700BF002013902E782E2E12D16D1C94
:1044600000BF2E78302E01DB392E00DD09E06D1CF7
:10447000A6F13000139901EB810100EB410013908C
:10448000EFE700BF2E7800BF6C2E01D0682E02D15E
:104490006D1C2E7800E000E0F6E700BF702E5DD0C6
:1044A00008DC252E6AD0582E35D0632E09D0642E14
:1044B00069D113E0732E3CD0752E1DD0782E62D1B9
:1044C00028E02168081D2060D1F8009009F0FF0B5A
:1044D000594614A8FFF766FE56E058E02168081D0B
:1044E0002060D1F80090CDE900870A22494614A83F
:1044F000139BFFF7ECFE47E02168081D2060D1F810
:104500000090CDE900870A22494614A8139BFFF7C3
:104510006BFE39E000BF2168081D2060D1F80090D3
:10452000CDE900871022494614A8139BFFF75CFED3
:104530002AE02168081D2060D1F800B000BF9BF878
:1045400000600BF1010B06B906E0314614A8FFF735
:1045500029FE17980028F2DA00BF15E02168081D2F
:104560002060D1F80090002008210B461022CDE9F0
:104570000010494614A8FFF737FE05E0252114A8CE
:10458000FFF710FE00E000BF00BF6D1C03E03146E6
:1045900014A8FFF707FE17980028BFF61EAF00BF4C
:1045A000179800280ADD169820B103A95046169ADC
:1045B000FFF71CFADDE9161008441790179819B098
:1045C000BDE8F08F0FB438B5044606A800906A46DF
:1045D00020460599FFF7F1FE054600200090284689
:1045E00038BC5DF814FB00008857000840EA01035E
:1045F0009B0703D009E008C9121F08C0042AFAD299
:1046000003E011F8013B00F8013B521EF9D270475C
:10461000D2B201E000F8012B491EFBD27047002204
:10462000F6E710B513460A4604461946FFF7F0FFB1
:10463000204610BD421C10F8011B0029FBD1801A36
:104640007047034611F8012B00F8012B002AF9D11D
:104650001846704730B50B46014600202022012441
:1046600009E021FA02F59D4205D303FA02F5491B40
:1046700004FA02F52844151EA2F10102F1DC30BD56
:104680002DE9F05F0546002092469B468846064687
:10469000814640241BE0284641464746224600F01A
:1046A000FAF953465A46C01A914110D3114618469A
:1046B000224600F0E1F92D1A67EB01084F46224629
:1046C0000120002100F0D8F917EB00094E41201E0F
:1046D000A4F10104DFDC484631462A464346BDE8E2
:1046E000F09F2DE9FE4F804681EA0300C00F0C4683
:1046F000009021F0004123F00045B8EB0200A941F1
:1047000005D24046214690461C460B46024623F001
:104710000040104347D0270DC7F30A00C3F30A51E6
:104720000290401A019040286BDAC3F3130040F462
:10473000801B0098924620B10023D2EB030A63EB62
:104740000B0B01985946C0F14002504600F094F915
:1047500006460D4650465946019A00F0ACF910EB5A
:1047600008006141002487EA115284EAE7731A4382
:1047700040D0009A62B3019A012A4FEA075215DC31
:10478000001B61EB02014FF0004202EA0752CDE943
:104790000042001C41F5801132462B4600F0ACF976
:1047A00003B0BDE8F08F40462146F9E7001B61EBFE
:1047B0000201001C41F5801300185B412018A2F58E
:1047C000001747EB030140EAD570B6196D4111E0BF
:1047D0006D084FEA360645EAC0754FEA0752001BDE
:1047E00061EB0201001C41F5801149084FEA3000DD
:1047F0000019514132462B4603B0BDE8F04F00F09E
:104800006CB90098012240000023D0EB020263EB58
:10481000E073009821464FEAE074B8EB000061EBCA
:104820000401E9E783F000435BE781F0004158E7CA
:104830002DE9FE4F81EA030404F0004421F0004119
:1048400000944FF0000B23F0004350EA01045ED0C7
:1048500052EA03045BD0C3F30A54C1F30A552C4453
:10486000A4F2F3340194A0FB0254C1F3130141F408
:104870008011C3F3130343F4801301FB024400FBD4
:10488000034E840A970A44EA815447EA8357A4FBFB
:10489000076802958D0A05FB07854FEA932C04FBF8
:1048A0000C542705029D4FEA065847EA1637B5EB28
:1048B00008056EEB070C870E920E47EA811742EA55
:1048C0008312A7FB0201B6EB0B0164EB00042B0D76
:1048D00043EA0C335E1844EB1C50DA465146E7FBC2
:1048E0000201C5F313044FEA0B3343EA14534FEAB2
:1048F0000432019C43EA0603A4F10C040294009CD8
:10490000CDE900B400F0F8F803B0BDE8F08F002066
:104910000146F9E72DE9F04D81EA030404F0004B6C
:1049200021F0004514464FF0000A23F0004150EA00
:10493000050220D054EA01021DD0C5F30A570246F1
:10494000C5F31303C1F31300C1F30A5640F48015F5
:1049500043F48013A7EB0608101BD64608F2FD3877
:1049600073EB050002D308F1010801E092185B41E6
:10497000B8F1000F03DA00200146BDE8F08D0020F9
:104980004FF48011064684460EE0171B73EB0507B3
:1049900005D3121B63EB050306434CEA010C4908DF
:1049A0004FEA300092185B4150EA0107EDD152EA1C
:1049B000030012D082EA040083EA0501084305D00F
:1049C000101BAB4106D20122002306E000224FF06B
:1049D000004302E06FF0010253101AEB06004CEBAB
:1049E000085110EB0A0041EB0B01BDE8F04D00F05F
:1049F00074B8C1F30A52C1F3130140F2FF3341F41A
:104A000080119A4202DA00200146704740F2334397
:104A10009A42A2F2334202DC524200F03CB800F06B
:104A20002BB8000030B5041E71F1000404DB4FF018
:104A30000044404264EB0101141E73F1000405DBE5
:104A40001C464FF00043524263EB0403994208BFF7
:104A5000904230BD064C074D06E0E06840F001038F
:104A600094E8070098471034AC42F6D3FBF742FBBA
:104A7000DC570008FC570008202A04DB203A00FA23
:104A800002F1002070479140C2F1200320FA03F3A5
:104A9000194390407047202A04DB203A21FA02F0A3
:104AA0000021704721FA02F3D040C2F12002914068
:104AB000084319467047202A06DBCB17203A41FAF3
:104AC00002F043EAE07306E041FA02F3D040C2F19B
:104AD0002002914008431946704710B5141E73F127
:104AE000000408DA401C41F1000192185B411A43AE
:104AF00001D120F0010010BD2DE9F04D92469B46FA
:104B000011B1B1FA81F202E0B0FA80F2203290469F
:104B1000FFF7B2FF04460F4640EA0A0041EA0B01E4
:104B200053465A46084313D0114653EA010019D0A0
:104B3000C8F140025046FFF7AEFF05460E4650460C
:104B400059464246FFF798FF084305D0012004E08C
:104B500020463946BDE8F08D0020054346EAE07660
:104B60002C4337430A986305E40AA0EB08000022AF
:104B7000FD0A44EA47540A3002D500200146E9E71D
:104B8000010510196941DDE9084500196941BDE8D1
:104B9000F04DA2E70FB4054B10B503A9044A0298E3
:104BA00000F0F0F810BC5DF814FB0000DF170008FF
:104BB0006C0000207CB5044600201D4616460029E6
:104BC0000BD0491ECDE90041044B6A4629463046C8
:104BD00000F038FA009A002111707CBD735700086C
:104BE00002E008C8121F08C1002AFAD170477047B6
:104BF000002001E001C1121F002AFBD17047000014
:104C00002DE9FF5F82B00021DDE90430020DDDF8FF
:104C100040B0034318D044F61050A2F2FF32424392
:104C20001514119801281FD0A5EB0B00401C5FEA5A
:104C3000000A4FF000064E4FDFF83891B04650465C
:104C400015D5CAF1000413E0119801244AA30128E4
:104C500001D16FEA0B010298119AC0E90031C0E955
:104C6000024206B0BDE8F09FCBF10000DFE704464A
:104C70000021404A491842EB0450CDE9001012E0EF
:104C8000E00707D032463B4640464946FFF7D0FD95
:104C90008046894632463B4610461946FFF7C8FD16
:104CA00006460F466410002CEAD1DDE90401DDE977
:104CB0000023BAF1000F06DAFFF7BAFD42464B4671
:104CC000FFF7B6FD05E0FFF725FE42464B46FFF72E
:104CD00021FE04460E460022284BFFF7A3FE03D810
:104CE0004FF0FF30014607E00022254B20463146B9
:104CF000FFF7F7FCFFF77DFE102409E0002C0ADB2C
:104D00000A220023FFF7BCFC039B30321A55641EB5
:104D100050EA0102F2D1641C039AC4F11103144455
:104D2000119A012A03D0012208430DD10AE0084359
:104D300004D000204FF0110B119072E7A3EB0B058C
:104D40006D1E0DE05B4504DD4FF0000205F101052D
:104D500004E003DA4FF00002A5F10105002AECD0CF
:104D600002981199C0E90231C0E9004579E70000D5
:104D7000000014400000F03F300000000000F0434D
:104D80000000E03F2DE9FF4F8DB09B460F460446E3
:104D9000002606E025280BD05A460F999047641C40
:104DA000761C20780028F5D111B03046BDE8F08F90
:104DB0000025A8460122984900E0054314F8013F68
:104DC000203B02FA03F00842F7D120782E2817D1B1
:104DD00014F8010F45F004052A280ED06FF02F02B9
:104DE0002078A0F1300109290AD808EB880102EBEC
:104DF000410100EB0108641CF2E757F8048B641CC6
:104E000020786C280DD004DC4C2812D06A2811D1EF
:104E100004E074280DD07A280CD10AE045F400157E
:104E200007E0617845F48015814202D1641C05F5E4
:104E30008015641C2278692A45D008DC002AB3D08A
:104E4000582A69D0632A10D0642A08D13BE0702A1E
:104E500067D0732A13D0752A5CD0782A5CD01046AC
:104E60005A460F999047761CD3E017F8040B8DF83B
:104E7000000000208DF80100E946012003E057F80A
:104E8000049B4FF0FF3069074FF0000501D40AE0A2
:104E90006D1C45450DDA8542FADB19F8051000292D
:104EA000F6D106E06D1C8542FCDB19F805100029DF
:104EB000F8D12E4404E019F8010B5A460F99904797
:104EC0006D1EF8D2A5E00A200021CDE90801C5F346
:104ED000025002280DD001CFC117031E71F100034B
:104EE0000DDA4FF0000CD0EB0C006CEB01012D2320
:104EF00008E0FF1D27F00707F7E80201EDE72B05A3
:104F000004D52B238DF8283001233BE0EB0739D063
:104F10002023F7E70A2000E010200021CDE9080156
:104F200007E01020002145F00405CDE908014FF00D
:104F30000808C5F3025002280FD001CF00214FF01E
:104F4000000A2B071FD5702A0DD0DDE908C38CF0AD
:104F5000100C5CEA030C0CD015E0FF1D27F00707CE
:104F6000F7E80201EBE740228DF828204FF0010A14
:104F70000BE050EA010306D030238DF828308DF87D
:104F8000292002239A46582A04D024A20DF1200990
:104F90000B9209E026A2F9E7DDE90823FFF770FB91
:104FA0000B9B9B5C09F8013D50EA0102F4D1ADEB8B
:104FB000090020300890680701D44FF001080899D3
:104FC000884502DDA8EB010000E0002080460025B6
:104FD00006E00AA85A46405D0F9990476D1C761C62
:104FE0005545F6DB04E030205A460F999047761C71
:104FF000B8F10001A8F10108F5DC05E019F8010B92
:105000005A460F999047761C0899481E0890002927
:10501000F4DC641CC5E6000009280100303132339D
:1050200034353637383961626364656600000000E4
:1050300030313233343536373839414243444546CE
:10504000000000002DE9FF4F95B09B4689460646BB
:1050500000250FE2252877D100242746F84A0121B0
:10506000059400E0044316F8013F203B01FA03F0E9
:105070001042F7D130782A2811D06FF02F03307802
:10508000A0F13002092A16D8059A44F0020402EB76
:10509000820203EB42021044761C0590EFE759F8B8
:1050A000042B0592002A03DA504244F40054059080
:1050B00044F00204761C30782E2816D116F8010F21
:1050C00044F004042A280DD06FF02F023078A0F1AC
:1050D0003003092B09D807EB870302EB4303C718FA
:1050E000761CF3E759F8047B761C30786C280FD0D7
:1050F00006DC4C2817D068280DD06A2814D104E0AB
:10510000742810D07A280FD10DE044F400140AE07E
:1051100044F4801401E044F440147278824202D1D5
:1051200004F58014761C761C307866280BD013DCCE
:10513000582877D009DC002875D04528F6D04628B5
:10514000F4D047281AD19DE118E0632835D06428AF
:1051500079D0652812D195E1702873D008DC6728D2
:10516000F1D069286FD06E280DD06F2806D1B5E038
:1051700073282CD0752875D0782874D05A46179982
:1051800090476D1C75E1C4F30250022809D0032832
:105190000DD0D9F8001004280DD00D6009F10409D4
:1051A00067E1D9F80010EA17C1E90052F6E7D9F82B
:1051B00000100D80F2E70D70F0E719F8041B8DF870
:1051C000001000208DF80100EA46012003E059F8A4
:1051D00004AB4FF0FF3061074FF0000102D40DE047
:1051E00008F101018846B9420FDA8045F8DB1AF868
:1051F00008100029F4D108E008F101018846814235
:10520000FADB1AF808100029F6D105985B46A0EBE6
:10521000080721463846179A00F094FA284400EB14
:10522000080507E04DE029E10DE01AF8010B5A46A8
:1052300017999047B8F10108F7D25B4621463846E6
:10524000179A13E142E00A220092C4F302524FF08F
:10525000000A022A08D059F804CB032A4FEAEC715D
:105260000AD00DE029E02AE009F1070121F0070248
:10527000F2E802C1914609E00FFA8CFC4FEAEC71AA
:10528000042A03D14FFA8CFC4FEAEC71002907DAAB
:105290000A460021DCF1000C61EB02012D2202E044
:1052A000220504D52B228DF80420012203E0E20719
:1052B00001D02022F7E7904659E00A2102E01022AF
:1052C0000DE010214FF0000A00910BE010224FF08A
:1052D000000A44F004040827009203E008224FF07B
:1052E000000A0092C4F30252022A05D059F804CBF6
:1052F0000021032A08D009E009F1070121F0070283
:10530000F2E802C1914605E01FFA8CFC042A01D1A3
:105310000CF0FF0C4FF00008220728D5702806D0AB
:10532000009B83F0100353EA0A0305D00EE04022ED
:105330008DF80420012208E05CEA010206D0302248
:105340008DF804208DF8050002229046009B83F022
:10535000080353EA0A030AD15CEA010201D1620799
:1053600005D530228DF804204FF001087F1E582803
:1053700004D034A003900EA802900DE036A0F9E707
:1053800053466046009AFFF77BF984460398825C97
:105390000298401E029002705CEA0100F0D102986F
:1053A00006A9081A00F1200A600702D524F4803407
:1053B00000E00127574502DDA7EB0A0000E00020CE
:1053C00000EB0A01009005984144401A0590E00363
:1053D00006D45B462146179A059800F0B3F90544B8
:1053E000002706E001A85A46C05D179990476D1C3A
:1053F0007F1C4745F6DBE0030CD55B462146179A38
:10540000059800F09FF9054404E030205A461799AA
:1054100090476D1C0099481E00900029F5DC08E0BB
:10542000029802995A460078491C029117999047B0
:105430006D1CBAF10001AAF1010AF1DC65E100007E
:10544000092801003031323334353637383961625A
:10545000636465660000000030313233343536371E
:1054600038394142434445460000000000F058F9F5
:105470000544761C307800287FF4ECAD19B028463E
:10548000BDE8F08F620700D4062709F1070222F079
:10549000070CFCE80223E14603F000485FEA080C31
:1054A00002D00FF2702C0DE05FEA045C02D50FF21F
:1054B000682C07E05FEAC47C02D00FF2602C01E0A8
:1054C000AFF2700C4FF0FF3823F00043CDF850C01E
:1054D00065280CD006DC452809D046281DD0472871
:1054E0003DD13DE0662818D067287ED138E0002104
:1054F000112F01DB112000E0781CCDE9000106A985
:105500000EA8FFF77DFBDDE90F010E9A0391002144
:10551000009207F1010A04914DE04FF0004000971E
:10552000CDE9011006A90EA8FFF76AFBDDE90F021D
:1055300003920E9B11990022DDF80CA000930492B7
:1055400011B9791C00EB010AB7EB0A0004D4C0F1D1
:10555000FF3007F1010A0490AAEB0700019044E034
:10556000012F00DA01270021112F01DD112000E0B9
:105570003846CDE9000106A90EA8FFF741FBDDE999
:105580000F010E9A0391002104910092BA4621075F
:105590000CD40399514500DA8A46BAF1010F05DDB2
:1055A000009AAAF10101515C302908D0B84202DA10
:1055B00010F1040F06DA0121CDE9011015E0AAF17E
:1055C0000101E9E7002805DC049901440491AAEBF4
:1055D000000102E0411C514500DD8A460499401A51
:1055E000401C01904FF000400290200704D4019825
:1055F000504501DBCDF8048000208DF84F00029863
:105600000DF14F07B0F1004F25D02B200E900298DE
:105610004FF0020800280CDA404202902D200E9034
:1056200007E00A210298FFF715F83031029007F8D9
:10563000011DB8F10001A8F10108F2DC0298002870
:10564000EFD1791E0E980870307800F0200040F0FD
:10565000450007F8020D12A8C01B00F107081498B6
:10566000007800B1012000EB0A01019801EBE07124
:1056700005984144401A401E0590E00306D45B465D
:105680002146179A059800F05DF8054414980078B3
:1056900018B15A46179990476D1CE00324D55B4614
:1056A0002146179A059800F04DF805441CE004982F
:1056B000002807DBDDE90301884203DD0098405C38
:1056C000179901E0179930205A469047049805F140
:1056D0000105401C04900198401E019004D12E2029
:1056E0005A46179990476D1CBAF10001AAF1010AB8
:1056F000DDDC05E017F8010B5A46179990476D1C41
:10570000B8F10001A8F10108F4DC5B462146179AC4
:105710000598ABE62D0000002B00000020000000E3
:105720002DE9F041044600251E461746880404D49E
:1057300005E039462020B0476D1C641EF9D5284687
:10574000BDE8F0812DE9F041044600251E46904653
:10575000C80301D5302700E02027880404D505E0E0
:1057600041463846B0476D1C641EF9D52846BDE851
:10577000F0814A68002A06D00A68531C0B6010703A
:105780004868401E48607047303132333435363710
:1057900038394142434445462A2A2A2A2A2A2A2AB3
:1057A0002A2A2A2A2A2A2A2A2A2A2A2A2A2A2A2A59
:1057B0002A2A2A2A2A2A2A2A2A2A2A2A2A2A2A2A49
:1057C0002A2A2A2A2A2A2A2A2A2A2A2A2A2A2A2A39
:1057D0002A2A2A2A2A2A2A2A2A0A0000FC570008EA
:1057E00000000020AC000000E04B0008A8580008B2
:1057F000AC000020A40A0000F04B000800000000EC
:105800000000000000000000000000000000000098
:10581000000000000000000100A24A040000000097
:105820000000000001020304060708090000000050
:10583000000000000018014000180140001801405D
:1058400010000800020000000000000040000000FE
:1058500040000000400000000000000000000000C8
:105860000000010000000000000000000000000037
:105870000000000000000000000000000000000028
:1058800000000000010203040102030406070809E6
:105890000204060830313233343536373839414264
:0858A0004344454600000000EE
:04000005080000ED02
:00000001FF
