:020000040800F2
:10000000680B0020515600083543000837430008AC
:100010003B4300083F430008434300080000000042
:10002000000000000000000000000000474300083E
:1000300049430008000000004B4300084D430008FE
:100040006B5600086B5600086B5600086B5600088C
:100050006B5600086B5600086B5600086B5600087C
:10006000F35000086B5600086B5600086B560008EA
:100070006B5600086B5600086B5600086B5600085C
:100080006B5600086B5600086B5600086B5600084C
:100090006B5600086B5600086B5600086B5600083C
:1000A0006B5600086B5600086B5600086B5600082C
:1000B000A34F0008AB4C0008D14900086B5600085C
:1000C0006B5600086B5600086B5600086B5600080C
:1000D0006B560008CF5400086B5600086B5600089A
:1000E0006B5600086B5600086B560008DFF80CD002
:1000F00008F062FA00480047A53F0008680B00209E
:1001000001B502E00098401E009000980028F9D147
:1001100008BD0FB430B59BB000241FA80190652125
:1001200002A8019B1E9A08F0F7FAC5B20EE020461D
:10013000621CD4B202AA115CF74805F057FF00BF59
:100140004021F54805F0C0FF0028F9D0642C03DAFF
:10015000AC4201DA002DEADC002001901BB030BC7B
:100160005DF814FB70B504460D46ECA1002007F0C5
:10017000DBFF05E02278EDA1002007F0D5FF641C2D
:10018000281EA5F10101CDB2F4D1EAA107F0CCFF00
:1001900070BD10B504462146DF4805F027FF00BFBB
:1001A0008021DD4805F090FF0028F9D010BD70B522
:1001B00004460D460BE02178D74805F017FF00BF35
:1001C0004021D54805F080FF0028F9D0641C281E86
:1001D000A5F10101CDB2EED170BD10B504460BE022
:1001E0002178CD4805F002FF00BF4021CA4805F044
:1001F0006BFF0028F9D0641C20780028F0D110BDD6
:1002000070B504460D462178C34805F0EFFE70BD79
:1002100010B504462146C8A008F06EFA10BD10B50E
:1002200002460B460020002103E0545C60404C1C59
:10023000A1B29942F9DB10BD2DE9F04FADF5017D7A
:100240004FF4807141A807F09CFF4FF4807101A822
:1002500007F097FF4FF00009BB480278BBA10020D0
:1002600007F062FFB8480078083800F0FF094A46F6
:10027000BCA1002007F058FF4A46BF4901A807F07B
:1002800067FF4FF48061BD4805F0E7FA83464FF4FD
:100290000061BA4805F0E1FA4BEA400B4FF4805197
:1002A000B64805F0DAFA4BEA800B0121B44805F0B4
:1002B000D4FA4BEAC00B1021B14805F0CEFA4BEA54
:1002C000001B0821AE4805F0C8FA4BEA401B042188
:1002D000AB4805F0C2FA4BEA801B0221A84805F0A2
:1002E000BCFA4BEAC01000F0FF0A9DF8050050452B
:1002F00040F07186B9F1050F6FD19DF80400A14956
:1003000008709DF8050048709DF8060088709DF8FB
:100310000700C8709DF808000871042101A8FFF7C4
:100320007EFF05462A4698A1002007F0FDFE95486D
:100330000079A8427DD19348007880287AD08A2815
:1003400079D19048C078112876D18E4880781928C4
:1003500073D2DFE800F0720D27435D7E99B4DFDED3
:10036000DDDCDBDAD9D8D7D6D5D4D3D2D1D0CF0003
:10037000012089490860142004F059FF00208749B2
:10038000C1F88401142004F052FF01217B4805F0DC
:1003900064FA04467B488278234681A1002007F056
:1003A000C3FEF1E201207C4908310860142004F00A
:1003B0003EFF00207949C1F88C01142004F037FF7A
:1003C00004216E4805F049FA04466E4882782346B7
:1003D00073A1002007F0A8FED6E2FDE301207549D5
:1003E0000860142004F023FF00207349C1F8840141
:1003F000142004F01CFF0121704805F02EFA044679
:1004000060488278234666A1002007F08DFEBBE29B
:100410000120684908310860142004F008FF00201A
:100420006549C1F88C01142004F001FF04216348E0
:1004300004E0F6E30AE3F5E301E3A4E205F00DFAD4
:10044000044650488278234655A1002007F06CFEF0
:100450009AE20120574910310860142004F0E7FEA9
:1004600000205549C1F89401142004F0E0FE102149
:10047000524805F0F2F9044642488278234648A1E2
:10048000002007F051FE7FE201204A491831086040
:10049000142004F0CCFE00204749C1F89C01142030
:1004A00004F0C5FE4021454805F0D7F9044635481B
:1004B000827823463AA1002007F036FE64E201204C
:1004C000354910310860142004F0B1FE0020334992
:1004D000C1F89401142004F0AAFE1021274805F069
:1004E000BCF904462748827823462DA1002007F056
:1004F0001BFE49E22BE20EE2F1E1D3E1B5E197E127
:100500007AE15CE13EE120E102E1E4E0C6E0A9E05D
:100510008CE070E054E00000003801407274742DEB
:1005200074656D703D3D3D3D3D00000025303278E5
:10053000200000000A000000726563765F64617449
:10054000613D25780D0A0000940000202D70617235
:1005500073652D55617274315F5278203D2025649A
:100560000A0000002D55617274315F52785F54208B
:100570003D2025640A000000B40100200010014065
:1005800000140140000000206263635F74656D70B9
:10059000203D2025780A00008401224200002242EA
:1005A00025643A6770696F5F6C6576656C203D20E5
:1005B00025780A0084012142000021420008014000
:1005C0000120FC490860142004F031FE0020FA49A3
:1005D000C1F88401142004F02AFE0421F74805F034
:1005E0003CF90446F64882782346AFF24C010020DD
:1005F00007F09AFDC8E10120F2490860142004F0D8
:1006000016FE0020F049C1F89401142004F00FFEFA
:100610000821EE4805F021F90446E948827823468E
:10062000AFF28401002007F07FFDADE10120E54934
:100630000C390860142004F0FAFD0020E249C1F8EA
:100640008801142004F0F3FD1021E04805F005F9BD
:100650000446DB4882782346AFF2BC01002007F055
:1006600063FD91E10120D7490C310860142004F0AA
:10067000DEFD0020D449C1F8A001142004F0D7FD0C
:100680008021D24805F0E9F80446CD488278234617
:10069000AFF2F401002007F047FD75E10120C949E0
:1006A00014310860142004F0C2FD0020C649C1F8CE
:1006B000A801142004F0BBFD4FF40071C34805F0FD
:1006C000CCF80446BE4882782346AFF22C110020B5
:1006D00007F02AFD58E10120BA491C3108601420B6
:1006E00004F0A5FD0020B849C1F8B001142004F0C1
:1006F0009EFD4FF40061B54805F0AFF80446B048E0
:1007000082782346AFF26811002007F00DFD3BE12F
:100710000120AC4924310860142004F088FD002039
:10072000A949C1F8B801142004F081FD4FF400512B
:10073000A64805F092F80446A14882782346AFF215
:10074000A011002007F0F0FC1EE10120994924319E
:100750000860142004F06BFD00209749C1F8A8013F
:10076000142004F064FD4FF40041984805F075F83A
:100770000446934882782346AFF2DC11002007F04C
:10078000D3FC01E101208B492C310860142004F0D6
:100790004EFD00208849C1F8B001142004F047FD47
:1007A0004FF400618A4805F058F80446844882787E
:1007B0002346AFF21421002007F0B6FCE4E001204C
:1007C0007C4934310860142004F031FD00207A495E
:1007D000C1F8B801142004F02AFD4FF400517C4800
:1007E00005F03BF80446764882782346AFF2502164
:1007F000002007F099FCC7E001207649086014202A
:1008000004F015FD00207449C1F8A001142004F083
:100810000EFD4FF400416E4805F01FF8044668488D
:1008200082782346AFF28821002007F07DFCABE000
:100830000120684908310860142004F0F8FC002009
:100840006549C1F8A801142004F0F1FC4FF40071CF
:10085000624805F002F80446594882782346AFF210
:10086000C021002007F060FC8EE0012059491031C2
:100870000860142004F0DBFC00205749C1F8B001E7
:10088000142004F0D4FC4FF40061544804F0E5FF58
:1008900004464B4882782346AFF2FC21002007F043
:1008A00043FC71E001204B4918310860142004F02A
:1008B000BEFC00204849C1F8B801142004F0B7FC80
:1008C0004FF40051454804F0C8FF04463C48827884
:1008D0002346AFF23431002007F026FC54E001201B
:1008E0003F490860142004F0A2FC00203D49C1F8F3
:1008F0009801142004F09BFC4FF40041374804F0A9
:10090000ACFF04462E4882782346AFF26C310020BB
:1009100007F00AFC38E00120314908310860142052
:1009200004F085FC00202F49C1F8A001142004F038
:100930007EFC8021214804F090FF04462048827804
:100940002346AFF2A431002007F0EEFB1CE00120AB
:1009500025490860142004F06AFC00202349C1F8EE
:10096000A001142004F063FC4FF40071134804F05C
:1009700074FF0446124882782346AFF2DC3100202F
:1009800007F0D2FB00E000BF00BF19A00068419053
:100990000B4800788DF80801094840788DF8090166
:1009A000074880788DF80A01012C25D111208DF897
:1009B0000B0124E08481214200802142001001408B
:1009C000000000209401234200002342001801404F
:1009D000000C0140A081224200802242001401400C
:1009E0009801224200002242A0012142000021423F
:1009F000737461720000000000208DF80B01042167
:100A000042A8FFF70CFC05468DF80C51FEA00188AA
:100A1000ADF80D1180788DF80F0100208DF81001D0
:100A20000C2141A8FFF7C3FB0C2141A8FFF79AFB5B
:100A3000F6480278F6A1002007F076FB05E0F348BF
:100A40000278F9A1002007F06FFB49E2EF48C07877
:100A500033287DD1ED48807800287AD10121F948EA
:100A600004F0FBFE83460421F64804F0F6FE4BEA50
:100A7000400B0121F44804F0F0FE4BEA800B042106
:100A8000F14804F0EAFE4BEAC00B1021EE4804F0F6
:100A9000E4FE4BEA001B4021EB4804F0DEFE4BEA8B
:100AA000401B1021E74804F0D8FE4BEA801B0121CF
:100AB000E64804F0D2FE4BEAC010C6B20821E44872
:100AC00004F0CBFE83461021E14804F0C6FE4BEA59
:100AD000400B8021DE4804F0C0FE4BEA800B4FF44F
:100AE0000071DB4804F0B9FE4BEAC00B4FF4006123
:100AF000D74804F0B2FE4BEA001B4FF40051D44833
:100B000004F0ABFE4BEA401B4FF40041D04804F028
:100B1000A4FE4BEA801B4FF40061CC4804F09DFE1C
:100B20004BEAC010C7B24FF40051C84804F095FE1C
:100B300083464FF40041C54804F08FFE4BEA400B5A
:100B40004FF40071C34804F088FE4BEA800B01E0CB
:100B5000BDE168E04FF40061BE4804F07EFE4BEA60
:100B6000C00B4FF40051BB4804F077FE4BEA001B6A
:100B70004FF40041B74804F070FE4BEA401B80215F
:100B8000B04804F06AFE4BEA801B4FF40071AD4898
:100B900004F063FE4BEAC01000F0FF083246AEA13D
:100BA000002007F0C1FA3A46B0A1002007F0BCFAD5
:100BB0004246B3A1002007F0B7FAAFF2CC100068AC
:100BC0004190924800788DF80801904840788DF85F
:100BD00009018DF80A6100E091E18DF80B718DF843
:100BE0000C81052142A8FFF71AFB05468DF80D512F
:100BF00085A00188ADF80E1180788DF810010020D5
:100C00008DF810010C2141A8FFF7D1FA0C2141A861
:100C1000FFF7A8FA7D4802787DA1002007F084FA4A
:100C20005CE165E15BE179488078192873D2DFE8FF
:100C300000F0AA0D13191F252B31373D43494F569C
:100C40005D646B737A81888F969DA30001217D4836
:100C500004F003FE044697E004217A4804F0FDFD09
:100C6000044691E00121784804F0F7FD04468BE04A
:100C70000421754804F0F1FD044685E01021724816
:100C800004F0EBFD04467FE040216F4804F0E5FDF1
:100C9000044600BF10216B4804F0DFFD044673E0FA
:100CA00001216A4804F0D9FD04466DE00821684836
:100CB00004F0D3FD044667E01021654804F0CDFD43
:100CC000044661E08021624804F0C7FD04465BE011
:100CD0004FF400715E4804F0C0FD044654E04FF448
:100CE00000615B4804F0B9FD04464DE04FF400514B
:100CF000574804F0B2FD044646E04FF40041544822
:100D000004F0ABFD044600BF4FF400614F4804F00F
:100D1000A4FD044638E036E04FF400514B4804F09F
:100D20009CFD044630E04FF40041484804F095FD36
:100D3000044629E04FF40071464804F08EFD044655
:100D400022E04FF40061434804F087FD04461BE0B5
:100D50004FF400513F4804F080FD044614E04FF486
:100D600000413C4804F079FD04460DE080213548FF
:100D700004F073FD044607E04FF40071314804F0BD
:100D80006CFD044600E000BF00BF20488278234687
:100D900040A1002007F0C8F9AFF2AC3000684190E4
:100DA0001A4800788DF80801184840788DF8090134
:100DB000164880788DF80A01012C03D111208DF896
:100DC0000B0102E000208DF80B01042142A8FFF77F
:100DD00026FA05468DF80C510BA00188ADF80D11CF
:100DE00080788DF80F0100208DF810010C2141A8AA
:100DF000FFF7DDF90C2141A8FFF7B4F903480278A9
:100E00002AA1002060E00000656E64000000002060
:100E10006F6B2C6D5F646174612E6F70636F6465BE
:100E20003D253032780A00006572726F722D322CC7
:100E30006D5F646174612E6F70636F64653D253012
:100E400032780A000010014000080140000C014007
:100E500000180140001401406772705F6C65766590
:100E60006C5F31203D2025780A0000006772705FBA
:100E70006C6576656C5F32203D2025780A000000A5
:100E80006772705F6C6576656C5F33203D202578F6
:100E90000A0000002D2D25643A6770696F5F6C654C
:100EA00076656C203D2025780A0000002D2D6F6BA3
:100EB0002C6D5F646174612E6F70636F64653D2596
:100EC0003032780A0000000007F02EF906E0F848FA
:100ED0000278AFF2AC01002007F026F900E000BF75
:100EE00000BFF3480279F3A1002007F01DF972E07A
:100EF000EF480279F4A1002007F016F96BE0B9F190
:100F0000030F68D19DF80400E94908709DF80500B9
:100F100048709DF806000871022101A8FFF77FF9CB
:100F200005462A46AFF6A011002007F0FDF8E0487C
:100F30000079A84249D1DE480078912814D006DC17
:100F4000702829D071282FD0902835D104E092281C
:100F500012D0932830D117E0D5480278AFF2501163
:100F6000002007F0E1F828E0D1480278AFF26011E4
:100F7000002007F0D9F820E0CD480278AFF27011D8
:100F8000002007F0D1F818E0C9480278AFF28011CC
:100F9000002007F0C9F810E0C5480278AFF29011C0
:100FA000002007F0C1F808E0C1480278AFF2A011B4
:100FB000002007F0B9F800E000BF00BFBC4802798C
:100FC000BCA1002007F0B0F805E0B9480279BEA145
:100FD000002007F0A9F80DF5017DBDE8F08F01288C
:100FE00005D1C0490968491CBE4A116006E00228C3
:100FF00004D1BD490968491CBB4A1160704770B5EE
:10100000C0B04FF48071684607F0BBF84FF48061C0
:10101000B64804F022FC06464FF40061B34804F0E1
:101020001CFC46EA40064FF48051B04804F015FC21
:1010300046EA80060121AE4804F00FFC46EAC006ED
:101040001021AB4804F009FC46EA00160821A84824
:1010500004F003FC46EA40160421A54804F0FDFB19
:1010600046EA80160221A24804F0F7FB46EAC010C7
:10107000C4B2A0480078002868D101219B4804F040
:10108000ECFB002862D14FF47A70FFF739F84FF487
:101090000061994804F0FBFB4FF47A70FFF730F8D9
:1010A0000A2004F0C4F80121904804F0D6FB00287F
:1010B0003FD1224691A107F037F88E48027894A1DB
:1010C000002007F031F801208A490870AFF2E06093
:1010D0000068009060208DF804008DF80540012024
:1010E0008DF806000121814804F0B7FB012803D1E7
:1010F00011208DF8070002E000208DF80700042180
:1011000001A8FFF78CF805468DF80850AFF20830BB
:101110000188ADF8091080788DF80B0000208DF85B
:101120000C000C216846FFF742F80C216846FFF7D7
:1011300019F84FF47A70FEF7E3FF4FF400616E4840
:1011400004F0A7FB4FF47A70FEF7DAFF69480078E5
:10115000002869D00121654804F07FFB012863D194
:101160004FF47A70FEF7CCFF4FF40061624804F050
:101170008EFB4FF47A70FEF7C3FF0A2004F057F895
:1011800001215A4804F069FB012840D122465BA1A5
:10119000002006F0C9FF5748027863A1002006F03E
:1011A000C3FF002053490870AFF2BC700068009084
:1011B00060208DF804008DF8054001208DF80600B0
:1011C00001214A4804F049FB012803D111208DF880
:1011D000070002E000208DF80700042101A8FFF7B6
:1011E0001EF805468DF80850AFF2E4300188ADF8DE
:1011F000091080788DF80B0000208DF80C000C2170
:101200006846FEF7D4FF0C216846FEF7ABFF4FF4AB
:101210007A70FEF775FF4FF40061374804F039FB30
:101220004FF47A70FEF76CFF4448007800283ED1F6
:1012300004212E4804F011FB002838D14FF47A70B5
:10124000FEF75EFF4FF400612B4804F020FB4FF4E3
:101250007A70FEF755FF0A2003F0E9FF04212348C6
:1012600004F0FBFA002877D1224624A106F05CFFA7
:101270003248027832A1002006F056FF01202F49A3
:101280000870AFF694000068009060208DF80400AC
:101290008DF8054002208DF806000421134804F063
:1012A000DCFA012859D111208DF8070058E07EE0C2
:1012B000000000206D5F646174612E626363203DF5
:1012C0002025780A000000006572726F722D312DA2
:1012D0006D5F646174612E626363203D2025780A2E
:1012E00000000000080000200C0000200010014059
:1012F000001401401900002000080140626F617273
:10130000645F61646472203D20253032780A0000F9
:10131000636C6F73652D6B6579315F666C61673DDA
:101320002025640A000000006F70656E2D6B6579E2
:10133000315F666C61673D2025640A001A00002059
:10134000636C6F73652D6B6579325F666C61673DA9
:101350002025640A000000001CE000208DF8070032
:10136000042101A8FEF75BFF05468DF80850AFF297
:1013700068500188ADF8091080788DF80B000020C6
:101380008DF80C000C216846FEF711FF0C21684611
:10139000FEF7E8FE4FF47A70FEF7B2FE4FF40061FC
:1013A000FE4804F076FA4FF47A70FEF7A9FEFC4886
:1013B000007800286AD00421FA4804F04EFA012887
:1013C00064D14FF47A70FEF79BFE4FF40061F3484E
:1013D00004F05DFA4FF47A70FEF792FE0A2003F0F3
:1013E00026FF0421EF4804F038FA012841D12246B3
:1013F000AFF2F801002006F097FEE9480278EAA172
:10140000002006F091FE0020E5490870AFF620208C
:101410000068009060208DF804008DF805400220DF
:101420008DF806000421DF4804F017FA012803D1E3
:1014300011208DF8070002E000208DF8070004213C
:1014400001A8FEF7ECFE05468DF80850AFF24860A3
:101450000188ADF8091080788DF80B0000208DF818
:101460000C000C216846FEF7A2FE0C216846FEF730
:1014700079FE4FF47A70FEF743FE4FF40061C748DF
:1014800004F007FA4FF47A70FEF73AFECB48007882
:10149000002869D10121C14804F0DFF9002863D197
:1014A0004FF47A70FEF72CFE4FF40061BB4804F055
:1014B000EEF94FF47A70FEF723FE0A2003F0B7FE30
:1014C0000121B64804F0C9F9002840D12246AFF204
:1014D000D41106F029FEB9480278B9A1002006F01F
:1014E00023FE0120B5490870AFF6FC20006800908B
:1014F00060208DF804008DF8054003208DF806006B
:101500000121A64804F0A9F9012803D111208DF882
:10151000070002E000208DF80700042101A8FEF773
:101520007EFE05468DF80850AFF224700188ADF8B4
:10153000091080788DF80B0000208DF80C000C212C
:101540006846FEF734FE0C216846FEF70BFE4FF4AA
:101550007A70FEF7D5FD4FF40061904804F099F9D8
:101560004FF47A70FEF7CCFD9448007800286AD0DA
:1015700001218A4804F071F9012864D14FF47A708E
:10158000FEF7BEFD4FF40061844804F080F94FF48B
:101590007A70FEF7B5FD0A2003F049FE01217F486D
:1015A00004F05BF9012841D12246AFF2B0210020BE
:1015B00006F0BAFD8148027887A1002006F0B4FD4C
:1015C00000207E490870AFF6D83000680090602097
:1015D0008DF804008DF8054003208DF806000121E8
:1015E0006E4804F03AF9012803D111208DF8070064
:1015F00002E000208DF80700042101A8FEF70FFE8D
:1016000005468DF80850AFF600000188ADF80910C6
:1016100080788DF80B0000208DF80C000C216846B6
:10162000FEF7C5FD0C216846FEF79CFD4FF47A706D
:10163000FEF766FD4FF40061584804F02AF94FF4B4
:101640007A70FEF75DFD69480078002869D10421B1
:10165000524804F002F9002863D14FF47A70FEF783
:101660004FFD4FF400614D4804F011F94FF47A70CA
:10167000FEF746FD0A2003F0DAFD0421474804F096
:10168000ECF8002840D12246AFF2903106F04CFD34
:101690005648027856A1002006F046FD0120534925
:1016A0000870AFF6B4400068009060208DF8040028
:1016B0008DF8054004208DF806000421374804F019
:1016C000CCF8012803D111208DF8070002E000209A
:1016D0008DF80700042101A8FEF7A1FD05468DF84D
:1016E0000850AFF6DC000188ADF8091080788DF85D
:1016F0000B0000208DF80C000C216846FEF757FD0A
:101700000C216846FEF72EFD4FF47A70FEF7F8FCC8
:101710004FF40061214804F0BCF84FF47A70FEF7F2
:10172000EFFC32480078002878D004211B4804F0F0
:1017300094F8012872D14FF47A70FEF7E1FC4FF46F
:101740000061164804F0A3F84FF47A70FEF7D8FC55
:101750000A2003F06CFD0421104804F07EF80128F3
:101760007ED12246AFF26C41002006F0DDFC1F481E
:10177000027825A1002006F0D7FC00201B49087044
:10178000AFF694500068009060208DF804008DF84A
:10179000054004208DF80600042140E000080140C7
:1017A0001A000020001001406F70656E2D6B657986
:1017B000325F666C61673D2025640A001B000020D3
:1017C000636C6F73652D6B6579335F666C61673D24
:1017D0002025640A000000006F70656E2D6B65792E
:1017E000335F666C61673D2025640A001C000020A1
:1017F000636C6F73652D6B6579345F666C61673DF3
:101800002025640A000000006F70656E2D6B6579FD
:10181000345F666C61673D2025640A0034E0FE4851
:1018200004F01BF8012803D111208DF8070002E015
:1018300000208DF80700042101A8FEF7F0FC054602
:101840008DF80850AFF640200188ADF80910807877
:101850008DF80B0000208DF80C000C21684600E08C
:1018600005E0FEF7A4FC0C216846FEF77BFC4FF474
:101870007A70FEF745FC4FF40061E74804F009F880
:101880004FF47A70FEF73CFCE448007800286BD1F6
:101890001021E14803F0E1FF002865D14FF47A7090
:1018A000FEF72EFC4FF40061DB4803F0F0FF4FF42D
:1018B0007A70FEF725FC0A2003F0B9FC1021D64807
:1018C00003F0CBFFF0BB2246AFF2D051002006F070
:1018D0002BFCD2480278D2A1002006F025FC012082
:1018E000CE490870AFF6F8600068009060208DF86F
:1018F00004008DF8054005208DF806001021C6482B
:1019000003F0ABFF012803D111208DF8070002E09E
:1019100000208DF80700042101A8FEF780FC054691
:101920008DF80850AFF620300188ADF809108078A6
:101930008DF80B0000208DF80C000C216846FEF796
:1019400036FC00E003E00C216846FEF70BFC4FF488
:101950007A70FEF7D5FB4FF40061AF4803F099FFB2
:101960004FF47A70FEF7CCFBAC48007800286AD0C0
:101970001021A94803F071FF012864D14FF47A7057
:10198000FEF7BEFB4FF40061A34803F080FF4FF465
:101990007A70FEF7B5FB0A2003F049FC10219E483F
:1019A00003F05BFF012841D12246AFF2B061002075
:1019B00006F0BAFB994802789FA1002006F0B4FB1C
:1019C000002096490870AFF6D8700068009060203B
:1019D0008DF804008DF8054005208DF806001021D3
:1019E0008D4803F03AFF012803D111208DF807003C
:1019F00002E000208DF80700042101A8FEF70FFC8B
:101A000005468DF80850AFF600400188ADF8091082
:101A100080788DF80B0000208DF80C000C216846B2
:101A2000FEF7C5FB0C216846FEF79CFB4FF47A706D
:101A3000FEF766FB4FF40061774803F02AFF4FF48E
:101A40007A70FEF75DFB8148007800286AD140215A
:101A5000714803F002FF002864D14FF47A70FEF75A
:101A60004FFB4FF400616C4803F011FF4FF47A70A4
:101A7000FEF746FB0A2003F0DAFB4021664803F03C
:101A8000ECFEE8BB2246AFF28C71002006F04CFB66
:101A90006E4802786EA1002006F046FB01206B49DB
:101AA000087071480068009060208DF804008DF87F
:101AB000054006208DF806004021574803F0CDFE72
:101AC000012803D111208DF8070002E000208DF8D5
:101AD0000700042101A8FEF7A2FB05468DF8085077
:101AE000AFF6DC400188ADF8091080788DF80B0066
:101AF00000208DF80C000C216846FEF758FB00E032
:101B000003E00C216846FEF72DFB4FF47A70FEF7D8
:101B1000F7FA4FF40061404803F0BBFE4FF47A70CF
:101B2000FEF7EEFA49480078002869D040213A488B
:101B300003F093FE012863D14FF47A70FEF7E0FAC8
:101B40004FF40061344803F0A2FE4FF47A70FEF7C0
:101B5000D7FA0A2003F06BFB40212F4803F07DFEEB
:101B6000012840D12246AFF66C01002006F0DCFAD5
:101B7000364802783DA1002006F0D6FA002033490D
:101B8000087039480068009060208DF804008DF8D6
:101B9000054006208DF8060040211F4803F05DFE39
:101BA000012803D111208DF8070002E000208DF8F4
:101BB0000700042101A8FEF732FB05468DF8085006
:101BC000AFF6BC500188ADF8091080788DF80B0095
:101BD00000208DF80C000C216846FEF7E8FA0C2175
:101BE0006846FEF7BFFA4FF47A70FEF789FA4FF4B1
:101BF0000061094803F04DFE4FF47A70FEF780FA59
:101C00001F480078002878D110211E4803F025FED7
:101C1000002872D138E00000000801401D000020BB
:101C2000636C6F73652D6B6579355F666C61673DBD
:101C30002025640A000000006F70656E2D6B6579C9
:101C4000355F666C61673D2025640A001E00002038
:101C5000636C6F73652D6B6579365F666C61673D8C
:101C60002025640A00000000F00900086F70656E0E
:101C70002D6B6579365F666C61673D2025640A00CF
:101C80001F000020001001404FF47A70FEF738FA70
:101C90004FF40061F54803F0FAFD4FF47A70FEF757
:101CA0002FFA0A2003F0C3FA1021F14803F0D5FD02
:101CB000F0BB2246AFF6BC11002006F035FAED4825
:101CC0000278EDA1002006F02FFA0120E949087002
:101CD000EF480068009060208DF804008DF8054002
:101CE00007208DF806001021E14803F0B6FD012819
:101CF00004D111208DF8070003E02BE000208DF8BF
:101D00000700042101A8FEF78AFA05468DF808505D
:101D1000AFF60C700188ADF8091080788DF80B00D3
:101D200000208DF80C000C216846FEF740FA00E018
:101D300003E00C216846FEF715FA4FF47A70FEF7BF
:101D4000DFF94FF40061C94803F0A3FD4FF47A7046
:101D5000FEF7D6F9C7480078002869D01021C4489A
:101D600003F07BFD012863D14FF47A70FEF7C8F9C8
:101D70004FF40061BD4803F08AFD4FF47A70FEF71E
:101D8000BFF90A2003F053FA1021B94803F065FDAA
:101D9000012840D12246AFF69C21002006F0C4F96C
:101DA000B4480278BBA1002006F0BEF90020B1497A
:101DB0000870B7480068009060208DF804008DF826
:101DC000054007208DF806001021A94803F045FDC5
:101DD000012803D111208DF8070002E000208DF8C2
:101DE0000700042101A8FEF71AFA05468DF80850ED
:101DF000AFF6EC700188ADF8091080788DF80B0013
:101E000000208DF80C000C216846FEF7D0F90C215B
:101E10006846FEF7A7F94FF47A70FEF771F94FF4B0
:101E20000061924803F035FD4FF47A70FEF768F9CF
:101E30009D480078002869D101219C4803F00DFDE0
:101E4000002863D14FF47A70FEF75AF94FF400611D
:101E5000864803F01CFD4FF47A70FEF751F90A2012
:101E600003F0E5F90121914803F0F7FCF0BB2246AD
:101E7000AFF67831002006F057F98B4802788CA134
:101E8000002006F051F90120874908708048006859
:101E9000009060208DF804008DF8054008208DF832
:101EA00006000121814803F0D8FC012803D111204C
:101EB0008DF8070002E000208DF80700042101A83A
:101EC000FEF7ADF905468DF808507F480188ADF85A
:101ED000091080788DF80B0000208DF80C000C2183
:101EE0006846FEF764F90C21684600E001E0FEF761
:101EF00039F94FF47A70FEF703F94FF400615B484B
:101F000003F0C7FC4FF47A70FEF7FAF866480078E1
:101F1000002868D00121654803F09FFC012862D1A8
:101F20004FF47A70FEF7ECF84FF400614F4803F07D
:101F3000AEFC4FF47A70FEF7E3F80A2003F077F96D
:101F400001215A4803F089FC01283FD12246AFF60F
:101F50005441002006F0E8F8534802785BA10020C5
:101F600006F0E2F8002050490870494800680090E7
:101F700060208DF804008DF8054008208DF80600DB
:101F800001214A4803F069FC012803D111208DF892
:101F9000070002E000208DF80700042101A8FEF7E9
:101FA0003EF905468DF8085047480188ADF80910FC
:101FB00080788DF80B0000208DF80C000C2168460D
:101FC000FEF7F5F80C216846FEF7CCF84FF47A706E
:101FD000FEF796F84FF40061244803F05AFC4FF4E2
:101FE0007A70FEF78DF83E480078E8BB08213D483E
:101FF00003F033FCC0BB4FF47A70FEF781F84FF466
:1020000000611A4803F043FC4FF47A70FEF778F849
:102010000A2003F00CF90821324803F01EFC20BB13
:102020002246AFF62851002006F07EF82C480278B0
:102030002DA1002006F078F80120294908701448E5
:102040000068009060208DF804008DF8054009209C
:102050008DF806000821234803F0FFFB01284FD12B
:1020600011208DF807004EE073E065E000080140A4
:10207000001001401F000020636C6F73652D6B65BD
:1020800079375F666C61673D2025640A00000000B7
:10209000F00900086F70656E2D6B6579375F666CAF
:1020A00061673D2025640A0020000020000C0140EB
:1020B000636C6F73652D6B6579385F666C61673D26
:1020C0002025640A00000000080E00086F70656E8D
:1020D0002D6B6579385F666C61673D2025640A0069
:1020E0002100002000180140636C6F73652D6B6543
:1020F00079395F666C61673D2025640A0000000045
:1021000000208DF80700042101A8FEF788F8054695
:102110008DF80850FC480188ADF8091080788DF8DA
:102120000B0000208DF80C000C216846FEF73FF8EC
:102130000C216846FEF716F84FF47A70FDF7E0FFC1
:102140004FF40061F14803F0A4FB4FF47A70FDF7FF
:10215000D7FFEF480078E8B30821EE4803F07DFB95
:10216000012864D14FF47A70FDF7CAFF4FF4006183
:10217000E64803F08CFB4FF47A70FDF7C1FF0A20AC
:1021800003F055F80821E34803F067FB012841D12B
:102190002246AFF69861002005F0C6FFDC480278C1
:1021A000DDA1002005F0C0FF0020D9490870DF48FC
:1021B0000068009060208DF804008DF8054009202B
:1021C0008DF806000821D34803F047FB012805D10C
:1021D000112000E02BE08DF8070002E000208DF8D0
:1021E0000700042101A8FEF71AF805468DF80850EB
:1021F000C5480188ADF8091080788DF80B000020E3
:102200008DF80C000C216846FDF7D1FF0C216846C3
:10221000FDF7A8FF4FF47A70FDF772FF4FF40061ED
:10222000BA4803F036FB4FF47A70FDF769FFC048F7
:102230000078E8BB1021B74803F00FFBC0BB4FF498
:102240007A70FDF75DFF4FF40061B04803F01FFBAB
:102250004FF47A70FDF754FF0A2002F0E8FF1021D6
:10226000AC4803F0FAFAE8BB2246AFF670710020E2
:1022700005F05AFFAE480278AEA1002005F054FFE9
:102280000120AB490870A9480068009060208DF8D3
:1022900004008DF805400A208DF8060010219D48A5
:1022A00003F0DBFA012804D111208DF8070003E0C8
:1022B0002AE000208DF80700042101A8FDF7AFFFF8
:1022C00005468DF8085090480188ADF809108078CF
:1022D0008DF80B0000208DF80C000C216846FDF7EE
:1022E00066FF00E003E00C216846FDF73BFF4FF47A
:1022F0007A70FDF705FF4FF40061844803F0C9FAD6
:102300004FF47A70FDF7FCFE89480078F0B3102195
:10231000804803F0A2FA012862D14FF47A70FDF7E9
:10232000EFFE4FF40061794803F0B1FA4FF47A7090
:10233000FDF7E6FE0A2002F07AFF1021754803F04F
:102340008CFA01283FD122468049002005F0ECFE9E
:10235000774802787EA1002005F0E6FE002074494F
:10236000087072480068009060208DF804008DF8B5
:1023700005400A208DF806001021664803F06DFA2A
:10238000012804D111208DF8070003E028E0002087
:102390008DF80700042101A8FDF741FF05468DF8DF
:1023A000085059480188ADF8091080788DF80B0065
:1023B00000208DF80C000C216846FDF7F8FE0C217A
:1023C0006846FDF7CFFE4FF47A70FDF799FE4FF4A3
:1023D00000614E4803F05DFA4FF47A70FDF790FE0D
:1023E00061480078E0BB80214A4803F036FAB8BB68
:1023F0004FF47A70FDF784FE4FF40061434803F018
:1024000046FA4FF47A70FDF77BFE0A2002F00FFFC8
:102410008021404803F021FAF0BB22464B490020BE
:1024200005F082FE5048027850A1002005F07CFEA5
:1024300001204D4908703D480068009060208DF8EB
:1024400004008DF805400B208DF8060080213148EE
:1024500003F003FA012804D111208DF8070003E0EE
:102460002AE000208DF80700042101A8FDF7D7FE1F
:1024700005468DF8085024480188ADF80910807889
:102480008DF80B0000208DF80C000C216846FDF73C
:102490008EFE0C21684600E001E0FDF763FE4FF47C
:1024A0007A70FDF72DFE4FF40061184803F0F1F942
:1024B0004FF47A70FDF724FE2B48007818B3802182
:1024C000144803F0CAF901281DD14FF47A70FDF7C2
:1024D00017FE4FF400610D4803F0D9F94FF47A70FC
:1024E000FDF70EFE0A2002F0A2FE8021094803F04B
:1024F000B4F901287DD122461449002005F014FECC
:10250000194802783EE084E0080E00080008014007
:1025100021000020001801406F70656E2D6B6579F9
:10252000395F666C61673D2025640A00F009000888
:1025300022000020636C6F73652D6B657931305F0D
:10254000666C61673D2025640A000000FC120008EB
:102550006F70656E2D6B657931305F666C61673DBC
:102560002025640A0000000023000020636C6F73C4
:10257000652D6B657931315F666C61673D2025643F
:102580000A000000FAA1002005F0CEFD0020FE495F
:102590000870FE480068009060208DF804008DF8F7
:1025A00005400B208DF806008021F94803F055F90D
:1025B000012803D111208DF8070002E000208DF8DA
:1025C0000700042101A8FDF72AFE05468DF80850F2
:1025D000F0480188ADF8091080788DF80B000020D4
:1025E0008DF80C000C216846FDF7E1FD0C216846D2
:1025F00000E001E0FDF7B6FD4FF47A70FDF780FDD5
:102600004FF40061E44803F044F94FF47A70FDF7A9
:1026100077FDE2480078E8BB4FF40071DC4803F036
:102620001CF9B8BB4FF47A70FDF76AFD4FF40061F6
:10263000D94803F02CF94FF47A70FDF761FD0A20B8
:1026400002F0F5FD4FF40071D14803F006F9E0BB4C
:102650002246D349002005F067FDD0480278D1A179
:10266000002005F061FD0120CC490870C7480068D2
:10267000009060208DF804008DF805400C208DF846
:1026800006004FF40071C24803F0E7F8012805D1B5
:10269000112000E02DE08DF8070002E000208DF809
:1026A0000700042101A8FDF7BAFD05468DF8085082
:1026B000B8480188ADF8091080788DF80B0000202B
:1026C0008DF80C000C21684600E005E0FDF76FFD79
:1026D0000C216846FDF746FD4FF47A70FDF710FDBA
:1026E0004FF40061AC4803F0D4F84FF47A70FDF772
:1026F00007FDAA480078E8B34FF40071A44803F03E
:10270000ACF8012865D14FF47A70FDF7F9FC4FF46D
:102710000061A14803F0BBF84FF47A70FDF7F0FCBC
:102720000A2002F084FD4FF40071994803F095F8F7
:10273000012841D122469A49002005F0F5FC97482E
:1027400002789EA1002005F0EFFC0020934908705C
:102750008E480068009060208DF804008DF80540D8
:102760000C208DF806004FF40071894803F075F8CD
:10277000012800E02DE003D111208DF8070002E0D0
:1027800000208DF80700042101A8FDF748FD05464B
:102790008DF808507F480188ADF8091080788DF8D1
:1027A0000B0000208DF80C000C216846FDF7FFFCA3
:1027B0000C216846FDF7D6FC4FF47A70FDF7A0FCBB
:1027C0004FF40061744803F064F84FF47A70FDF739
:1027D00097FC80480078E8BB4FF400616C4803F038
:1027E0003CF8B8BB4FF47A70FDF78AFC4FF40061F7
:1027F000694803F04CF84FF47A70FDF781FC0A2029
:1028000002F015FD4FF40061614803F026F8E0BBCB
:1028100022466349002005F087FC6E4802786EA1CD
:10282000002005F081FC01206A49087057480068C3
:10283000009060208DF804008DF805400D208DF883
:1028400006004FF40061524803F007F8012805D153
:10285000112000E02DE08DF8070002E000208DF847
:102860000700042101A8FDF7DAFC05468DF80850A1
:1028700048480188ADF8091080788DF80B000020D9
:102880008DF80C000C21684600E005E0FDF78FFC98
:102890000C216846FDF766FC4FF47A70FDF730FCBA
:1028A0004FF400613C4802F0F4FF4FF47A70FDF7FA
:1028B00027FC48480078E8B34FF40061344802F040
:1028C000CCFF012836D14FF47A70FDF719FC4FF494
:1028D0000061314802F0DBFF4FF47A70FDF710FC25
:1028E0000A2002F0A4FC4FF40061294802F0B5FF71
:1028F00001283BD122462A49002005F015FC354825
:1029000002783BA1002005F00FFC0020314908703F
:102910001E480068009060208DF804008DF8054086
:102920000D208DF806004FF40061194802F095FF64
:10293000012800E07CE003D111208DF8070002E0BF
:1029400000208DF80700042101A8FDF768FC05466A
:102950008DF808500F480188ADF8091080788DF87F
:102960000B0000208DF80C000C214DE053E000001E
:102970006F70656E2D6B657931315F666C61673D97
:102980002025640A0000000023000020F009000850
:1029900000180140080E0008000801402400002033
:1029A000FC120008636C6F73652D6B657931325FC3
:1029B000666C61673D2025640A0000006F70656EDB
:1029C0002D6B657931325F666C61673D2025640A45
:1029D0000000000025000020636C6F73652D6B659F
:1029E0007931335F666C61673D2025640A00000021
:1029F0006F70656E2D6B657931335F666C61673D15
:102A00002025640A000000006846FDF7D0FB0C2179
:102A10006846FDF7A7FB4FF47A70FDF771FB4FF4A2
:102A20000061FE4802F035FF4FF47A70FDF768FB55
:102A3000FB480078E8BB4FF40051FA4802F00DFF64
:102A4000B8BB4FF47A70FDF75BFB4FF40061F348BD
:102A500002F01DFF4FF47A70FDF752FB0A2002F0DE
:102A6000E6FB4FF40051EF4802F0F7FEF0BB2246C0
:102A7000ED49002005F058FBE9480278EBA1002061
:102A800005F052FB0120E6490870EE48006800900E
:102A900060208DF804008DF805400E208DF80600AA
:102AA0004FF40051DF4802F0D8FE012805D1112073
:102AB00000E02DE08DF8070002E000208DF807000F
:102AC000042101A8FDF7ABFB05468DF80850DE4850
:102AD0000188ADF8091080788DF80B0000208DF882
:102AE0000C000C216846FDF762FB00E003E00C21BE
:102AF0006846FDF737FB4FF47A70FDF701FB4FF4A2
:102B00000061C64802F0C5FE4FF47A70FDF7F8FA8E
:102B1000C3480078F0B34FF40051C24802F09DFE64
:102B2000012865D14FF47A70FDF7EAFA4FF400619D
:102B3000BA4802F0ACFE4FF47A70FDF7E1FA0A20D1
:102B400002F075FB4FF40051B64802F086FE0128F2
:102B500041D12246B449002005F0E6FAB048027897
:102B6000BAA1002005F0E0FA0020AD490870B54890
:102B70000068009060208DF804008DF805400E205C
:102B80008DF806004FF40051A64802F066FE0128B9
:102B900005D100E02CE011208DF8070002E00020B4
:102BA0008DF80700042101A8FDF739FB05468DF8D3
:102BB0000850A5480188ADF8091080788DF80B0001
:102BC00000208DF80C000C216846FDF7F0FA0C216E
:102BD0006846FDF7C7FA4FF47A70FDF791FA4FF4A3
:102BE00000618E4802F055FE4FF47A70FDF788FAC6
:102BF0009C480078E8BB4FF400418A4802F02DFE63
:102C0000B8BB4FF47A70FDF77BFA4FF4006183484C
:102C100002F03DFE4FF47A70FDF772FA0A2002F0DE
:102C200006FB4FF400417F4802F017FEF0BB22463E
:102C30007D49002005F078FA8A4802788AA10020B0
:102C400005F072FA0120874908707E4800680090FC
:102C500060208DF804008DF805400F208DF80600E7
:102C60004FF400416F4802F0F8FD012805D1112012
:102C700000E02DE08DF8070002E000208DF807004D
:102C8000042101A8FDF7CBFA05468DF808506E48DF
:102C90000188ADF8091080788DF80B0000208DF8C0
:102CA0000C000C216846FDF782FA00E003E00C21DD
:102CB0006846FDF757FA4FF47A70FDF721FA4FF4A2
:102CC0000061564802F0E5FD4FF47A70FDF718FAFE
:102CD00064480078F0B34FF40041524802F0BDFD63
:102CE000012865D14FF47A70FDF70AFA4FF40061BC
:102CF0004A4802F0CCFD4FF47A70FDF701FA0A2041
:102D000002F095FA4FF40041464802F0A6FD012872
:102D100041D122464449002005F006FA5148027884
:102D200057A1002005F000FA00204E4908704548E0
:102D30000068009060208DF804008DF805400F2099
:102D40008DF806004FF40041364802F086FD012858
:102D500005D100E02CE011208DF8070002E00020F2
:102D60008DF80700042101A8FDF759FA05468DF8F2
:102D7000085035480188ADF8091080788DF80B00AF
:102D800000208DF80C000C216846FDF710FA0C218C
:102D90006846FDF7E7F94FF47A70FDF7B1F94FF4A3
:102DA00000611E4802F075FD4FF47A70FDF7A8F936
:102DB0003948007880BB4FF40061384802F04DFD7F
:102DC00050BB4FF47A70FDF79BF94FF40061134844
:102DD00002F05DFD4FF47A70FDF792F90A2002F0DF
:102DE00026FA4FF400612D4802F037FDA8B92246BB
:102DF0000D49002005F098F92748027828A1002005
:102E000005F092F90120244908700E4800680090EE
:102E100060208DF804004FE086E078E00008014073
:102E20002600002000180140FC120008636C6F733C
:102E3000652D6B657931345F666C61673D20256473
:102E40000A000000F0090008080E00086F70656EA7
:102E50002D6B657931345F666C61673D2025640AAE
:102E60000000000027000020636C6F73652D6B6508
:102E70007931355F666C61673D2025640A0000008A
:102E80006F70656E2D6B657931355F666C61673D7E
:102E90002025640A0000000028000020000C0140EA
:102EA000636C6F73652D6B657931365F666C616736
:102EB0003D2025640A0000008DF8054010208DF8A3
:102EC0000600C101FE4802F0C8FC012803D1112010
:102ED0008DF8070002E000208DF80700042101A80A
:102EE000FDF79DF905468DF80850F6480188ADF8C4
:102EF000091080788DF80B0000208DF80C000C2153
:102F00006846FDF754F90C216846FDF72BF94FF49C
:102F10007A70FDF7F5F84FF40061EB4802F0B9FC68
:102F20004FF47A70FDF7ECF8E8480078F0B34FF40E
:102F30000061E34802F091FC012864D14FF47A70FB
:102F4000FDF7DEF84FF40061DF4802F0A0FC4FF41B
:102F50007A70FDF7D5F80A2002F069F94FF40061A4
:102F6000D74802F07AFC012840D12246D8490020F7
:102F700005F0DAF8D5480278D6A1002005F0D4F89B
:102F80000020D2490870D9480068009060208DF870
:102F900004008DF8054010208DF80600C101C848D6
:102FA00002F05BFC012805D1112000E02BE08DF838
:102FB000070002E000208DF80700042101A8FDF7BA
:102FC0002EF905468DF80850BE480188ADF8091065
:102FD00080788DF80B0000208DF80C000C216846DD
:102FE000FDF7E5F80C216846FDF7BCF84FF47A7060
:102FF000FDF786F84FF40061B34802F04AFC4FF445
:103000007A70FDF77DF8BA480078E8BB4FF40051BC
:10301000AB4802F022FCB8BB4FF47A70FDF770F8B1
:103020004FF40061A84802F032FC4FF47A70FDF7CB
:1030300067F80A2002F0FBF84FF40051A04802F0B4
:103040000CFCE0BB2246A249002005F06DF8A84820
:103050000278A8A1002005F067F80120A4490870B3
:10306000A2480068009060208DF804008DF80540AB
:1030700011208DF806004FF40051914802F0EDFB4D
:10308000012805D1112000E02DE08DF8070002E0B5
:1030900000208DF80700042101A8FDF7C0F80546BF
:1030A0008DF8085087480188ADF8091080788DF8B0
:1030B0000B0000208DF80C000C21684600E005E0B4
:1030C000FDF775F80C216846FDF74CF84FF47A705F
:1030D000FDF716F84FF400617B4802F0DAFB4FF47D
:1030E0007A70FDF70DF882480078E8B34FF400518C
:1030F000734802F0B2FB012865D14FF47A70FCF7F7
:10310000FFFF4FF40061704802F0C1FB4FF47A708A
:10311000FCF7F6FF0A2002F08AF84FF400516848E5
:1031200002F09BFB012841D122466949002004F0AE
:10313000FBFF6F48027875A1002004F0F5FF002026
:103140006B49087069480068009060208DF80400A1
:103150008DF8054011208DF806004FF400515848B5
:1031600002F07BFB012800E02DE003D111208DF857
:10317000070002E000208DF80700042101A8FDF7F8
:103180004EF805468DF808504E480188ADF80910F4
:1031900080788DF80B0000208DF80C000C2168461B
:1031A000FDF705F80C216846FCF7DCFF4FF47A7058
:1031B000FCF7A6FF4FF40061434802F06AFB4FF4AE
:1031C0007A70FCF79DFF57480078E8BB4FF4004148
:1031D0003B4802F042FBB8BB4FF47A70FCF790FF1B
:1031E0004FF40061384802F052FB4FF47A70FCF75C
:1031F00087FF0A2002F01BF84FF40041304802F02C
:103200002CFBE0BB22463249002004F08DFF4548EC
:10321000027845A1002004F087FF01204149087091
:1032200032480068009060208DF804008DF8054059
:1032300012208DF806004FF40041214802F00DFBEA
:10324000012805D1112000E02DE08DF8070002E0F3
:1032500000208DF80700042101A8FCF7E0FF0546D7
:103260008DF8085017480188ADF8091080788DF85E
:103270000B0000208DF80C000C21684600E005E0F2
:10328000FCF795FF0C216846FCF76CFF4FF47A7051
:10329000FCF736FF4FF400610B4802F0FAFA4FF4E6
:1032A0007A70FCF72DFF1F48007838B14FF40041C9
:1032B000034802F0D2FA012800D141E0A4E0000066
:1032C000000C0140080E0008000801402800002002
:1032D000FC1200086F70656E2D6B657931365F6684
:1032E0006C61673D2025640A00000000F0090008B9
:1032F00029000020636C6F73652D6B657931375F32
:10330000666C61673D2025640A0000006F70656E81
:103310002D6B657931375F666C61673D2025640AE6
:10332000000000002A000020636C6F73652D6B6540
:103330007931385F666C61673D2025640A000000C2
:103340004FF47A70FCF7DCFE4FF40061FA4802F0AB
:103350009EFA4FF47A70FCF7D3FE0A2001F067FF63
:103360004FF40041F54802F078FA01283FD1224697
:10337000F349002004F0D8FEF2480278F2A10020C0
:1033800004F0D2FE0020EF490870F5480068009074
:1033900060208DF804008DF8054012208DF806009D
:1033A0004FF40041E54802F058FA012803D11120FA
:1033B0008DF8070002E000208DF80700042101A825
:1033C000FCF72DFF05468DF80850E6480188ADF85A
:1033D000091080788DF80B0000208DF80C000C216E
:1033E0006846FCF7E4FE0C216846FCF7BBFE4FF490
:1033F0007A70FCF785FE4FF40061CF4802F049FA7D
:103400004FF47A70FCF77CFED7480078E8BB4FF4A5
:103410000071D64802F021FAB8BB4FF47A70FCF77D
:103420006FFE4FF40061C44802F031FA4FF47A7035
:10343000FCF766FE0A2001F0FAFE4FF40071CB485B
:1034400002F00BFAF0BB2246BD49002004F06CFEEE
:10345000C5480278C6A1002004F066FE0120C249DA
:103460000870BF480068009060208DF804008DF857
:10347000054013208DF806004FF40071BB4802F0A0
:10348000ECF9012805D1112000E02DE08DF80700AE
:1034900002E000208DF80700042101A8FCF7BFFE20
:1034A00005468DF80850AF480188ADF809108078BE
:1034B0008DF80B0000208DF80C000C216846FCF7FD
:1034C00076FE00E003E00C216846FCF74BFE4FF46B
:1034D0007A70FCF715FE4FF40061974802F0D9F9B5
:1034E0004FF47A70FCF70CFE9F480078F0B34FF46D
:1034F00000719E4802F0B1F9012865D14FF47A704D
:10350000FCF7FEFD4FF400618B4802F0C0F94FF468
:103510007A70FCF7F5FD0A2001F089FE4FF4007186
:10352000924802F09AF9012841D1224684490020AC
:1035300004F0FAFD8C48027893A1002004F0F4FD19
:1035400000208949087086480068009060208DF846
:1035500004008DF8054013208DF806004FF400712B
:10356000824802F07AF9012805D100E02CE0112010
:103570008DF8070002E000208DF80700042101A863
:10358000FCF74DFE05468DF8085076480188ADF8E9
:10359000091080788DF80B0000208DF80C000C21AC
:1035A0006846FCF704FE0C216846FCF7DBFD4FF48F
:1035B0007A70FCF7A5FD4FF400615F4802F069F9ED
:1035C0004FF47A70FCF79CFD75480078E8BB4FF427
:1035D0000061664802F041F9B8BB4FF47A70FCF71D
:1035E0008FFD4FF40061544802F051F94FF47A70A6
:1035F000FCF786FD0A2001F01AFE4FF400615B48DB
:1036000002F02BF9F0BB22464D49002004F08CFD5E
:103610006348027863A1002004F086FD0120604920
:1036200008704F480068009060208DF804008DF805
:10363000054014208DF806004FF400614B4802F05D
:103640000CF9012805D1112000E02DE08DF80700CC
:1036500002E000208DF80700042101A8FCF7DFFD3F
:1036600005468DF808503F480188ADF8091080786C
:103670008DF80B0000208DF80C000C216846FCF73B
:1036800096FD00E003E00C216846FCF76BFD4FF46B
:103690007A70FCF735FD4FF40061274802F0F9F825
:1036A0004FF47A70FCF72CFD3D480078F0B34FF4EE
:1036B00000612E4802F0D1F8012837D14FF47A701A
:1036C000FCF71EFD4FF400611B4802F0E0F84FF4D8
:1036D0007A70FCF715FD0A2001F0A9FD4FF4006196
:1036E000224802F0BAF8012825D1224614490020C8
:1036F00004F01AFD2A48027830A1002004F014FDDD
:1037000000202749087016480068009060208DF856
:1037100004008DF8054014208DF806004FF4006178
:10372000124802F09AF8012854D100E07BE0112001
:103730008DF8070051E069E000080140000C0140ED
:10374000FC1200082A0000206F70656E2D6B6579F1
:1037500031385F666C61673D2025640A0000000017
:10376000F0090008080E00082B000020001401409A
:10377000636C6F73652D6B657931395F666C61675A
:103780003D2025640A0000006F70656E2D6B657921
:1037900031395F666C61673D2025640A00000000D6
:1037A0002C000020636C6F73652D6B657932305F80
:1037B000666C61673D2025640A0000006F70656ECD
:1037C0002D6B657932305F666C61673D2025640A38
:1037D0000000000000208DF80700042101A8FCF77C
:1037E0001EFD05468DF80850FE480188ADF8091009
:1037F00080788DF80B0000208DF80C000C216846B5
:10380000FCF7D5FC0C216846FCF7ACFC4FF47A7051
:10381000FCF776FC4FF40061F34802F03AF84FF4FD
:103820007A70FCF76DFCF1480078E8BB4FF400516A
:10383000EF4802F012F8B8BB4FF47A70FCF760FC66
:103840004FF40061E84802F022F84FF47A70FCF778
:1038500057FC0A2001F0EBFC4FF40051E44801F062
:10386000FCFFE0BB2246E349002004F05DFCDF489A
:103870000278E1A1002004F057FC0120DB49087028
:10388000E3480068009060208DF804008DF8054042
:1038900015208DF806004FF40051D54801F0DDFFEA
:1038A000012805D1112000E02DE08DF8070002E08D
:1038B00000208DF80700042101A8FCF7B0FC0546A4
:1038C0008DF80850C7480188ADF8091080788DF848
:1038D0000B0000208DF80C000C21684600E005E08C
:1038E000FCF765FC0C216846FCF73CFC4FF47A7051
:1038F000FCF706FC4FF40061BB4801F0CAFF4FF42F
:103900007A70FCF7FDFBB9480078E8B34FF400513A
:10391000B74801F0A2FF012865D14FF47A70FCF797
:10392000EFFB4FF40061B04801F0B1FF4FF47A7043
:10393000FCF7E6FB0A2001F07AFC4FF40051AC489A
:1039400001F08BFF012841D12246AA49002004F052
:10395000EBFBA6480278AFA1002004F0E5FB0020B5
:10396000A2490870AA480068009060208DF8040001
:103970008DF8054015208DF806004FF400519C4845
:1039800001F06BFF012800E02DE003D111208DF83C
:10399000070002E000208DF80700042101A8FCF7D1
:1039A0003EFC05468DF808508E480188ADF8091098
:1039B00080788DF80B0000208DF80C000C216846F3
:1039C000FCF7F5FB0C216846FCF7CCFB4FF47A7052
:1039D000FCF796FB4FF40061834801F05AFF4FF467
:1039E0007A70FCF78DFB91480078E8BB4FF40041FA
:1039F0007F4801F032FFB8BB4FF47A70FCF780FBD0
:103A00004FF40061784801F042FF4FF47A70FCF700
:103A100077FB0A2001F00BFC4FF40041744801F0E1
:103A20001CFFE0BB22467349002004F07DFB7F4869
:103A300002787FA1002004F077FB01207B49087009
:103A400073480068009060208DF804008DF80540F0
:103A500016208DF806004FF40041654801F0FDFE88
:103A6000012805D1112000E02DE08DF8070002E0CB
:103A700000208DF80700042101A8FCF7D0FB0546C3
:103A80008DF8085057480188ADF8091080788DF8F6
:103A90000B0000208DF80C000C21684600E005E0CA
:103AA000FCF785FB0C216846FCF75CFB4FF47A7051
:103AB000FCF726FB4FF400614B4801F0EAFE4FF49F
:103AC0007A70FCF71DFB59480078E8B34FF40041C9
:103AD000474801F0C2FE012865D14FF47A70FCF727
:103AE0000FFB4FF40061404801F0D1FE4FF47A70B3
:103AF000FCF706FB0A2001F09AFB4FF400413C481A
:103B000001F0ABFE012841D122463A49002004F0E1
:103B10000BFB464802784CA1002004F005FB002076
:103B2000424908703A480068009060208DF804000F
:103B30008DF8054016208DF806004FF400412C4802
:103B400001F08BFE012800E02DE003D111208DF85B
:103B5000070002E000208DF80700042101A8FCF70F
:103B60005EFB05468DF808501E480188ADF8091027
:103B700080788DF80B0000208DF80C000C21684631
:103B8000FCF715FB0C216846FCF7ECFA4FF47A7051
:103B9000FCF7B6FA4FF40061134801F07AFE4FF4D7
:103BA0007A70FCF7ADFA2E480078C8B980212D480C
:103BB00001F053FEA0B94FF47A70FCF7A1FA4FF46C
:103BC0000061094801F063FE4FF47A70FCF798FA3F
:103BD0000A2001F02CFB8021224801F03EFE43E048
:103BE00091E00000080E0008000801402D000020B0
:103BF00000140140FC120008636C6F73652D6B6547
:103C00007932315F666C61673D2025640A000000EF
:103C1000F00900086F70656E2D6B657932315F6653
:103C20006C61673D2025640A000000002E00002022
:103C3000636C6F73652D6B657932325F666C61679B
:103C40003D2025640A0000006F70656E2D6B65795C
:103C500032325F666C61673D2025640A0000000017
:103C60002F00002000100140E8BB2246FC49002044
:103C700004F05AFAFB480278FBA1002004F054FA41
:103C80000120F8490870FE480068009060208DF817
:103C900004008DF8054017208DF806008021F948B2
:103CA00001F0DBFD012803D111208DF8070002E0AF
:103CB00000208DF80700042101A8FCF7B0FA0546A2
:103CC0008DF80850F0480188ADF8091080788DF81B
:103CD0000B0000208DF80C000C216846FCF767FAF9
:103CE0000C21684600E001E0FCF73CFA4FF47A70E2
:103CF000FCF706FA4FF40061E44801F0CAFD4FF406
:103D00007A70FCF7FDF9D7480078E0B38021DD48F0
:103D100001F0A3FD012863D14FF47A70FCF7F0F9AC
:103D20004FF40061D94801F0B2FD4FF47A70FCF70E
:103D3000E7F90A2001F07BFA8021D24801F08DFDDD
:103D4000012840D12246C649002004F0EDF9C548BB
:103D50000278CFA1002004F0E7F90020C1490870E3
:103D6000C7480068009060208DF804008DF8054079
:103D700017208DF806008021C24801F06EFD012851
:103D800005D1112000E02BE08DF8070002E00020B3
:103D90008DF80700042101A8FCF741FA05468DF8CB
:103DA0000850B9480188ADF8091080788DF80B00EB
:103DB00000208DF80C000C216846FCF7F8F90C2166
:103DC0006846FCF7CFF94FF47A70FCF799F94FF495
:103DD0000061AE4801F05DFD4FF47A70FCF790F998
:103DE000B1480078E8BB4FF40071A64801F035FDFA
:103DF000B8BB4FF47A70FCF783F94FF40061A34825
:103E000001F045FD4FF47A70FCF77AF90A2001F0D1
:103E10000EFA4FF400719B4801F01FFDF0BB2246E3
:103E20008F49002004F080F99F4802789FA100206C
:103E300004F07AF901209C490870914800680090CC
:103E400060208DF804008DF8054018208DF80600DC
:103E50004FF400718B4801F000FD012805D11120BD
:103E600000E02DE08DF8070002E000208DF807004B
:103E7000042101A8FCF7D3F905468DF808508248C3
:103E80000188ADF8091080788DF80B0000208DF8BE
:103E90000C000C216846FCF78AF900E003E00C21D5
:103EA0006846FCF75FF94FF47A70FCF729F94FF494
:103EB0000061764801F0EDFC4FF47A70FCF720F9D0
:103EC00079480078F0B34FF400716E4801F0C5FCFA
:103ED000012865D14FF47A70FCF712F94FF40061B4
:103EE0006A4801F0D4FC4FF47A70FCF709F90A2013
:103EF00001F09DF94FF40071624801F0AEFC012819
:103F000041D122465649002004F00EF96648027855
:103F10006CA1002004F008F900206349087058489B
:103F20000068009060208DF804008DF8054018208E
:103F30008DF806004FF40071524801F08EFC012804
:103F400005D100E02CE011208DF8070002E00020F0
:103F50008DF80700042101A8FCF761F905468DF8EA
:103F6000085049480188ADF8091080788DF80B0099
:103F700000208DF80C000C216846FCF718F90C2184
:103F80006846FCF7EFF84FF47A70FCF7B9F84FF495
:103F900000613E4801F07DFC4FF47A70FCF7B0F808
:103FA00040B070BD00BF002401F004F94FF4A060E0
:103FB00002F0E4F8494801F02EFA00F0C2FA41F6A6
:103FC0001F4140F6B73000F0B2FC002000F09EFC2C
:103FD000022000F01CFF4249022000F0DEFF41F603
:103FE0001F41632000F030FE002000F01CFE3D4920
:103FF000002004F099F839E13B48007801282DD1E0
:104000004FF47A70FCF77CF84FF400611F4801F020
:104010003EFC4FF47A70FCF773F818A1002004F00E
:1040200083F83248027832A1002004F07DF836A1EE
:10403000002004F079F82D4801783748FCF792F811
:10404000FCF7FAF84FF47A70FCF75AF84FF4006175
:104050000E4801F01EFC4FF47A705FE069E000004A
:10406000FC1200082F000020636C6F73652D6B65D8
:104070007932335F666C61673D2025640A00000079
:10408000F009000800100140080E00080008014077
:104090006F70656E2D6B657932335F666C61673D5D
:1040A0002025640A0000000030000020636C6F735C
:1040B000652D6B657932345F666C61673D202564E0
:1040C0000A0000006F70656E2D6B657932345F6693
:1040D0006C61673D2025640A0000000001020008B1
:1040E000DF0F0008FC9200089B00002094000020D5
:1040F0002D6D61696E2D55617274315F5278203D6E
:104100002025640A000000002D2D2D7263762D6499
:10411000617461732D2D2D00B0010020FBF7F0FFBD
:104120000D21534804F02DF80020524908705249DF
:104130000870022000F026FF0546002D4ED0012D0C
:1041400030D14E480068401C4C4908604C4800780B
:10415000A8B941F61F4140F2E73000F0E8FB01202A
:1041600000F0D4FB02204749087001204449087040
:104170000846027844A1002003F0D6FF0BE001209E
:104180004049087000203E4908700846027843A163
:10419000002003F0C9FF3948026845A1002003F060
:1041A000C3FF1BE037480078012809D147A1002050
:1041B00003F0BAFF032033490870012000F0A6FB8A
:1041C00001202F49087046480068401C4449086097
:1041D0000846026843A1002003F0A6FF641C642087
:1041E000B4FBF0F100FB114078B9264800780128B3
:1041F0000BD143A1002003F097FF4548006808B9A0
:10420000012000E00020424908600A20B4FBF0F1E0
:1042100000FB114078B91B48007802280BD13DA162
:10422000002003F081FF3A48006808B9012000E04F
:104230000020374908600A20B4FBF0F100FB114070
:1042400078B91048007803280BD136A1002003F07C
:104250006BFF2F48006808B9012000E000202C49BE
:1042600008600A2000F0E3FFFCF7C9FEC4E6000086
:10427000B0010020940000209B00002010000020CE
:104280001800002031000020316D6F64655F6E6F93
:104290006D616C203D2025640A000000326D6F6462
:1042A000655F6E6F6D616C203D2025640A00000023
:1042B0006B65793253686F72745072657373436FB4
:1042C000756E74203D2025640A0000002D2D2D6B95
:1042D00065795F6D6F6465203D332D2D2D0A0000DB
:1042E000140000206B6579324C6F6E6750726573F5
:1042F00073436F756E74203D2025640A0000000032
:104300002D2D2D74657374312D2D2D0A00000000A4
:10431000948121422D2D2D74657374322D2D2D0A1B
:10432000000000002D2D2D74657374332D2D2D0A82
:1043300000000000704700BFFEE700BFFEE700BFBF
:10434000FEE700BFFEE77047704770477047000008
:104350000CB50020019000906C48006840F480305B
:104360006A49086000BF6948006800F400300090A6
:104370000198401C0190009818B90198B0F5A06F01
:10438000F1D16248006800F4003010B101200090C3
:1043900001E0002000900098012843D15C480068AB
:1043A00040F010005A4908600846006820F00300F9
:1043B00008600846006840F0020008605348406802
:1043C000524948600846406848600846406840F4E2
:1043D000806048600846406820F47C1048600846C9
:1043E000406840F4E81048600846006840F080707B
:1043F000086000BF4548006800F000700028F9D050
:104400004248406820F00300404948600846406840
:1044100040F00200486000BF3C48406800F00C00DB
:104420000828F9D10CBD10B5FFF792FF10BD10B5EB
:104430003648006840F0010034490860084640688A
:10444000344908403149486008460068324908400C
:104450002E4908600846006820F48020086008465D
:10446000406820F4FE0048604FF41F008860FFF7AA
:10447000DAFF4FF000602949086010BD10B5002137
:1044800000200022214B5B6803F00C0121B10429BC
:1044900006D0082928D107E0214B224C236027E0D1
:1044A0001F4B204C236023E0184B5B6803F4701013
:1044B000164B5B6803F48032022303EB904022B971
:1044C000194B4343174C23600DE0104B5B6803F41A
:1044D000003323B1144B4343124C236003E0104BD1
:1044E0004343104C236003E00D4B0E4C236000BF90
:1044F00000BF064B5B68C3F303130C4CE15C094B34
:104500001B68CB40074C236010BD00000010024028
:10451000002002400000FFF8FFFFF6FE08ED00E07B
:1045200000127A003400002000093D00380000200D
:1045300001B502E00098401E009000980028F9D1D3
:1045400008BD08B501217C2001F0B0FB10208DF8DA
:10455000030003208DF802000121FE4801F0BBF9A1
:104560002020ADF800006946FB4801F0E3F8202167
:10457000F94801F08EF94FF40060ADF8000069468B
:10458000F64801F0D7F84FF47A70FFF7D1FF4FF4F7
:104590000061F24801F07DF94FF47A70FFF7C8FF2F
:1045A0000120ADF8000048208DF803006946EC4872
:1045B00001F0C0F80420ADF8000048208DF8030099
:1045C0006946E74801F0B6F80220ADF80000102077
:1045D0008DF8030003208DF802006946E04801F0E1
:1045E000A9F80020DF4908600820ADF8000010207D
:1045F0008DF8030003208DF802006946D84801F0C9
:1046000099F80020D849C1F88C010220ADF80000CB
:1046100010208DF8030003208DF802006946CF4872
:1046200001F088F80020D14908600820ADF80000AA
:1046300010208DF8030003208DF802006946C7485A
:1046400001F078F80020CA49C1F88C012020ADF8AB
:10465000000010208DF8030003208DF80200694649
:10466000BE4801F067F80020C04910310860802082
:10467000ADF8000010208DF8030003208DF8020033
:104680006946B64801F056F80020B949C1F89C01C6
:104690002020ADF8000010208DF8030003208DF8D5
:1046A00002006946AE4801F045F80020AD491031DE
:1046B00008600220ADF8000010208DF803000320F0
:1046C0008DF802006946A44801F034F80020A94999
:1046D000C1F884012020ADF8000010208DF80300FF
:1046E00003208DF802006946A34801F023F800205A
:1046F000A24908600420ADF8000010208DF80300E6
:1047000003208DF8020069469B4801F013F8002051
:104710009B49C1F888014FF48070ADF8000010206B
:104720008DF8030003208DF802006946924801F0DD
:1047300001F8002091490C3108604FF48060ADF819
:10474000000010208DF8030003208DF80200694658
:10475000894800F0EFFF00208949C1F8A8014FF413
:104760008050ADF8000010208DF8030003208DF874
:1047700002006946804800F0DDFF00207F491C31BF
:1047800008604FF48040ADF8000010208DF8030061
:1047900003208DF802006946774800F0CBFF002027
:1047A0007749C1F8B8014FF48060ADF800001020DF
:1047B0008DF8030003208DF802006946664800F07A
:1047C000B9FF00206F4908604FF48050ADF8000039
:1047D00010208DF8030003208DF8020069465E4822
:1047E00000F0A8FF00206349C1F8B0014FF48040F9
:1047F000ADF8000010208DF8030003208DF80200B2
:104800006946554800F096FF00205A49C1F8B801A2
:104810004FF48070ADF8000010208DF803000320E5
:104820008DF802006946584800F084FF002057497F
:10483000C1F8A0014FF48060ADF8000010208DF8A1
:10484000030003208DF8020069464F4800F072FF14
:1048500000204E49C1F8A8014FF48050ADF8000087
:1048600010208DF8030003208DF8020069464648A9
:1048700000F060FF00204549C1F8B0014FF48040CE
:10488000ADF8000010208DF8030003208DF8020021
:1048900069463D4800F04EFF00203C49C1F8B80190
:1048A0004020ADF8000010208DF8030003208DF8A3
:1048B000020069462A4800F03DFF00202A49C1F85D
:1048C00098014FF48070ADF8000010208DF80300BF
:1048D00003208DF802006946214800F02BFF0020DC
:1048E0002149C1F8A0014FF48070ADF800001020FC
:1048F0008DF8030003208DF802006946174800F088
:1049000019FF00201A49C1F8A00108BD10B50446DE
:1049100044B100211E4802F063FB01211C4802F053
:10492000CBF803E000211A4802F0C6F810BD7FB5AD
:1049300005460C460121042001F0C5F9ADF80850E8
:10494000ADF804400020ADF80A00ADF8060001A95A
:104950000F481FE000023000000C01400008014039
:1049600000100140840122420000224284012142C1
:10497000000021420080214200180140940123429E
:1049800000002342A88121420014014000802242FD
:104990000008004001F034FD01221146734802F086
:1049A000A6F81E208DF8000000208DF801000120DF
:1049B0008DF802008DF80300684601F0E4FB012148
:1049C0006A4802F079F80121684802F04FFB7FBD88
:1049D00010B567A1002003F0A7FB0121634802F096
:1049E00034FB00287ED00121604802F03FFB65487F
:1049F000007803284DD16448027864A1002003F0B8
:104A000093FB61480078192835DC5F48007801285D
:104A100002D0022829D113E05B48027861A100206E
:104A200003F082FB012064490860142000F0FFFBC2
:104A300000206249C1F88401142000F0F8FB15E061
:104A40005148027857A1002003F06EFB01205A491B
:104A500008310860142000F0EAFB00205749C1F833
:104A60008C01142000F0E3FB00E000BF00BF012038
:104A7000FFF74CFF08E00020FFF748FF0020424905
:104A8000087001203F4908703F480078401C3E49AB
:104A900008703C48007802285FD14948027849A153
:104AA000002003F041FB4648007819284DDC4448BB
:104AB0000078012802D0022841D120E04048027845
:104AC00048A1002003F030FB01214C4800F0C5FE56
:104AD000044622464AA1002003F026FB74B90120B7
:104AE000354900E040E00860142000F0A0FB002001
:104AF0003249C1F88401142000F099FB20E03048CD
:104B0000027838A1002003F00FFB04213B4800F09D
:104B1000A4FE044622463AA1002003F005FB6CB92E
:104B20000120254908310860142000F080FB002096
:104B30002249C1F88C01142000F079FB00E000BF8D
:104B400000BF0120FFF7E2FE02E000201C490870D0
:104B50001B480078401C1A4908700A480078012850
:104B600002D10020FFF7D2FE10BD00000008004077
:104B700054494D345F49525148616E646C65720A04
:104B80000000000031000020480000206D6F6465C7
:104B9000332D6C6F636B5F6368616E6E656C3D2077
:104BA00025640A006C6F636B5F6368616E6E656C91
:104BB0003D25640A000000008401224200002242D8
:104BC000490000206D6F6465332D6C6F636B5F630C
:104BD00068616E6E656C5F6D6F6465323D20256443
:104BE0000A0000006C6F636B5F6368616E6E656CDA
:104BF0005F6D6F6465323D25640A0000001001405E
:104C00006770696F5F6C6576656C203D2025780A5A
:104C10000000000001B502E00098401E00900098DE
:104C20000028F9D108BD10B5044644B100212A4836
:104C300002F0D6F90121284801F03EFF03E00021EF
:104C4000254801F039FF10BD7FB505460C4601210E
:104C5000022001F038F8ADF80850ADF8044000200B
:104C6000ADF80A00ADF8060001A91B4801F0C8FB29
:104C700001221146184801F03AFF1D208DF800006E
:104C800000208DF8010003208DF8020001208DF82E
:104C90000300684601F077FA01210F4801F00CFF8C
:104CA00001210D4802F0E2F97FBD10B501210A484B
:104CB00002F0CBF970B10121074802F0D7F907489B
:104CC000027807A1002003F02FFA002003490870A2
:104CD000FFF7A9FF10BD0000000400409400002071
:104CE00054494D335F49525148616E646C6572207E
:104CF00055617274315F52783D2025780A000000BA
:104D000010B50121142000F0D1FF0121E04800F08E
:104D1000E2FD10BD10B5044614B10120DD49087054
:104D2000DC480078E8B10421DB4800F096FD20B1B2
:104D30000421DA4800F091FD98B90A2000F077FAD2
:104D40000020D44908700421D34800F086FD08B93A
:104D5000022010BD0421D14800F07FFD78B9042065
:104D6000F7E70421CC4800F078FD012807D10421A1
:104D7000CA4800F072FD012801D1C6490870002020
:104D8000E7E710B5C6480078D0B90421C24800F062
:104D900064FD20B10421C14800F05FFD80B90A2004
:104DA00000F045FA0421BC4800F057FD08B9022084
:104DB00010BD0421B94800F050FD08B90420F7E700
:104DC0000020F5E710B5B6480078F0B10421B248EC
:104DD00000F043FD012805D00421B04800F03DFD5E
:104DE000012812D10A2000F022FA0421AA4800F07A
:104DF00034FD012801D1022010BD0421A74800F094
:104E00002CFD012801D10420F6E70020F4E710B5BD
:104E100086B0044600200590029003900490019013
:104E2000A048005D20BB01209E49085500209E49F6
:104E300041F824009D4941F824009D4908559D49A9
:104E400008559D4941F824009C4951F8240001214E
:104E500000F02CFF9A4830F81400ADF814004820F8
:104E60008DF81700974951F8240005A900F062FC5D
:104E70009548007898BB01209349087001210846A5
:104E800000F021FF5320ADF808000020ADF80A0023
:104E900041F28730ADF80C000020ADF80E0002A9F9
:104EA0004FF0804001F0ACFA0121880702F0CAF807
:104EB00001221146900701F01AFE0121880701F036
:104EC000FBFD1C208DF8040000208DF805008DF8F6
:104ED000060001208DF8070001A801F054F906B082
:104EE00010BD7CB504460020019000906D48005D27
:104EF00001281DD100206B4908556B4941F8240059
:104F00006A4941F824006A4908556A4908556A49BE
:104F100041F824006A4830F81400ADF80400482035
:104F20008DF80700674951F8240001A900F002FC40
:104F300065480078012824D10126002505E059485C
:104F4000405D012800D100266D1C032DF7D3012EF2
:104F500016D100205C490870B00701F07DF90021EE
:104F6000012000F0B0FE1C208DF8000000208DF81C
:104F700001008DF802008DF80300684601F003F986
:104F800000BF7CBD014600204A4A525C22B1494A1A
:104F9000505C0022474B5A547047474A42F8201051
:104FA000704710B50121880702F04FF800286ED035
:104FB0000121880702F05AF8002466E0404A32F8DE
:104FC0001410404A52F8240000F047FC3F49095DA4
:104FD000884227D1354850F82400401C334941F815
:104FE0002400084650F82400012803D900202E4947
:104FF00041F824002D4850F82400C82844D9002046
:105000002A4941F824000220294908552949085510
:10501000294850F8240068B3274850F8241002208B
:10502000884731E0204850F82400401C1E4941F8D0
:105030002400084650F82400012825D91C48005DAA
:10504000C8B91A4850F82400012814D9002041F8A2
:105050002400164941F82400012015490855154936
:105060000855154850F8240020B1134850F8241072
:105070000120884708E000200B4941F824000B4933
:1050800041F824000A490855641C032C96D310BD2E
:10509000000230007E0000200010014000080140A6
:1050A0004C00002074000020C4000020D00000202C
:1050B000770000207A000020DC000020680000203B
:1050C0005C000020500000207D00002062000020D5
:1050D00001B502E00098401E009000980028F9D128
:1050E00008BD10B50121084600F0E0FDFFF708FEFD
:1050F00010BD10B50A2000F09AF804210F4800F006
:10510000ACFB20B90EA1002003F00EF803E013A1C0
:10511000002003F009F80421174800F09EFB20B995
:1051200016A1002003F000F803E01BA1002002F00C
:10513000FBFF042002F023F810BD00000010014026
:10514000322D636C6F73652D45585449325F495257
:105150005148616E646C65720A000000322D6F70F8
:10516000656E2D45585449325F49525148616E640D
:105170006C65720A0000000000080140342D636C69
:105180006F73652D45585449325F49525148616EDD
:10519000646C65720A000000342D6F70656E2D45D9
:1051A000585449325F49525148616E646C65720AC5
:1051B0000000000010B56FF0040001F02EF82E483A
:1051C00000682E49B0FBF1F02D49087008460078C0
:1051D00000EB4001C1EBC0104FF6FF7101EAC000C7
:1051E0002849088010BD0146254A12784A434FF0ED
:1051F000E0235A6100229A611A46126942F00102C4
:105200001A6100BF4FF0E022106900F001021AB1EC
:1052100000F48032002AF5D04FF0E022126922F02B
:1052200001024FF0E0231A6100229A6170470146A3
:10523000144A12884A434FF0E0235A6100229A61CF
:105240001A46126942F001021A6100BF4FF0E022D3
:10525000106900F001021AB100F48032002AF5D082
:105260004FF0E022126922F001024FF0E0231A61B0
:1052700000229A61704700003400002000127A007A
:105280008000002082000020014600BF704770B5FA
:1052900004460D462946204600F0A8FE00BF8021A6
:1052A000204600F011FF0028F9D070BD2DE9F04133
:1052B00007460D461646002405E0295D3846FFF7EF
:1052C000E6FF601CC4B2B442F7DB00BF40213846A1
:1052D00000F0FAFE0028F9D0BDE8F08170B506466E
:1052E0000C46002500BF615D3046FFF7D0FF6D1C06
:1052F000605D0028F7D100BF4021304600F0E4FE99
:105300000028F9D070BD2DE9F04105460C46260A6B
:10531000E7B23146284600F069FE00BF80212846EA
:1053200000F0D2FE0028F9D03946284600F05EFE93
:1053300000BF8021284600F0C7FE0028F9D0BDE854
:10534000F08170B504460D46E1B29F4800F04EFE74
:1053500000BF80219C4800F0B7FE0028F9D020460D
:1053600070BD10B5044600BF2021974800F0ACFE88
:105370000028F9D0944800F03DFE10BD30B587B04C
:1053800004460D46012144F2040000F08FFC4FF466
:105390000070ADF8180003208DF81A0018208DF861
:1053A0001B0006A9894800F0C5F94FF48060ADF8EC
:1053B000180004208DF81B0006A9844800F0BAF9F3
:1053C00025208DF8040003208DF805008DF80600D7
:1053D00001208DF8070001A800F0D5FE02940020FE
:1053E000ADF80C00ADF80E00ADF81000ADF81400EB
:1053F0000C20ADF8120002A9734800F0FEFC012257
:1054000040F22551704800F090FD01216E4800F0F7
:1054100080FD07B030BD10B586B004466C4804600E
:10542000012144F2040000F041FC4FF40070ADF89B
:10543000140003208DF8160018208DF8170005A918
:10544000624800F077F94FF48060ADF81400042052
:105450008DF8170005A95D4800F06CF925208DF83E
:10546000000003208DF801008DF8020001208DF866
:105470000300684600F087FE4FF4165001900020AC
:10548000ADF80800ADF80A00ADF80C00ADF810005A
:105490000C20ADF80E0001A94B4800F0AEFC012233
:1054A00040F22551484800F040FD0121464800F0F7
:1054B00030FD06B010BD70B504460D464448006886
:1054C00020B14348294602682046904770BD10B578
:1054D00040F225513C4800F00DFE002872D040F209
:1054E0002551394800F030FE374800F083FDC4B242
:1054F000224638A1002002F017FE394839490978C0
:105500004454384800780D2802DD002035490870E1
:105510003348007873284DD131484078742849D1F8
:105520002F488078612845D12D48C078722841D114
:105530002C48007804283DDD29482A490978425C36
:105540002848037828A1002002F0EEFD32480078B8
:1055500030B101280AD002280ED0032828D111E04A
:10556000652C02D101202C49087022E06E2C02D15A
:105570000220294908701CE0642C02D1032026492E
:10558000087016E06F2C12D10020FFF74CFB144876
:1055900014490978425C1348037820A1002002F0E6
:1055A000C3FD00201C49087001202849087000E054
:1055B00000BF02E00120FFF736FB0A480078401CDC
:1055C0000849087010BD0000003801400008014083
:1055D0008C0000206368203D20253032780A0000CE
:1055E000B001002094000020312D55617274315FAC
:1055F0004275666665725B55617274315F52785DA3
:10560000203D20253032782C2055617274315F5254
:10561000783D25640A00000097000020332D556175
:105620007274315F4275666665725B556172743182
:105630005F52785D203D20253032782C20556172F4
:1056400074315F52783D25640A0000009B00002001
:105650000648804706480047FEE7FEE7FEE7FEE70C
:10566000FEE7FEE7FEE7FEE7FEE7FEE72F44000861
:10567000ED00000810B50446CC48844208D1012151
:10568000042000F02DFB0021042000F029FB46E05F
:10569000C748844208D10121082000F021FB0021E5
:1056A000082000F01DFB3AE0C248844208D10121E5
:1056B000102000F015FB0021102000F011FB2EE05F
:1056C000BD48844208D10121202000F009FB0021BF
:1056D000202000F005FB22E0B848844208D10121D7
:1056E000402000F0FDFA0021402000F0F9FA16E019
:1056F000B348844208D10121802000F0F1FA002152
:10570000802000F0EDFA0AE0AE48844207D1012182
:10571000801500F0E5FA0021A01500F0E1FA10BDB7
:1057200010B50121084600F0DBFA0021012000F04D
:10573000D7FA10BD2DE9F0410246002500260020D1
:1057400000230024002791F803C00CF00F0591F806
:1057500003C00CF0100CBCF1000F03D091F802C094
:105760004CEA050591F800C0BCF1000F31D0146877
:1057700000202BE04FF0010C0CFA00F3B1F800C050
:105780000CEA03069E4220D183004FF00F0C0CFA66
:1057900003F7BC4305FA03FC4CEA040491F803C088
:1057A000BCF1280F06D14FF0010C0CFA00FCC2F836
:1057B00014C00AE091F803C0BCF1480F05D14FF0C6
:1057C000010C0CFA00FCC2F810C0401C0828D1D310
:1057D0001460B1F800C0BCF1FF0F34DD5468002044
:1057E0002EE000F1080C4FF0010808FA0CF3B1F8B4
:1057F00000C00CEA03069E4221D183004FF00F0C3B
:105800000CFA03F7BC4305FA03FC4CEA040491F8D4
:1058100003C0BCF1280F05D100F1080C08FA0CF800
:10582000C2F8148091F803C0BCF1480F07D100F111
:10583000080C4FF0010808FA0CF8C2F81080401C60
:105840000828CED35460BDE8F0814FF6FF71018087
:10585000022181700421C1707047024600209368C4
:105860000B400BB1012000E0002070470146886822
:1058700080B2704702460020D3680B400BB1012074
:1058800000E0002070470146C86880B2704701619F
:105890007047416170470AB1016100E041617047A2
:1058A000C16070474FF480320A4382618161826136
:1058B00082698269704702460020434B18684FF6A0
:1058C0008073184040EA021008433F4B186070474D
:1058D0003E49C8617047F0B50A4600230024002104
:1058E000002500F00046B6F1004F02D1364EF169B6
:1058F00001E0354E7168C0F3034583B200F44016F1
:10590000B6F5401F08D121F070612F4E766826F061
:1059100070662D4F7E6012E000F48016B6F5801F91
:1059200006D1032606FA05F4A14341F0706106E0B2
:10593000460D360103FA06F6B14341F0706122B11B
:10594000460D360103FA06F6314300F00046B6F183
:10595000004F02D11C4EF16101E01B4E7160F0BDA1
:1059600030B500228B071C0F0F2303FA04F2164BED
:1059700008338C1053F824309343134C08348D10A3
:1059800044F8253023468C1053F824308C07240F1C
:1059900000FA04F423430C4C08348D1044F82530ED
:1059A00030BD0A49DC310860704700000008014042
:1059B000000C01400010014000140140001801409B
:1059C000001C014000200140000001400000204276
:1059D000DF48006840F00100DD4908600846406883
:1059E000DC490840DA49486008460068DA4908405E
:1059F000D74908600846006820F4802008600846FF
:105A0000406820F4FE0048604FF41F008860704733
:105A1000CF49096821F48031CD4A116011460968E7
:105A200021F480211160B0F5803F03D0B0F5802FC4
:105A30000ED106E0C649096841F48031C44A1160BC
:105A400007E0C349096841F4A021C14A116000E0A0
:105A500000BF00BF704710B50146002200230020A0
:105A60004A11012A02D1BA4C236806E0022A02D167
:105A7000B74C236A01E0B64C636A01F01F020124AF
:105A800094401C400CB1012000E0002010BD38B54E
:105A9000002000900024002500BF3120FFF7DBFF2D
:105AA00005460098401C00900098B0F5A06F01D00A
:105AB000002DF2D03120FFF7CEFF08B1012400E025
:105AC0000024204638BD01460020A14A106820F07D
:105AD000F80040EAC10010607047A04908607047B4
