:020000040800F2
:10000000680B0020916C0008E1520008E3520008E0
:10001000E7520008EB520008EF5200080000000011
:10002000000000000000000000000000F352000883
:10003000F552000800000000F7520008F9520008CD
:10004000AB6C0008AB6C0008AB6C0008AB6C000834
:10005000AB6C0008AB6C0008AB6C0008AB6C000824
:10006000AB6C0008AB6C0008AB6C0008AB6C000814
:10007000AB6C0008AB6C0008AB6C0008AB6C000804
:10008000AB6C0008AB6C0008AB6C0008AB6C0008F4
:10009000AB6C0008AB6C0008AB6C0008896700080B
:1000A000AB6C0008AB6C0008AB6C0008AB6C0008D4
:1000B000F3650008E76200086D590008AB6C0008A2
:1000C000AB6C0008AB6C0008AB6C0008AB6C0008B4
:1000D000AB6C00080F6B0008AB6C0008AB6C000841
:1000E000AB6C0008AB6C0008AB6C0008DFF80CD000
:1000F00009F082FD004800470D4F0008680B002002
:1001000001B502E00098401E009000980028F9D147
:1001100008BD0FB430B59BB000241FA80190652125
:1001200002A8019B1E9A09F017FEC5B20EE02046F8
:10013000621CD4B202AA115CF74807F077FA00BF3C
:100140004021F54807F0E0FA0028F9D0642C03DAE2
:10015000AC4201DA002DEADC002001901BB030BC7B
:100160005DF814FB70B504460D46ECA1002009F0C3
:10017000FBFA05E02278EDA1002009F0F5FA641CF5
:10018000281EA5F10101CDB2F4D1EAA109F0ECFAE3
:1001900070BD10B504462146DF4807F047FA00BF9E
:1001A0008021DD4807F0B0FA0028F9D010BD70B505
:1001B00004460D460BE02178D74807F037FA00BF18
:1001C0004021D54807F0A0FA0028F9D0641C281E69
:1001D000A5F10101CDB2EED170BD10B504460BE022
:1001E0002178CD4807F022FA00BF4021CA4807F025
:1001F0008BFA0028F9D0641C20780028F0D110BDBB
:1002000070B504460D462178C34807F00FFA70BD5B
:1002100010B504462146C8A009F08EFD10BD10B5EA
:1002200002460B460020002103E0545C60404C1C59
:10023000A1B29942F9DB10BD0020C3490860C3494F
:10024000C1F88C01C2490860C14908310860C04941
:1002500010310860BE4918310860BB491031086090
:10026000BC490860BC490860BB490C390860BA4900
:100270000C310860B84914310860B7491C31086076
:10028000B54924310860B34924310860B1492C31A3
:100290000860B04934310860B0490860AF4908319E
:1002A0000860AE4910310860AC4918310860A649B1
:1002B00014310860A4491C310860A949C1F8A001A3
:1002C000704710B50120A0490860642006F0CFFAFD
:1002D0000121A44806F0E1FD012803D14FF49670F6
:1002E00006F0C5FA01219F4806F0D7FD012803D189
:1002F0004FF4167006F0BBFA0020934908604FF4E3
:10030000FA7006F0B4FA01209049C1F88C0164201B
:1003100006F0ADFA0421934806F0BFFD012803D191
:100320004FF4967006F0A3FA04218E4806F0B5FD4E
:10033000012803D14FF4167006F099FA0020824983
:10034000083108604FF4FA7006F091FA8648D0F848
:10035000940108B9012000E000207E4910310860B6
:1003600001207F49C1F88401642006F080FA012150
:100370007E4806F092FD012803D14FF4967006F0F6
:1003800076FA0121794806F088FD012803D14FF45F
:10039000167006F06CFA00206D4908604FF4FA7090
:1003A00006F065FA7048D0F8940108B9012000E021
:1003B000002068491031086001206949C1F88C01AA
:1003C000642006F054FA0421684806F066FD01280E
:1003D00003D14FF4967006F04AFA0421634806F000
:1003E0005CFD012803D14FF4167006F040FA00209E
:1003F0005749083108604FF4FA7006F038FA5A4845
:10040000D0F8940108B9012000E0002051491031D2
:10041000086001205249C1F89401642006F027FACF
:100420001021524806F039FD012803D14FF496708F
:1004300006F01DFA10214D4806F02FFD012803D1CA
:100440004FF4167006F013FA00204149103108608D
:100450004FF4FA7006F00BFA4348D0F8940108B94B
:10046000012000E000203B491031086001203C4998
:10047000C1F89C01642006F0FAF940213B4806F0DF
:100480000CFD012803D14FF4967006F0F0F94021DD
:10049000364806F002FD012803D14FF4167006F02D
:1004A000E6F900202A49183108604FF4FA7006F086
:1004B000DEF92D48D0F8940108B9012000E00020B1
:1004C00024491031086001202049C1F894016420BA
:1004D00006F0CDF91021234806F0DFFC012803D1F6
:1004E0004FF4967006F0C3F910211E4806F0D5FCB3
:1004F000012803D14FF4167006F0B9F90020124913
:10050000103108604FF4FA7006F0B1F91648D0F8CF
:10051000940168BB01202DE0003801407274742DF5
:1005200074656D703D3D3D3D3D00000025303278E5
:10053000200000000A000000726563765F64617449
:10054000613D25780D0A000084012242000022420C
:10055000840121428481214294012342A0812242CC
:1005600000002142001001400080214200080140AB
:10057000FFE70020F74908600120F749C1F884012E
:10058000642006F074F90121F44806F086FC012885
:1005900003D14FF4967006F06AF90121EF4806F096
:1005A0007CFC012803D14FF4167006F060F900209E
:1005B000E849103908604FF4FA7006F058F9E64837
:1005C000D0F8940108B9012000E00020E14908605A
:1005D0000120E349C1F89401642006F048F908219C
:1005E000E04806F05AFC012803D14FF4967006F05B
:1005F0003EF90821DB4806F050FC012803D14FF4F6
:10060000167006F034F90020D74908604FF4FA70EC
:1006100006F02DF9D048D0F8940108B9012000E087
:100620000020CC4908600120CD49C1F88801642030
:1006300006F01DF91021CB4806F02FFC012803D14C
:100640004FF4967006F013F91021C64806F025FC09
:10065000012803D14FF4167006F009F90020C249B1
:100660000C3908604FF4FA7006F001F9BA48D0F876
:10067000940108B9012000E00020B649086001207B
:10068000B749C1F8A001642006F0F1F88021B5480F
:1006900006F003FC012803D14FF4967006F0E7F84A
:1006A0008021B04806F0F9FB012803D14FF4167001
:1006B00006F0DDF80020AC490C3108604FF4FA7008
:1006C00006F0D5F8A448D0F8940108B9012000E05C
:1006D0000020A04908600120A149C1F8A8016420B8
:1006E00006F0C5F84FF400719E4806F0D6FB0128CD
:1006F00003D14FF4967006F0BAF84FF400719948A0
:1007000006F0CBFB012803D14FF4167006F0AFF8CA
:1007100000209549143108604FF4FA7006F0A7F8EC
:100720008D48D0F8940108B9012000E000208949E3
:10073000086001208A49C1F8B001642006F097F8EA
:100740004FF40061874806F0A8FB012803D14FF45D
:10075000967006F08CF84FF40061824806F09DFB1D
:10076000012803D14FF4167006F081F800207E496D
:100770001C3108604FF4FA7006F079F87648D0F82A
:10078000940108B9012000E00020724908600120AE
:100790007349C1F8B801642006F069F84FF40051BC
:1007A000704806F07AFB012803D14FF4967006F0EA
:1007B0005EF84FF400516B4806F06FFB012803D13F
:1007C0004FF4167006F053F8002067492431086092
:1007D0004FF4FA7006F04BF85F48D0F8940108B96E
:1007E000012000E000205B49086001205A49C1F85F
:1007F000A801642006F03BF84FF40041594806F088
:100800004CFB012803D14FF4967006F030F84FF4FA
:100810000041544806F041FB012803D14FF4167003
:1008200006F025F800204B49143108604FF4FA70A7
:1008300006F01DF84848D0F8940108B9012000E0FE
:1008400000204449086001204349C1F8B0016420F8
:1008500006F00DF84FF40061404806F01EFB012839
:1008600003D14FF4967006F002F84FF400613B4854
:1008700006F013FB012803D14FF4167005F0F7FFC3
:10088000002034491C3108604FF4FA7005F0EFFF86
:100890003148D0F8940108B9012000E000202D492A
:1008A000086001202C49C1F8B801642005F0DFFF81
:1008B0004FF40051294806F0F0FA012803D14FF413
:1008C000967005F0D4FF4FF40051244806F0E5FA85
:1008D000012803D14FF4167005F0C9FF00201D490F
:1008E000243108604FF4FA7005F0C1FF1A48D0F8BF
:1008F000940108B9012000E0002016490860012099
:100900001A49C1F8A001642005F0B1FF4FF400417D
:10091000124806F0C2FA012803D14FF4967005F090
:10092000A6FF4FF400410D4806F0B7FA012803D1A5
:100930004FF4167005F09BFF00200D4908604FF43E
:10094000FA7005F094FF0448D0F8940190B90120A2
:1009500011E000009481214200802142000C0140FE
:1009600000002342001801409401234200802242EB
:10097000A08122420020FE4908600120FD49C1F803
:10098000A801642005F073FF4FF40071FA4806F0E7
:1009900084FA012803D14FF4967005F068FF4FF4F4
:1009A0000071F54806F079FA012803D14FF416706A
:1009B00005F05DFF0020F14908604FF4FA7005F082
:1009C00056FFEF48D0F8940108B9012000E000205C
:1009D000E74908600120E749C1F8B001642005F04B
:1009E00046FF4FF40061E44806F057FA012803D1AE
:1009F0004FF4967005F03BFF4FF40061DE4806F0BF
:100A00004CFA012803D14FF4167005F030FF002096
:100A1000DA49083108604FF4FA7005F028FFD84829
:100A2000D0F8940108B9012000E00020D049086006
:100A30000120D049C1F8B801642005F018FF4FF437
:100A40000051CD4806F029FA012803D14FF49670E1
:100A500005F00DFF4FF40051C74806F01EFA0128BB
:100A600003D14FF4167005F002FF0020C349103186
:100A700008604FF4FA7005F0FAFEC148D0F894010E
:100A800008B9012000E00020B94908600120BD49F3
:100A9000C1F89801642005F0EAFE4FF40041B64821
:100AA00006F0FBF9012803D14FF4967005F0DFFE44
:100AB0004FF40041B04806F0F0F9012803D14FF49B
:100AC000167005F0D4FE0020AF4908604FF4FA70AC
:100AD00005F0CDFEAA48D0F8940108B9012000E045
:100AE0000020A34908600120A649C1F8A0016420A4
:100AF00005F0BDFE8021A54806F0CFF9012803D1FD
:100B00004FF4967005F0B3FE8021A04806F0C5F9B9
:100B1000012803D14FF4167005F0A9FE00209A4970
:100B2000083108604FF4FA7005F0A1FE9448D0F83F
:100B3000940108B9012000E000208D4908600120DF
:100B40009349C1F8A001642005F091FE4FF40071B3
:100B50008E4806F0A2F9012803D14FF4967005F0F3
:100B600086FE4FF40071894806F097F9012803D1F9
:100B70004FF4167005F07BFE002086490860FFF7F1
:100B80005BFB10BD2DE9F04FADF5017D4FF4807199
:100B900041A808F016FE4FF4807101A808F011FE7C
:100BA0004FF000097C4802787CA1002008F0DCFDB1
:100BB00079480078083800F0FF094A467DA10020F6
:100BC00008F0D2FD4A46804901A808F0E1FD4FF443
:100BD00080616E4806F061F983464FF400616B480E
:100BE00006F05BF94BEA400B4FF48051674806F082
:100BF00054F94BEA800B01215F4806F04EF94BEAAD
:100C0000C00B10215C4806F048F94BEA001B082194
:100C1000594806F042F94BEA401B0421564806F0B9
:100C20003CF94BEA801B0221534806F036F94BEAA7
:100C3000C01000F0FF0A9DF80500504541F06C819E
:100C4000B9F1050F7ED19DF80400604908709DF848
:100C5000050048709DF8060088709DF80700C87070
:100C60009DF808000871042101A8FFF7D8FA05468D
:100C70002A4657A1002008F077FD54480079A84281
:100C800070D15248007880286DD08A286CD14F48A6
:100C9000C078112869D14D488078192866D2DFE8DC
:100CA00000F0650D41C1F9F7F6F5F4F3F2F1F0EF5C
:100CB000EEEDECEBEAE9E8E7E6E5E4000120324995
:100CC00014390860642005F0D2FD01212F4806F098
:100CD000E4F8012807D142A1002008F045FD4FF4B7
:100CE000967005F0C4FD0121284806F0D6F80128C9
:100CF00007D13FA1002008F037FD4FF4167005F032
:100D0000B6FD002020491439086001211F4806F073
:100D1000C4F804462D488278234639A1002008F003
:100D200023FDE9E3012018490C390860642005F02F
:100D30009EFD0421154806F0B0F8012805D14FF4B6
:100D4000967000E0F7E305F092FD04210F4806F0ED
:100D5000A4F8012803D14FF4167005F088FD002097
:100D6000094957E0E8E3E8E3E8E3E8E3C3E3000028
:100D7000948121420080224200140140A881224235
:100D800000802142000022429801224200100140CE
:100D900000002142A0012142940000202D706172C8
:100DA00073652D55617274315F5278203D20256442
:100DB0000A0000002D55617274315F52785F542033
:100DC0003D2025640A000000B4010020000000203E
:100DD0006263635F74656D70203D2025780A0000B2
:100DE0002D2D2D2D313131312D2D2D2D2D0A0000A0
:100DF0002D2D2D2D323232322D2D2D2D2D0A00008C
:100E000025643A6770696F5F6C6576656C203D207C
:100E100025780A000C3908600421FE4806F03DF8E8
:100E2000044669E30120FC490860642005F01FFDC9
:100E30000121FA4806F031F8012803D14FF49670E9
:100E400005F015FD0121F54806F027F8012803D12A
:100E50004FF4167005F00BFD0020EF4908600121EA
:100E6000EE4806F01AF8044646E31EE3F8E2D1E243
:100E7000A8E27FE256E22FE206E2DFE1A4E17BE1B5
:100E800052E129E103E1DDE0B9E095E071E04BE0FA
:100E900025E0FFE70120E04908310860642005F003
:100EA000E6FC0421DD4805F0F8FF012803D14FF4EA
:100EB000967005F0DCFC0421D84805F0EEFF01280F
:100EC00003D14FF4167005F0D2FC0020D24908314E
:100ED00008600421D14805F0E0FF04460CE301203E
:100EE000CD4910310860642005F0C1FC1021CB48C9
:100EF00005F0D3FF012803D14FF4967005F0B7FC3D
:100F00001021C64805F0C9FF012803D14FF416701F
:100F100005F0ADFC0020C049103108601021BF4829
:100F200005F0BBFF0446E7E20120BB491831086029
:100F3000642005F09CFC4021B84805F0AEFF012874
:100F400003D14FF4967005F092FC4021B34805F0B0
:100F5000A4FF012803D14FF4167005F088FC00208F
:100F6000AD49183108604021AC4805F096FF0446B1
:100F7000C2E20120AA490860642005F078FC102133
:100F8000A44805F08AFF012803D14FF4967005F0BC
:100F90006EFC10219F4805F080FF012803D14FF41B
:100FA000167005F064FC00209D49086010219948E6
:100FB00005F073FF04469FE201209A49086064200F
:100FC00005F055FC0121984805F067FF012803D181
:100FD0004FF4967005F04BFC0121934805F05DFF3E
:100FE000012803D14FF4167005F041FC00208D4913
:100FF00008600421874805F050FF04467CE2012088
:101000008A490860642005F032FC0821884805F010
:1010100044FF012803D14FF4967005F028FC082105
:10102000834805F03AFF012803D14FF4167005F00C
:101030001EFC00207D49086008217D4805F02DFF39
:10104000044659E2012079490C390860642005F012
:101050000EFC1021764805F020FF012803D14FF443
:10106000967005F004FC1021714805F016FF012868
:1010700003D14FF4167005F0FAFB00206B490C39D0
:10108000086010216A4805F008FF044634E2012098
:1010900066490C310860642005F0E9FB8021644852
:1010A00005F0FBFE012803D14FF4967005F0DFFB3D
:1010B00080215F4805F0F1FE012803D14FF416703E
:1010C00005F0D5FB002059490C31086080215848B3
:1010D00005F0E3FE04460FE2012054491431086094
:1010E000642005F0C4FB4FF40071514805F0D5FEB3
:1010F000012803D14FF4967005F0B9FB4FF400714D
:101100004B4805F0CAFE012803D14FF4167005F0D4
:10111000AEFB00204549143108604FF4007144488B
:1011200005F0BBFE0446E7E1012040491C310860A0
:10113000642005F09CFB4FF400613D4805F0ADFED6
:10114000012803D14FF4967005F091FB4FF4006134
:10115000374805F0A2FE012803D14FF4167005F0C0
:1011600086FB002031491C3108604FF40061304893
:1011700005F093FE0446BFE101202C4924310860AC
:10118000642005F074FB4FF40051294805F085FEFA
:10119000012803D14FF4967005F069FB4FF400511C
:1011A000234805F07AFE012803D14FF4167005F0AC
:1011B0005EFB00201D49243108604FF400511C489B
:1011C00005F06BFE044697E10120164924310860C2
:1011D000642005F04CFB4FF40041154805F05DFE1E
:1011E000012803D14FF4967005F041FB4FF4004104
:1011F0000F4805F052FE012803D14FF4167005F098
:1012000036FB00200749243108604FF400410848AC
:1012100010E000000010014084012142000801405C
:101220009401224284812142000C01409401234216
:101230000018014005F031FE04465DE10120FE4941
:101240000860642005F013FB4FF40061FB4805F0D3
:1012500024FE012803D14FF4967005F008FB4FF4EB
:101260000061F64805F019FE012803D14FF416700D
:1012700005F0FDFA0020F04908604FF40061EF48E6
:1012800005F00BFE044637E10120EB490831086008
:10129000642005F0ECFA4FF40051E84805F0FDFD3C
:1012A000012803D14FF4967005F0E1FA4FF4005194
:1012B000E24805F0F2FD012803D14FF4167005F065
:1012C000D6FA0020DC49083108604FF40051DB48B1
:1012D00005F0E3FD04460FE10120D94908606420D0
:1012E00005F0C5FA4FF40041D44805F0D6FD0128B9
:1012F00003D14FF4967005F0BAFA4FF40041CF488D
:1013000005F0CBFD012803D14FF4167005F0AFFABC
:101310000020CB4908604FF40041C84805F0BDFDEE
:101320000446E9E00120C64908310860642005F060
:101330009EFA4FF40071C34805F0AFFD012803D1B8
:101340004FF4967005F093FA4FF40071BD4805F024
:10135000A4FD012803D14FF4167005F088FA00208F
:10136000B749083108604FF40071B64805F095FDA3
:101370000446C1E00120B24910310860642005F044
:1013800076FA4FF40061AF4805F087FD012803D1DC
:101390004FF4967005F06BFA4FF40061A94805F020
:1013A0007CFD012803D14FF4167005F060FA00208F
:1013B000A349103108604FF40061A24805F06DFDAB
:1013C000044699E001209E4918310860642005F028
:1013D0004EFA4FF400519B4805F05FFD012803D100
:1013E0004FF4967005F043FA4FF40051954805F01C
:1013F00054FD012803D14FF4167005F038FA00208F
:101400008F49183108604FF400518E4805F045FDB2
:10141000044671E001208C490860642005F027FA39
:101420004FF40041874805F038FD012803D14FF4FF
:10143000967005F01CFA4FF40041824805F02DFD2E
:10144000012803D14FF4167005F011FA00207E49EF
:1014500008604FF400417B4805F01FFD04464BE057
:101460000120794908310860642005F000FA8021E4
:10147000764805F012FD012803D14FF4967005F06F
:10148000F6F98021714805F008FD012803D14FF4D9
:10149000167005F0ECF900206B49083108608021D6
:1014A0006A4805F0FAFC044626E001206849086015
:1014B000642005F0DCF94FF40071644805F0EDFCA0
:1014C000012803D14FF4967005F0D1F94FF4007163
:1014D0005E4805F0E2FC012803D14FF4167005F0D8
:1014E000C6F900205A4908604FF40071574805F0CA
:1014F000D4FC044600E000BF00BFFEF79DFE554847
:101500008278234654A1002008F02EF959A00068E3
:101510004190504800788DF808014E4840788DF889
:1015200009014C4880788DF80A01012C08D111205E
:101530008DF80B0107E066E25EE22BE053E222E069
:1015400000208DF80B01042142A8FEF768FE054635
:101550008DF80C5149A00188ADF80D1180788DF8F7
:101560000F0100208DF810010C2141A8FEF71FFE8D
:101570000C2141A8FEF7F6FD3648027840A1002074
:1015800008F0F2F805E03348027843A1002008F0A3
:10159000EBF829E22F48C07833284AD12D488078CB
:1015A000002847D10121294805F077FC8346042112
:1015B000264805F072FC4BEA400B01213D4805F03E
:1015C0006CFC4BEA800B04213A4805F066FC4BEAC0
:1015D000C00B1021374805F060FC4BEA001B40218E
:1015E000344805F05AFC4BEA401B1021174805F01F
:1015F00054FC4BEA801B0121104805F04EFC4BEADD
:10160000C010C6B208212C4805F047FC83461021C3
:10161000294805F042FC4BEA400B8021264805F0A2
:101620003CFC4BEA800B4FF40071234805F035FC7D
:1016300044E0D0E1DCE00000B0812142000C014038
:10164000A081224200140140980122420010014072
:10165000A0012142000000206C6F636B203D20251B
:10166000643A6770696F5F6C6576656C203D202514
:10167000780A00007374617200000000656E6400F7
:101680006F6B2C6D5F646174612E6F70636F646546
:101690003D253032780A00006572726F722D322C4F
:1016A0006D5F646174612E6F70636F64653D25309A
:1016B00032780A0000080140001801404BEAC00BD4
:1016C0004FF40061FE4805F0E8FB4BEA001B4FF4C5
:1016D0000051FB4805F0E1FB4BEA401B4FF4004191
:1016E000F74805F0DAFB4BEA801B4FF40061F54840
:1016F00005F0D3FB4BEAC010C7B24FF40051F148DC
:1017000005F0CBFB83464FF40041EE4805F0C5FBE6
:101710004BEA400B4FF40071EB4805F0BEFB4BEA7F
:10172000800B4FF40061E84805F0B7FB4BEAC00BB3
:101730004FF40051E44805F0B0FB4BEA001B4FF4B6
:101740000041E14805F0A9FB4BEA401B8021DF483E
:1017500005F0A3FB4BEA801B4FF40071DB4805F05A
:101760009CFB4BEAC01000F0FF083246D8A10020D5
:1017700007F0FAFF3A46DBA1002007F0F5FF4246EA
:10178000DDA1002007F0F0FFAFF2181000684190D3
:10179000DE4800788DF80801DC4840788DF80901B2
:1017A0008DF80A618DF80B718DF80C81052142A826
:1017B000FEF735FD05468DF80D51AFF2401001885A
:1017C000ADF80E1180788DF8100100208DF8100111
:1017D0000C2141A8FEF7EBFC0C2141A8FEF7C2FC4E
:1017E000CA480278AFF26811002007F0BDFFF9E0A7
:1017F000C6488078192873D2DFE800F0AA0D1319C3
:101800001F252B31373D43494F565D646B737A81F9
:10181000888F969DA3000121AC4805F03EFB04464D
:1018200097E00421A94805F038FB044691E0012126
:10183000B74805F032FB04468BE00421B44805F0BC
:101840002CFB044685E01021B14805F026FB044638
:101850007FE04021AE4805F020FB044600BF102188
:101860009A4805F01AFB044673E00121954805F0FB
:1018700014FB04466DE00821914805F00EFB044678
:1018800067E010218E4805F008FB044661E08021E6
:101890008B4805F002FB04465BE04FF4007188487A
:1018A00005F0FBFA044654E04FF40061844805F06B
:1018B000F4FA04464DE04FF40051814805F0EDFA8A
:1018C000044646E04FF400417D4805F0E6FA044640
:1018D00000BF4FF400617B4805F0DFFA044638E0B2
:1018E00036E04FF40051774805F0D7FA044630E06F
:1018F0004FF40041734805F0D0FA044629E04FF454
:101900000071714805F0C9FA044622E04FF4006105
:101910006D4805F0C2FA04461BE04FF400516A48D6
:1019200005F0BBFA044614E04FF40041664805F0A8
:10193000B4FA04460DE08021644805F0AEFA04468E
:1019400007E04FF40071614805F0A7FA044600E093
:1019500000BF00BF6D48827823466EA1002007F0CB
:1019600003FFAFF2F02000684190684800788DF8DE
:101970000801664840788DF80901644880788DF840
:101980000A01012C03D111208DF80B0102E0002087
:101990008DF80B01042142A8FEF741FC05468DF8A5
:1019A0000C51AFF228300188ADF80D1180788DF818
:1019B0000F0100208DF810010C2141A8FEF7F7FB64
:1019C0000C2141A8FEF7CEFB5048027857A1002019
:1019D00007F0CAFE06E04D480278AFF2443100201D
:1019E00007F0C2FE00E000BF00BF4848027956A1E0
:1019F000002007F0B9FE8FE24448027957A1002089
:101A000007F0B2FE88E2B9F1030FF4D19DF80400AB
:101A10003E4908709DF8050048709DF80600087161
:101A2000022101A8FEF7FBFB05462A46AFF66041FE
:101A3000002007F099FE35480079A84239D1334893
:101A40000078912836D006DC702834D0712833D045
:101A5000902832D104E0922830D09328F9D132E294
:101A60002A480278AFF2E831002007F07DFEFEF749
:101A700028FC0121154805F010FA8346042113487B
:101A800005F00BFA4BEA400B0121214805F005FA5D
:101A90004BEA800B04211E4805F0FFF94BEAC00B0E
:101AA00010211B4805F0F9F94BEA001B40211848AA
:101AB00062E02AE218E10EE215E21CE2FBE100001E
:101AC00000180140000C01400014014000100140CA
:101AD0006772705F6C6576656C5F31203D2025789C
:101AE0000A0000006772705F6C6576656C5F32207B
:101AF0003D2025780A0000006772705F6C6576658E
:101B00006C5F33203D2025780A0000000000002093
:101B1000000801402D2D25643A6770696F5F6C6580
:101B200076656C203D2025780A0000002D2D6F6B16
:101B30002C6D5F646174612E6F70636F64653D2509
:101B40003032780A000000006D5F646174612E62BB
:101B50006363203D2025780A000000006572726FE3
:101B6000722D312D6D5F646174612E626363203D5F
:101B70002025780A0000000005F08FF94BEA401B91
:101B80001021FE4805F089F94BEA801B0121FC4831
:101B900005F083F94BEAC010C6B20821F94805F0F8
:101BA0007CF983461021F74805F077F94BEA400BA2
:101BB0008021F44805F071F94BEA800B4FF4007175
:101BC000F04805F06AF94BEAC00B4FF40061ED48AC
:101BD00005F063F94BEA001B4FF40051E94805F0AA
:101BE0005CF94BEA401B4FF40041E64805F055F91B
:101BF0004BEA801B4FF40061E14805F04EF94BEAD7
:101C0000C010C7B24FF40051DD4805F046F98346D5
:101C10004FF40041DA4805F040F94BEA400B4FF42D
:101C20000071D94805F039F94BEA800B4FF4006197
:101C3000D54805F032F94BEAC00B4FF40051D248B9
:101C400005F02BF94BEA001B4FF40041CE4805F09C
:101C500024F94BEA401B8021C84805F01EF94BEAE5
:101C6000801B4FF40071C54805F017F94BEAC0100E
:101C700000F0FF083246AFF2A811002007F074FD13
:101C80003A46AFF2A011002007F06EFD4246AFF2D7
:101C90009811002007F068FDAFF2286000684190BD
:101CA00080208DF80801B94840788DF809018DF839
:101CB0000A618DF80B718DF80C81052142A8FEF7A1
:101CC000AEFA05468DF80D51AFF250600188ADF8BF
:101CD0000E1180788DF8100100208DF810010C2174
:101CE00041A8FEF764FA07E1A8480278AFF27061F4
:101CF000002007F039FDA5480278AFF27C61002092
:101D000007F032FDFEF7DDFA01219C4805F0C5F829
:101D100083460421994805F0C0F84BEA400B0121A5
:101D20009B4805F0BAF84BEA800B0421984805F06F
:101D3000B4F84BEAC00B1021954805F0AEF84BEA19
:101D4000001B4021924805F0A8F84BEA401B1021E7
:101D50008A4805F0A2F84BEA801B0121884805F06B
:101D60009CF84BEAC010C6B20821864805F095F8E9
:101D700083461021834805F090F84BEA400B802100
:101D8000804805F08AF84BEA800B4FF400717D48DB
:101D900005F083F84BEAC00B4FF40061794805F079
:101DA0007CF84BEA001B4FF40051764805F075F8BB
:101DB0004BEA401B4FF40041724805F06EF84BEAC5
:101DC000801B4FF400616E4805F067F84BEAC010C5
:101DD000C7B24FF400516A4805F05FF883464FF4EC
:101DE0000041674805F059F84BEA400B4FF4007189
:101DF000654805F052F84BEA800B4FF400616248E9
:101E000005F04BF84BEAC00B4FF400515E4805F06B
:101E100044F84BEA001B4FF400415B4805F03DF8E5
:101E20004BEA401B8021554805F037F84BEA801BF0
:101E30004FF40071514805F030F84BEAC01000F043
:101E4000FF083246AFF27831002007F08DFC3A46A9
:101E5000AFF27031002007F087FC4246AFF26831E4
:101E6000002007F081FCAFF2F47000684190802000
:101E70008DF80801454840788DF809018DF80A6110
:101E80008DF80B718DF80C81052142A8FEF7C7F97A
:101E900005468DF80D51AFF61C000188ADF80E1106
:101EA00080788DF8100100208DF810010C2141A8D8
:101EB000FEF77DF920E035480278AFF63C010020BE
:101EC00007F052FC18E031480278AFF64C010020D0
:101ED00007F04AFC10E02D480278AFF65C010020C4
:101EE00007F042FC08E029480278AFF66C010020B8
:101EF00007F03AFC00E000BF00BF24480279AFF2CF
:101F0000B831002007F030FC06E020480279AFF23B
:101F1000B431002007F028FC0DF5017DBDE8F08FFD
:101F2000012805D11B490968491C1A4A116006E0BD
:101F3000022804D118490968491C174A11607047E2
:101F400070B5C0B04FF48071684607F03AFC4FF4AA
:101F500080610A4804F0A1FF06464FF4006107487B
:101F600004F09BFF46EA40064FF48051034804F01A
:101F700094FF46EA8006012103480FE0001001406B
:101F8000000C014000180140001401400000002036
:101F900000080140080000200C00002004F07DFF34
:101FA00046EAC0061021FA4804F077FF46EA001618
:101FB0000821F74804F071FF46EA40160421F4486E
:101FC00004F06BFF46EA80160221F14804F065FF39
:101FD00046EAC010C4B2EF480078002868D1012159
:101FE000ED4804F05AFF002862D14FF47A70FEF7F2
:101FF00087F84FF40061E94804F069FF4FF47A7004
:10200000FEF77EF80A2004F032FC0121E24804F0D9
:1020100044FF00283FD12246E1A107F0A5FBDD489F
:102020000278E4A1002007F09FFB0120D949087045
:10203000AFF6C0100068009060208DF804008DF8A5
:10204000054001208DF806000121D34804F025FF4A
:10205000012803D111208DF8070002E000208DF83F
:102060000700042101A8FEF7DAF805468DF80850AC
:10207000AFF6F8100188ADF8091080788DF80B00E4
:1020800000208DF80C000C216846FEF790F80C211A
:102090006846FEF767F84FF47A70FEF731F84FF4B0
:1020A0000061BE4804F015FF4FF47A70FEF728F87F
:1020B000B8480078002869D00121B74804F0EDFE47
:1020C000012863D14FF47A70FEF71AF84FF40061DB
:1020D000B24804F0FCFE4FF47A70FEF711F80A20C3
:1020E00004F0C5FB0121AC4804F0D7FE012840D123
:1020F0002246ABA1002007F037FBA6480278B3A127
:10210000002007F031FB0020A2490870AFF69C20A8
:102110000068009060208DF804008DF805400120D3
:102120008DF8060001219C4804F0B7FE012803D178
:1021300011208DF8070002E000208DF8070004212F
:1021400001A8FEF76CF805468DF80850AFF6D420CC
:102150000188ADF8091080788DF80B0000208DF80B
:102160000C000C216846FEF722F80C216846FDF7AA
:10217000F9FF4FF47A70FDF7C3FF4FF40061874811
:1021800004F0A7FE4FF47A70FDF7BAFF9448007888
:10219000002868D10421804804F07FFE002862D125
:1021A0004FF47A70FDF7ACFF4FF400617B4804F008
:1021B0008EFE4FF47A70FDF7A3FF0A2004F057FB60
:1021C0000421754804F069FE00283FD1224674A11D
:1021D00007F0CAFA8248027882A1002007F0C4FA08
:1021E00001207F490870AFF67430006800906020CD
:1021F0008DF804008DF8054002208DF806000421BA
:10220000654804F04AFE012803D111208DF807002B
:1022100002E000208DF80700042101A8FDF7FFFF70
:1022200005468DF80850AFF6AC300188ADF80910BE
:1022300080788DF80B0000208DF80C000C2168468A
:10224000FDF7B5FF0C216846FDF78CFF4FF47A705F
:10225000FDF756FF4FF40061504804F03AFE4FF48A
:102260007A70FDF74DFF5E480078002869D00421A0
:10227000494804F012FE012863D14FF47A70FDF74B
:102280003FFF4FF40061454804F021FE4FF47A709F
:10229000FDF736FF0A2004F0EAFA04213E4804F074
:1022A000FCFD012840D122463DA1002007F05CFA48
:1022B0004B48027851A1002007F056FA0020484907
:1022C0000870AFF650400068009060208DF8040060
:1022D0008DF8054002208DF8060004212E4804F0F8
:1022E000DCFD012803D111208DF8070002E0002059
:1022F0008DF80700042101A8FDF791FF05468DF830
:102300000850AFF688400188ADF8091080788DF844
:102310000B0000208DF80C000C216846FDF747FFEC
:102320000C216846FDF71EFF4FF47A70FDF7E8FEBA
:102330004FF40061194804F0CCFD4FF47A70FDF7BA
:10234000DFFE3348007800287ED10121134804F0D5
:10235000A4FD002878D14FF47A70FDF7D1FE4FF438
:1023600000610E4804F0B3FD4FF47A70FDF7C8FE2B
:102370000A2004F07CFA0121084804F08EFD0028B0
:102380007ED1224606A107F0EFF92148027841E00C
:102390000014014019000020001001400008014015
:1023A000626F6172645F61646472203D2025303227
:1023B000780A0000636C6F73652D6B6579315F6619
:1023C0006C61673D2025640A000000006F70656E37
:1023D0002D6B6579315F666C61673D2025640A006D
:1023E0001A000020636C6F73652D6B6579325F6630
:1023F0006C61673D2025640A000000006F70656E07
:102400002D6B6579325F666C61673D2025640A003B
:102410001B000020FAA1002007F0A6F90120FE49C8
:102420000870AFF6B0500068009060208DF804008E
:102430008DF8054003208DF806000121F74804F0CF
:102440002CFD012805D100E02FE011208DF80700B8
:1024500002E000208DF80700042101A8FDF7DFFE4F
:1024600005468DF80850AFF6EC500188ADF809101C
:1024700080788DF80B0000208DF80C000C2100E016
:1024800006E06846FDF793FE0C216846FDF76AFEFC
:102490004FF47A70FDF734FE4FF40061DF4804F02A
:1024A00018FD4FF47A70FDF72BFEDB48007800280A
:1024B0006AD00121D94804F0F0FC012864D14FF41E
:1024C0007A70FDF71DFE4FF40061D44804F0FFFC64
:1024D0004FF47A70FDF714FE0A2004F0C8F90121C8
:1024E000CE4804F0DAFC012841D12246AFF2501167
:1024F000002007F039F9C8480278C9A1002007F088
:1025000033F90020C4490870AFF698600068009065
:1025100060208DF804008DF8054003208DF806003A
:102520000121BE4804F0B9FC012803D111208DF827
:10253000070002E000208DF80700042101A8FDF744
:102540006EFE05468DF80850AFF6D0600188ADF8F4
:10255000091080788DF80B0000208DF80C000C21FC
:102560006846FDF724FE0C216846FDF7FBFD4FF49D
:102570007A70FDF7C5FD4FF40061A84804F0A9FC8E
:102580004FF47A70FDF7BCFDAA480078002869D1A5
:102590000421A24804F081FC002863D14FF47A7032
:1025A000FDF7AEFD4FF400619C4804F090FC4FF441
:1025B0007A70FDF7A5FD0A2004F059F90421974827
:1025C00004F06BFC002840D12246AFF22C2107F02A
:1025D000CBF89848027898A1002007F0C5F80120B0
:1025E00094490870AFF674700068009060208DF810
:1025F00004008DF8054004208DF80600042187486A
:1026000004F04BFC012803D111208DF8070002E0F3
:1026100000208DF80700042101A8FDF700FE054603
:102620008DF80850AFF6AC700188ADF809108078CD
:102630008DF80B0000208DF80C000C216846FDF78A
:10264000B6FD0C216846FDF78DFD4FF47A70FDF75D
:1026500057FD4FF40061714804F03BFC4FF47A7071
:10266000FDF74EFD73480078002869D004216B48BF
:1026700004F013FC012863D14FF47A70FDF740FD9C
:102680004FF40061654804F022FC4FF47A70FDF7C6
:1026900037FD0A2004F0EBF80421604804F0FDFB4C
:1026A000012840D12246AFF20831002007F05CF843
:1026B0006048027866A1002007F056F800205D49C6
:1026C000087068480068009060208DF804008DF85C
:1026D000054004208DF806000421504804F0DDFB7D
:1026E000012803D111208DF8070002E000208DF8A9
:1026F0000700042101A8FDF792FD05468DF808505A
:10270000584808300188ADF8091080788DF80B0022
:1027100000208DF80C000C216846FDF748FD0C21C7
:102720006846FDF71FFD4FF47A70FDF7E9FC4FF4A2
:1027300000613A4804F0CDFB4FF47A70FDF7E0FCFD
:102740004948007800285AD11021344804F0A5FBEC
:10275000002854D14FF47A70FDF7D2FC4FF4006199
:102760002E4804F0B4FB4FF47A70FDF7C9FC0A2040
:1027700004F07DF81021294804F08FFBF0BB2246BD
:10278000AFF2E431002006F0EFFF3748027837A1BE
:10279000002006F0E9FF0120334908703148006845
:1027A000009060208DF804008DF8054005208DF81C
:1027B00006001021194804F070FB012803D11120F4
:1027C0008DF8070002E000208DF80700042101A821
:1027D000FDF725FD05468DF8085022480830018890
:1027E000ADF8091080788DF80B0000208DF80C00F2
:1027F0000C216846FDF7DBFC0C2143E045E051E08D
:10280000636C6F73652D6B6579335F666C61673DD3
:102810002025640A000000001B0000200008014081
:102820006F70656E2D6B6579335F666C61673D20F7
:1028300025640A001C000020636C6F73652D6B65B6
:1028400079345F666C61673D2025640A00000000F2
:102850006F70656E2D6B6579345F666C61673D20C6
:1028600025640A00741600081D000020636C6F7355
:10287000652D6B6579355F666C61673D2025640A5F
:10288000000000006846FDF76DFC4FF47A70FDF71C
:1028900037FC4FF40061FE4804F01BFB4FF47A70E4
:1028A000FDF72EFCFB480078002869D01021F8487D
:1028B00004F0F3FA012863D14FF47A70FDF720FC9D
:1028C0004FF40061F24804F002FB4FF47A70FDF718
:1028D00017FC0A2003F0CBFF1021ED4804F0DDFACD
:1028E000012840D12246AFF24851002006F03CFFBB
:1028F000E8480278E8A1002006F036FF0020E5490C
:102900000870EA480068009060208DF804008DF897
:10291000054005208DF806001021DD4804F0BDFAC1
:10292000012803D111208DF8070002E000208DF866
:102930000700042101A8FDF772FC05468DF8085038
:10294000DA4808300188ADF8091080788DF80B005E
:1029500000208DF80C000C216846FDF728FC0C21A6
:102960006846FDF7FFFB4FF47A70FDF7C9FB4FF4A3
:102970000061C74804F0ADFA4FF47A70FDF7C0FB70
:10298000CB48007800286AD14021C14804F085FA7C
:10299000002864D14FF47A70FDF7B2FB4FF4006168
:1029A000BB4804F094FA4FF47A70FDF7A9FB0A20B3
:1029B00003F05DFF4021B64804F06FFAF0BB2246F9
:1029C000AFF22461002006F0CFFEB9480278B9A129
:1029D000002006F0C9FE0120B5490870B348006820
:1029E000009060208DF804008DF8054006208DF8D9
:1029F00006004021A64804F050FA012803D1112016
:102A00008DF8070002E000208DF80700042101A8DE
:102A1000FDF705FC05468DF80850A44808300188EC
:102A2000ADF8091080788DF80B0000208DF80C00AF
:102A30000C216846FDF7BBFB0C2100E002E0684674
:102A4000FDF790FB4FF47A70FDF75AFB4FF40061ED
:102A50008F4804F03EFA4FF47A70FDF751FB94482A
:102A60000078002869D04021894804F016FA01282E
:102A700063D14FF47A70FDF743FB4FF40061844853
:102A800004F025FA4FF47A70FDF73AFB0A2003F0C0
:102A9000EEFE40217E4804F000FA012840D1224693
:102AA000AFF20471002006F05FFE8148027887A132
:102AB000002006F059FE00207D4908707B48006820
:102AC000009060208DF804008DF8054006208DF8F8
:102AD000060040216E4804F0E0F9012803D11120DE
:102AE0008DF8070002E000208DF80700042101A8FE
:102AF000FDF795FB05468DF808506C4808300188B5
:102B0000ADF8091080788DF80B0000208DF80C00CE
:102B10000C216846FDF74BFB0C216846FDF722FBB4
:102B20004FF47A70FDF7ECFA4FF40061584804F066
:102B3000D0F94FF47A70FDF7E3FA6948007800287D
:102B40006AD11021674804F0A8F9002864D14FF435
:102B50007A70FDF7D5FA4FF400614D4804F0B7F9EB
:102B60004FF47A70FDF7CCFA0A2003F080FE1021B2
:102B70005C4804F092F9E8BB2246AFF2DC71002019
:102B800006F0F2FD5648027857A1002006F0ECFD51
:102B900001205349087045480068009060208DF876
:102BA00004008DF8054007208DF8060010214D48DF
:102BB00004F073F9012803D111208DF8070002E019
:102BC00000208DF80700042101A8FDF728FB054629
:102BD0008DF80850354808300188ADF80910807824
:102BE0008DF80B0000208DF80C000C216846FDF7D5
:102BF000DEFA00E003E00C216846FDF7B3FA4FF47B
:102C00007A70FDF77DFA4FF40061214804F061F914
:102C10004FF47A70FDF774FA31480078002879D0C3
:102C20001021304804F039F9012873D14FF47A703B
:102C3000FDF766FA4FF40061154804F048F94FF4C7
:102C40007A70FDF75DFA0A2003F011FE1021254885
:102C500004F023F901287DD12246AFF6BC01002003
:102C600006F082FD1E48027825A1002006F07CFDBA
:102C700000201B4908700D480068009060208DF806
:102C800004008DF8054007208DF80600102142E071
:102C9000000801401D0000206F70656E2D6B657986
:102CA000355F666C61673D2025640A007416000874
:102CB0001E000020636C6F73652D6B6579365F664F
:102CC0006C61673D2025640A000000006F70656E2E
:102CD0002D6B6579365F666C61673D2025640A005F
:102CE0001F00002000100140636C6F73652D6B6541
:102CF00079375F666C61673D2025640A000000003B
:102D00006F70656E2D6B6579375F666C61673D200E
:102D100025640A0033E0FE4804F0BFF8012803D11F
:102D200011208DF8070002E000208DF80700042133
:102D300001A8FDF774FA05468DF80850F54801889A
:102D4000ADF8091080788DF80B0000208DF80C008C
:102D50000C2100E006E06846FDF729FA0C216846E0
:102D6000FDF700FA4FF47A70FDF7CAF94FF40061ED
:102D7000E94804F0AEF84FF47A70FDF7C1F9E7487E
:102D8000007800286AD10121E54804F086F800287F
:102D900064D14FF47A70FDF7B3F94FF40061DE4867
:102DA00004F095F84FF47A70FDF7AAF90A2003F0C1
:102DB0005EFD0121DA4804F070F8E8BB2246AFF668
:102DC0002021002006F0D0FCD4480278D5A10020B4
:102DD00006F0CAFC0120D1490870CE4808380068C6
:102DE000009060208DF804008DF8054008208DF8D3
:102DF00006000121CA4804F050F8012803D111202F
:102E00008DF8070002E000208DF80700042101A8DA
:102E1000FDF705FA05468DF80850BE480188ADF863
:102E2000091080788DF80B0000208DF80C000C2123
:102E30006846FDF7BCF900E003E00C216846FDF7A9
:102E400091F94FF47A70FDF75BF94FF40061B248E5
:102E500004F03FF84FF47A70FDF752F9AF4800786C
:102E6000002869D00121AE4804F017F8012863D189
:102E70004FF47A70FDF744F94FF40061A64804F06E
:102E800026F84FF47A70FDF73BF90A2003F0EFFCC7
:102E90000121A34804F001F8012840D12246AFF6F1
:102EA0000031002006F060FC9C480278A3A10020BD
:102EB00006F05AFC002099490870964808380068C6
:102EC000009060208DF804008DF8054008208DF8F2
:102ED00006000121924803F0E0FF012803D11120F0
:102EE0008DF8070002E000208DF80700042101A8FA
:102EF000FDF795F905468DF8085086480188ADF82C
:102F0000091080788DF80B0000208DF80C000C2142
:102F10006846FDF74CF90C216846FDF723F94FF49C
:102F20007A70FDF7EDF84FF400617B4803F0D1FFB4
:102F30004FF47A70FDF7E4F885480078F0BB08217B
:102F4000844803F0AAFFC8BB4FF47A70FDF7D8F8A5
:102F50004FF40061704803F0BAFF4FF47A70FDF748
:102F6000CFF80A2003F083FC08217A4803F095FF8C
:102F7000F0BB2246AFF6D831002006F0F5FB7448CE
:102F8000027875A1002006F0EFFB0120704908705F
:102F9000604808380068009060208DF804008DF8C3
:102FA000054009208DF8060008216A4803F075FFE6
:102FB000012804D111208DF8070003E02AE0002049
:102FC0008DF80700042101A8FDF729F905468DF8C1
:102FD000085050480188ADF8091080788DF80B0032
:102FE00000208DF80C000C216846FDF7E0F800E0A9
:102FF00003E00C216846FDF7B5F84FF47A70FDF751
:103000007FF84FF40061444803F063FF4FF47A7097
:10301000FDF776F84E480078F0B308214D4803F0EC
:103020003CFF012865D14FF47A70FDF769F84FF441
:103030000061394803F04BFF4FF47A70FDF760F8F8
:103040000A2003F014FC0821424803F026FF01285F
:1030500042D12246AFF6B841002006F085FB3C483D
:10306000027843A1002006F07FFB00203849087059
:10307000284808380068009060208DF804008DF81A
:10308000054009208DF806000821324803F005FFAD
:10309000012805D1112000E02BE08DF8070002E0A7
:1030A00000208DF80700042101A8FDF7B8F80546B7
:1030B0008DF8085017480188ADF8091080788DF810
:1030C0000B0000208DF80C000C216846FDF76FF80E
:1030D0000C216846FDF746F84FF47A70FDF710F8BA
:1030E0004FF400610C4803F0F4FE4FF47A70FDF7E2
:1030F00007F82448007848B91021164803F0CDFE9F
:1031000020B94FF47A70FCF7FBFF3DE09DE0000032
:10311000001001407C16000800080140200000203B
:10312000000C0140636C6F73652D6B6579385F66C9
:103130006C61673D2025640A000000006F70656EB9
:103140002D6B6579385F666C61673D2025640A00E8
:103150002100002000180140636C6F73652D6B65C2
:1031600079395F666C61673D2025640A00000000C4
:103170006F70656E2D6B6579395F666C61673D2098
:1031800025640A00220000204FF40061F74803F094
:103190009EFE4FF47A70FCF7B3FF0A2003F067FB42
:1031A0001021F34803F079FEF0BB2246AFF6106120
:1031B000002006F0D9FAEF480278EFA1002006F0CF
:1031C000D3FA0120EB490870F148006800906020B4
:1031D0008DF804008DF805400A208DF806001021B6
:1031E000E34803F05AFE012803D111208DF80700AF
:1031F00002E000208DF80700042101A8FDF70FF878
:1032000005468DF80850E24808300188ADF80910ED
:1032100080788DF80B0000208DF80C000C2168469A
:10322000FCF7C5FF0C2100E002E06846FCF79AFFBE
:103230004FF47A70FCF764FF4FF40061CB4803F061
:1032400048FE4FF47A70FCF75BFFCA480078E8B399
:103250001021C74803F021FE012865D14FF47A7090
:10326000FCF74EFF4FF40061C04803F030FE4FF40E
:103270007A70FCF745FF0A2003F0F9FA1021BC48E8
:1032800003F00BFE012842D12246AFF6EC6100208C
:1032900006F06AFAB7480278BEA1002006F064FA88
:1032A0000020B4490870BA480068009060208DF88A
:1032B00004008DF805400A208DF806001021AC4866
:1032C00003F0EBFD012805D1112000E02CE08DF882
:1032D000070002E000208DF80700042101A8FCF798
:1032E0009EFF05468DF80850A94808300188ADF8C2
:1032F000091080788DF80B0000208DF80C000C214F
:103300006846FCF754FF0C216846FCF72BFF4FF48E
:103310007A70FCF7F5FE4FF40061944803F0D9FD94
:103320004FF47A70FCF7ECFEA0480078E8BB8021EF
:103330008F4803F0B2FDC0BB4FF47A70FCF7E0FE9B
:103340004FF40061894803F0C2FD4FF47A70FCF736
:10335000D7FE0A2003F08BFA8021854803F09DFDFB
:10336000F0BB2246AFF6C871002006F0FDF98F4889
:1033700002788FA1002006F0F7F901208B49087030
:1033800083480068009060208DF804008DF80540A7
:103390000B208DF806008021754803F07EFD012882
:1033A00004D111208DF8070003E02BE000208DF8F8
:1033B0000700042101A8FCF732FF05468DF80850EC
:1033C000734808300188ADF8091080788DF80B003B
:1033D00000208DF80C000C216846FCF7E8FE00E0A8
:1033E00003E00C216846FCF7BDFE4FF47A70FCF751
:1033F00087FE4FF400615D4803F06BFD4FF47A7077
:10340000FCF77EFE69480078F0B38021584803F04D
:1034100044FD012863D14FF47A70FCF771FE4FF43C
:103420000061524803F053FD4FF47A70FCF768FED8
:103430000A2003F01CFA80214D4803F02EFD0128DC
:1034400040D122466049002006F08EF957480278A4
:103450005EA1002006F088F90020544908704C480D
:103460000068009060208DF804008DF805400B2066
:103470008DF8060080213E4803F00FFD012804D19D
:1034800011208DF8070003E029E000208DF80700E7
:10349000042101A8FCF7C3FE05468DF808503C48FE
:1034A00008300188ADF8091080788DF80B000020F5
:1034B0008DF80C000C216846FCF779FE0C2168465B
:1034C000FCF750FE4FF47A70FCF71AFE4FF40061DF
:1034D000264803F0FEFC4FF47A70FCF711FE4148D9
:1034E0000078E8BB4FF40071214803F0D6FCB8BB6C
:1034F0004FF47A70FCF704FE4FF400611B4803F0B0
:10350000E6FC4FF47A70FCF7FBFD0A2003F0AFF9FC
:103510004FF40071164803F0C0FC28BB22462A492C
:10352000002006F021F92F4802782FA1002006F094
:103530001BF901202B490870154800680090602095
:103540008DF804008DF805400C208DF806004FF42E
:103550000071074803F0A1FC012851D1112000E0BF
:1035600077E08DF807004EE066E0000000080140BB
:103570000018014022000020636C6F73652D6B659D
:103580007931305F666C61673D2025640A00000078
:10359000741600086F70656E2D6B657931305F664B
:1035A0006C61673D2025640A0000000023000020B4
:1035B000636C6F73652D6B657931315F666C616724
:1035C0003D2025640A000000A02300086F70656E8E
:1035D0002D6B657931315F666C61673D2025640A2A
:1035E0000000000024000020636C6F73652D6B6584
:1035F0007931325F666C61673D2025640A00000006
:1036000000208DF80700042101A8FCF708FE0546FC
:103610008DF80850FE480188ADF8091080788DF8C3
:103620000B0000208DF80C000C216846FCF7BFFD54
:103630000C216846FCF796FD4FF47A70FCF760FDAC
:103640004FF40061F34803F044FC4FF47A70FCF748
:1036500057FDF1480078E8B34FF40071EF4803F0EC
:103660001CFC012866D14FF47A70FCF749FD4FF439
:103670000061E84803F02BFC4FF47A70FCF740FD42
:103680000A2003F0F4F84FF40071E44803F005FC5D
:10369000012842D12246E249002006F065F8DE48C2
:1036A0000278E0A1002006F05FF80020DA490870F7
:1036B000D74808380068009060208DF804008DF825
:1036C00005400C208DF806004FF40071D34803F03C
:1036D000E4FB00E02EE0012803D111208DF8070063
:1036E00002E000208DF80700042101A8FCF797FDF7
:1036F00005468DF80850C6480188ADF80910807855
:103700008DF80B0000208DF80C000C216846FCF7AA
:103710004EFD0C216846FCF725FD4FF47A70FCF74E
:10372000EFFC4FF40061BB4803F0D3FB4FF47A7019
:10373000FCF7E6FCC1480078F0BB4FF40061B748E5
:1037400003F0ABFBC0BB4FF47A70FCF7D9FC4FF42D
:103750000061B04803F0BBFB4FF47A70FCF7D0FC7B
:103760000A2003F084F84FF40061AC4803F095FBA5
:10377000E8BB2246AA49002005F0F6FFAF480278D0
:10378000AFA1002005F0F0FF0120AC490870A0486F
:1037900008380068009060208DF804008DF805401E
:1037A0000D208DF806004FF400619C4803F075FB76
:1037B000012805D1112000E02DE08DF8070002E07E
:1037C00000208DF80700042101A8FCF728FD05461C
:1037D0008DF808508E480188ADF8091080788DF872
:1037E0000B0000208DF80C000C21684600E005E07D
:1037F000FCF7DDFC0C216846FCF7B4FC4FF47A7052
:10380000FCF77EFC4FF40061824803F062FB4FF44A
:103810007A70FCF775FC89480078E8B34FF40061D2
:103820007E4803F03AFB012866D14FF47A70FCF72A
:1038300067FC4FF40061774803F049FB4FF47A705E
:10384000FCF75EFC0A2003F012F84FF400617348A5
:1038500003F023FB012842D122467149002005F0E4
:1038600083FF764802787CA1002005F07DFF0020D0
:1038700072490870664808380068009060208DF82A
:1038800004008DF805400D208DF806004FF400610E
:10389000624803F002FB00E02EE0012803D1112072
:1038A0008DF8070002E000208DF80700042101A830
:1038B000FCF7B5FC05468DF8085055480188ADF871
:1038C000091080788DF80B0000208DF80C000C2179
:1038D0006846FCF76CFC0C216846FCF743FC4FF48F
:1038E0007A70FCF70DFC4FF400614A4803F0F1FADE
:1038F0004FF47A70FCF704FC5D480078F0BB4FF49D
:103900000051464803F0C9FAC0BB4FF47A70FCF787
:10391000F7FB4FF400613F4803F0D9FA4FF47A7097
:10392000FCF7EEFB0A2002F0A2FF4FF400513B48E7
:1039300003F0B3FAE8BB22463949002005F014FF32
:103940004B4802784BA1002005F00EFF01204849AA
:1039500008702F4808380068009060208DF8040037
:103960008DF805400E208DF806004FF400512B48CD
:1039700003F093FA012805D1112000E02DE08DF825
:10398000070002E000208DF80700042101A8FCF7E1
:1039900046FC05468DF808501D480188ADF8091011
:1039A00080788DF80B0000208DF80C000C21684603
:1039B00000E005E0FCF7FBFB0C216846FCF7D2FBBE
:1039C0004FF47A70FCF79CFB4FF40061114803F050
:1039D00080FA4FF47A70FCF793FB25480078A8B181
:1039E0004FF400510D4803F058FA01280ED14FF45E
:1039F0007A70FCF785FB4FF40061064803F067FA24
:103A00004FF47A70FCF77CFB0A203FE095E0000061
:103A10007C16000800080140240000200018014026
:103A2000A02300086F70656E2D6B657931325F667B
:103A30006C61673D2025640A00000000250000201D
:103A4000636C6F73652D6B657931335F666C61678D
:103A50003D2025640A0000006F70656E2D6B65794E
:103A600031335F666C61673D2025640A0000000009
:103A700026000020636C6F73652D6B657931345FB0
:103A8000666C61673D2025640A00000002F0EFFECD
:103A90004FF40051FE4803F000FA012840D12246BD
:103AA000FC49002005F060FEFB480278FBA10020E5
:103AB00005F05AFE0020F8490870FE4800680090A2
:103AC00060208DF804008DF805400E208DF806006A
:103AD0004FF40051EE4803F0E0F9012803D1112022
:103AE0008DF8070002E000208DF80700042101A8EE
:103AF000FCF795FB05468DF80850EE480830018824
:103B0000ADF8091080788DF80B0000208DF80C00BE
:103B10000C216846FCF74BFB0C216846FCF722FBA6
:103B20004FF47A70FCF7ECFA4FF40061E24803F0CE
:103B3000D0F94FF47A70FCF7E3FAE0480078E8BB7C
:103B40004FF40041D24803F0A8F9B8BB4FF47A70A3
:103B5000FCF7D6FA4FF40061D74803F0B8F94FF4F8
:103B60007A70FCF7CDFA0A2002F081FE4FF4004192
:103B7000C74803F092F9E8BB2246C649002005F089
:103B8000F3FDCE480278CEA1002005F0EDFD012026
:103B9000CA490870C7480068009060208DF804008A
:103BA0008DF805400F208DF806004FF40041B8480D
:103BB00003F073F9012805D1112000E02EE08DF803
:103BC000070002E000208DF80700042101A8FCF79F
:103BD00026FB05468DF80850B64808300188ADF838
:103BE000091080788DF80B0000208DF80C000C2156
:103BF000684600E005E0FCF7DAFA0C216846FCF7BD
:103C0000B1FA4FF47A70FCF77BFA4FF40061AA48DE
:103C100003F05FF94FF47A70FCF772FAA748007866
:103C2000F0B34FF400419A4803F037F9012866D108
:103C30004FF47A70FCF764FA4FF400619E4803F089
:103C400046F94FF47A70FCF75BFA0A2002F00FFE97
:103C50004FF400418E4803F020F9012842D122465A
:103C60008C49002005F080FD944802789AA100203C
:103C700005F07AFD0020914908708E480068009098
:103C800060208DF804008DF805400F208DF80600A7
:103C90004FF400417E4803F000F9012805D100E00F
:103CA0002DE011208DF8070002E000208DF80700BC
:103CB000042101A8FCF7B3FA05468DF808507D48A9
:103CC00008300188ADF8091080788DF80B000020CD
:103CD0008DF80C000C216846FCF769FA0C21684647
:103CE000FCF740FA4FF47A70FCF70AFA4FF40061DF
:103CF000714803F0EEF84FF47A70FCF701FA7C4853
:103D00000078E0BB4FF400617A4803F0C6F8B0BB1E
:103D10004FF47A70FCF7F4F94FF40061664803F051
:103D2000D6F84FF47A70FCF7EBF90A2002F09FFD09
:103D30004FF400616F4803F0B0F8E0BB22465549EC
:103D4000002005F011FD6A4802786BA1002005F003
:103D50000BFD0120664908705648006800906020FD
:103D60008DF804008DF8054010208DF80600C10183
:103D7000604803F092F8012805D1112000E02EE000
:103D80008DF8070002E000208DF80700042101A84B
:103D9000FCF745FA05468DF808504648083001887A
:103DA000ADF8091080788DF80B0000208DF80C001C
:103DB0000C21684600E005E0FCF7F9F90C216846A3
:103DC000FCF7D0F94FF47A70FCF79AF94FF40061E0
:103DD000394803F07EF84FF47A70FCF791F94448C3
:103DE0000078E8B34FF40061424803F056F8012828
:103DF00036D14FF47A70FCF783F94FF400612E4806
:103E000003F065F84FF47A70FCF77AF90A2002F0B3
:103E10002EFD4FF40061374803F03FF8012835D1FB
:103E200022461C49002005F09FFC3148027838A149
:103E3000002005F099FC00202D4908701D480068FD
:103E4000009060208DF804008DF8054010208DF85A
:103E50000600C101274803F020F8012805D100E041
:103E60007CE011208DF8070002E000208DF80700AB
:103E7000042101A8FCF7D3F905468DF808500D4838
:103E800008300188ADF8091080784DE059E0000055
:103E900000180140A0230008260000206F70656E06
:103EA0002D6B657931345F666C61673D2025640A4E
:103EB00000000000741600080008014027000020E0
:103EC000636C6F73652D6B657931355F666C616707
:103ED0003D2025640A0000006F70656E2D6B6579CA
:103EE00031355F666C61673D2025640A0000000083
:103EF00028000020000C0140636C6F73652D6B651A
:103F00007931365F666C61673D2025640A000000E8
:103F10006F70656E2D6B657931365F666C61673DDC
:103F20002025640A000000008DF80B0000208DF8A9
:103F30000C000C216846FCF73AF90C216846FCF7A6
:103F400011F94FF47A70FCF7DBF84FF40061FA488E
:103F500002F0BFFF4FF47A70FCF7D2F8F748007810
:103F6000E8BB4FF40051F64802F097FFB8BB4FF49E
:103F70007A70FCF7C5F84FF40061EF4802F0A7FF34
:103F80004FF47A70FCF7BCF80A2002F070FC4FF492
:103F90000051EB4802F081FFE8BB2246E9490020CE
:103FA00005F0E2FBE5480278E7A1002005F0DCFB24
:103FB0000120E2490870EA480068009060208DF80E
:103FC00004008DF8054011208DF806004FF40051D3
:103FD000DB4802F062FF012805D1112000E02EE04D
:103FE0008DF8070002E000208DF80700042101A8E9
:103FF000FCF715F905468DF80850D94808300188B6
:10400000ADF8091080788DF80B0000208DF80C00B9
:104010000C21684600E005E0FCF7C9F80C21684671
:10402000FCF7A0F84FF47A70FCF76AF84FF40061DF
:10403000C14802F04EFF4FF47A70FCF761F8BF48B8
:104040000078E8B34FF40051BD4802F026FF012884
:1040500066D14FF47A70FCF753F84FF40061B6481C
:1040600002F035FF4FF47A70FCF74AF80A2002F0AC
:10407000FEFB4FF40051B24802F00FFF012842D17D
:104080002246B049002005F06FFBAC480278B5A18C
:10409000002005F069FB0020A8490870B0480068BE
:1040A000009060208DF804008DF8054011208DF8F7
:1040B00006004FF40051A24802F0EFFE012800E094
:1040C0002EE003D111208DF8070002E000208DF8CA
:1040D0000700042101A8FCF7A2F805468DF8085056
:1040E0009F4808300188ADF8091080788DF80B00E2
:1040F00000208DF80C000C216846FCF758F80C21C4
:104100006846FCF72FF84FF47A70FBF7F9FF4FF48D
:104110000061894802F0DDFE4FF47A70FBF7F0FF92
:1041200096480078E8BB4FF40041854802F0B5FEA0
:10413000B8BB4FF47A70FBF7E3FF4FF400617E48A1
:1041400002F0C5FE4FF47A70FBF7DAFF0A2002F0A6
:104150008EFB4FF400417A4802F09FFEE8BB2246F6
:104160007849002005F000FB8448027884A10020F3
:1041700005F0FAFA0120814908707948006800903A
:1041800060208DF804008DF8054012208DF806009F
:104190004FF400416A4802F080FE012805D1112049
:1041A00000E02EE08DF8070002E000208DF8070007
:1041B000042101A8FCF733F805468DF8085068483B
:1041C00008300188ADF8091080788DF80B000020C8
:1041D0008DF80C000C21684600E005E0FBF7E7FFD6
:1041E0000C216846FBF7BEFF4FF47A70FBF788FF9F
:1041F0004FF40061504802F06CFE4FF47A70FBF708
:104200007FFF5E480078E8B34FF400414C4802F06D
:1042100044FE012866D14FF47A70FBF771FF4FF42A
:104220000061454802F053FE4FF47A70FBF768FFD7
:104230000A2002F01CFB4FF40041414802F02DFE21
:10424000012842D122463F49002005F08DFA4B4813
:10425000027851A1002005F087FA00204749087034
:104260003F480068009060208DF804008DF80540FC
:1042700012208DF806004FF40041314802F00DFE87
:10428000012800E02EE003D111208DF8070002E0A4
:1042900000208DF80700042101A8FBF7C0FF0546A8
:1042A0008DF808502E4808300188ADF80910807844
:1042B0008DF80B0000208DF80C000C216846FBF7F0
:1042C00076FF0C216846FBF74DFF4FF47A70FBF741
:1042D00017FF4FF40061184802F0FBFD4FF47A70AD
:1042E000FBF70EFF3248007818BB4FF400713148DD
:1042F00002F0D3FDE8B94FF47A70FBF701FF4FF4F9
:1043000000610D4802F0E3FD4FF47A70FBF7F8FE10
:104310000A2002F0ACFA4FF40071264802F0BDFD0D
:1043200040B922460749002005F01EFA20480278CD
:1043300042E088E07AE00000000801402900002007
:10434000000C0140A0230008636C6F73652D6B6542
:104350007931375F666C61673D2025640A00000093
:10436000741600086F70656E2D6B657931375F6666
:104370006C61673D2025640A000000002A000020CF
:10438000636C6F73652D6B657931385F666C61673F
:104390003D2025640A0000006F70656E2D6B657905
:1043A00031385F666C61673D2025640A00000000BB
:1043B0002B00002000140140F9A1002005F0D4F9E1
:1043C0000120FD490870FD480068009060208DF8CC
:1043D00004008DF8054013208DF806004FF400719D
:1043E000F74802F05AFD012803D111208DF807008B
:1043F00002E000208DF80700042101A8FBF70FFF61
:1044000005468DF80850ED4808300188ADF80910D0
:1044100080788DF80B0000208DF80C000C21684688
:10442000FBF7C5FE0C216846FBF79CFE4FF47A7043
:10443000FBF766FE4FF40061E24802F04AFD4FF4DC
:104440007A70FBF75DFEDC480078E8B34FF400714A
:10445000DB4802F022FD012866D14FF47A70FBF7A9
:104460004FFE4FF40061D74802F031FD4FF47A70EF
:10447000FBF746FE0A2002F0FAF94FF40071D0482B
:1044800002F00BFD012842D12246CF49002005F061
:104490006BF9C9480278CDA1002005F065F900202C
:1044A000C5490870C5480068009060208DF8040078
:1044B0008DF8054013208DF806004FF40071C048B8
:1044C00002F0EBFC012800E02EE003D111208DF872
:1044D000070002E000208DF80700042101A8FBF787
:1044E0009EFE05468DF80850B44808300188ADF8A6
:1044F000091080788DF80B0000208DF80C000C213D
:104500006846FBF754FE0C216846FBF72BFE4FF480
:104510007A70FBF7F5FD4FF40061AA4802F0D9FC70
:104520004FF47A70FBF7ECFDAE480078E8BB4FF42F
:104530000061A34802F0B1FCB8BB4FF47A70FBF7FE
:10454000DFFD4FF400619F4802F0C1FC4FF47A7028
:10455000FBF7D6FD0A2002F08AF94FF40061984873
:1045600002F09BFCE8BB22469749002005F0FCF8CE
:104570009C4802789CA1002005F0F6F8012099499A
:1045800008708E480068009060208DF804008DF857
:10459000054014208DF806004FF40061884802F0B1
:1045A0007CFC012805D1112000E02EE08DF80700E9
:1045B00002E000208DF80700042101A8FBF72FFE80
:1045C00005468DF808507D4808300188ADF809107F
:1045D00080788DF80B0000208DF80C000C216846C7
:1045E00000E005E0FBF7E3FD0C216846FBF7BAFDB0
:1045F0004FF47A70FBF784FD4FF40061714802F0CC
:1046000068FC4FF47A70FBF77BFD76480078E8B3DE
:104610004FF400616A4802F040FC012866D14FF473
:104620007A70FBF76DFD4FF40061664802F04FFCB5
:104630004FF47A70FBF764FD0A2002F018F94FF48A
:1046400000615F4802F029FC012842D122465E4900
:10465000002005F089F86348027869A1002005F080
:1046600083F800205F49087054480068009060207B
:104670008DF804008DF8054014208DF806004FF4E5
:1046800000614F4802F009FC012800E02EE003D150
:1046900011208DF8070002E000208DF807000421AA
:1046A00001A8FBF7BCFD05468DF8085043480830CB
:1046B0000188ADF8091080788DF80B0000208DF886
:1046C0000C000C216846FBF772FD0C216846FBF7D5
:1046D00049FD4FF47A70FBF713FD4FF40061394840
:1046E00002F0F7FB4FF47A70FBF70AFD4A480078B6
:1046F000E8BB4FF40051324802F0CFFBB8BB4FF497
:104700007A70FBF7FDFC4FF400612E4802F0DFFBEE
:104710004FF47A70FBF7F4FC0A2002F0A8F84FF48B
:104720000051274802F0B9FBC8BB224626490020A9
:1047300005F01AF83848027838A1002005F014F87E
:104740000120354908701D480068009060208DF8F0
:1047500004008DF8054015208DF806004FF4005137
:10476000174802F09AFB012805D1112000E078E0FB
:104770008DF8070002E000208DF80700042101A851
:10478000FBF74DFD05468DF808500C4808300188B0
:10479000ADF8091080788DF80B0000204AE053E056
:1047A000636C6F73652D6B657931395F666C61671A
:1047B0003D2025640A0000002B000020741600082C
:1047C0000014014000080140A02300086F70656ECE
:1047D0002D6B657931395F666C61673D2025640A10
:1047E000000000002C000020636C6F73652D6B656A
:1047F0007932305F666C61673D2025640A000000F5
:104800006F70656E2D6B657932305F666C61673DE8
:104810002025640A000000002D000020636C6F73E7
:10482000652D6B657932315F666C61673D2025646B
:104830000A0000008DF80C000C216846FBF7B7FC5D
:104840000C216846FBF78EFC4FF47A70FBF758FC9E
:104850004FF40061F74802F03CFB4FF47A70FBF72D
:104860004FFCF5480078E8B34FF40051F34802F0EC
:1048700014FB012866D14FF47A70FBF741FC4FF42A
:104880000061EC4802F023FB4FF47A70FBF738FC30
:104890000A2001F0ECFF4FF40051E84802F0FDFA65
:1048A000012842D12246E649002004F05DFFE2489B
:1048B0000278E4A1002004F057FF0020DE490870D0
:1048C000E6480068009060208DF804008DF80540EF
:1048D00015208DF806004FF40051D84802F0DDFA9B
:1048E000012800E02EE003D111208DF8070002E03E
:1048F00000208DF80700042101A8FBF790FC054675
:104900008DF80850D54808300188ADF80910807836
:104910008DF80B0000208DF80C000C216846FBF789
:1049200046FC0C216846FBF71DFC4FF47A70FBF740
:10493000E7FB4FF40061BF4802F0CBFA4FF47A7006
:10494000FBF7DEFBC6480078E8BB4FF40041BB48EC
:1049500002F0A3FAB8BB4FF47A70FBF7D1FB4FF427
:104960000061B44802F0B3FA4FF47A70FBF7C8FB69
:104970000A2001F07CFF4FF40041B04802F08DFAAC
:10498000E8BB2246AE49002004F0EEFEB4480278AF
:10499000B4A1002004F0E8FE0120B1490870AF483E
:1049A0000068009060208DF804008DF80540162006
:1049B0008DF806004FF40041A04802F06EFA01287D
:1049C00005D1112000E02EE08DF8070002E0002064
:1049D0008DF80700042101A8FBF721FC05468DF89E
:1049E00008509E4808300188ADF8091080788DF88D
:1049F0000B0000208DF80C000C21684600E005E05B
:104A0000FBF7D5FB0C216846FBF7ACFB4FF47A7043
:104A1000FBF776FB4FF40061864802F05AFA4FF438
:104A20007A70FBF76DFB8E480078E8B34FF40041D5
:104A3000824802F032FA012866D14FF47A70FBF70F
:104A40005FFB4FF400617B4802F041FA4FF47A704B
:104A5000FBF756FB0A2001F00AFF4FF400417748AC
:104A600002F01BFA012842D122467549002004F0C9
:104A70007BFE7B48027881A1002004F075FE0020B7
:104A80007749087075480068009060208DF8040030
:104A90008DF8054016208DF806004FF40041674858
:104AA00002F0FBF9012800E02EE003D111208DF87F
:104AB000070002E000208DF80700042101A8FBF7A1
:104AC000AEFB05468DF80850644808300188ADF803
:104AD000091080788DF80B0000208DF80C000C2157
:104AE0006846FBF764FB0C216846FBF73BFB4FF481
:104AF0007A70FBF705FB4FF400614E4802F0E9F9CC
:104B00004FF47A70FBF7FCFA62480078E0BB802132
:104B1000614802F0C2F9B8BB4FF47A70FBF7F0FAC3
:104B20004FF40061434802F0D2F94FF47A70FBF77A
:104B3000E7FA0A2001F09BFE8021574802F0ADF908
:104B4000F0BB22463E49002004F00EFE5148027898
:104B500052A1002004F008FE01204E4908703F4891
:104B60000068009060208DF804008DF80540172043
:104B70008DF806008021484802F08FF9012804D101
:104B800011208DF8070003E02BE000208DF80700CE
:104B9000042101A8FBF743FB05468DF808502F4878
:104BA00008300188ADF8091080788DF80B000020DE
:104BB0008DF80C000C216846FBF7F9FA0C2100E097
:104BC00002E06846FBF7CEFA4FF47A70FBF798FAEA
:104BD0004FF40061174802F07CF94FF47A70FBF74C
:104BE0008FFA2C48007818B380212B4802F055F931
:104BF00001281DD14FF47A70FBF782FA4FF400615F
:104C00000C4802F064F94FF47A70FBF779FA0A2045
:104C100001F02DFE8021204802F03FF901287DD1CE
:104C200022460749002004F09FFD1A48027841E01F
:104C300088E00000000801402D0000200014014021
:104C4000A02300086F70656E2D6B657932315F6649
:104C50006C61673D2025640A00000000741600089E
:104C60002E000020636C6F73652D6B657932325FA7
:104C7000666C61673D2025640A0000006F70656EF8
:104C80002D6B657932325F666C61673D2025640A61
:104C9000000000002F00002000100140636C6F73C3
:104CA000652D6B657932335F666C61673D202564E5
:104CB0000A000000FAA1002004F056FD0020FE4981
:104CC0000870FE480068009060208DF804008DF8A0
:104CD000054017208DF806008021F94802F0DDF824
:104CE000012803D111208DF8070002E000208DF883
:104CF0000700042101A8FBF792FA05468DF8085039
:104D0000EE4808300188ADF8091080788DF80B0066
:104D100000208DF80C000C21684600E005E0FBF750
:104D200046FA0C216846FBF71DFA4FF47A70FBF740
:104D3000E7F94FF40061E34802F0CBF84FF47A70E2
:104D4000FBF7DEF9E0480078E8BB4FF40071DC487F
:104D500002F0A3F8B8BB4FF47A70FBF7D1F94FF427
:104D60000061D84802F0B3F84FF47A70FBF7C8F945
:104D70000A2001F07CFD4FF40071D14802F08DF85B
:104D8000E8BB2246D149002004F0EEFCCE48027870
:104D9000CFA1002004F0E8FC0120CB490870C748EF
:104DA0000068009060208DF804008DF80540182000
:104DB0008DF806004FF40071C14802F06EF801282A
:104DC00005D1112000E02EE08DF8070002E0002060
:104DD0008DF80700042101A8FBF721FA05468DF89C
:104DE0000850B64808300188ADF8091080788DF871
:104DF0000B0000208DF80C000C21684600E005E057
:104E0000FBF7D5F90C216846FBF7ACF94FF47A7043
:104E1000FBF776F94FF40061AA4802F05AF84FF414
:104E20007A70FBF76DF9A8480078E8B34FF4007189
:104E3000A34802F032F8012866D14FF47A70FBF7EC
:104E40005FF94FF400619F4802F041F84FF47A7027
:104E5000FBF756F90A2001F00AFD4FF4007198485B
:104E600002F01BF8012842D122469849002004F0A4
:104E70007BFC954802789CA1002004F075FC002082
:104E8000914908708D480068009060208DF80400FA
:104E90008DF8054018208DF806004FF40071884801
:104EA00001F0FBFF012800E02EE003D111208DF876
:104EB000070002E000208DF80700042101A8FBF79D
:104EC000AEF905468DF808507C4808300188ADF8E9
:104ED000091080788DF80B0000208DF80C000C2153
:104EE0006846FBF764F90C216846FBF73BF94FF481
:104EF0007A70FBF705F94FF40061724801F0E9FFA1
:104F00004FF47A70FBF7FCF840B070BD00BF00248E
:104F100001F070FC4FF4A06002F050FC784801F002
:104F20009AFD01F00BFA01F006FC00F0E0FA41F600
:104F30001F4140F6B73000F0C7FC002000F0B3FC82
:104F4000022001F08CFA6F49022001F04EFB41F67D
:104F50001F41632001F096F9002001F082F96A49AF
:104F6000002004F001FC8CE168480078012837D16A
:104F70004FF47A70FBF7C4F84FF40061514801F028
:104F8000A6FF4FF47A70FBF7BBF856A1002004F09F
:104F9000EBFB5F4802785FA1002004F0E5FB63A112
:104FA000002004F0E1FB5A4801786448FBF7DAF886
:104FB000FBF7E8FD4FF47A70FBF7A2F84FF40061BD
:104FC000404801F086FF4FF47A70FBF799F80D2105
:104FD0005A4804F0F6FB00204D4908704B49087010
:104FE000022001F0F7FA0546002D57D0012D30D1EF
:104FF00053480068401C5249086052480078A8B9DC
:1050000041F61F4140F6B73000F05EFC012000F091
:105010004AFC02204C49087001204A4908700846A1
:1050200002784AA1002004F09FFB0BE001204649D2
:1050300008700020434908700846027848A1002003
:1050400004F092FB3E4802684AA1002004F08CFB69
:1050500024E041F61F4141F2873000F035FC012089
:1050600000F021FC38480078012809D148A100202F
:1050700004F07AFB032034490870012000F013FC8F
:1050800001203049087047480068401C45490860C5
:105090000846026844A1002004F066FB641C91E00D
:1050A0006F70656E2D6B657932335F666C61673D3D
:1050B0002025640A000000002F000020741600085C
:1050C000001001400008014030000020A02300082B
:1050D000636C6F73652D6B657932345F666C6167E5
:1050E0003D2025640A0000006F70656E2D6B6579A8
:1050F00032345F666C61673D2025640A0000000061
:1051000001020008211F00083CA900089B000020A4
:10511000940000202D6D61696E2D55617274315FB0
:105120005278203D2025640A000000002D2D2D72AC
:1051300063762D64617461732D2D2D00B001002004
:10514000100000201800002031000020316D6F6435
:10515000655F6E6F6D616C203D2025640A00000064
:10516000326D6F64655F6E6F6D616C203D202564EC
:105170000A0000006B65793253686F727450726573
:105180007373436F756E74203D2025640A00000020
:105190002D2D2D6B65795F6D6F6465203D332D2D51
:1051A0002D0A0000140000206B6579324C6F6E6789
:1051B0005072657373436F756E74203D2025640AC9
:1051C000000000006420B4FBF0F100FB114078B94E
:1051D0002C48007801280BD12BA1002004F0C4FA40
:1051E0002D48006808B9012000E000202A49086025
:1051F0000A20B4FBF0F100FB114078B92148007897
:1052000002280BD125A1002004F0AEFA2248006844
:1052100008B9012000E000201F4908600A20B4FB03
:10522000F0F100FB114078B91648007803280BD143
:105230001EA1002004F098FA1748006808B9012060
:1052400000E00020144908600A20B4FBF0F100FBE4
:10525000114088B91948007801280DD118A1002003
:1052600004F082FA0C480838006808B9012000E010
:1052700000200949083908600A2001F0F8FAFCF713
:105280005FFE71E6310000202D2D2D7465737431A1
:105290002D2D2D0A00000000948121422D2D2D740A
:1052A000657374322D2D2D0A000000002D2D2D74F4
:1052B000657374332D2D2D0A000000007F0000203F
:1052C0002D2D2D746573743420206C6F636B5F6AB1
:1052D00069616E63655F666C61672D2D2D0A000044
:1052E000704700BFFEE700BFFEE700BFFEE700BF5C
:1052F000FEE7704770477047704700000CB500200C
:10530000019000906C48006840F480306A49086061
:1053100000BF6948006800F4003000900198401C0C
:105320000190009818B90198B0F5A06FF1D16248CA
:10533000006800F4003010B10120009001E000206E
:1053400000900098012843D15C48006840F01000AC
:105350005A4908600846006820F0030008600846C3
:10536000006840F0020008605348406852494860B5
:105370000846406848600846406840F480604860DD
:105380000846406820F47C1048600846406840F4B5
:10539000E81048600846006840F08070086000BF70
:1053A0004548006800F000700028F9D04248406885
:1053B00020F00300404948600846406840F0020081
:1053C000486000BF3C48406800F00C000828F9D154
:1053D0000CBD10B5FFF792FF10BD10B53648006840
:1053E00040F00100344908600846406834490840EC
:1053F0003149486008460068324908402E49086033
:105400000846006820F4802008600846406820F4C0
:10541000FE0048604FF41F008860FFF7DAFF4FF08E
:1054200000602949086010BD10B50021002000224D
:10543000214B5B6803F00C0121B1042906D0082937
:1054400028D107E0214B224C236027E01F4B204C42
:10545000236023E0184B5B6803F47010164B5B6805
:1054600003F48032022303EB904022B9194B4343EB
:10547000174C23600DE0104B5B6803F4003323B13D
:10548000144B4343124C236003E0104B4343104C36
:10549000236003E00D4B0E4C236000BF00BF064BA2
:1054A0005B68C3F303130C4CE15C094B1B68CB40F6
:1054B000074C236010BD0000001002400020024095
:1054C0000000FFF8FFFFF6FE08ED00E000127A0092
:1054D0003400002000093D003800002001B502E042
:1054E0000098401E009000980028F9D108BD08B52A
:1054F00001217C2001F0FAFE10208DF8030003202A
:105500008DF802000121FE4801F005FD2020ADF8D4
:1055100000006946FB4801F02DFC2021F94801F00C
:10552000D8FC4FF40060ADF800006946F64801F081
:1055300021FC4FF47A70FFF7D1FF4FF40061F2487D
:1055400001F0C7FC4FF47A70FFF7C8FF0820ADF8F0
:1055500000006946EB4801F00DFC0821E94801F024
:10556000B8FC0220ADF8000010208DF803000320E5
:105570008DF802006946E54801F0FCFB0020E44993
:1055800008600820ADF8000010208DF8030003200B
:105590008DF802006946DD4801F0ECFB0020DD4992
:1055A000C1F88C010220ADF8000010208DF8030036
:1055B00003208DF802006946D34801F0DBFB002090
:1055C000D54908600820ADF8000010208DF80300D0
:1055D00003208DF802006946CB4801F0CBFB002088
:1055E000CE49C1F88C012020ADF8000010208DF8C4
:1055F000030003208DF802006946C34801F0BAFB9E
:105600000020C549103108608020ADF8000010204E
:105610008DF8030003208DF802006946BA4801F0B6
:10562000A9FB0020BD49C1F89C012020ADF8000075
:1056300010208DF8030003208DF802006946B3485E
:1056400001F098FB0020B249103108600220ADF84B
:10565000000010208DF8030003208DF80200694639
:10566000A84801F087FB0020AD49C1F88401202043
:10567000ADF8000010208DF8030003208DF8020023
:105680006946A84801F076FB0020A749086004207D
:10569000ADF8000010208DF8030003208DF8020003
:1056A0006946A04801F066FB0020A049C1F88801C6
:1056B0004FF48070ADF8000010208DF80300032037
:1056C0008DF802006946974801F054FB0020964986
:1056D0000C3108604FF48060ADF8000010208DF8A8
:1056E000030003208DF8020069468E4801F042FB5A
:1056F00000208E49C1F8A8014FF48050ADF8000099
:1057000010208DF8030003208DF8020069468548BB
:1057100001F030FB002084491C3108604FF48040C8
:10572000ADF8000010208DF8030003208DF8020072
:1057300069467C4801F01EFB00207C49C1F8B80195
:105740004FF48060ADF8000010208DF803000320B6
:105750008DF8020069466B4801F00CFB002074498B
:1057600008604FF48050ADF8000010208DF8030061
:1057700003208DF802006946624801F0FBFA002020
:105780006749C1F8B0014FF48040ADF80000102027
:105790008DF8030003208DF802006946594801F096
:1057A000E9FA00205E49C1F8B8014FF48070ADF805
:1057B000000010208DF8030003208DF802006946D8
:1057C0005C4801F0D7FA00205B49C1F8A0014FF412
:1057D0008060ADF8000010208DF8030003208DF8E4
:1057E00002006946534801F0C5FA00205249C1F849
:1057F000A8014FF48050ADF8000010208DF8030090
:1058000003208DF8020069464A4801F0B3FA0020EF
:105810004949C1F8B0014FF48040ADF800001020B4
:105820008DF8030003208DF802006946414801F01D
:10583000A1FA00204049C1F8B8014020ADF80000AD
:1058400010208DF8030003208DF8020069462F48D0
:1058500001F090FA00202F49C1F898014FF48070B0
:10586000ADF8000010208DF8030003208DF8020031
:105870006946264801F07EFA00202649C1F8A001B9
:105880004FF48070ADF8000010208DF80300032065
:105890008DF8020069461C4801F06CFA00201F498F
:1058A000C1F8A00108BD10B5044644B10021234849
:1058B00002F0B6FE0121214802F01EFC03E00021A7
:1058C0001E4802F019FC10BD7FB505460C460121AB
:1058D000042001F018FDADF80850ADF80440002098
:1058E000ADF80A00ADF8060001A9144802F0A8F8C6
:1058F00001221146114802F01AFC1E2020E000008F
:1059000000023000000C014000080140001001407E
:1059100084012242000022428401214200002142EF
:1059200000802142001801409401234200002342DC
:10593000A88121420014014000802242000800405A
:105940008DF8000000208DF8010001208DF8020084
:105950008DF80300684601F036FF0121F74802F098
:10596000CBFB0121F54802F0A1FE7FBD10B5F4A1EB
:10597000002003F0F9FE0121F04802F086FE002825
:1059800076D00121ED4802F091FEF248007803281C
:105990006FD1F1480278F1A1002003F0E5FEEE4856
:1059A0000078192871DCEC48007819286ED2DFE8FD
:1059B00000F06D0D18242F3B4753616E7985919D42
:1059C000A9B5C1CDD9E4F5F3F2F1F0000120E94920
:1059D0000860642000F04BFF0020E749C1F8840113
:1059E00019E10120E34908310860642000F03FFF1D
:1059F0000020E149C1F88C010DE10120DF49086078
:105A0000642000F034FF0020DD49C1F8840102E188
:105A10000120DA4908310860642000F028FF0020E6
:105A2000D749C1F88C01F6E00120D4491031086053
:105A3000642000F01CFF0020D149C1F89401EAE085
:105A40000120CE4918310860642000F010FF0020CA
:105A5000CB49C1F89C01DEE00120C6491031086045
:105A6000642000F004FF0020C349C1F89401D2E093
:105A7000E7E3E5E00120C3490860642000F0F7FE99
:105A80000020C149C1F88401C5E0CBE0C2E001209B
:105A9000BE490860642000F0EAFE0020BC49C1F85D
:105AA0009401B8E00120B9490C390860642000F085
:105AB000DEFE0020B649C1F88801ACE00120B34900
:105AC0000C310860642000F0D2FE0020B049C1F81B
:105AD000A001A0E00120AD4914310860642000F06D
